:020000040800F2
:100000003845002001010008FB1600081F160008F3
:10001000F916000817080008611A0008000000001F
:100020000000000000000000000000001F17000892
:1000300031080008000000001D1700082117000803
:100040001B0100081B0100081B0100081B01000820
:100050001B0100081B0100081B0100081B01000810
:100060001B0100081B0100081B0100081B01000800
:100070001B0100081B0100081B0100081B010008F0
:1000800019080008250800081B0100081B010008CA
:100090001B0100081B0100081B0100081B010008D0
:1000A0001B0100081B0100081B0100081B010008C0
:1000B0001B0100081B0100081B0100081B010008B0
:1000C0001B0100081B0100081B0100081B010008A0
:1000D0001B0100081B010008551A00081B0100083D
:1000E0001B0100081B0100081B010008DFF80CD0F1
:1000F00000F02EFB0048004701270008384500208B
:100100000648804706480047FEE7FEE7FEE7FEE7B1
:10011000FEE7FEE7FEE7FEE7FEE7FEE775170008ED
:10012000ED000008202A04DB203A21FA02F0002129
:10013000704721FA02F3D040C2F1200291400843F7
:1001400019467047A0F14101192900D820307047A5
:10015000D2B201E000F8012B491EFBD27047002209
:10016000F6E710B513460A4604461946FFF7F0FFB6
:10017000204610BDCAB2401E10F8011F8A4202D0AC
:100180000029F9D100207047421C10F8011B0029FA
:10019000FBD1801A7047034611F8012B00F8012BA0
:1001A000002AF9D11846704730B5054600200346AD
:1001B00000E05B1C934205D2EC5CC85C201A01D1C4
:1001C000002CF6D130BD2DE9FE4F804681EA0300B8
:1001D000C00F0C46009021F0004123F00045B8EB21
:1001E0000200A94105D24046214690461C460B46D6
:1001F000024623F00040104347D0270DC7F30A0002
:10020000C3F30A510290401A019040286BDAC3F3FD
:10021000130040F4801B0098924620B10023D2EBDB
:10022000030A63EB0B0B01985946C0F1400250469C
:1002300000F071F906460D4650465946019A00F005
:1002400079F910EB08006141002487EA115284EA31
:10025000E7731A4340D0009A62B3019A012A4FEA29
:10026000075215DC001B61EB02014FF0004202EA6D
:100270000752CDE90042001C41F5801132462B4661
:1002800000F079F903B0BDE8F08F40462146F9E768
:10029000001B61EB0201001C41F5801300185B415B
:1002A0002018A2F5001747EB030140EAD570B619F4
:1002B0006D4111E06D084FEA360645EAC0754FEA18
:1002C0000752001B61EB0201001C41F58011490837
:1002D0004FEA30000019514132462B4603B0BDE8C9
:1002E000F04F00F039B90098012240000023D0EB14
:1002F000020263EBE073009821464FEAE074B8EB2A
:10030000000061EB0401E9E783F000435BE781F063
:10031000004158E72DE9FE4F81EA030404F0004450
:1003200021F0004100944FF0000B23F0004350EA0D
:1003300001045ED052EA03045BD0C3F30A54C1F354
:100340000A552C44A4F2F3340194A0FB0254C1F3E7
:10035000130141F48011C3F3130343F4801301FB31
:10036000024400FB034E840A970A44EA815447EA98
:100370008357A4FB076802958D0A05FB07854FEAA2
:10038000932C04FB0C542705029D4FEA065847EABC
:100390001637B5EB08056EEB070C870E920E47EA91
:1003A000811742EA8312A7FB0201B6EB0B0164EB53
:1003B00000042B0D43EA0C335E1844EB1C50DA4664
:1003C0005146E7FB0201C5F313044FEA0B3343EA3E
:1003D00014534FEA0432019C43EA0603A4F10C04CF
:1003E0000294009CCDE900B400F0C5F803B0BDE86C
:1003F000F08F00200146F9E70EB5C10F80EAE070EA
:100400000844CA07002140F233438DE80E000A4633
:100410000B4600F0B0F803B000BD70B5C1F30A524E
:1004200001F000450024C1F3130140F2FF3341F411
:1004300080119A4201DA002070BD40F233439A42A3
:10044000A2F2334203DC5242FFF76CFE00E0904020
:100450002C43F1D0404270BD30B5041E71F1000450
:1004600004DB4FF00044404264EB0101141E73F1C1
:10047000000405DB1C464FF00043524263EB0403CB
:10048000994208BF904230BD30B50B46014600206E
:100490002022012409E021FA02F59D4205D303FA46
:1004A00002F5491B04FA02F52844151EA2F10102C7
:1004B000F1DC30BD2DE9F05F0546002092469B46F9
:1004C00088460646814640241BE02846414647466A
:1004D0002246FFF727FE53465A46C01A914110D3D1
:1004E00011461846224600F016F82D1A67EB01084F
:1004F0004F4622460120002100F00DF817EB0009BD
:100500004E41201EA4F10104DFDC484631462A4654
:100510004346BDE8F09F202A04DB203A00FA02F1AE
:10052000002070479140C2F1200320FA03F31943E1
:1005300090407047202A06DBCB17203A41FA02F0A0
:1005400043EAE07306E041FA02F3D040C2F1200230
:10055000914008431946704710B5141E73F100040A
:1005600008DA401C41F1000192185B411A4301D1A5
:1005700020F0010010BD2DE9F04D92469B4611B1CF
:10058000B1FA81F202E0B0FA80F220329046FFF731
:10059000C2FF04460F4640EA0A0041EA0B015346F7
:1005A0005A46084313D0114653EA010019D0C8F146
:1005B00040025046FFF7B6FD05460E4650465946E6
:1005C0004246FFF7A8FF084305D0012004E020467B
:1005D0003946BDE8F08D0020054346EAE0762C431D
:1005E00037430A986305E40AA0EB08000022FD0ADD
:1005F00044EA47540A3002D500200146E9E70105E4
:1006000010196941DDE9084500196941BDE8F04D5F
:10061000A2E72DE9F04D81EA030404F0004B21F03C
:10062000004514464FF0000A23F0004150EA05024D
:1006300020D054EA01021DD0C5F30A570246C5F383
:100640001303C1F31300C1F30A5640F4801543F4B9
:100650008013A7EB0608101BD64608F2FD3873EB93
:10066000050002D308F1010801E092185B41B8F1DE
:10067000000F03DA00200146BDE8F08D00204FF4A2
:100680008011064684460EE0171B73EB050705D361
:10069000121B63EB050306434CEA010C49084FEAC1
:1006A000300092185B4150EA0107EDD152EA030095
:1006B00012D082EA040083EA0501084305D0101B2A
:1006C000AB4106D20122002306E000224FF0004396
:1006D00002E06FF0010253101AEB06004CEB0851D8
:1006E00010EB0A0041EB0B01BDE8F04DFFF734BF02
:1006F00070B521F0004303430CD0C1F30A55002428
:10070000D5EB040564EB0403D617AD1AB34102DB45
:100710000020014670BD201841EB025170BDC1F3AD
:100720000A52C1F3130140F2FF3341F480119A429F
:1007300002DA00200146704740F233439A42A2F2A7
:10074000334202DC5242FFF7EDBCFFF7E4BE00008B
:10075000064C074D06E0E06840F0010394E807000E
:1007600098471034AC42F6D3FFF7C4FCF0370008CA
:10077000103800082DE9F04D00231A461B1A8A4153
:1007800003DB00200146BDE8F08DC1F30A52C1F33E
:10079000130141F480154FF0000BD10702D100186E
:1007A0006D41521E0027044640F2FF11384601EB0E
:1007B000620A3E468046024600204FF48011FFF751
:1007C000B1FCC2197141BB1846EB0100B4EB030C3C
:1007D00075EB000C04D3E41A65EB000517460E46D2
:1007E000241908F101006D4180463428E3DDF91930
:1007F00046EB0600091BA84103D24FF0FF32134617
:1008000001E0002213461BEB070046EB0A51BDE84E
:10081000F04DFFF7A1BEFEE7014800F057B8000019
:10082000AC180020014800F051B80000F01800207A
:100830007047704710B590F821100024022903D0AA
:100840000421816301243DE001680A6822F00E0260
:100850000A6001680A6822F001020A601A4A016807
:10086000914201D1012121E0174A1432914201D174
:1008700010211BE0144A2832914201D1891515E05C
:10088000114A3C32914201D189140FE00E4A503294
:10089000914202D14FF4803108E00B4A6432914218
:1008A00002D14FF4801101E04FF08071064A083AFE
:1008B0005160012180F82110002180F82010416B47
:1008C00001B18847204610BD080002402DE9F05FC5
:1008D000C16B0C6801680B68D0F840C0042202FAB2
:1008E0000CF2494DDFF824A1494E4A4FDFF828B1F8
:1008F000DFF828E122422CD05A072AD50A6892064E
:1009000003D40A6822F004020A600168A94201D1F6
:10091000042219E0514501D1402215E0B14202D133
:100920004FF4806210E0B94202D14FF480420BE0F4
:10093000594502D14FF4802206E0714502D14FF4AF
:10094000800201E04FF080622F4908394A60C16A95
:100950003BE04FF0020808FA0CF818EA040F4FF0D9
:1009600000094FF0010235D05FEA837832D50B6879
:100970009B0605D40B6823F00A030B6080F8212046
:100980000168A94201D1022219E0514501D120227A
:1009900015E0B14202D14FF4007210E0B94202D129
:1009A0004FF400520BE0594502D14FF4003206E0FB
:1009B000714502D14FF4001201E04FF0007212496C
:1009C00008394A6080F82090816A00291AD0BDE871
:1009D000F05F0847082505FA0CF5254212D01B07E1
:1009E00010D50B6823F00E030B6090F84010C36B1A
:1009F00002FA01F15960826380F8212080F820908A
:100A0000016BE2E7BDE8F09F080002401C000240D5
:100A10003000024044000240580002406C00024096
:100A200030B528B308C8134914221944B1FBF2F1B8
:100A30008900C16310498163022141771A6843F636
:100A4000F0718A43D0E900142143D0E902452C43D8
:100A500021430469214344692143846921431143AB
:100A6000196000214163012242770177084630BDB9
:100A7000012030BDF8FFFDBF000002402DE9F84F16
:100A8000DFF890A100220AF1040B144601274FF071
:100A90000F090BF1040E00BF0B6807FA04F52B4099
:100AA000AB4274D1DFF870C14E68A6EB0C08664506
:100AB0002BD00DDC032E34D005DC36B3012E19D03B
:100AC000022E2FD11BE0112E16D0122E2AD119E0A2
:100AD000B8F5881F19D006DCB8F5803F15D0B8F5F9
:100AE000801F1FD111E0B8F5001F0ED0B8F5041F0C
:100AF00018D10AE0CA6815E0CA68121D12E0CA6877
:100B000008320FE0CA680C320CE08A682AB1012A68
:100B10004FF0080203D0456104E0042202E00561C1
:100B200000E00022FF2B01D8064601E000F1040698
:100B30004FEA840501D9A5F12005D6F800C009FACD
:100B400005F82CEA080C02FA05F54CEA050CC6F883
:100B500000C04D68ED0057D5304DAE6946F0010636
:100B6000AE61AD6924F0030605F0010500952C4D3A
:100B700006EB050CDCF80850A6074FEA167809FAD0
:100B800008F6B543274EB04202D1002610E03BE004
:100B9000254EB04201D101260AE0244EB04201D1D7
:100BA000022605E0224EB04201D1032600E00426D1
:100BB00006FA08F62E43CCF808604D68DAF80060B3
:100BC000ED03554601D51E4300E09E432E604D685F
:100BD000DBF80060AD035D4601D51E4300E09E4397
:100BE0002E604D68DEF80060ED02754601D51E43AB
:100BF00000E09E432E604D68AD020E4D2E6801D57B
:100C00001E4300E09E432E60641C102CFFF444AF92
:100C1000BDE8F88F000401400000111000100240F0
:100C20000000014000080140000C0140001001409C
:100C3000001401400C040140014880687047000026
:100C40000C000020024881680278114481607047DE
:100C50000C000020074810B5016841F01001016048
:100C6000032000F073F8002000F006F800F024F8EC
:100C7000002010BD0020024070B50D4D04464FF419
:100C80007A712878B1FBF0F00A490968B1FBF0F0FD
:100C900000F0FCFA48B9102C07D200222146501E61
:100CA00000F034F800206C6070BD012070BD0000C1
:100CB0000C000020180000200C4808B5816941F0A4
:100CC00001018161816901F001010091C16941F077
:100CD0008051C161C06900F08050009004484168B3
:100CE00021F0E06141F00071416008BD0010024058
:100CF0000000014000F01F020121914040098000E6
:100D000000F1E020C0F8001170470000F0B40E4B75
:100D10001B680C46C3F30223C3F10705042D00D959
:100D20000425191D072901D2002300E0DB1E01263E
:100D300006FA05F1491E214099409E40761E164054
:100D40003143F0BC00F0DABC0CED00E0064900F0E5
:100D5000070208684FF6FF03184040EA0220034AE2
:100D600010430860704700000CED00E00000FA0539
:100D70002DE9F047DFF8548105460E46D8F800000B
:100D800000F00700B0420CD2D8F8001021F00701A3
:100D90003143C8F80010D8F8000000F00700B04256
:100DA0006FD128684A4C810712D5400703D5606887
:100DB00040F4E06060602878000703D5606840F484
:100DC000605060606068A96820F0F00008436060CF
:100DD0002878C00744D06868012816D02168022806
:100DE00016D0890700294CDA616821F0030101431C
:100DF0006160FFF721FF6968074641F288300129E9
:100E00000ED00229814618D026E021688903E9E73F
:100E10008901E7E7FFF710FFC11B494501D918E039
:100E200081466068C0F381000128F3D118E000BF5B
:100E3000FFF702FFC11B49450BD86068C0F3810072
:100E40000228F5D10CE000BFFFF7F6FEC11B4945B3
:100E500002D90320BDE8F087606810F00C0FF3D1D1
:100E6000D8F80010404601F00701B1420BD90168E3
:100E700021F0070131430160006800F00700B04233
:100E800001D00120E6E72878400705D56068E968C9
:100E900020F4E060084360602878000706D56068A9
:100EA000296920F4605040EAC100606000F036F823
:100EB0006168084AC1F30311515CC84006490860E3
:100EC0000020FFF7D9FE0020C4E700000020024008
:100ED000001002404337000818000020044805496C
:100EE00000684968044AC1F30221515CC840704758
:100EF000180000200010024053370008044805493C
:100F000000684968044AC1F3C221515CC840704777
:100F100018000020001002405337000812A185B0CD
:100F20000FC98DE80F0014A0144A0068049051689E
:100F3000134801F00C03042B10D0082B0ED1C1F381
:100F40008343C9031DF803000AD5516804AAC1F3FD
:100F50004041515C0A4A5043B0FBF1F005B0704784
:100F600008494843FAE70000020304050607080998
:100F70000A0B0C0D0E0F10100102000000100240B1
:100F800000127A0000093D002DE9F84F0446007870
:100F9000B94DC00748D06868C0F38100012807D068
:100FA0006868C0F38100022809D16868C00306D5CB
:100FB0002868800338D5606800286FD034E0606806
:100FC000B0F5803F0BD010B1B0F5A02F11D028683C
:100FD00020F480302860286820F4802002E028680F
:100FE00040F480302860606888B1FFF725FE06462F
:100FF00009E0286840F480202860F0E7FFF71CFE35
:10100000801B642875D828688003F7D50CE0FFF7AB
:1010100013FE064605E000BFFFF70EFE801B6428A6
:10102000F0D828688003F7D42078944E80074FF0DA
:1010300001094FF000083BD5686810F00C0F07D08D
:101040006868C0F38100022809D16868C00306D42B
:101050002868800714D5206901281FD110E0206975
:10106000B0B1C6F80090FFF7E7FD074605E000BF06
:10107000FFF7E2FDC01B0228C4D828688007F7D517
:101080002868616920F0F80040EAC10028600FE09C
:10109000C6F80080FFF7D0FD074606E0E9E000BF94
:1010A000FFF7CAFDC01B022823D828688007F7D4A1
:1010B000207800072CD57248A169D9B1C0F80090FA
:1010C000FFF7BAFD074604E0FFF7B6FDC01B022894
:1010D0000FD8686A8007F7D56A484FF4FA5100685C
:1010E000B0FBF1F0009000BF0098411E0091FAD2D1
:1010F0000EE080E0C0F80080FFF79EFD074604E0A8
:10110000FFF79AFDC01B022875D8686A8007F7D4DC
:101110002078400760D5E8690027C00008D4E86956
:1011200040F08050E861E869012700F080500090AD
:1011300055480168C90513D40168834641F480719C
:101140000160FFF779FD824606E000BFFFF774FDFE
:10115000A0EB0A0064284ED8DBF80000C005F5D5E6
:10116000E06801280AD008B1052813D0286A20F0C9
:1011700001002862286A20F0040002E0286A40F09A
:1011800001002862E06841F2883B98B1FFF754FD06
:1011900082460BE0286A40F004002862EEE700BFB8
:1011A000FFF74AFDA0EB0A0159455AD8286A800783
:1011B000F6D50CE0FFF740FD824605E0FFF73CFD69
:1011C000A0EB0A0159454CD8286A8007F6D41FB114
:1011D000E86920F08050E861E06988B36968C1F38C
:1011E0008101022945D00228C6F8608004D0FFF7AB
:1011F00023FD044638E034E0FFF71EFD074604E017
:10120000FFF71AFDC01B02282BD828688001F7D4ED
:10121000206AB0F5803F05D16868A16820F40030ED
:1012200008436860D4E908010843696821F474112F
:1012300008436860C6F86090FFF7FEFC044606E0CD
:1012400015E000BFFFF7F8FC001B022809D828684A
:101250008001F7D50BE000BFFFF7EEFC001B022872
:1012600002D90320BDE8F88F28688001F4D400205B
:10127000F8E70120F6E700000010024000004242BB
:1012800080044242180000200070004010B5401E4B
:10129000B0F1807F01D3012010BD4FF0E0246061E8
:1012A0000F21601700F02AFA0020A06107202061BA
:1012B000002010BD7047000070B502680446106839
:1012C000D168536910F00F0F51D003F0010501F4FC
:1012D000907635435DD0C20705D0CA0503D5E26BD1
:1012E00042F00102E263420705D5DA0703D0E26B60
:1012F00042F00202E263820705D5DA0703D0E26B0F
:1013000042F00402E263020705D5DA0703D0E26B7C
:1013100042F00802E263E26B002A34D0800604D572
:10132000880602D5204600F05FFA20684069E16B2C
:10133000C0F3801001F008010143204624D000F0E2
:1013400045FA2068416949061AD5416921F04001F2
:101350004161606BA0B11B494163606BFFF76AFAA2
:10136000002810D0606B416BBDE8704008478306D1
:101370000FD58B060DD52046BDE8704000F034BA7D
:101380002046FFF797FF70BDFFF794FF0020E06352
:1013900070BD030606D50B0604D52046BDE8704097
:1013A00000F026BB4006F3D54806F1D5D1682046AB
:1013B00021F04001D160202184F8391000F02EF98D
:1013C00070BD0000BD17000870B5040004D094F88B
:1013D0003900002510B106E0012070BD84F83850B6
:1013E000204600F023F8242084F839002068C168E2
:1013F00021F40051C160204600F042FA20680169E2
:1014000021F4904101612068416921F02A01416184
:101410002068C16841F40051C160E563202084F870
:10142000390084F83A00002070BD0000F0B585B0A6
:101430000024009401940294039406463E4F0368EE
:101440003E48022103223E4DBB4221D1836943F431
:1014500080438361836903F480430493836943F089
:10146000040383618069039200F004000490080281
:10147000CDE9000169462846FFF700FB2815CDE9B4
:101480000004694628460294FFF7F8FA05B0F0BD5B
:101490002C4FBB42FAD1C36943F40033C361C36923
:1014A00003F400330493836943F004038361806988
:1014B000039200F0040004900420CDE90001694685
:1014C0002846FFF7DBFA0820CDE9000469462846E4
:1014D0000294FFF7D3FA1D4D1B488027C5E900048D
:1014E000C5E902472C616C61AC612846EC61FFF7ED
:1014F00097FA08B1FFF79DF975636E62134D1248B4
:101500004435143001C5102091C5104845F81049E4
:1015100044306C61AC61EC61FFF782FA08B1FFF70F
:1015200088F935630022114626206E62FFF7EEFB34
:101530002620FFF7DFFBA9E700380140001002403A
:1015400000080140004400406C000240AC1800203C
:1015500090F83A30202B22D1F9B1F2B190F838301E
:10156000012B1CD081628285C2850021C1632222A9
:1015700080F83A2080F838100168CA6842F4807216
:10158000CA6001684A6942F001024A610068C168A4
:1015900041F02001C1600020704701207047022007
:1015A0007047000010B500681449884224D114A087
:1015B00000F058FA7B211448FEF7DCFD0146134881
:1015C000FEF7E9FD114800F0EDFF11A000F04AFA26
:1015D0004FF480510C48FEF7C2FD4FF400610B48F8
:1015E000FEF7BDFD0848FEF7CFFD82B2BDE8104012
:1015F00005490948FFF7ACBF10BD0000004400409A
:1016000075736172740D0A002C0000202C100020EC
:10161000776F726C640D0A006C1800207047FEE74B
:101620000D4808B5416941F001014161406900225E
:1016300000F00100009011461020FFF767FB10201A
:10164000FFF758FB002211461120FFF75FFBBDE8B2
:1016500008401120FFF74EBB00100240094808B5B2
:10166000816941F020018161816901F020010091CF
:10167000816941F004018161806900F004000090FB
:1016800008BD0000001002400C4810B50A49016076
:101690004FF4E1314160002181600C22C160C0E95A
:1016A00004128161C161FFF78FFE002803D0BDE8FD
:1016B0001040FFF7BEB810BD003801402C180020C4
:1016C0000C4810B50A4901604FF4E1314160002136
:1016D00081600C22C160C0E904128161C161FFF721
:1016E00073FE002803D0BDE81040FFF7A2B810BD7C
:1016F000004400406C180020FEE770470907090EFF
:10170000002806DA00F00F0000F1E02080F8141D38
:10171000704700F1E02080F8001470477047704770
:10172000FFF790BA30B58FB028216846FEF717FD55
:1017300014210AA8FEF713FD01210804CDE90010C9
:101740000024029402250491CDE907504FF4E010E3
:1017500009906846FFF718FC0F20CDE90A056802DA
:10176000CDE90C4002210AA80E94FFF701FB0FB04F
:1017700030BD00000D48016841F001010160416881
:101780000B4A1140416001680A4A1140016001683A
:1017900021F480210160416821F4FE0141604FF491
:1017A0001F0181600449C0030860704700100240B7
:1017B0000000FFF8FFFFF6FE08ED00E010B5406AFC
:1017C0000021C185C184FFF775FD10BD0168CA689D
:1017D00022F49072CA6001684A6922F001024A61EB
:1017E000202180F83A10704710B590F83A1022295D
:1017F00001D0022010BD8168B1F5805F11D0016970
:10180000002901681FD0496801F07F03816A4A1CE2
:1018100082620B70C18D491E0904090CC18518D064
:101820002BE00269816A002A0268526805D0D2B2B0
:101830000A80816A491C8162ECE7C2F308020A80CF
:10184000816A891CF7E74A68816A4B1C83620A70C7
:10185000E0E70168CA6822F02002CA600168CA682D
:1018600022F48072CA6001684A6922F001024A616A
:10187000202180F83A10FFF795FE002010BD0000EF
:101880002DE9F041044600680169E26821F4405105
:10189000114301612169A068084361690843216817
:1018A000CA6841F20C639A430243CA6020684169E6
:1018B000A26921F44071114341614C4920686425BB
:1018C000322688423CD1FFF719FB00EBC00101EB47
:1018D000001061688900B0FBF1F7FFF70FFB00EB28
:1018E000C00101EB00106168B0468900B0FBF1F067
:1018F000B0FBF5F06FF01801484307EB800106EBF1
:101900000110B0FBF5F000F0F006FFF7F7FA00EB7E
:10191000C00101EB001061688900B0FBF1F0B0FB81
:10192000F5F006EB0016FFF7E9FA00EBC00101EB5A
:10193000001061688900B0FBF1F7FFF7DFFA3BE0C8
:10194000FFF7CCFA00EBC00101EB001061688900E1
:10195000B0FBF1F7FFF7C2FA00EBC00101EB00109A
:101960006168B0468900B0FBF1F0B0FBF5F06FF0B4
:101970001801484307EB800106EB0110B0FBF5F0BE
:1019800000F0F006FFF7AAFA00EBC00101EB00102F
:1019900061688900B0FBF1F0B0FBF5F006EB0016D2
:1019A000FFF79CFA00EBC00101EB001061688900B1
:1019B000B0FBF1F7FFF792FA00EBC00101EB00106A
:1019C00061688900B0FBF1F0B0FBF5F06FF0180131
:1019D000484307EB800108EB0110B0FBF5F02168EC
:1019E00000F00F0030448860BDE8F081003801400D
:1019F00090F83910212901D0022070478168B1F593
:101A0000805F016A0BD04A1C02620268097851604B
:101A1000C18C491E0904090CC1840ED017E0098845
:101A20000268C1F30801516001690029016A02D00E
:101A3000491C0162ECE7891CFBE70168CA6822F0D7
:101A40008002CA600068C16841F04001C1600020A6
:101A5000704700000148FFF72FBC00006C18002001
:101A6000FEE700000FB4054B10B503A9044A029825
:101A700000F05AF910BC5DF814FB00009D26000828
:101A80001C000020490050EAC12018BF04204A0D64
:101A900018BF40F0010040F2FF72B2EB515F08BF87
:101AA00040F00200012808BF052070472DE9F041F1
:101AB0004F1E00EBC7010446D1E9000115461E4642
:101AC00037F006020DD02A463346FEF723FC7F1E70
:101AD00004EBC703D3E90023FEF775FB37F00602DA
:101AE000F1D1022F25D0042F13D0062F18BFBDE847
:101AF000F0812A463346FEF70DFCD4E90A23FEF7AF
:101B000062FB2A463346FEF705FCD4E90823FEF7BC
:101B10005AFB2A463346FEF7FDFBD4E90623FEF7BF
:101B200052FB2A463346FEF7F5FBD4E90423FEF7C1
:101B30004AFB2A463346FEF7EDFBD4E90223FEF7C3
:101B400042FB2A463346FEF7E5FBD4E90023BDE815
:101B5000F041FEF738BB0000002213461046014951
:101B6000FEF757BD0000F03FFEF72DBB00221346E5
:101B700010461146FEF74DBD40F2013200204FF0F5
:101B8000E041FEF7B5BD0000024A00201107FEF754
:101B9000AFBD000001FDFFFF02E008C8121F08C131
:101BA000002AFAD170477047002001E001C1121FDE
:101BB000002AFBD17047000001490860704700000F
:101BC000280000202DE9FF5FDDE90220010DDDF88E
:101BD00038B0024318D044F61050A1F2FF3141430F
:101BE0000D140F98012820D0A5EB0B00401C5FEAD4
:101BF000000A4FF00004474EDFF81C91A046504603
:101C000016D5CAF1000728E00F98012443A2012845
:101C100008D0002100980F9BC0E90021C0E90243D1
:101C2000BDE8FF9F6FEA0B01F4E7CBF10000DEE7B0
:101C3000074612E0F80707D0224633464046494699
:101C4000FEF768FB80468946224633461046194611
:101C5000FEF760FB04460E467F10002FEAD1DDE957
:101C60000201BAF1000F42464B4602DAFEF752FB80
:101C700001E0FEF7CEFC04460E460022284BFEF79C
:101C8000EBFB03D84FF0FF30014607E00022254B65
:101C900020463146FEF797FAFEF741FD102409E091
:101CA000002C0ADB0A220023FEF704FC019B3032E1
:101CB0001A55641E50EA0102F2D1641C019AC4F163
:101CC000110314440F9A012A03D0012208430DD1B5
:101CD0000AE0084304D000204FF0110B0F9080E77A
:101CE000A3EB0B056D1E0DE05B4504DD4FF000021C
:101CF00005F1010504E003DA4FF00002A5F101054A
:101D0000002AECD000980F99C0E90231C0E90045E3
:101D100086E70000000024400000F03F3000000093
:101D20000000F0430000E03F2DE9FF4F95B09B46D7
:101D30008946064600250FE2252877D1002427464C
:101D4000F84A0121059400E0044316F8013F203BC6
:101D500001FA03F01042F7D130782A2811D06FF041
:101D60002F033078A0F13002092A16D8059A44F0E2
:101D7000020402EB820203EB42021044761C05903F
:101D8000EFE759F8042B0592002A03DA504244F495
:101D90000054059044F00204761C30782E2816D1A9
:101DA00016F8010F44F004042A280DD06FF02F021A
:101DB0003078A0F13003092B09D807EB870302EB39
:101DC0004303C718761CF3E759F8047B761C307878
:101DD0006C280FD006DC4C2817D068280DD06A2854
:101DE00014D104E0742810D07A280FD10DE044F407
:101DF00000140AE044F4801401E044F440147278C2
:101E0000824202D104F58014761C761C3078662854
:101E10000BD013DC582877D009DC002875D0452872
:101E2000F6D04628F4D047281AD19DE118E063285F
:101E300035D0642879D0652812D195E1702873D007
:101E400008DC6728F1D069286FD06E280DD06F2884
:101E500006D1B5E073282CD0752875D0782874D0B9
:101E60005A46179990476D1C75E1C4F30250022839
:101E700009D003280DD0D9F8001004280DD00D602A
:101E800009F1040967E1D9F80010EA17C1E9005225
:101E9000F6E7D9F800100D80F2E70D70F0E719F8B9
:101EA000041B8DF8001000208DF80100EA46012087
:101EB00003E059F804AB4FF0FF3061074FF0000129
:101EC00002D40DE008F101018846B9420FDA8045DD
:101ED000F8DB1AF808100029F4D108E008F1010134
:101EE00088468142FADB1AF808100029F6D10598D5
:101EF0005B46A0EB080721463846179A00F094FA93
:101F0000284400EB080507E04DE029E10DE01AF850
:101F1000010B5A4617999047B8F10108F7D25B4672
:101F200021463846179A13E142E00A220092C4F390
:101F300002524FF0000A022A08D059F804CB032AB3
:101F40004FEAEC710AD00DE029E02AE009F107011F
:101F500021F00702F2E802C1914609E00FFA8CFC79
:101F60004FEAEC71042A03D14FFA8CFC4FEAEC7172
:101F7000002907DA0A460021DCF1000C61EB0201BE
:101F80002D2202E0220504D52B228DF80420012207
:101F900003E0E20701D02022F7E7904659E00A214A
:101FA00002E010220DE010214FF0000A00910BE03A
:101FB00010224FF0000A44F004040827009203E0C6
:101FC00008224FF0000A0092C4F30252022A05D000
:101FD00059F804CB0021032A08D009E009F10701D0
:101FE00021F00702F2E802C1914605E01FFA8CFCDD
:101FF000042A01D10CF0FF0C4FF00008220728D56D
:10200000702806D0009B83F0100353EA0A0305D022
:102010000EE040228DF80420012208E05CEA010273
:1020200006D030228DF804208DF80500022290465B
:10203000009B83F0080353EA0A030AD15CEA010219
:1020400001D1620705D530228DF804204FF0010838
:102050007F1E582804D034A003900EA802900DE0F3
:1020600036A0F9E753466046009AFEF723FA844605
:102070000398825C0298401E029002705CEA0100A4
:10208000F0D1029806A9081A00F1200A600702D5CB
:1020900024F4803400E00127574502DDA7EB0A0055
:1020A00000E0002000EB0A01009005984144401A2E
:1020B0000590E00306D45B462146179A059800F088
:1020C000B3F90544002706E001A85A46C05D1799F8
:1020D00090476D1C7F1C4745F6DBE0030CD55B4643
:1020E0002146179A059800F09FF9054404E0302036
:1020F0005A46179990476D1C0099481E0090002978
:10210000F5DC08E0029802995A460078491C0291D1
:10211000179990476D1CBAF10001AAF1010AF1DC90
:1021200065E100000928010030313233343536379B
:102130003839616263646566000000003031323313
:1021400034353637383941424344454600000000B3
:1021500000F058F90544761C307800287FF4ECAD87
:1021600019B02846BDE8F08F620700D4062709F1B0
:10217000070222F0070CFCE80223E14603F00048C6
:102180005FEA080C02D00FF2702C0DE05FEA045CED
:1021900002D50FF2682C07E05FEAC47C02D00FF290
:1021A000602C01E0AFF2700C4FF0FF3823F00043D9
:1021B000CDF850C065280CD006DC452809D046284B
:1021C0001DD047283DD13DE0662818D067287ED134
:1021D00038E00021112F01DB112000E0781CCDE94F
:1021E000000106A90EA8FFF7EDFCDDE90F010E9A2C
:1021F00003910021009207F1010A04914DE04FF094
:1022000000400097CDE9011006A90EA8FFF7DAFCFF
:10221000DDE90F0203920E9B11990022DDF80CA05C
:102220000093049211B9791C00EB010AB7EB0A0084
:1022300004D4C0F1FF3007F1010A0490AAEB0700B3
:10224000019044E0012F00DA01270021112F01DD68
:10225000112000E03846CDE9000106A90EA8FFF7DD
:10226000B1FCDDE90F010E9A039100210491009267
:10227000BA4621070CD40399514500DA8A46BAF1CF
:10228000010F05DD009AAAF10101515C302908D047
:10229000B84202DA10F1040F06DA0121CDE901108B
:1022A00015E0AAF10101E9E7002805DC04990144E1
:1022B0000491AAEB000102E0411C514500DD8A4671
:1022C0000499401A401C01904FF0004002902007F2
:1022D00004D40198504501DBCDF8048000208DF82E
:1022E0004F0002980DF14F07B0F1004F25D02B2081
:1022F0000E9002984FF0020800280CDA404202903B
:102300002D200E9007E00A210298FEF7BDF830312B
:10231000029007F8011DB8F10001A8F10108F2DCF4
:1023200002980028EFD1791E0E980870307800F0DE
:10233000200040F0450007F8020D12A8C01B00F174
:1023400007081498007800B1012000EB0A010198F9
:1023500001EBE07105984144401A401E0590E003EE
:1023600006D45B462146179A059800F05DF80544AF
:102370001498007818B15A46179990476D1CE003DD
:1023800024D55B462146179A059800F04DF8054480
:102390001CE00498002807DBDDE90301884203DD27
:1023A0000098405C179901E0179930205A469047F1
:1023B000049805F10105401C04900198401E01900D
:1023C00004D12E205A46179990476D1CBAF100018E
:1023D000AAF1010ADDDC05E017F8010B5A4617994E
:1023E00090476D1CB8F10001A8F10108F4DC5B46D0
:1023F0002146179A0598ABE62D0000002B0000003F
:10240000200000002DE9F041044600251E46174635
:10241000880404D405E039462020B0476D1C641EB2
:10242000F9D52846BDE8F0812DE9F04104460025A4
:102430001E469046C80301D5302700E020278804B7
:1024400004D505E041463846B0476D1C641EF9D5F9
:102450002846BDE8F081000070B504460F4E19E033
:10246000A0892568C0050AD4A06820B1FFF7F4FF51
:10247000A089C00503D4206908B171688847A08984
:10248000800503D4206A08B17168884771682046C6
:1024900088472C46002CE3D170BD000000000020CE
:1024A000806801E00068491E002801D00029F9DC9D
:1024B000704700000148806870470000000000205D
:1024C00070B50D46846800E024682CB12946206A66
:1024D00000F046F80028F7D1204670BD054910B538
:1024E000096828208847040002D02821FDF737FE1C
:1024F000204610BD0000002000221146AFF30080EE
:102500002DE9F04190460E460446FFF7E7FF134FD2
:1025100005004FF00000B86015D0204601F0DEF84D
:102520000146284600F094FB04000FD0B8F1000FDC
:1025300010D0204601F0D2F80446007850B1284669
:10254000FFF78AFFBC600020BDE8F0812846FFF756
:1025500083FFF8E706B134602846F5E70000002065
:1025600070B505000C4601D00CB108E009B101209E
:1025700070BD002070BD0028FCD0641C6D1C287844
:10258000FDF7E0FD06462078FDF7DCFD8642287861
:10259000F1D0FDF7D7FD05462078FDF7D3FD281AC9
:1025A00070BD00002DE9F041FFF7A6FF050032D015
:1025B0001DA0FFF757FA1FA12846FFF781FF8046AD
:1025C0000021FFF76DFF060014D01CA1FFF778FF74
:1025D00007461DA1FFF774FF04691DA02146FFF700
:1025E00041FA3846FFF738FF204600F061F81DA099
:1025F000FFF738FA1EA0FFF735FA4046FFF72CFF29
:102600003046FFF729FF2846FFF726FFBDE8F041D7
:102610001AA0FFF727BAFFF74DFFBDE8F0410146CA
:1026200019A0FFF71FBA000068656C6C6F310D0AC6
:1026300000000000726573756C7473006C6F6361E9
:1026400074696F6E000000006E616D65000000002F
:102650006C6F636174696F6E4E616D65203D2025FE
:10266000730D0A0068656C6C6F320D0A0000000083
:1026700068656C6C6F330D0A0000000068656C6C57
:102680006F340D0A000000004572726F722062659F
:10269000666F72653A205B25735D0A0003490A681C
:1026A0001206FCD50149091D086070470038014039
:1026B00010B5002821D0114B0022001F196803E03B
:1026C000814203D80A4649680029F9D152B11368FA
:1026D000841A9C4204D1006818441060104602E03D
:1026E000506000E0186039B102680B1A934203D1C0
:1026F0000B681A4402604968416010BD2000002048
:10270000FEF7A8FAFFF70EF8FEF7A8FFFEF788FF1E
:10271000FEF7BAFFFEF7D4FF0448FDF735FD82B29D
:1027200002490348FEF714FFF6E700002C000020E2
:102730006C180020F0B50B30154D20F00701002477
:10274000144A0FE003688B420BD38B4205D95E1A03
:1027500043184768C3E9006700E04368136002C09C
:1027600004E0021D10680028ECD12046002802D1A8
:10277000286808B10020F0BD064A07481060074AE3
:10278000121A22F00702C0E9002401202860D7E7CE
:1027900024000020200000203C19002038410020A7
:1027A0002DE9F041044608781A4E5B2801D0B1604B
:1027B0002BE00520E060481C00F090FF0746007801
:1027C0005D2806D0FFF78AFE051EA06002D03846BD
:1027D0000AE0781CBDE8F081FFF780FE0028F9D000
:1027E000286045600546601C00F078FF01462846D9
:1027F00000F02EFA00F072FF040006D020782C289A
:10280000EAD020785D2802D0B4600020E2E7601CA6
:10281000E0E70000000000200178A1F13002092A61
:1028200001D811460AE0A1F14102052A01D8373941
:1028300004E0A1F16102052A3FD857390A0110F8D6
:10284000011FA1F13003092B01D8303A0AE0A1F1B0
:102850004103052B01D8373A04E0A1F16103052BB0
:102860002BD8573A11440A0110F8011FA1F1300387
:10287000092B01D8303A0AE0A1F14103052B01D818
:10288000373A04E0A1F16103052B16D8573A1144F9
:1028900040780901A0F13002092A01D8303904E05A
:1028A000A0F14102052A02D8373908447047A0F147
:1028B0006102052A01D85739F7E700207047000068
:1028C0002DE9F34F002583B00C4650490120CDE996
:1028D0000051029020782E462F46A846A9462D2862
:1028E00004D100204A49641CCDE900012078302839
:1028F00000D1641C20783138082816D814F8010B50
:102900003038FDF779FD82468B460022414B284640
:102910003146FDF7FFFC52465B46FDF754FC054689
:1029200020780E4630380928E8D920782E2824D17E
:102930006078302841D339283FD8641C14F8010B43
:102940003038FDF759FD82468B460022314B284630
:102950003146FDF7DFFC52465B46FDF734FC054689
:102960000E460022294B38464146FDF7CDFC07466E
:102970002078884630380928E0D92078652801D0A9
:1029800045281AD114F8010F2B2802D02D2810D079
:1029900000E0641C6FF02F012078A0F13002092ABA
:1029A0000BD809EB890201EB420200EB0209641C1F
:1029B000F2E74FF0FF300290EBE7029909FB01F0DC
:1029C000FDF71AFD3A464346FDF7FDFB02460B466E
:1029D0000020104900F096F907468846DDE900011D
:1029E0002A463346FDF796FC3A464346FDF792FCED
:1029F000039AC2E90601FDF710FD039948610398A7
:102A00000321C16005B02046BDE8F08F0000F03F13
:102A10000000F0BF000024402DE9F0410546087891
:102A20002A4E7B2801D0B16033E00620E860481CC4
:102A300000F054FE074600787D2813D0FFF74EFDC6
:102A4000041EA8600FD0384600F048FE014620461C
:102A500000F03EF800F042FE002804D02169002773
:102A600021622CE0781CBDE8F081B06011E0401CD0
:102A700000F034FE0146204600F0EAF800F02EFE99
:102A8000051EF0D028782C2805D028787D281BD06A
:102A9000B5600020E7E7FFF721FD0028E3D02060C4
:102AA00044600446681C00F019FE0146204600F010
:102AB0000FF800F013FE0028D5D0216921622761AC
:102AC00001783A29D3D0D0E7681CCCE70000002079
:102AD0002DE9F0470C460646481C227800215A4B47
:102AE000222A07D000209C60BDE8F087401C5C2AA9
:102AF00000D1401C0278222A02D00AB1491CF5D12B
:102B0000481C19688847051EEED0601C2C464FF4FF
:102B1000806788E05C2903D004F8011B401C82E038
:102B200000F101084078722814D006DC622809D030
:102B3000662809D06E2808D10AE074280CD07528C0
:102B400003D10BE0082000E00C2004F8010B68E042
:102B50000A20FAE70D20F8E70920F6E708F101005E
:102B6000FFF75AFE8146A0F55C4008F10408B84220
:102B700057D3B9F1000F54D0A9F55840B84217D235
:102B800098F801005C284CD198F80200752848D1CB
:102B900008F10300FFF740FEA0F55C4108F10608CC
:102BA000B9423ED2C9F3090161F39F2000F5803993
:102BB0000420B9F1800F02D20120641C2AE0B9F58B
:102BC000006F02D20220A41C06E0B9F5803F02D2B9
:102BD0000320E41C0EE0241D022813D0032809D092
:102BE00004281DD109F0BF0141F0800104F8011D46
:102BF0004FEA991909F0BF0141F0800104F8011D65
:102C00004FEA991909F0BF0141F0800104F8011D54
:102C10004FEA99190D49095C41EA090104F8011DBF
:102C2000044408F101000178222902D000297FF430
:102C300071AF002121700178222900D1401C0421AC
:102C4000C6E9031550E70000000000203C370008EB
:102C500070B50C00054620D0042223A12046FDF7C4
:102C6000A3FAE0B1052222A12046FDF79DFAC8B1E2
:102C7000042221A12046FDF797FAB8B12078222836
:102C800019D02D2803D0A0F13001092919D82146E7
:102C90002846BDE87040FFF713BE002070BD02203B
:102CA000E86006E00020E860601D70BD0120E8607B
:102CB0006861201D70BD21462846BDE87040FFF7C1
:102CC00007BF5B2804D07B2808D00D488460E4E768
:102CD00021462846BDE87040FFF762BD21462846E0
:102CE000BDE87040FFF798BE6E756C6C0000000088
:102CF00066616C7365000000747275650000000009
:102D0000000000202DE9F04D1D460C4698B01746F6
:102D100021F0004123F00043002814BF4FF0010CC4
:102D20004FF0000C0CEB440CFE4A0CEB02064FEA91
:102D3000620C66452BD33E0018BF012606EB450604
:102D40001644F94A964222D3F84A53EA070C02D0B5
:102D5000944205D148B918B000201146BDE8F08D65
:102D6000002808BF4FF0000C01D04FF0010C0CEB15
:102D7000440212F5001F0AD8002F14BF4FF0010CB7
:102D80004FF0000C0CEB450212F5001F07D918B0EC
:102D90003A462B462146BDE8F04DFEF7E5BE00223F
:102DA000DFF88CA3002CB8BF534526DADFF884C3C4
:102DB0006345A8BF022220DADFF870C39C451CDC03
:102DC000DFF874C30CEB235CBCF1140F08DDCCF10D
:102DD000340627FA06FC0CFA06F6BE420DD108E0CE
:102DE0005FB9CCF1140623FA06FC0CFA06F69E42F3
:102DF00003D10CF00102C2F1020251EA000C19D118
:102E0000002D17DA002C18BF022A01D0012A07D0A2
:102E10000220FEF7D1FE18B0BDE8F04DFEF79CBED3
:102E20000220FEF7C9FEFEF797FE18B081F00041C0
:102E3000BDE8F08DB7F1000C6CD1534525D104F1FC
:102E4000804212F5801201BF00280020B74918B057
:102E500008BFBDE8F08DB548884207DC002DA1BF52
:102E60006046294618B0BDE8F08D07E0281E05DA57
:102E700080F0004118B06046BDE8F08DAF4979445C
:102E8000D1E9000118B0BDE8F08DDFF8A0C26345BC
:102E900025D1002D1FDA19B1514512D1D8B909E059
:102EA000002840F0EC82A24A214618B062F31E01CD
:102EB000BDE8F08D0020214618B060F31E01BDE88A
:102EC000F08D08DA18B02346BDE8F04D0246002028
:102ED0006146FDF79EBB18B02146BDE8F08D514517
:102EE00018DAB5F1804F0DD0A5F1005CBCF1FF5CA4
:102EF00010D1B4F1000C0DDB18B06146BDE8F04D07
:102F000000F0F6BB234618B00246BDE8F04D194666
:102F1000FDF700BA060024F0004C3BD1D9B1514571
:102F200033D1002C06DD002DA1BF0020514618B082
:102F3000BDE8F08D002C01DD002D1BDB002C13DA29
:102F4000002D11DB012A4FF0000014BF78497C49A5
:102F500018B0BDE8F08D022A18BF002C0AD0012A53
:102F600008D1002C06DA0AE0002CB8BF002D11DAD7
:102F7000012A04D0002018B00146BDE8F08D18B039
:102F800000204FF00041BDE8F08DA1F14050B0F1BC
:102F90007F601AD0012000EBE47050EA020421D0D7
:102FA000624C521E4FF0000B104304BF4FF0000B59
:102FB000644C654883427CDD644A654893421FDD6A
:102FC000884217DB002D25DB37E0002C00DA4AB100
:102FD000022A0CBF01204FF0FF3018B0BDE8F04DC1
:102FE000FDF70ABA0120FEF7E7FD18B0BDE8F04D85
:102FF000FEF7BCBD4D4A8A4202DC002D0ADC1CE013
:10300000814202DA002D18DA04E0484B994220DDB3
:10301000002D12DD0220FEF7CFFDFEF7ADFD0546C7
:103020000E460022534658462146FDF773F918B064
:1030300066F31E012846BDE8F08D0220FEF7BCFDB8
:10304000FEF7A2FD0A46214618B062F31E01BDE854
:10305000F08D002230466146FDF756F980460E4657
:103060006FF00102FDF744FB4FF05532394BFDF78D
:103070004EF942463346FDF74DF90022364BFDF737
:1030800046F9824642463346049110461946FDF7FA
:1030900041F95246049BFDF73DF98A4600904FF0F6
:1030A000C0422E4B40463146FDF734F92C4A2B4B9B
:1030B00000E027E0CDE9060151460098FDF72AF926
:1030C00082460191274A284B40463146FDF722F9B6
:1030D0005246019BFDF718F982460B4602460591C0
:1030E000DDE90601FDF76FF8DDE9062300268846D5
:1030F0003046FDF709F95246059BFDF708F90246EF
:1031000000F07EB90020B1F5801F07DA3522304685
:103110006146FDF7EDFA06466FF0340000EB2150F2
:1031200024E00000FFFF1F00FFFF0F000000F03F42
:103130000000F07F0000404301FCFFFF6609000033
:103140000000F0FF0000F0BF0000E0410000F0438D
:10315000FFFFEF3F5555D53F0000E03F4715F73FD4
:10316000FE822B6544DF5DF80BAE543EA0F2FF30CB
:103170000190C1F3130040F07F6141F04051029192
:10318000FE498842D8BF002004DDFD498142C8BF06
:10319000012001DD0D9008E000200D900198401CF9
:1031A00001900298A0F5801002900299F5487844A9
:1031B0000B910D9900EBC100D0E900230F9330462D
:1031C0000A920B99FDF7A0F8CDE90601DDE90A2185
:1031D00030460F9BFCF7F7FF02460B460020EA49FA
:1031E000FDF717FA059102460B460090DDE906014E
:1031F000FDF790F81490E5488A464FF000087844AF
:103200000299006812904FF0005040EA61010D9859
:103210000F9B01EB804000F5002109910A9A12985A
:10322000FDF772F832460B9BFDF771F842465346A4
:10323000FDF770F80646029140465146099B129AE6
:10324000FDF768F8DDE90623FDF761F83246029BD9
:10325000FDF75AF8059B009AFDF75CF80091149A67
:103260000490534610461946FDF754F806460246A8
:10327000C7480B46029106217844FEF717FCCDE9BA
:103280000510029B324610461946FDF743F8DDE96A
:103290000532FDF73FF8059106465346404619466C
:1032A000149AFCF790FF009B049AFDF733F832461E
:1032B000059BFCF788FFCDE90510424653461046B2
:1032C0001946FDF727F80022B24B02910A90FCF74D
:1032D0007AFFDDE90532FCF776FF0E464246AD4B3C
:1032E0004046FDF711F8029B0A9AFDF70DF8DDE95B
:1032F0000532FDF70CF8424602910A90334610461B
:103300005146FDF707F8CDE906015346149A029994
:103310000A98FCF7FFFF8A4602903346424600991E
:103320000498FCF7F7FF5346029AFCF74CFF8246DD
:103330000B4602460591DDE90601FCF744FFDDE995
:103340000623002088460646FCF7DEFF5246059B12
:10335000FCF7DDFF824609914FF060428E4B30460C
:103360004146FCF7D7FF049006918C4A8A4B5046A1
:103370000999FCF7CFFF82460291894A894B304672
:103380004146FCF7C7FF5246029BFCF71CFF864BE9
:103390007B440D9A03EBC203D3E90023FCF713FF30
:1033A0000E9007910198FDF727F80591DDE90613C6
:1033B00082460E9A0498FCF706FF7C4A7A440D9BDD
:1033C00002EBC303D3E9002300930292FCF7FBFE58
:1033D0005246059BFCF7F7FE0026884652463046CB
:1033E000059BFCF791FF009B029AFCF78DFF069B63
:1033F000049AFCF789FF079B0E9AFCF788FF0246A8
:1034000000200B46029038462946FCF783FF82468F
:1034100001912B4638461946029AFCF775FF324651
:103420004346FCF777FF5246019BFCF7CCFE07466C
:103430008A463246434629460298FCF76BFF05460A
:103440000E463A465346FCF7BEFE594A884691421C
:1034500021DBA8EB020353EA000210D12A463346CF
:10346000FCF752FFCDE90401524A534B384651460E
:10347000FCF7A9FEDDE90423FCF7EEFF21D20220D0
:10348000FEF79AFBFEF778FB0A46214618B062F376
:103490001E01BDE8F08D494B28F000429A4210D33E
:1034A000474A08EB020353EA00027FF4C6AD2A46FE
:1034B0003346FCF729FF3A465346FCF7CDFF7FF62B
:1034C000BCAD0022019228F000403E493E4A01EB8B
:1034D0002051824223DA481C4FF4801121FA00F077
:1034E00040443A4AC0F30A517A44394BA1F2FF31C1
:1034F000CB4020EA0303C0F3130040F48010C1F175
:103500001401C84012680190B8F1000FBCBF4042DE
:10351000019028463146FCF7F7FE05460E462A463E
:10352000334638465146FCF74EFE4FF000084246FF
:10353000284B40460591FCF7EDFECDE90601264AF1
:10354000264B40460599FCF7E5FE009102902A467D
:10355000334640460599FCF7D7FE3A465346FCF7FA
:10356000D6FE1F4A1F4BFCF7D5FE009B029AFCF7C4
:103570002AFE0746884602460B4635E08E98030031
:103580007AB60B00AE0500000000F03FE605000033
:10359000140500000000084009C7EE3FFD033ADCB7
:1035A000F5015B14E02F3EBEEC030000B003000009
:1035B00000009040FE822B654715973C00CC904060
:1035C00000346F3F01FCFFFF0000E03FFC02000001
:1035D000FFFF0F00432EE63F396CA80C615C20BE54
:1035E000EF39FAFE422EE63FDDE90601FCF7EBFD7E
:1035F000DDE9062305460E46FCF786FE3A464346BD
:10360000FCF785FE0F462A463346009010461946C1
:10361000FCF780FE824602462E4888460B4605216E
:103620007844FEF743FA52464346FCF773FE2A46B7
:103630003346FCF76CFE80468A463B4628463146B8
:10364000009AFCF767FE3B46009AFCF7BCFD06912A
:10365000009000224FF0804340465146FCF754FE54
:103660000F460C904246534628463146FCF752FE20
:103670003B460C9AFCF7CDFF069B009AFCF744FEF4
:103680002A463346FCF740FE0022134BFCF73FFE70
:10369000054601980E4601EB00510815002810DC84
:1036A00028463146019AFDF723F8FEF7EBF9042886
:1036B00008BFFEF769FA28463146019AFDF718F867
:1036C00005460B4618B02A4658462146BDE8F04D3F
:1036D000FCF720BE9C0100000000F03F00E0401C11
:1036E000002804D00178002901D02029F7D970479B
:1036F0002DE9F04106460F46FDF73CF8041E0D4645
:1037000018BF0120284320F00040C0F17F6000F185
:10371000E040C00F0ED0301C18BF0120384320F00D
:103720000040C0F17F6000F1E040C00F04BF012005
:10373000FEF742FA20462946BDE8F0810000C0E0CD
:10374000F0F8FC0000000000000000010203040685
:103750000708090000000001020304000000000047
:10376000000000000000F03F000000000000F83FF3
:1037700000000000000000000000004003B8E23F2D
:10378000000000000000000006D0CF43EBFD4C3EDF
:10379000033333333333E33FFFAB6FDBB66DDB3FD4
:1037A0004D268F515555D53F01411DA96074D13F1C
:1037B00065DBC9934A86CD3FEF4E454A287ECA3F16
:1037C0003E5555555555C53F93BDBE166CC166BF98
:1037D0002CDE25AF6A56113FF16BD2C541BDBBBE91
:1037E000D0A4BE726937663E0000000000000000F1
:1037F00010380008000000202C000000981B000872
:103800003C3800082C0000200C450000A81B0008D4
:1038100035270008B1260008000000000100000064
:10382000100000000000000000A24A040000000098
:0C3830000000000000000000000000008C
:04000005080000ED02
:00000001FF
