:020000040800F2
:10000000D0040020450100088F0F0008610E000891
:100010008D0F0008B1010008551400080000000011
:10002000000000000000000000000000B30F000806
:10003000B301000800000000B10F0008B50F000870
:100040005F0100085F0100085F0100085F01000810
:100050005F0100085F0100085F0100085F01000800
:100060005F0100085F0100085F0100085F010008F0
:100070005F0100085F0100085F0100085F010008E0
:100080005F0100085F0100085F0100085F010008D0
:100090005F0100085F0100085F0100085F010008C0
:1000A0005F0100085F0100085F0100085F010008B0
:1000B0005F0100085F0100085F0100085F010008A0
:1000C0005F0100085F0100085F0100085F01000890
:1000D0005F0100085F0100085F0100085F01000880
:1000E0005F0100085F0100085F0100085F01000870
:1000F0005F0100085F0100085F0100085F01000860
:100100005F0100085F0100085F0100085F0100084F
:100110005F0100085F0100085F0100085F0100083F
:100120005F0100085F0100085F0100085F0100082F
:10013000DFF80CD000F02AF80048004775140008DA
:10014000D00400200648804706480047FEE7FEE747
:10015000FEE7FEE7FEE7FEE7FEE7FEE7FEE7FEE777
:100160000910000831010008D2B201E000F8012BAB
:10017000491EFBD270470022F6E710B513460A4627
:1001800004461946FFF7F0FF204610BD064C074D08
:1001900006E0E06840F0010394E807009847103457
:1001A000AC42F6D3FFF7C8FF001500082015000881
:1001B000FEE770477047000070B5044600F002F992
:1001C0000546601C02D004480078044400F0FAF8A8
:1001D000401BA042FAD370BD000000202DE9F84F6B
:1001E000DFF8B8A100220AF1040B144601274FF0F2
:1001F0000F090BF1040E00BF0B6807FA04F52B4042
:10020000AB4274D1DFF898C14E68A6EB0C08664586
:100210002BD00DDC032E34D005DC36B3012E19D0E3
:10022000022E2FD11BE0112E16D0122E2AD119E04A
:10023000B8F5881F19D006DCB8F5803F15D0B8F5A1
:10024000801F1FD111E0B8F5001F0ED0B8F5041FB4
:1002500018D10AE0CA6815E0CA68121D12E0CA681F
:1002600008320FE0CA680C320CE08A682AB1012A11
:100270004FF0080203D0456104E0042202E005616A
:1002800000E00022FF2B01D8064601E000F1040641
:100290004FEA840501D9A5F12005D6F800C009FA76
:1002A00005F82CEA080C02FA05F54CEA050CC6F82C
:1002B00000C04D68ED006AD53A4DAE6946F00106C2
:1002C000AE61AD6924F0030605F001050095364DD9
:1002D00006EB050CDCF80850A6074FEA167809FA79
:1002E00008F6B543314EB04202D100261AE04EE086
:1002F0002F4EB04201D1012614E02E4EB04201D162
:1003000002260FE02C4EB04201D103260AE02B4E0C
:10031000B04201D1042605E0294EB04201D10526A4
:1003200000E0062606FA08F62E43CCF808604D6871
:10033000DAF80060ED03554601D51E4300E09E4308
:100340002E604D68AD0305D5DBF800601E43CBF889
:10035000006004E0DBF800509D43CBF800504D688E
:10036000DEF80060ED02754601D51E4300E09E43B5
:100370002E604D68AD0205D5084D0C352E681E4324
:100380002E6004E0054E0C3635689D433560641CD4
:10039000102CFFF431AFBDE8F88F000000040140DD
:1003A0000000111000100240000001400008014050
:1003B000000C0140001001400014014000180140F1
:1003C000001C0140014880687047000000000020C8
:1003D0000248816802781144816070470000002063
:1003E000074810B5016841F010010160032000F0DA
:1003F00067F8002000F006F800F024F8002010BD97
:100400000020024070B50D4D04464FF47A712878F3
:10041000B1FBF0F00A490968B1FBF0F000F0F0FA26
:1004200048B9102C07D200222146501E00F028F8AF
:1004300000206C6070BD012070BD00000000002035
:100440000C0000200C4808B5816941F00101816170
:10045000816901F001010091C16941F08051C161E0
:10046000C06900F0805000900448416821F0E061CC
:1004700041F00071416008BD0010024000000140E1
:10048000F0B40E4B1B680C46C3F30223C3F10705FF
:10049000042D00D90425191D072901D2002300E0ED
:1004A000DB1E012606FA05F1491E214099409E40B7
:1004B000761E16403143F0BC00F06ABD0CED00E042
:1004C000064900F0070208684FF6FF03184040EAAB
:1004D0000220034A10430860704700000CED00E062
:1004E0000000FA052DE9F047DFF8548105460E4675
:1004F000D8F8000000F00700B0420CD2D8F8001085
:1005000021F007013143C8F80010D8F8000000F0CE
:100510000700B0426FD128684A4C810712D54007C6
:1005200003D5606840F4E06060602878000703D578
:10053000606840F4605060606068A96820F0F00076
:10054000084360602878C00744D06868012816D046
:100550002168022816D0890700294CDA616821F049
:10056000030101436160FFF72DFF6968074641F20F
:10057000883001290ED00229814618D026E0216852
:100580008903E9E78901E7E7FFF71CFFC11B49453C
:1005900001D918E081466068C0F381000128F3D1D9
:1005A00018E000BFFFF70EFFC11B49450BD860687C
:1005B000C0F381000228F5D10CE000BFFFF702FF75
:1005C000C11B494502D90320BDE8F087606810F0DF
:1005D0000C0FF3D1D8F80010404601F00701B142EA
:1005E0000BD9016821F0070131430160006800F078
:1005F0000700B04201D00120E6E72878400705D582
:100600006068E96820F4E0600843606028780007CB
:1006100006D56068296920F4605040EAC100606036
:1006200000F036F86168084AC1F30311515CC84014
:10063000064908600020FFF7E5FE0020C4E700003F
:100640000020024000100240E81400080C000020C6
:100650000448054900684968044AC1F30221515C15
:10066000C84070470C00002000100240F814000839
:100670000448054900684968044AC1F3C221515C35
:10068000C84070470C00002000100240F814000819
:1006900012A185B00FC98DE80F0014A0144A00689C
:1006A00004905168134801F00C03042B10D0082B60
:1006B0000ED1C1F38343C9031DF803000AD5516865
:1006C00004AAC1F34041515C0A4A5043B0FBF1F027
:1006D00005B0704708494843FAE7000002030405E3
:1006E000060708090A0B0C0D0E0F1010010200007E
:1006F0000010024000127A0000093D002DE9F84F79
:1007000004460078B94DC00748D06868C0F381003E
:10071000012807D06868C0F38100022809D1686801
:10072000C00306D52868800338D5606800286FD0DC
:1007300034E06068B0F5803F0BD010B1B0F5A02F69
:1007400011D0286820F480302860286820F48020A8
:1007500002E0286840F480302860606888B1FFF7C4
:1007600031FE064609E0286840F480202860F0E762
:10077000FFF728FE801B642875D828688003F7D50A
:100780000CE0FFF71FFE064605E000BFFFF71AFE6C
:10079000801B6428F0D828688003F7D42078944E12
:1007A00080074FF001094FF000083BD5686810F052
:1007B0000C0F07D06868C0F38100022809D168686F
:1007C000C00306D42868800714D5206901281FD1EA
:1007D00010E02069B0B1C6F80090FFF7F3FD0746BE
:1007E00005E000BFFFF7EEFDC01B0228C4D8286853
:1007F0008007F7D52868616920F0F80040EAC10059
:1008000028600FE0C6F80080FFF7DCFD074606E031
:10081000E9E000BFFFF7D6FDC01B022823D82868F7
:100820008007F7D4207800072CD57248A169D9B188
:10083000C0F80090FFF7C6FD074604E0FFF7C2FDD1
:10084000C01B02280FD8686A8007F7D56A484FF4A2
:10085000FA510068B0FBF1F0009000BF0098411E13
:100860000091FAD20EE080E0C0F80080FFF7AAFD08
:10087000074604E0FFF7A6FDC01B022875D8686A8A
:100880008007F7D42078400760D5E8690027C000CA
:1008900008D4E86940F08050E861E869012700F079
:1008A0008050009055480168C90513D401688346FB
:1008B00041F480710160FFF785FD824606E000BFCC
:1008C000FFF780FDA0EB0A0064284ED8DBF800009B
:1008D000C005F5D5E06801280AD008B1052813D075
:1008E000286A20F001002862286A20F0040002E053
:1008F000286A40F001002862E06841F2883B98B124
:10090000FFF760FD82460BE0286A40F00400286291
:10091000EEE700BFFFF756FDA0EB0A0159455AD894
:10092000286A8007F6D50CE0FFF74CFD824605E00B
:10093000FFF748FDA0EB0A0159454CD8286A80070B
:10094000F6D41FB1E86920F08050E861E06988B30F
:100950006968C1F38101022945D00228C6F8608088
:1009600004D0FFF72FFD044638E034E0FFF72AFDFE
:10097000074604E0FFF726FDC01B02282BD8286895
:100980008001F7D4206AB0F5803F05D16868A1687E
:1009900020F4003008436860D4E90801084369681E
:1009A00021F4741108436860C6F86090FFF70AFDEF
:1009B000044606E015E000BFFFF704FD001B022817
:1009C00009D828688001F7D50BE000BFFFF7FAFCD3
:1009D000001B022802D90320BDE8F88F2868800197
:1009E000F4D40020F8E70120F6E7000000100240F0
:1009F00000004242800442420C000020007000408F
:100A000010B5401EB0F1807F01D3012010BD4FF022
:100A1000E02460610F21601700F0BAFA0020A061A5
:100A200007202061002010BD30B590F83C20012A3D
:100A300020D0012280F83C20022380F83D3003685A
:100A40005C6824F070045C6003685C680D682C438B
:100A50005C6003689C6824F080049C6003689C6868
:100A600049680C439C6080F83D20002180F83C10D0
:100A7000084630BD022030BD10B5040003D094F804
:100A80003D0010B107E0012010BD002084F83C00BB
:100A9000204600F00DF8022084F83D00211D20685A
:100AA00000F0D6FA012084F83D00002010BD0000BF
:100AB00008B50068B0F1804F08D10548C16941F020
:100AC0000101C161C06900F00100009008BD000093
:100AD0000010024070B5044690F83C00012817D081
:100AE000012584F83C50022084F83D00206882688B
:100AF00022F0770222F47F4282600868502837D0C3
:100B00000DDC202859D005DC88B3102841D151E0F4
:100B1000022070BD302853D040283AD13FE06028F1
:100B20002ED070280BD0B0F5805F03D0B0F5005FF9
:100B30002FD110E02068816821F0070115E0CB6813
:100B4000D1E90121206800F0D4FA2168886840F0DA
:100B5000770088601DE0CB68D1E90121206800F0B2
:100B6000C8FA2068816841F48041816011E01EE08C
:100B7000CA684968206800F091FB5021206806E0AF
:100B8000CA684968206800F09AFB6021206800F07C
:100B9000BAFA84F83D50002084F83C0070BDCA6861
:100BA0004968206800F07AFB40212068EFE70021C7
:100BB0002068ECE710212068E9E720212068E6E7BB
:100BC00030212068E3E7000000B585B000210091E6
:100BD0000191029103910068B0F1804F11D10A4850
:100BE000816941F0040181618069694600F0040077
:100BF0000490012000900220019003900348FFF729
:100C0000EDFA05B000BD00000010024000080140F0
:100C100070B5044690F83C000D4601280DD0012621
:100C200084F83C60022084F83D0042B1042A18D0C8
:100C3000082A2AD00C2A4DD139E0022070BD206844
:100C400000F06AFA2068816941F00801816120683A
:100C5000816921F004018161206881692A69114359
:100C600011E0206800F088FA2068816941F4006191
:100C700081612068816921F48061816120688169D6
:100C80002A6941EA0221816124E0206800F0AAFA81
:100C90002068C16941F00801C1612068C16921F083
:100CA0000401C1612068C1692A69114311E020680B
:100CB00000F0CCFA2068C16941F40061C16120688C
:100CC000C16921F48061C1612068C1692A6941EA72
:100CD0000221C16184F83D60002084F83C0070BDB1
:100CE00010B5040003D094F83D0010B107E00120D6
:100CF00010BD002084F83C00204600F00CF80220D3
:100D000084F83D00211D206800F0A2F9012084F83C
:100D10003D00002010BD704710B504460068012258
:100D200000F0DCF908492068884202D0074988426F
:100D300003D1416C41F4004141642068016841F0F5
:100D400001010160002010BD002C01400034014071
:100D500070B5040004D094F83900002510B106E005
:100D6000012070BD84F83850204600F023F824207C
:100D700084F839002068C16821F40051C160204620
:100D800000F0B0FA2068016921F490410161206807
:100D9000416921F02A0141612068C16841F4005194
:100DA000C160E563202084F8390084F83A0000200F
:100DB00070BD000070B586B00024009401940294C8
:100DC0000394234E0368234902200322224DB34299
:100DD00019D18B6943F480438B618B6903F48043A1
:100DE00004938B6943F004038B618969039201F0DA
:100DF000040104910102CDE9001069462846FFF77D
:100E0000EDF928151BE0154EB3421FD1CB6943F411
:100E10000033CB61CB6903F4003304938B6943F057
:100E200004038B618969039201F004010491042198
:100E3000CDE9001069462846FFF7D0F90820CDE932
:100E40000004694628460294FFF7C8F906B070BD51
:100E500000380140001002400008014000440040FA
:100E6000FEE70000054808B5816941F00401816191
:100E7000806900F00400009008BD000000100240EE
:100E800010B58EB000240794089409940A940B942A
:100E90001C2168460C94FFF76EF91F484FF0804103
:100EA000016040F2CF21C0E9011440F2CF71C0E9E6
:100EB000031480218161FFF7DFFD08B1FFF77AF9A4
:100EC0004FF48050079007A91348FFF703FE08B1BD
:100ED000FFF770F91048FFF703FF08B1FFF76AF951
:100EE0000B940BA90C480C94FFF79EFD08B1FFF77B
:100EF00061F9602000909620CDE901040022694646
:100F000005480494FFF784FE08B1FFF753F902483F
:100F1000FFF75AFE0EB010BD100000200C4810B5AF
:100F20000A4901604FF4E1314160002181600C22E7
:100F3000C160C0E904128161C161FFF709FF0028A7
:100F400003D0BDE81040FFF735B910BD00380140AF
:100F5000500000200C4810B50A4901604FF4E131FF
:100F60004160002181600C22C160C0E904128161EE
:100F7000C161FFF7EDFE002803D0BDE81040FFF788
:100F800019B910BD0044004090000020FEE77047F2
:100F90000907090E002806DA00F00F0000F1E02032
:100FA00080F8141D704700F1E02080F800147047AD
:100FB00070477047FFF70CBA30B58FB028216846EC
:100FC000FFF7D9F814210AA8FFF7D5F80121080482
:100FD000CDE900100024029402250491CDE90750C8
:100FE0004FF4E01009906846FFF788FB0F20CDE929
:100FF0000A056802CDE90C4002210AA80E94FFF709
:1010000071FA0FB030BD00000D48016841F00101D8
:10101000016041680B4A1140416001680A4A114071
:101020000160016821F480210160416821F4FE0122
:1010300041604FF41F0181600449C003086070479C
:10104000001002400000FFF8FFFFF6FE08ED00E090
:10105000F0B502681C4B1D4D1D4E1E4F1E4C4FF02F
:10106000804C984209D0A04207D0604505D0A842E4
:1010700003D0B04201D0B84204D122F0700E4A68C9
:1010800042EA0E02984209D0A04207D0604505D03E
:10109000A84203D0B04201D0B84203D122F4407537
:1010A000CA682A4322F080054A692A4302608A6896
:1010B000C2620A688262984201D0A04201D10969E5
:1010C000016301214161F0BD002C0140000400409A
:1010D00000080040000C00400034014010B501231E
:1010E000046A8B409C430462036A8A401343036290
:1010F00010BD10B5846842EA032224F47F440A43F9
:101100002243826010BD826822F070020A4342F0DE
:101110000701816070470000F0B5026A22F0010209
:101120000262036A42688469124E24F073050C68F7
:101130002C4323F002058B682B430D4DA84201D0B0
:10114000B04205D123F00807CB683B4323F00403EA
:10115000A84201D0B04205D14D6922F44072154336
:101160008A692A4342608461496841630362F0BD31
:10117000002C014000340140F0B5026A22F0100258
:101180000262026A436884690D6824F4E64444EA12
:1011900005248D6822F0200242EA05120F4D104E00
:1011A000A84201D0B04206D1CF6822F0800242EAC4
:1011B000071222F04002A84201D0B04207D14D6987
:1011C00023F4406343EA85038D6943EA8503436062
:1011D0008461496881630262F0BD0000002C014017
:1011E00000340140F0B5026A22F480720262026AA1
:1011F0004368C46922F4007224F073050C68124E2F
:101200002C438D6842EA05220E4DA84201D0B0421F
:1012100006D1CF6822F4006242EA072222F48062FB
:10122000A84201D0B04207D14D6923F4405343EAAC
:1012300005138D6943EA05134360C4614968C163BE
:101240000262F0BD002C01400034014030B5026A5A
:1012500022F480520262046A4268C3690D6823F472
:10126000E64343EA05238D6824F4005444EA053438
:10127000084DA84202D0084DA84204D14D6922F47D
:10128000804242EA85124260C36149680164046297
:1012900030BD0000002C01400034014010B5036A4D
:1012A000046A24F001040462846924F0F00444EA2E
:1012B000021423F00A020A438461026210BD10B5D1
:1012C000036A23F0100303628369046A23F4704302
:1012D00043EA023224F0A00343EA01118261016271
:1012E00010BD00002DE9F041044600680169E26884
:1012F00021F44051114301612169A06808436169EB
:1013000008432168CA6841F20C639A430243CA60E9
:1013100020684169A26921F44071114341614C493F
:1013200020686425322688423CD1FFF7A1F900EB02
:10133000C00101EB001061688900B0FBF1F7FFF715
:1013400097F900EBC00101EB00106168B04689001D
:10135000B0FBF1F0B0FBF5F06FF01801484307EB7C
:10136000800106EB0110B0FBF5F000F0F006FFF78E
:101370007FF900EBC00101EB001061688900B0FB50
:10138000F1F0B0FBF5F006EB0016FFF771F900EB9A
:10139000C00101EB001061688900B0FBF1F7FFF7B5
:1013A00067F93BE0FFF754F900EBC00101EB0010D7
:1013B00061688900B0FBF1F7FFF74AF900EBC00163
:1013C00001EB00106168B0468900B0FBF1F0B0FBA2
:1013D000F5F06FF01801484307EB800106EB0110B0
:1013E000B0FBF5F000F0F006FFF732F900EBC001BA
:1013F00001EB001061688900B0FBF1F0B0FBF5F083
:1014000006EB0016FFF724F900EBC00101EB00101A
:1014100061688900B0FBF1F7FFF71AF900EBC00132
:1014200001EB001061688900B0FBF1F0B0FBF5F052
:101430006FF01801484307EB800108EB0110B0FB87
:10144000F5F0216800F00F0030448860BDE8F081BD
:1014500000380140FEE702E008C8121F08C1002A58
:10146000FAD170477047002001E001C1121F002A25
:10147000FBD17047FEF7B4FFFFF79EFDFFF7F2FCCC
:10148000FFF74CFDFFF766FDFFF7FAFC002115485A
:10149000FFF742FC134C32264FF47A7564274FF065
:1014A00096084FF0C8094FF0FA0A206846632846AC
:1014B000FEF782FE206847632846FEF77DFE21681E
:1014C000C1F834802846FEF777FE2168C1F83490D1
:1014D0002846FEF771FE2168C1F834A02846FEF7C1
:1014E0006BFEE2E71000002000000000000000009A
:1014F00001020304060708090000000001020304BA
:1015000020150008000000201000000056140008FC
:101510003015000810000020C00400006614000808
:1015200001000000100000000000000000A24A04BA
:0400000508000131BD
:00000001FF
