:020000040800F2
:100000008007002045010008DB0C0008650B000894
:10001000D90C000807020008711100080000000058
:10002000000000000000000000000000650F000854
:100030000902000800000000630F0008670F0008B5
:100040005F0100085F0100085F0100085F01000810
:100050005F0100085F0100085F0100085F01000800
:100060005F0100085F0100085F0100085F010008F0
:100070005F0100085F0100085F0100085F010008E0
:100080005F0100085F0100085F0100085F010008D0
:100090005F0100085F0100085F0100085F010008C0
:1000A0005F0100085F0100085F0100085F010008B0
:1000B0005F0100085F0100085F0100085F010008A0
:1000C0005F0100085F0100085F0100085F01000890
:1000D0005F0100085F0100085F0100085F01000880
:1000E0005F0100085F0100085F0100085F01000870
:1000F0005F0100085F0100085F0100085F01000860
:100100005F0100085F0100085F0100085F0100084F
:100110005F0100085F0100085F0100085F0100083F
:100120005F0100085F0100085F0100085F0100082F
:10013000DFF80CD000F02AF800480047B11300089F
:10014000800700200648804706480047FEE7FEE794
:10015000FEE7FEE7FEE7FEE7FEE7FEE7FEE7FEE777
:10016000B90F000831010008D2B201E000F8012BFC
:10017000491EFBD270470022F6E710B513460A4627
:1001800004461946FFF7F0FF204610BD064C074D08
:1001900006E0E06840F0010394E807009847103457
:1001A000AC42F6D3FFF7C8FF5C1C00087C1C0008BB
:1001B00070B58C1810F8015B15F0070301D110F829
:1001C000013B2A1106D110F8012B03E010F8016B56
:1001D00001F8016B5B1EF9D12B0705D40023521ED9
:1001E0000DD401F8013BFAE710F8013BCB1A921C41
:1001F00003E013F8015B01F8015B521EF9D5A1423F
:10020000D8D3002070BDFEE77047704770B5044634
:1002100000F00CF90546601C02D004480078044444
:1002200000F004F9401BA042FAD370BD280300205F
:100230002DE9F84FDFF8B8A100220AF1040B1446AB
:1002400001274FF00F090BF1040E00BF0B6807FAEE
:1002500004F52B40AB4274D1DFF898C14E68A6EB91
:100260000C0866452BD00DDC032E34D005DC36B3EC
:10027000012E19D0022E2FD11BE0112E16D0122ED6
:100280002AD119E0B8F5881F19D006DCB8F5803FEF
:1002900015D0B8F5801F1FD111E0B8F5001F0ED0A2
:1002A000B8F5041F18D10AE0CA6815E0CA68121D23
:1002B00012E0CA6808320FE0CA680C320CE08A68A3
:1002C0002AB1012A4FF0080203D0456104E004225C
:1002D00002E0056100E00022FF2B01D8064601E0A4
:1002E00000F104064FEA840501D9A5F12005D6F8EE
:1002F00000C009FA05F82CEA080C02FA05F54CEAE8
:10030000050CC6F800C04D68ED006AD53A4DAE69DF
:1003100046F00106AE61AD6924F0030605F0010563
:100320000095364D06EB050CDCF80850A6074FEAA1
:10033000167809FA08F6B543314EB04202D10026CC
:100340001AE04EE02F4EB04201D1012614E02E4EAD
:10035000B04201D102260FE02C4EB04201D103265B
:100360000AE02B4EB04201D1042605E0294EB042EE
:1003700001D1052600E0062606FA08F62E43CCF841
:1003800008604D68DAF80060ED03554601D51E435C
:1003900000E09E432E604D68AD0305D5DBF800609C
:1003A0001E43CBF8006004E0DBF800509D43CBF81F
:1003B00000504D68DEF80060ED02754601D51E4321
:1003C00000E09E432E604D68AD0205D5084D0C350A
:1003D0002E681E432E6004E0054E0C3635689D43A2
:1003E0003560641C102CFFF431AFBDE8F88F0000BD
:1003F0000004014000001110001002400000014004
:1004000000080140000C01400010014000140140B0
:1004100000180140001C01408068084000D0012005
:1004200070470AB1016170470904FBE70148806821
:1004300070470000280300200248816802781144B8
:100440008160704728030020074810B5016841F01B
:1004500010010160032000F067F8002000F006F8AA
:1004600000F024F8002010BD0020024070B50D4DB2
:1004700004464FF47A712878B1FBF0F00A49096814
:10048000B1FBF0F000F0F0FA48B9102C07D20022CE
:100490002146501E00F028F800206C6070BD01203D
:1004A00070BD000028030020340300200C4808B56C
:1004B000816941F001018161816901F001010091CF
:1004C000C16941F08051C161C06900F08050009065
:1004D0000448416821F0E06141F00071416008BDCD
:1004E0000010024000000140F0B40E4B1B680C46A7
:1004F000C3F30223C3F10705042D00D90425191DF8
:10050000072901D2002300E0DB1E012606FA05F1CF
:10051000491E214099409E40761E16403143F0BC52
:1005200000F0DCBB0CED00E0064900F007020868B3
:100530004FF6FF03184040EA0220034A10430860C8
:10054000704700000CED00E00000FA052DE9F047CF
:10055000DFF8548105460E46D8F8000000F0070089
:10056000B0420CD2D8F8001021F007013143C8F88E
:100570000010D8F8000000F00700B0426FD12868E2
:100580004A4C810712D5400703D5606840F4E0600B
:1005900060602878000703D5606840F460506060B0
:1005A0006068A96820F0F000084360602878C00700
:1005B00044D06868012816D02168022816D089071F
:1005C00000294CDA616821F0030101436160FFF703
:1005D0002DFF6968074641F2883001290ED00229B3
:1005E000814618D026E021688903E9E78901E7E719
:1005F000FFF71CFFC11B494501D918E0814660681F
:10060000C0F381000128F3D118E000BFFFF70EFF0F
:10061000C11B49450BD86068C0F381000228F5D1A1
:100620000CE000BFFFF702FFC11B494502D90320C0
:10063000BDE8F087606810F00C0FF3D1D8F8001017
:10064000404601F00701B1420BD9016821F00701D2
:1006500031430160006800F00700B04201D0012082
:10066000E6E72878400705D56068E96820F4E0608F
:10067000084360602878000706D56068296920F47F
:10068000605040EAC100606000F036F86168084AD6
:10069000C1F30311515CC840064908600020FFF710
:1006A000E5FE0020C4E700000020024000100240E8
:1006B000441C0008340300200448054900684968C8
:1006C000044AC1F30221515CC84070473403002042
:1006D00000100240541C000804480549006849689D
:1006E000044AC1F3C221515CC84070473403002062
:1006F00000100240541C000812A185B00FC98DE8FB
:100700000F0014A0144A006804905168134801F0C7
:100710000C03042B10D0082B0ED1C1F38343C90363
:100720001DF803000AD5516804AAC1F34041515C89
:100730000A4A5043B0FBF1F005B0704708494843FE
:10074000FAE7000002030405060708090A0B0C0D6E
:100750000E0F1010010200000010024000127A007B
:1007600000093D002DE9F84F04460078B94DC00757
:1007700048D06868C0F38100012807D06868C0F3DA
:100780008100022809D16868C00306D52868800363
:1007900038D5606800286FD034E06068B0F5803FDD
:1007A0000BD010B1B0F5A02F11D0286820F4803004
:1007B0002860286820F4802002E0286840F4803017
:1007C0002860606888B1FFF731FE064609E02868B6
:1007D00040F480202860F0E7FFF728FE801B6428A3
:1007E00075D828688003F7D50CE0FFF71FFE064692
:1007F00005E000BFFFF71AFE801B6428F0D82868C8
:100800008003F7D42078944E80074FF001094FF011
:1008100000083BD5686810F00C0F07D06868C0F37B
:100820008100022809D16868C00306D428688007BF
:1008300014D5206901281FD110E02069B0B1C6F895
:100840000090FFF7F3FD074605E000BFFFF7EEFD60
:10085000C01B0228C4D828688007F7D528686169BA
:1008600020F0F80040EAC10028600FE0C6F80080E0
:10087000FFF7DCFD074606E0E9E000BFFFF7D6FD25
:10088000C01B022823D828688007F7D420780007E7
:100890002CD57248A169D9B1C0F80090FFF7C6FD08
:1008A000074604E0FFF7C2FDC01B02280FD8686AA4
:1008B0008007F7D56A484FF4FA510068B0FBF1F0B1
:1008C000009000BF0098411E0091FAD20EE080E037
:1008D000C0F80080FFF7AAFD074604E0FFF7A6FD79
:1008E000C01B022875D8686A8007F7D420784007B3
:1008F00060D5E8690027C00008D4E86940F080505E
:10090000E861E869012700F08050009055480168CF
:10091000C90513D40168834641F480710160FFF773
:1009200085FD824606E000BFFFF780FDA0EB0A00D0
:1009300064284ED8DBF80000C005F5D5E068012832
:100940000AD008B1052813D0286A20F001002862D7
:10095000286A20F0040002E0286A40F001002862C2
:10096000E06841F2883B98B1FFF760FD82460BE0FA
:10097000286A40F004002862EEE700BFFFF756FD4A
:10098000A0EB0A0159455AD8286A8007F6D50CE031
:10099000FFF74CFD824605E0FFF748FDA0EB0A019A
:1009A00059454CD8286A8007F6D41FB1E86920F071
:1009B0008050E861E06988B36968C1F38101022968
:1009C00045D00228C6F8608004D0FFF72FFD04460A
:1009D00038E034E0FFF72AFD074604E0FFF726FD84
:1009E000C01B02282BD828688001F7D4206AB0F5F4
:1009F000803F05D16868A16820F400300843686032
:100A0000D4E908010843696821F474110843686057
:100A1000C6F86090FFF70AFD044606E015E000BF47
:100A2000FFF704FD001B022809D828688001F7D5CC
:100A30000BE000BFFFF7FAFC001B022802D90320DD
:100A4000BDE8F88F28688001F4D40020F8E7012081
:100A5000F6E70000001002400000424280044242DB
:100A6000340300200070004010B5401EB0F1807FBC
:100A700001D3012010BD4FF0E02460610F21601709
:100A800000F02CF90020A06107202061002010BD9B
:100A900070B5040004D094F83900002510B106E0C8
:100AA000012070BD84F83850204600F023F824203F
:100AB00084F839002068C16821F40051C1602046E3
:100AC00000F09EFA2068016921F4904101612068DC
:100AD000416921F02A0141612068C16841F4005157
:100AE000C160E563202084F8390084F83A000020D2
:100AF00070BD000030B585B00024009401940294CC
:100B0000039400681449884224D11448816941F44F
:100B100080418161816901F480410491816941F0E2
:100B20000401816180690E4D00F0040004904FF4CF
:100B3000007000900220019003200390694628462F
:100B4000FFF776FB2815CDE9000469462846029494
:100B5000FFF76EFB05B030BD0038014000100240C9
:100B600000080140FEE7000010B50B4C01224021B7
:100B70002046FFF756FC012280212046FFF751FC5A
:100B8000002280212046FFF74CFC20460022BDE8D1
:100B900010404021FFF745BC000C014010B5094C46
:100BA000012240212046FFF73CFC00228021204604
:100BB000FFF737FC20460122BDE810408021FFF7F7
:100BC00030BC0000000C014010B5064C0122402151
:100BD0002046FFF726FC20460022BDE810404021B9
:100BE000FFF71FBC000C014010B5074C0821204640
:100BF00000F0B4FB012806D01021204600F0AEFB27
:100C0000012800D1022010BD00180140F0B585B0C8
:100C100000241F480094019402940394816941F0D8
:100C200040018161816901F040010491816941F0D5
:100C300004018161816901F004010491816941F03D
:100C4000080181618069134F00F0080004900022C0
:100C5000C0213846FFF7E5FB182001258DE831005B
:100C600069460D48FFF7E4FACDE9005402266946CB
:100C70000A480296FFF7DCFAC020CDE90005CDE96D
:100C8000024669463846FFF7D3FA05B0F0BD0000CA
:100C900000100240000C0140001801400008014013
:100CA0000C4810B50A4901604FF4E1314160002160
:100CB00081600C22C160C0E904128161C161FFF74B
:100CC000E7FE002803D0BDE81040FFF79EBA10BD34
:100CD000003801403C030020FEE770470907090E79
:100CE000002806DA00F00F0000F1E02080F8141D63
:100CF000704700F1E02080F80014704770B50024C0
:100D0000002104F1B00000F026F90021022000F0DB
:100D100022F90021102000F01EF9002501210020F9
:100D200000F019F96D1CEDB2802DF7D3641CE4B20C
:100D3000082CE5D370BD10B50021AE2000F00BF9F2
:100D40000021084600F007F90021102000F003F907
:100D50000021402000F0FFF80021B02000F0FBF857
:100D60000021812000F0F7F80021FF2000F0F3F8C7
:100D70000021A12000F0EFF80021A62000F0EBF800
:100D80000021A82000F0E7F800213F2000F0E3F860
:100D90000021C82000F0DFF80021D32000F0DBF8AC
:100DA0000021084600F0D7F80021D52000F0D3F844
:100DB0000021802000F0CFF80021D82000F0CBF8EF
:100DC0000021052000F0C7F80021D92000F0C3F869
:100DD0000021F12000F0BFF80021DA2000F0BBF87C
:100DE0000021122000F0B7F80021DB2000F0B3F85A
:100DF0000021302000F0AFF800218D2000F0ABF88A
:100E00000021142000F0A7F80021BDE81040AF2019
:100E100000F0A1B810B50A460446002102F1B00066
:100E200000F099F8102040EA1410002100F093F827
:100E300004F00F00BDE81040002100F08CB8000065
:100E40002DE9F0411E4615460F468046FFF7E2FFAA
:100E5000104906EB4600002401EB001605E0305D6A
:100E6000012100F078F8641CE4B2AC42F7D37F1C97
:100E7000F9B24046FFF7CEFF002406E03019012109
:100E8000007E00F068F8641CE4B2AC42F6D3BDE822
:100E9000F0810000800000202DE9F041203A00247C
:100EA0000D468046D6B27F2803D900208D1C80468F
:100EB000EDB2102B294610D0FFF7ACFF164906EB18
:100EC000460001EB40050121285D00F044F8641C58
:100ED000E4B2062CF7D3BDE8F081FFF79BFF0F4F7C
:100EE00004EB06100121385C00F035F8641CE4B214
:100EF000082CF5D36D1CE9B24046FFF78BFF0024A8
:100F000004EB061038440121007A00F024F8641C38
:100F1000E4B2082CF4D3DEE72C14000854160008C1
:100F20002DE9F041984617460E46044600250DE08F
:100F3000434631462046FFF7AFFF0834E4B2782C31
:100F400002D90024B61CF6B26D1CEDB27A5D002AFF
:100F5000EED1BDE8F081C0B209B100F04AB900F0AD
:100F600031B970477047FFF767BA30B58FB02821A5
:100F70006846FFF700F914210AA8FFF7FCF80121E1
:100F80000804CDE900100024029402250491CDE963
:100F900007504FF4E01009906846FFF7E3FB0F207D
:100FA000CDE90A056802CDE90C4002210AA80E9499
:100FB000FFF7CCFA0FB030BD0D48016841F00101D8
:100FC000016041680B4A1140416001680A4A1140C2
:100FD0000160016821F480210160416821F4FE0173
:100FE00041604FF41F0181600449C00308607047ED
:100FF000001002400000FFF8FFFFF6FE08ED00E0E1
:101000002DE9F041044600680169E26821F440518D
:10101000114301612169A06808436169084321689F
:10102000CA6841F20C639A430243CA60206841696E
:10103000A26921F44071114341614C492068642543
:10104000322688423CD1FFF747FB00EBC00101EBA1
:10105000001061688900B0FBF1F7FFF73DFB00EB82
:10106000C00101EB00106168B0468900B0FBF1F0EF
:10107000B0FBF5F06FF01801484307EB800106EB79
:101080000110B0FBF5F000F0F006FFF725FB00EBD8
:10109000C00101EB001061688900B0FBF1F0B0FB0A
:1010A000F5F006EB0016FFF717FB00EBC00101EBB4
:1010B000001061688900B0FBF1F7FFF70DFB3BE022
:1010C000FFF7FAFA00EBC00101EB0010616889003C
:1010D000B0FBF1F7FFF7F0FA00EBC00101EB0010F5
:1010E0006168B0468900B0FBF1F0B0FBF5F06FF03D
:1010F0001801484307EB800106EB0110B0FBF5F047
:1011000000F0F006FFF7D8FA00EBC00101EB001089
:1011100061688900B0FBF1F0B0FBF5F006EB00165A
:10112000FFF7CAFA00EBC00101EB0010616889000B
:10113000B0FBF1F7FFF7C0FA00EBC00101EB0010C4
:1011400061688900B0FBF1F0B0FBF5F06FF01801B9
:10115000484307EB800108EB0110B0FBF5F0216874
:1011600000F00F0030448860BDE8F0810038014095
:10117000FEE7000070B5124E0446002240213046C2
:10118000FFF74FF95FF0000504F08000802815D0CC
:10119000002280213046FFF744F96006040E012248
:1011A00040213046FFF73DF9002240213046FFF74D
:1011B00038F96D1CEDB2082DE6D370BD0122E8E7C9
:1011C000000C014010B50446FFF7CEFC7820FFF775
:1011D000D1FFFFF7F9FC0020FFF7CCFFFFF7F4FC8D
:1011E0002046FFF7C7FFFFF7EFFCBDE81040FFF711
:1011F000D5BC10B50446FFF7B7FC7820FFF7BAFF5F
:10120000FFF7E2FC4020FFF7B5FFFFF7DDFC2046CB
:10121000FFF7B0FFFFF7D8FCBDE81040FFF7BEBCFA
:10122000014A024900F013B8711200083803002087
:1012300002E008C8121F08C1002AFAD1704770479F
:10124000002001E001C1121F002AFBD170472DE9E7
:10125000F04116460F460446002503E03946B047E4
:10126000641C6D1C20780028F8D12846BDE8F08168
:1012700003490A681206FCD50149091D0860704738
:1012800000380140FFF73ABD10B5FFF737FD0A23DC
:1012900029A200211920FFF743FE0A2329A20121D8
:1012A0000020FFF73DFE06230C2202210120FFF75C
:1012B000C7FD07230C2202210F20FFF7C1FD0A23DF
:1012C00020A204210020FFF72BFE04230C2205217D
:1012D0000120FFF7B5FD05230C2219460F20FFF76B
:1012E000AFFD0A2317A207210020FFF719FE0124F2
:1012F0000A2319A221463D20FFF712FE641CE4B226
:10130000082CF5D306230C2202214320FFF798FD79
:1013100008230C2202215120FFF792FD02230C2208
:1013200005214320FFF78CFD03230C220521BDE896
:1013300010405120FFF784BD323032302D312D3234
:10134000380000002D2D2D2D2D2D2D2D2D2D2D2D49
:101350002D2D2D2D000000002E00000070B505463B
:101360000C460A20FEF752FF21462846FFF754F8A4
:10137000012808D11420FEF749FF21462846FFF72F
:101380004BF8012801D0002070BD21462846FFF708
:1013900043F80128F9D002A0FFF742FF012070BDF9
:1013A0006B65795F70756C6C75700D0A00000000DC
:1013B000FFF74AF8FFF7D9FDFFF728FCFFF770FCAD
:1013C000FFF7B9FC124C134E134D00BFFFF70CFC96
:1013D000012810D00228F9D1307804EBC0008078C1
:1013E000307004EBC0004068286080470BA000BF4D
:1013F000FFF716FFEAE7307804EBC0004078307062
:1014000004EBC00040682860804706A0F0E70000B9
:101410003402002030020020240300206B65793064
:101420000D0A00006B6579310D0A00000000000014
:1014300000000000002F000000000700070000145B
:101440007F147F1400242A7F2A1200626408132369
:1014500000364955225000000503000000001C2200
:101460004100000041221C000014083E081400083E
:10147000083E0808000000A06000000808080808EE
:10148000000060600000002010080402003E514986
:10149000453E0000427F4000004261514946002124
:1014A00041454B31001814127F100027454545393E
:1014B000003C4A4949300001710905030036494999
:1014C000493600064949291E000036360000000052
:1014D000563600000008142241000014141414149D
:1014E0000000412214080002015109060032495946
:1014F000513E007C1211127C007F49494936003E62
:1015000041414122007F4141221C007F494949411C
:10151000007F09090901003E4149497A007F080816
:10152000087F0000417F4100002040413F01007FD3
:1015300008142241007F40404040007F020C027F9F
:10154000007F0408107F003E4141413E007F0909B1
:101550000906003E4151215E007F091929460046D7
:10156000494949310001017F0101003F4040403FAE
:10157000001F2040201F003F4038403F00631408F8
:1015800014630007087008070061514945430000D3
:101590007F41410000552A552A55000041417F00F6
:1015A00000040201020400404040404000000102EB
:1015B0000400002054545478007F484444380038D4
:1015C0004444442000384444487F0038545454185C
:1015D00000087E0901020018A4A4A47C007F08046E
:1015E00004780000447D4000004080847D00007F3E
:1015F000102844000000417F4000007C041804785B
:10160000007C0804047800384444443800FC242456
:1016100024180018242418FC007C0804040800483E
:101620005454542000043F444020003C4040207C5F
:10163000001C2040201C003C4030403C004428104E
:101640002844001CA0A0A07C004464544C44141402
:10165000141414140000000000000000000000003A
:1016600000000000000000F800000000000000334F
:101670003000000000100C06100C060000000000F6
:101680000000000040C07840C0784000043F0404DF
:101690003F040400007088FC08300000001820FFA0
:1016A000211E0000F008F000E018000000211C03DB
:1016B0001E211E0000F00888700000001E21232457
:1016C0001927211010160E00000000000000000075
:1016D00000000000000000E0180402000000000705
:1016E0001820400000020418E0000000004020180C
:1016F00007000000404080F0804040000202010FDF
:1017000001020200000000F0000000000101011FC2
:1017100001010100000000000000000080B0700026
:1017200000000000000000000000000000010101B6
:101730000101010100000000000000000030300045
:10174000000000000000000080601804006018061F
:101750000100000000E010080810E000000F102059
:1017600020100F00001010F8000000000020203FA3
:10177000202000000070080808887000003028242D
:1017800022213000003008888848300000182020CE
:1017900020110E000000C02010F8000000070424F3
:1017A000243F240000F80888880808000019212038
:1017B00020110E0000E0108888180000000F112092
:1017C00020110E0000380808C83808000000003F4B
:1017D000000000000070880808887000001C2221AA
:1017E00021221C0000E010080810E0000000312257
:1017F00022110F00000000C0C000000000000030F7
:101800003000000000000080000000000000806048
:1018100000000000000080402010080000010204C9
:1018200008102000404040404040400004040404B0
:10183000040404000008102040800000002010086C
:1018400004020100007048080808F00000000030A1
:1018500036010000C030C828E810E000071827242F
:1018600023140B000000C038E0000000203C2302DD
:101870000227382008F8888888700000203F202040
:1018800020110E00C0300808080838000718202072
:101890002010080008F808080810E000203F202069
:1018A00020100F0008F88888E8081000203F20204A
:1018B0002320180008F88888E8081000203F20003E
:1018C00003000000C0300808083800000718202076
:1018D000221E020008F808000008F808203F210135
:1018E00001213F20000808F8080800000020203FE0
:1018F0002020000000000808F8080800C080808050
:101900007F00000008F888C028180800203F200148
:101910002638200008F8080000000000203F2020A2
:101920002020300008F8F800F8F80800203F003FB9
:10193000003F200008F830C00008F808203F2000D1
:1019400007183F00E01008080810E0000F102020E2
:1019500020100F0008F808080808F000203F2101B7
:1019600001010000E01008080810E0000F1824240E
:1019700038504F0008F8888888887000203F200081
:10198000030C302000708808080838000038202137
:1019900021221C00180808F8080818000000203F41
:1019A0002000000008F808000008F808001F2020A8
:1019B00020201F000878880000C838080000073879
:1019C0000E010000F80800F80008F800033C0700CA
:1019D000073C0300081868808068180820302C0332
:1019E000032C30200838C800C83808000000203F09
:1019F0002000000010080808C838080020382621F8
:101A000020201800000000FE020202000000007FFB
:101A100040404000000C30C0000000000000000109
:101A20000638C00000020202FE00000000404040F4
:101A30007F00000000000402020204000000000019
:101A40000000000000000000000000008080808096
:101A5000808080800002020400000000000000007E
:101A60000000000000008080808000000019242217
:101A700022223F2008F8008080000000003F112053
:101A800020110E000000008080800000000E112058
:101A900020201100000000808088F800000E112036
:101AA00020103F200000808080800000001F222244
:101AB00022221300008080F0888888180020203FB0
:101AC000202000000000808080808000006B9494C3
:101AD0009493600008F8008080800000203F21007F
:101AE00000203F2000809898000000000020203F48
:101AF00020200000000000809898000000C0808036
:101B0000807F000008F8000080808000203F2402D1
:101B10002D302000000808F8000000000020203FC1
:101B2000202000008080808080808000203F200076
:101B30003F20003F8080008080800000203F210007
:101B400000203F200000808080800000001F2020B7
:101B500020201F00808000808000000080FFA120E6
:101B600020110E000000008080808000000E1120F7
:101B700020A0FF80808080008080800020203F2186
:101B80002000010000008080808080000033242439
:101B900024241900008080E0808000000000001FE5
:101BA000202000008080000000808000001F202096
:101BB00020103F20808080000080808000010E3057
:101BC0000806010080800080008080800F300C03B8
:101BD0000C300F0000808000808080000020312EBB
:101BE0000E312000808080000080808080818E7097
:101BF0001806010000808080808080000021302C49
:101C00002221300000000000807C02020000000061
:101C1000003F404000000000FF0000000000000006
:101C2000FF0000000002027C800000000040403FF6
:101C30000000000000060101020204040000000090
:101C4000000000000000000000000000010203048A
:101C50000607080900000000010203047C1C0008BC
:101C6000000000203C030000B0010008981D00089F
:101C70003C030020440400004012000825106002CC
:101C80008C2BFE92010213FE180A04047E01407E92
:101C900042427E020413427E402809FC242424FC94
:101CA0002526240802110400101140308F80844C36
:101CB00055252525554C808080132244D808C05FC7
:101CC000D555D55FC0784D02090F0802E1D00BFE53
:101CD0000A8ABEAAABAABE8A0A130807D80808094E
:101CE0000A04040A09301EFC4446454401F2FC4B38
:101CF0000F0401E20F180820222222A27EA206CAA7
:101D000020601508040201CD0102040860E80B847C
:101D100044E49C45A61C549474FC1A0F34DC050260
:101D2000053014FE22FED008F89493F29A96F01B28
:101D30000702C1130403D407080CD00C10F05F5540
:101D4000F51555D55FD0103F040705050F0261C991
:101D5000C0C80A10FC03FE2222FE2121C029901ACD
:101D6000072DDA03F1D80C8282BAAAAAABAAAABAC2
:101D700082822E11160E0A0A0A0ECA08305112016A
:101D800014048512140801011B08890801E43201BA
:081D9000821044A24A04000085
:0400000508000131BD
:00000001FF
