:020000040800F2
:10000000581C0020010100088B0F0008EF0D0008AC
:10001000890F0008C3010008D11400080000000087
:100020000000000000000000000000008F11000828
:10003000C5010008000000008D11000891110008A2
:100040001B0100081B0100081B0100081B01000820
:100050001B0100081B0100081B0100081B01000810
:100060001B0100081B0100081B0100081B01000800
:100070001B0100081B0100081B0100081B010008F0
:100080001B0100081B0100081B0100081B010008E0
:100090001B0100081B0100081B0100081B010008D0
:1000A0001B0100081B0100081B0100081B010008C0
:1000B0001B0100081B0100081B0100081B010008B0
:1000C0001B0100081B0100081B0100081B010008A0
:1000D0001B0100081B010008C51400081B010008D3
:1000E0001B0100081B0100081B010008DFF80CD0F1
:1000F00000F02AF800480047A9160008581C002004
:100100000648804706480047FEE7FEE7FEE7FEE7B1
:10011000FEE7FEE7FEE7FEE7FEE7FEE7E511000883
:10012000ED000008D2B201E000F8012B491EFBD21D
:1001300070470022F6E710B513460A4604461946F2
:10014000FFF7F0FF204610BD064C074D06E0E068C3
:1001500040F0010394E8070098471034AC42F6D30E
:10016000FFF7C8FF481700086817000870B58C181B
:1001700010F8015B15F0070301D110F8013B2A11BB
:1001800006D110F8012B03E010F8016B01F8016BA8
:100190005B1EF9D12B0705D40023521E0DD401F8A4
:1001A000013BFAE710F8013BCB1A921C03E013F86D
:1001B000015B01F8015B521EF9D5A142D8D30020A2
:1001C00070BDFEE77047704710B590F8211000240D
:1001D000022903D00421816301243DE001680A68FB
:1001E00022F00E020A6001680A6822F001020A6029
:1001F0001A4A0168914201D1012121E0174A1432C3
:10020000914201D110211BE0144A2832914201D1C0
:10021000891515E0114A3C32914201D189140FE051
:100220000E4A5032914202D14FF4803108E00B4A1D
:100230006432914202D14FF4801101E04FF080719D
:10024000064A083A5160012180F82110002180F807
:100250002010416B01B18847204610BD08000240C4
:1002600070B5044600F0F2F80546601C02D0044860
:100270000078044400F0EAF8401BA042FAD370BDB5
:10028000800700202DE9F84FDFF890A100220AF145
:10029000040B144601274FF00F090BF1040E00BFA9
:1002A0000B6807FA04F52B40AB4274D1DFF870C13C
:1002B0004E68A6EB0C0866452BD00DDC032E34D01F
:1002C00005DC36B3012E19D0022E2FD11BE0112EE2
:1002D00016D0122E2AD119E0B8F5881F19D006DCE5
:1002E000B8F5803F15D0B8F5801F1FD111E0B8F5E3
:1002F000001F0ED0B8F5041F18D10AE0CA6815E037
:10030000CA68121D12E0CA6808320FE0CA680C32CF
:100310000CE08A682AB1012A4FF0080203D0456137
:1003200004E0042202E0056100E00022FF2B01D876
:10033000064601E000F104064FEA840501D9A5F163
:100340002005D6F800C009FA05F82CEA080C02FAD4
:1003500005F54CEA050CC6F800C04D68ED0057D510
:10036000304DAE6946F00106AE61AD6924F003067A
:1003700005F0010500952C4D06EB050CDCF8085046
:10038000A6074FEA167809FA08F6B543274EB04299
:1003900002D1002610E03BE0254EB04201D10126FB
:1003A0000AE0244EB04201D1022605E0224EB042BE
:1003B00001D1032600E0042606FA08F62E43CCF805
:1003C00008604D68DAF80060ED03554601D51E431C
:1003D00000E09E432E604D68DBF80060AD035D4693
:1003E00001D51E4300E09E432E604D68DEF800609C
:1003F000ED02754601D51E4300E09E432E604D6818
:10040000AD020E4D2E6801D51E4300E09E432E60C6
:10041000641C102CFFF444AFBDE8F88F00040140C9
:1004200000001110001002400000014000080140CF
:10043000000C014000100140001401400C04014078
:100440000AB1016170470904FBE7000001488068B8
:10045000704700008007002002488168027811443C
:100460008160704780070020074810B5016841F09F
:1004700010010160032000F073F8002000F006F87E
:1004800000F024F8002010BD0020024070B50D4D92
:1004900004464FF47A712878B1FBF0F00A490968F4
:1004A000B1FBF0F000F0FCFA48B9102C07D20022A2
:1004B0002146501E00F034F800206C6070BD012011
:1004C00070BD0000800700208C0700200C4808B594
:1004D000816941F001018161816901F001010091AF
:1004E000C16941F08051C161C06900F08050009045
:1004F0000448416821F0E06141F00071416008BDAD
:10050000001002400000014000F01F020121914054
:100510004009800000F1E020C0F8001170470000A1
:10052000F0B40E4B1B680C46C3F30223C3F107055E
:10053000042D00D90425191D072901D2002300E04C
:10054000DB1E012606FA05F1491E214099409E4016
:10055000761E16403143F0BC00F018BD0CED00E0F3
:10056000064900F0070208684FF6FF03184040EA0A
:100570000220034A10430860704700000CED00E0C1
:100580000000FA052DE9F047DFF8548105460E46D4
:10059000D8F8000000F00700B0420CD2D8F80010E4
:1005A00021F007013143C8F80010D8F8000000F02E
:1005B0000700B0426FD128684A4C810712D5400726
:1005C00003D5606840F4E06060602878000703D5D8
:1005D000606840F4605060606068A96820F0F000D6
:1005E000084360602878C00744D06868012816D0A6
:1005F0002168022816D0890700294CDA616821F0A9
:10060000030101436160FFF721FF6968074641F27A
:10061000883001290ED00229814618D026E02168B1
:100620008903E9E78901E7E7FFF710FFC11B4945A7
:1006300001D918E081466068C0F381000128F3D138
:1006400018E000BFFFF702FFC11B49450BD86068E7
:10065000C0F381000228F5D10CE000BFFFF7F6FEE1
:10066000C11B494502D90320BDE8F087606810F03E
:100670000C0FF3D1D8F80010404601F00701B14249
:100680000BD9016821F0070131430160006800F0D7
:100690000700B04201D00120E6E72878400705D5E1
:1006A0006068E96820F4E06008436060287800072B
:1006B00006D56068296920F4605040EAC100606096
:1006C00000F036F86168084AC1F30311515CC84074
:1006D000064908600020FFF7D9FE0020C4E70000AB
:1006E0000020024000100240301700088C07002054
:1006F0000448054900684968044AC1F30221515C75
:10070000C84070478C0700200010024040170008C6
:100710000448054900684968044AC1F3C221515C94
:10072000C84070478C0700200010024040170008A6
:1007300012A185B00FC98DE80F0014A0144A0068FB
:1007400004905168134801F00C03042B10D0082BBF
:100750000ED1C1F38343C9031DF803000AD55168C4
:1007600004AAC1F34041515C0A4A5043B0FBF1F086
:1007700005B0704708494843FAE700000203040542
:10078000060708090A0B0C0D0E0F101001020000DD
:100790000010024000127A0000093D002DE9F84FD8
:1007A00004460078B94DC00748D06868C0F381009E
:1007B000012807D06868C0F38100022809D1686861
:1007C000C00306D52868800338D5606800286FD03C
:1007D00034E06068B0F5803F0BD010B1B0F5A02FC9
:1007E00011D0286820F480302860286820F4802008
:1007F00002E0286840F480302860606888B1FFF724
:1008000025FE064609E0286840F480202860F0E7CD
:10081000FFF71CFE801B642875D828688003F7D575
:100820000CE0FFF713FE064605E000BFFFF70EFEE3
:10083000801B6428F0D828688003F7D42078944E71
:1008400080074FF001094FF000083BD5686810F0B1
:100850000C0F07D06868C0F38100022809D16868CE
:10086000C00306D42868800714D5206901281FD149
:1008700010E02069B0B1C6F80090FFF7E7FD074629
:1008800005E000BFFFF7E2FDC01B0228C4D82868BE
:100890008007F7D52868616920F0F80040EAC100B8
:1008A00028600FE0C6F80080FFF7D0FD074606E09D
:1008B000E9E000BFFFF7CAFDC01B022823D8286863
:1008C0008007F7D4207800072CD57248A169D9B1E8
:1008D000C0F80090FFF7BAFD074604E0FFF7B6FD49
:1008E000C01B02280FD8686A8007F7D56A484FF402
:1008F000FA510068B0FBF1F0009000BF0098411E73
:100900000091FAD20EE080E0C0F80080FFF79EFD73
:10091000074604E0FFF79AFDC01B022875D8686AF5
:100920008007F7D42078400760D5E8690027C00029
:1009300008D4E86940F08050E861E869012700F0D8
:100940008050009055480168C90513D4016883465A
:1009500041F480710160FFF779FD824606E000BF37
:10096000FFF774FDA0EB0A0064284ED8DBF8000006
:10097000C005F5D5E06801280AD008B1052813D0D4
:10098000286A20F001002862286A20F0040002E0B2
:10099000286A40F001002862E06841F2883B98B183
:1009A000FFF754FD82460BE0286A40F004002862FD
:1009B000EEE700BFFFF74AFDA0EB0A0159455AD800
:1009C000286A8007F6D50CE0FFF740FD824605E077
:1009D000FFF73CFDA0EB0A0159454CD8286A800777
:1009E000F6D41FB1E86920F08050E861E06988B36F
:1009F0006968C1F38101022945D00228C6F86080E8
:100A000004D0FFF723FD044638E034E0FFF71EFD75
:100A1000074604E0FFF71AFDC01B02282BD8286800
:100A20008001F7D4206AB0F5803F05D16868A168DD
:100A300020F4003008436860D4E90801084369687D
:100A400021F4741108436860C6F86090FFF7FEFC5B
:100A5000044606E015E000BFFFF7F8FC001B022883
:100A600009D828688001F7D50BE000BFFFF7EEFC3E
:100A7000001B022802D90320BDE8F88F28688001F6
:100A8000F4D40020F8E70120F6E70000001002404F
:100A900000004242800442428C0700200070004067
:100AA00010B5401EB0F1807F01D3012010BD4FF082
:100AB000E02460610F21601700F068FA0020A06157
:100AC00007202061002010BD7047000070B502684B
:100AD00004461068D168536910F00F0F51D003F02D
:100AE000010501F4907635435DD0C20705D0CA05F3
:100AF00003D5E26B42F00102E263420705D5DA0753
:100B000003D0E26B42F00202E263820705D5DA0706
:100B100003D0E26B42F00402E263020705D5DA0774
:100B200003D0E26B42F00802E263E26B002A34D0A9
:100B3000800604D5880602D5204600F08DFB20688B
:100B40004069E16BC0F3801001F0080101432046C9
:100B500024D000F073FB2068416949061AD5416929
:100B600021F040014161606BA0B11B494163606BA2
:100B7000FFF72AFB002810D0606B416BBDE8704086
:100B8000084783060FD58B060DD52046BDE870407B
:100B900000F062BB2046FFF797FF70BDFFF794FFA0
:100BA0000020E06370BD030606D50B0604D5204681
:100BB000BDE8704000F054BC4006F3D54806F1D5BE
:100BC000D168204621F04001D160202184F83910FD
:100BD00000F00CF970BD00002D12000870B5040083
:100BE00004D094F83900002510B106E0012070BD52
:100BF00084F83850204600F023F8242084F8390087
:100C00002068C16821F40051C160204600F070FBEB
:100C10002068016921F4904101612068416921F057
:100C20002A0141612068C16841F40051C160E56357
:100C3000202084F8390084F83A00002070BD0000BC
:100C4000F0B585B0002400940194029403940368E5
:100C5000394F022039490322394D4602BB421AD18D
:100C60008B6943F480438B618B6903F48043049365
:100C70008B6943F004038B618969039201F00401DD
:100C800004910102CDE9001069462846FFF7FAFAFF
:100C9000CDE900644AE02B4FBB4229D1CB6943F434
:100CA0000033CB61CB6903F4003304938B6943F0C9
:100CB00004038B618969039201F00401049104210A
:100CC000CDE9001069462846FFF7DCFA0820CDE997
:100CD0000004694628460294FFF7D4FA0022114620
:100CE0002620FFF71DFC2620FFF70EFC05B0F0BD07
:100CF000154DAB42FAD1CB6943F48023CB61CB696C
:100D000003F4802304938B6943F008038B618969A2
:100D10000E4D01F00801CDE90321CDE900606946DF
:100D20002846FFF7AFFAE814CDE9000469462846E3
:100D30000294FFF7A7FAD9E70038014000100240FB
:100D4000000801400044004000480040000C014001
:100D500090F83A30202B22D1F9B1F2B190F8383026
:100D6000012B1CD081628285C2850021C1632222B1
:100D700080F83A2080F838100168CA6842F480721E
:100D8000CA6001684A6942F001024A610068C168AC
:100D900041F02001C160002070470120704702200F
:100DA0007047000010B500680A49884210D10A490E
:100DB0000AA000F0E5FB4FF480510748FFF7B9F9AE
:100DC000BDE810404FF4036203490748FFF7C0BF76
:100DD00010BD000000440040940700206A736F6E4D
:100DE000203D2025730D0A00D41700207047FEE730
:100DF00010B50B4C012240212046FFF721FB0122B8
:100E000080212046FFF71CFB002280212046FFF7AF
:100E100017FB20460022BDE810404021FFF710BB21
:100E2000000C014010B5094C012240212046FFF77B
:100E300007FB002280212046FFF702FB204601220B
:100E4000BDE810408021FFF7FBBA0000000C014014
:100E500010B5064C012240212046FFF7F1FA20464A
:100E60000022BDE810404021FFF7EABA000C014023
:100E700030B585B00024184800940194029403947E
:100E8000816941F020018161816901F020010491B3
:100E9000816941F004018161816901F004010491DB
:100EA000816941F00801816180690C4D00F0080002
:100EB00004900122C0212846FFF7C2FAC02000900A
:100EC0000120CDE901040220039069462846FFF77E
:100ED000D9F905B030BD000000100240000C0140FF
:100EE0000C4810B50A4901604FF4E131416000211E
:100EF00081600C22C160C0E904128161C161FFF709
:100F00006DFE002803D0BDE81040FFF75CB910BDAE
:100F100000380140941700200C4810B50A490160C0
:100F20004FF4E1314160002181600C22C160C0E9D1
:100F300004128161C161FFF751FE002803D0BDE8B2
:100F40001040FFF740B910BD00440040D417002006
:100F50000C4810B50A4901604FF4E13141600021AD
:100F600081600C22C160C0E904128161C161FFF798
:100F700035FE002803D0BDE81040FFF724B910BDAE
:100F80000048004014180020FEE770470907090ECA
:100F9000002806DA00F00F0000F1E02080F8141DB0
:100FA000704700F1E02080F80014704770B500240D
:100FB000002104F1B00000F0E3F80021084600F041
:100FC000DFF80021102000F0DBF8002501210020CF
:100FD00000F0D6F86D1CEDB2802DF7D3641CE4B29E
:100FE000082CE5D370BD2DE9F04798461746824698
:100FF00000260C46DDF8209011E02146504600F016
:1010000081F8554607E019F806000121761C00F02A
:10101000B7F86D1CEDB2BD42F5D3641CE4B2444593
:10102000EBD3BDE8F08710B50021AE2000F0A8F8A2
:101030000021084600F0A4F80021102000F0A0F8DC
:101040000021402000F09CF80021B02000F098F82A
:101050000021812000F094F80021FF2000F090F89A
:101060000021A12000F08CF80021A62000F088F8D3
:101070000021A82000F084F800213F2000F080F833
:101080000021C82000F07CF80021D32000F078F87F
:101090000021084600F074F80021D52000F070F817
:1010A0000021802000F06CF80021D82000F068F8C2
:1010B0000021052000F064F80021D92000F060F83C
:1010C0000021F12000F05CF80021DA2000F058F84F
:1010D0000021122000F054F80021DB2000F050F82D
:1010E0000021302000F04CF800218D2000F048F85D
:1010F0000021142000F044F80021BDE81040AF208A
:1011000000F03EB810B50A460446002102F1B000D6
:1011100000F036F8102040EA1410002100F030F8FA
:1011200004F00F00BDE81040002100F029B80000D5
:101130002DE9F04115460E460746FFF7E3FF0F483D
:10114000002400EB85150121285D00F019F8641CCE
:10115000E4B2102CF7D3761CF1B23846FFF7D2FF79
:1011600000242819012190F8200000F009F8641CDF
:10117000E4B2102CF5D3BDE8F0810000000000209F
:10118000C0B209B100F0E5B900F0CCB970477047C2
:10119000FFF762B930B58FB028216846FEF7C9FF66
:1011A00014210AA8FEF7C5FF01210804CDE90010AB
:1011B0000024029402250491CDE907504FF4E01079
:1011C00009906846FFF7EAFA0F20CDE90A056802A0
:1011D000CDE90C4002210AA80E94FFF7D3F90FB015
:1011E00030BD00000D48016841F001010160416817
:1011F0000B4A1140416001680A4A114001600168D0
:1012000021F480210160416821F4FE0141604FF426
:101210001F0181600449C00308607047001002404C
:101220000000FFF8FFFFF6FE08ED00E010B5406A91
:101230000021C185C184FFF747FC10BD0168CA6861
:1012400022F49072CA6001684A6922F001024A6180
:10125000202180F83A10704710B590F83A102229F2
:1012600001D0022010BD8168B1F5805F11D0016905
:10127000002901681FD0496801F07F03816A4A1C78
:1012800082620B70C18D491E0904090CC18518D0FA
:101290002BE00269816A002A0268526805D0D2B246
:1012A0000A80816A491C8162ECE7C2F308020A8065
:1012B000816A891CF7E74A68816A4B1C83620A705D
:1012C000E0E70168CA6822F02002CA600168CA68C3
:1012D00022F48072CA6001684A6922F001024A6100
:1012E000202180F83A10FFF75DFD002010BD0000BE
:1012F0002DE9F041044600680169E26821F440519B
:10130000114301612169A0680843616908432168AC
:10131000CA6841F20C639A430243CA60206841697B
:10132000A26921F44071114341614C492068642550
:10133000322688423CD1FFF7EBF900EBC00101EB0C
:10134000001061688900B0FBF1F7FFF7E1F900EBED
:10135000C00101EB00106168B0468900B0FBF1F0FC
:10136000B0FBF5F06FF01801484307EB800106EB86
:101370000110B0FBF5F000F0F006FFF7C9F900EB43
:10138000C00101EB001061688900B0FBF1F0B0FB17
:10139000F5F006EB0016FFF7BBF900EBC00101EB1F
:1013A000001061688900B0FBF1F7FFF7B1F93BE08D
:1013B000FFF79EF900EBC00101EB001061688900A6
:1013C000B0FBF1F7FFF794F900EBC00101EB00105F
:1013D0006168B0468900B0FBF1F0B0FBF5F06FF04A
:1013E0001801484307EB800106EB0110B0FBF5F054
:1013F00000F0F006FFF77CF900EBC00101EB0010F4
:1014000061688900B0FBF1F0B0FBF5F006EB001667
:10141000FFF76EF900EBC00101EB00106168890075
:10142000B0FBF1F7FFF764F900EBC00101EB00102E
:1014300061688900B0FBF1F0B0FBF5F06FF01801C6
:10144000484307EB800108EB0110B0FBF5F0216881
:1014500000F00F0030448860BDE8F08100380140A2
:1014600090F83910212901D0022070478168B1F528
:10147000805F016A0BD04A1C0262026809785160E1
:10148000C18C491E0904090CC1840ED017E00988DB
:101490000268C1F30801516001690029016A02D0A4
:1014A000491C0162ECE7891CFBE70168CA6822F06D
:1014B0008002CA600068C16841F04001C16000203C
:1014C000704700000148FFF701BB0000D41700205F
:1014D000FEE7000070B5124E04460022402130465F
:1014E000FEF7AEFF5FF0000504F08000802815D005
:1014F000002280213046FEF7A3FF6006040E012281
:1015000040213046FEF79CFF002240213046FEF786
:1015100097FF6D1CEDB2082DE6D370BD0122E8E700
:10152000000C014010B50446FFF762FC7820FFF77D
:10153000D1FFFFF78DFC0020FFF7CCFFFFF788FC01
:101540002046FFF7C7FFFFF783FCBDE81040FFF719
:1015500069BC10B50446FFF74BFC7820FFF7BAFFD3
:10156000FFF776FC4020FFF7B5FFFFF771FC204640
:10157000FFF7B0FFFFF76CFCBDE81040FFF752BC6F
:101580000FB4054B10B503A9044A029800F017F8F0
:1015900010BC5DF814FB00009516000890070020B1
:1015A00002E008C8121F08C1002AFAD1704770472C
:1015B000002001E001C1121F002AFBD170472DE974
:1015C000F84F9946924688460546002706E02528AA
:1015D0000AD051464A4690476D1C7F1C2878002847
:1015E000F5D13846BDE8F88F002315F8011F1846DD
:1015F0002E2915D115F8011F04232A290DD06FF0CB
:101600002F022978A1F13004092C09D800EB8000C1
:1016100002EB400008446D1CF3E758F8040B6D1C06
:101620002A78002ADDD0632A07D0732A0FD010460B
:1016300051464A4690477F1C2AE018F8042B8DF843
:10164000002000218DF801106E46012103E058F8BA
:10165000046B4FF0FF315A074FF0000401D409E04A
:10166000641C84420BDA8C42FADB325D002AF7D12B
:1016700005E0641C8C42FCDB305D0028F9D1274476
:1016800004E016F8010B51464A469047641EF8D212
:101690006D1CA3E703490A681206FCD50149091D20
:1016A000086070470038014008B5FEF7DDFEFFF71F
:1016B00071FDFFF7DDFBFFF713FCFFF72DFCFFF7D4
:1016C00047FCFFF7B0FCFFF771FC00221146104603
:1016D000FFF72EFD012200211220FFF729FD022233
:1016E00000212420FFF724FD032200213620FFF7EC
:1016F0001FFD042200214820FFF71AFD05220021CA
:101700005A20FFF715FD062200216C20FFF710FD7F
:10171000064D4FF47A740021082380220846009574
:10172000FFF761FC2046FEF79BFDF4E780030020F5
:101730000000000000000000010203040607080981
:1017400000000000010203046817000800000020E8
:10175000940700006C010008BC19000894070020E1
:10176000C4140000B0150008211BF010012AFF0569
:101770000215F01B0F04012AFF0502130F18094080
:1017800040405F55555575041A5F0C091121080C2E
:1017900011200F094989790909090F201F112FFE0E
:1017A00002424ACA4A0304134202FE000E14FF40DA
:1017B000504C4340404F50505C40FF1BF888012A7A
:1017C000FF050215F81B1F08012A7F200B109F80C0
:1017D000E23B808201000916E2A2928A8682808022
:1017E000041840807F172424A4FEA3221B22CCAA25
:1017F000011415080601FF2B0104010511FF020267
:10180000025808101010FF109008C3021108080FAA
:10181000100444827F01808040432C10284681A020
:1018200018094040484848C8784F060515484840C0
:10183000400009150312122222528A063C106080D1
:10184000BA19040B11C030FB1E404043407F061CF8
:101850007F424106094FC02941080B1110D030FFCB
:1018600030D0121C10101F3D080402019E0D110102
:10187000020408211116FE222222FE0712FE828295
:1018800092A29E100880601F0242827F0F11FF40CB
:101890002F102C438011000B1490884C57A4245413
:1018A000548C84180801018042221A07441D423ECC
:1018B00001018AF9E1000D14E4242CB4252624B496
:1018C0002C24E404180AFF02011E1212121E418683
:1018D000011316060AFE0AC612E012F05AF8D04D9D
:1018E0007DBBC7EF01053EC7BB7DFE300D080CFE7A
:1018F000FE0C082060FEFE60208F7848FE82BABA97
:101900000309135E19E78901017E6CFEFF0301CB19
:10191000FFFF0F39BBECC0C0C0271918F9270139E8
:101920002975990B6CFFFF0C01491A0C22E1E1E1CA
:101930002701396C0F1F1801FB1F0F0F092E2701FC
:1019400036168C4222120C26FC020202FC3304FEE4
:1019500016205844FE402A10015912491E4912A966
:101960002A0123300A24A42E24E4242EA424C00A0D
:10197000F84A4C48F8484C4AF82A01013907490D01
:101980005915991F9918091412712BC020A1AB2069
:10199000C00A11300A120A07027F02070A121E0B40
:1019A0000A0A0A7F0402560B980A1F204040405042
:0C19B000205F800A29A5821044A24A048E
:04000005080000ED02
:00000001FF
