:020000040800F2
:10000000F8040020450100085F210008151B0008C6
:100010005D210008030B00084525000800000000D2
:10002000000000000000000000000000392300086C
:10003000D50C000800000000812100083B230008C7
:100040005F0100085F0100085F0100085F01000810
:100050005F0100085F0100085F0100085F01000800
:100060005F0100085F0100085F0100085F010008F0
:100070005F0100085F0100085F0100085F010008E0
:100080005F0100085F0100085F0100085F010008D0
:100090005F0100085F0100085F0100085F010008C0
:1000A0005F0100085F0100085F0100085F010008B0
:1000B0005F0100085F0100085F0100085F010008A0
:1000C0005F0100085F0100085F0100085F01000890
:1000D0005F0100085F0100085F0100085F01000880
:1000E0005F0100085F0100085F0100085F01000870
:1000F0005F0100085F0100085F0100085F01000860
:100100005F0100085F0100085F0100085F0100084F
:100110005F0100085F0100085F0100085F0100083F
:100120005F0100085F0100085F0100085F0100082F
:10013000DFF80CD000F082FC00480047254400089E
:10014000F80400200648804706480047FEE7FEE71F
:10015000FEE7FEE7FEE7FEE7FEE7FEE7FEE7FEE777
:100160008D230008310100082DE9F0410024061B11
:10017000254671F1000605DA01240027D0EB0700BF
:1001800067EB0101161E73F1000605DA0027D2EBBA
:100190000702012567EB030300F022FB86460E46AB
:1001A00017469C46AC4204D00025D0EB050E65EB0B
:1001B000010624B10020D2EB000760EB030C70466F
:1001C00031463A466346BDE8F081202A04DB203AF6
:1001D00021FA02F00021704721FA02F3D040C2F167
:1001E00020029140084319467047D2B201E000F85E
:1001F000012B491EFBD270470022F6E710B51346CB
:100200000A4604461946FFF7F0FF204610BD30B5F8
:1002100004460020034600E05B1C934203D2E05CEE
:10022000CD5C401BF8D030BDF0B480EA0102D40FA1
:100230004200B2EB410F02D20246084611464A0084
:1002400042D0C30DDDB2C1F3C752AD1A202D35DA4D
:10025000C1F3160141F4000204B15242C5F1200677
:1002600002FA06F12A411044B3EBD05F23D0C4B1A7
:10027000012DA0EBC35009DCF0BC4FF0004202EAB4
:10028000C352DBB200F5000000F005BB400000F1F6
:10029000807000EBC350A0F1807040EAD17049003B
:1002A00009E0490841EAC071A0EBC35000F5000025
:1002B000400800EBC350F0BC00F0E4BA61420122F8
:1002C00002EB4101001BF6E7F0BC704781F00041F2
:1002D000AAE780F00040A7E780EA010210B502F02B
:1002E0000043400022D04A001FD0010E01EB1261F2
:1002F000C0F35600C2F3560240F4000042F400027C
:10030000A0FB022000047F39140400D0401C50EAF6
:10031000124001D44000491EC2B20C0604EBD010BA
:10032000401C4008802A02D003E0002010BD20F0CD
:100330000100002900DA0020184310BD30B480EA23
:10034000010202F0004530F0004221F0004013D0DD
:1003500090B1C30DD40DC2F31601C0F31600E41A18
:1003600041F4000140F400027D34914201D3641C49
:1003700000E04900002C02DA30BC002070474FF446
:1003800000000023914201D3891A034340084FEA39
:100390004101F7D151B1914202D14FF0004105E046
:1003A00002D24FF0010101E06FF0010103EBC450F4
:1003B000284430BC00F066BA420005D0C0F3C752F2
:1003C0005242914201DC0020704700EBC15070475F
:1003D0002DE9FE4F804681EA0300C00F0C460090D5
:1003E00021F0004123F00045B8EB0200A94105D2FD
:1003F0004046214690461C460B46024623F00040EC
:10040000104347D0270DC7F30A00C3F30A510290E7
:10041000401A019040286BDAC3F3130040F4801BAC
:100420000098924620B10023D2EB030A63EB0B0B3A
:1004300001985946C0F14002504600F002FA0646C3
:100440000D4650465946019A00F00AFA10EB080092
:100450006141002487EA115284EAE7731A4340D0CD
:10046000009A62B3019A012A4FEA075215DC001B79
:1004700061EB02014FF0004202EA0752CDE900426F
:10048000001C41F5801132462B4600F041FA03B0C2
:10049000BDE8F08F40462146F9E7001B61EB020101
:1004A000001C41F5801300185B412018A2F50017CD
:1004B00047EB030140EAD570B6196D4111E06D08B4
:1004C0004FEA360645EAC0754FEA0752001B61EB5A
:1004D0000201001C41F5801149084FEA3000001963
:1004E000514132462B4603B0BDE8F04F00F001BA4F
:1004F0000098012240000023D0EB020263EBE0737E
:10050000009821464FEAE074B8EB000061EB04016B
:10051000E9E783F000435BE781F0004158E72DE90C
:10052000FE4F81EA030404F0004421F000410094EE
:100530004FF0000B23F0004350EA01045ED052EA72
:1005400003045BD0C3F30A54C1F30A552C44A4F24C
:10055000F3340194A0FB0254C1F3130141F4801160
:10056000C3F3130343F4801301FB024400FB034E67
:10057000840A970A44EA815447EA8357A4FB076830
:1005800002958D0A05FB07854FEA932C04FB0C545A
:100590002705029D4FEA065847EA1637B5EB0805CE
:1005A0006EEB070C870E920E47EA811742EA831220
:1005B000A7FB0201B6EB0B0164EB00042B0D43EA31
:1005C0000C335E1844EB1C50DA465146E7FB02013F
:1005D000C5F313044FEA0B3343EA14534FEA0432D2
:1005E000019C43EA0603A4F10C040294009CCDE9AB
:1005F00000B400F08DF903B0BDE8F08F0020014693
:10060000F9E72DE9F04D81EA030404F0004B21F0F5
:10061000004514464FF0000A23F0004150EA05025D
:1006200020D054EA01021DD0C5F30A570246C5F393
:100630001303C1F31300C1F30A5640F4801543F4C9
:100640008013A7EB0608101BD64608F2FD3873EBA3
:10065000050002D308F1010801E092185B41B8F1EE
:10066000000F03DA00200146BDE8F08D00204FF4B2
:100670008011064684460EE0171B73EB050705D371
:10068000121B63EB050306434CEA010C49084FEAD1
:10069000300092185B4150EA0107EDD152EA0300A5
:1006A00012D082EA040083EA0501084305D0101B3A
:1006B000AB4106D20122002306E000224FF00043A6
:1006C00002E06FF0010253101AEB06004CEB0851E8
:1006D00010EB0A0041EB0B01BDE8F04D00F009B949
:1006E000C10F80EAE0700844CA079623002100F099
:1006F000D2B896230022114600F0CDB800F0004297
:1007000020F00040C10DC0F3160040F400007F2926
:1007100001DA00207047962903DCC1F19601C84038
:1007200001E096398840002AF4D04042704720F01A
:100730000040C10DC0F3160040F400007F2901DA2B
:1007400000207047962903DCC1F19601C84070472C
:1007500096398840704700F0004230F000400AD0DF
:10076000C10D01F56071C0F3160042EA0151C208E3
:1007700040071143704700200146704701F00043D5
:1007800030B421F0004150EA010206D00A0DA2F572
:100790006072C1F31301002A02DC30BC00207047F4
:1007A000440F44EAC104C100E01830BC00EBC25061
:1007B00000F068B830B50B46014600202022012425
:1007C00009E021FA02F59D4205D303FA02F5491B1F
:1007D00004FA02F52844151EA2F10102F1DC30BD35
:1007E0002DE9F05F0546002092469B468846064666
:1007F000814640241BE02846414647462246FFF7F3
:10080000E4FC53465A46C01A914110D3114618468B
:10081000224600F016F82D1A67EB01084F462246D3
:100820000120002100F00DF817EB00094E41201EB9
:10083000A4F10104DFDC484631462A464346BDE8C0
:10084000F09F202A04DB203A00FA02F100207047D2
:100850009140C2F1200320FA03F3194390407047FE
:10086000202A06DBCB17203A41FA02F043EAE07374
:1008700006E041FA02F3D040C2F120029140084361
:10088000194670470029A8BF7047401C490008BF9F
:1008900020F00100704710B4B0FA80FC00FA0CF0B0
:1008A00050EA010404BF10BC704749B1CCF12004E8
:1008B00021FA04F411FA0CF118BF01212143084375
:1008C000A3EB0C01CB1D4FEA00614FEA102042BFA1
:1008D000002010BC704700EBC35010440029A4BF97
:1008E00010BC7047401C490008BF20F0010010BC3C
:1008F000704710B5141E73F1000408DA401C41F172
:10090000000192185B411A4301D120F0010010BD93
:100910002DE9F04D92469B4611B1B1FA81F202E009
:10092000B0FA80F220329046FFF78BFF04460F4664
:1009300040EA0A0041EA0B0153465A46084313D0E5
:10094000114653EA010019D0C8F140025046FFF7A2
:100950003CFC05460E46504659464246FFF771FF9D
:10096000084305D0012004E020463946BDE8F08D5B
:100970000020054346EAE0762C4337430A98630596
:10098000E40AA0EB08000022FD0A44EA47540A30BA
:1009900002D500200146E9E7010510196941DDE9AA
:1009A000084500196941BDE8F04DA2E770B521F096
:1009B000004303430CD0C1F30A550024D5EB0405D2
:1009C00064EB0403D617AD1AB34102DB00200146E5
:1009D00070BD201841EB025170BDC1F30A52C1F342
:1009E000130140F2FF3341F480119A4202DA0020F1
:1009F0000146704740F233439A42A2F2334202DC8E
:100A00005242FFF7E2BBFFF71CBF000030B5041EE7
:100A100071F1000404DB4FF00044404264EB01013B
:100A2000141E73F1000405DB1C464FF000435242D4
:100A300063EB0403994208BF904230BD064C074D5A
:100A400006E0E06840F0010394E80700984710349E
:100A5000AC42F6D3FFF770FB10600008306000086E
:100A60002DE9F04D00231A461B1A8A4103DB0020B2
:100A70000146BDE8F08DC1F30A52C1F3130141F400
:100A800080154FF0000BD10702D100186D41521EA6
:100A90000027044640F2FF11384601EB620A3E4649
:100AA0008046024600204FF48011FFF78EFBC219EA
:100AB0007141BB1846EB0100B4EB030C75EB000C65
:100AC00004D3E41A65EB000517460E46241908F115
:100AD00001006D4180463428E3DDF91946EB06003C
:100AE000091BA84103D24FF0FF32134601E0002258
:100AF00013461BEB070046EB0A51BDE8F04DFFF72C
:100B0000F8BEFEE710B503F0E5FD00283ED17820E1
:100B100004F088FA10B91EA001F016FD782003F049
:100B20000BFD10B923A001F00FFD642004F03CFA86
:100B300010B92AA001F008FD02F0C0FE10B931A0E2
:100B400001F002FD3C4803F037FC03F067F810B9F0
:100B50003AA001F0F9FC40F2731002F087FD10B9E1
:100B600040A001F0F1FC642002F0C0FF10B947A0E2
:100B700001F0EAFC04F0D6FA012004F045F900285F
:100B800004D1BDE810404AA001F0DEBC10BD000059
:100B90006D70755F7365745F73656E736F722063DC
:100BA0006F6D706C657465202E2E2E2E2E2E0D0A04
:100BB000000000006D70755F636F6E666967757227
:100BC000655F6669666F20636F6D706C6574652024
:100BD0002E2E2E2E2E2E0D0A000000006D70755F39
:100BE0007365745F73616D706C655F7261746520AD
:100BF000636F6D706C657465202E2E2E2E2E2E0D5B
:100C00000A000000646D705F6C6F61645F6D6F74EB
:100C1000696F6E5F6472697665725F6669726D771F
:100C200061726520636F6D706C657465202E2E2E69
:100C30002E2E2E0D0A0000003C000020646D705F17
:100C40007365745F6F7269656E746174696F6E202D
:100C5000636F6D706C657465202E2E2E2E2E2E0DFA
:100C60000A000000646D705F656E61626C655F66AE
:100C700065617475726520636F6D706C6574652055
:100C80002E2E2E2E2E2E0D0A00000000646D705F99
:100C90007365745F6669666F5F7261746520636F08
:100CA0006D706C657465202E2E2E2E2E2E0D0A0072
:100CB0006D70755F7365745F646D705F737461747C
:100CC0006520636F6D706C657465202E2E2E2E2E40
:100CD0002E0D0A007047704770B5044600F002F907
:100CE0000546601C02D004480078044400F0FAF87D
:100CF000401BA042FAD370BD000000202DE9F84F40
:100D0000DFF8B8A100220AF1040B144601274FF0C6
:100D10000F090BF1040E00BF0B6807FA04F52B4016
:100D2000AB4274D1DFF898C14E68A6EB0C0866455B
:100D30002BD00DDC032E34D005DC36B3012E19D0B8
:100D4000022E2FD11BE0112E16D0122E2AD119E01F
:100D5000B8F5881F19D006DCB8F5803F15D0B8F576
:100D6000801F1FD111E0B8F5001F0ED0B8F5041F89
:100D700018D10AE0CA6815E0CA68121D12E0CA68F4
:100D800008320FE0CA680C320CE08A682AB1012AE6
:100D90004FF0080203D0456104E0042202E005613F
:100DA00000E00022FF2B01D8064601E000F1040616
:100DB0004FEA840501D9A5F12005D6F800C009FA4B
:100DC00005F82CEA080C02FA05F54CEA050CC6F801
:100DD00000C04D68ED006AD53A4DAE6946F0010697
:100DE000AE61AD6924F0030605F001050095364DAE
:100DF00006EB050CDCF80850A6074FEA167809FA4E
:100E000008F6B543314EB04202D100261AE04EE05A
:100E10002F4EB04201D1012614E02E4EB04201D136
:100E200002260FE02C4EB04201D103260AE02B4EE1
:100E3000B04201D1042605E0294EB04201D1052679
:100E400000E0062606FA08F62E43CCF808604D6846
:100E5000DAF80060ED03554601D51E4300E09E43DD
:100E60002E604D68AD0305D5DBF800601E43CBF85E
:100E7000006004E0DBF800509D43CBF800504D6863
:100E8000DEF80060ED02754601D51E4300E09E438A
:100E90002E604D68AD0205D5084D0C352E681E43F9
:100EA0002E6004E0054E0C3635689D433560641CA9
:100EB000102CFFF431AFBDE8F88F000000040140B2
:100EC0000000111000100240000001400008014025
:100ED000000C0140001001400014014000180140C6
:100EE000001C01400148806870470000000000209D
:100EF00070B504001BD094F83D00002520B984F89B
:100F00003C50204600F042FA242084F83D0020683E
:100F1000016821F00101016000F0A6FB404A616810
:100F2000914201D83F4900E03F49884201D2012067
:100F300070BD3E492368B0FBF1F15960636893428C
:100F400006D94FF4967359434FF47A73B1FBF3F11A
:100F50002368491C19626168914210D84900401EFB
:100F6000B0FBF1F2521CC2F30B02042A01D204209E
:100F700022E0B0FBF1F0401CC0F30B001CE0A368C2
:100F8000CBB301EBC10202EB0116421EB2FBF6F23B
:100F9000521C42F48042120536D06BB301EBC10201
:100FA00002EB0111401EB0FBF1F0401CC0F30B003E
:100FB00040F4804040F400402168C861D4E9070152
:100FC000084321680860D4E9031008432168886059
:100FD000D4E9050108432168C8602068016841F030
:100FE000010101602564202084F83D00256384F818
:100FF0003E50002070BD00E008E001EB4106421EBB
:10100000B2FBF6F2521CC6E70120D5E701EB410125
:10101000401EB0FBF1F0401CC0F30B00CAE700001B
:10102000A086010080841E0000093D0040420F00A0
:101030002DE9FF4F83B09A46DDE9118793460446B8
:10104000DDF84090FFF74EFF054694F83D0020285C
:1010500072D1192301227B492046009500F05FFEE2
:101060000028F5D194F83C00012865D0012084F8CF
:101070003C0020680168C90703D1016841F0010103
:1010800001602068016821F400610160222084F879
:101090003D00402084F83E0000262664C4F82490D9
:1010A000A4F82A806848E062608D2085CDE900754B
:1010B00053465A462046049900F041FD28B1206C61
:1010C00084F83C60042851D075E0208DDFF87C81E5
:1010D00068B1012814D00228206801681ED041F4AC
:1010E0008061016020684169806900909BE0206810
:1010F000416981690091016841F40071016092E0E9
:101100002068016821F48061016072B6206841693D
:1011100081690091016841F400710AE041F40061C5
:10112000016072B62068416981690091016821F40B
:101130008061016062B676E081E0032850D8012822
:101140000BD002283B464FF0000241462046009556
:1011500012D000F0E4FD70BB13E02A463946204669
:1011600000F052FE30B1206C202824D0012007B0BE
:10117000BDE8F08F20684BE000F0D1FDD8B972B621
:101180001BE02068016821F48061016072B620686C
:101190000169606A421C62620170208D401E2085D8
:1011A000608D401E60853B460022414620460095EA
:1011B00000F0B5FD08B10320D9E72068016841F4CB
:1011C0000071016020680169606A421C62620170FE
:1011D000208D401E2085608D401E608562B6C9E767
:1011E0002A463946204600F00FFE0028BBD1206871
:1011F0000169606A421C62620170208D401E208578
:10120000608D401E608520684169C94349070AD442
:101210000169606A421C62620170208D401E208557
:10122000608D401E6085208D002886D1202084F8A6
:101230003D0084F83E6084F83C60002097E702207F
:1012400095E70000020010000000FFFF040001000D
:101250002DE9FF4F83B09A46DDE911879346044696
:10126000DDF84090FFF73EFE064694F83D0020284A
:101270007DD11923012243492046009600F04FFDFD
:1012800000287CD194F83C00012878D0012084F813
:101290003C0020680168C90703D1016841F00101E1
:1012A00001602068016821F400610160212084F858
:1012B0003D00402084F83E0000252564C4F82490B9
:1012C000A4F82A803048E062608D2085CDE9007660
:1012D00053465A462046049900F0AAFC80B3206C7D
:1012E00084F83C50042848D008E03246394620466D
:1012F00000F0BBFD30B1206C042839D0032007B0CA
:10130000BDE8F08F606A411C616221680078086165
:10131000208D401E80B22085618D491E6185216827
:101320004A69D24352070BD468B1606A421C6262B8
:1013300000780861208D401E2085608D401E6085EC
:10134000208D0028D1D132463946204600F0C0FC1D
:101350000028D0D154F83D0B016841F400710160C0
:10136000202004F81E09E57765770020C7E706E02E
:101370002068016841F4007101600120BFE702208C
:10138000BDE70000020010000000FFFF10B586B0AE
:101390000021009101910291039100680F49884258
:1013A0001AD10F4CA06940F00800A061A0696946FD
:1013B00000F008000490C02000901220019003204B
:1013C00003900848FFF79AFCE06940F40010E061E0
:1013D000E06900F40010049006B010BD0054004015
:1013E00000100240000C014002488168027811445C
:1013F0008160704700000020074810B5016841F087
:1014000010010160032000F067F8002000F006F8EA
:1014100000F024F8002010BD0020024070B50D4DF2
:1014200004464FF47A712878B1FBF0F00A49096854
:10143000B1FBF0F000F0F0FA48B9102C07D200220E
:101440002146501E00F028F800206C6070BD01207D
:1014500070BD0000000000200C0000200C4808B502
:10146000816941F001018161816901F0010100910F
:10147000C16941F08051C161C06900F080500090A5
:101480000448416821F0E06141F00071416008BD0D
:101490000010024000000140F0B40E4B1B680C46E7
:1014A000C3F30223C3F10705042D00D90425191D38
:1014B000072901D2002300E0DB1E012606FA05F110
:1014C000491E214099409E40761E16403143F0BC93
:1014D00000F046BE0CED00E0064900F00702086887
:1014E0004FF6FF03184040EA0220034A1043086009
:1014F000704700000CED00E00000FA052DE9F04710
:10150000DFF8548105460E46D8F8000000F00700C9
:10151000B0420CD2D8F8001021F007013143C8F8CE
:101520000010D8F8000000F00700B0426FD1286822
:101530004A4C810712D5400703D5606840F4E0604B
:1015400060602878000703D5606840F460506060F0
:101550006068A96820F0F000084360602878C00740
:1015600044D06868012816D02168022816D089075F
:1015700000294CDA616821F0030101436160FFF743
:10158000B1FC6968074641F2883001290ED0022972
:10159000814618D026E021688903E9E78901E7E759
:1015A000FFF7A0FCC11B494501D918E081466068DE
:1015B000C0F381000128F3D118E000BFFFF792FCCF
:1015C000C11B49450BD86068C0F381000228F5D1E2
:1015D0000CE000BFFFF786FCC11B494502D9032080
:1015E000BDE8F087606810F00C0FF3D1D8F8001058
:1015F000404601F00701B1420BD9016821F0070113
:1016000031430160006800F00700B04201D00120C2
:10161000E6E72878400705D56068E96820F4E060CF
:10162000084360602878000706D56068296920F4BF
:10163000605040EAC100606000F036F86168084A16
:10164000C1F30311515CC840064908600020FFF750
:10165000E5FE0020C4E70000002002400010024028
:10166000705200080C0000200448054900684968D1
:10167000044AC1F30221515CC84070470C000020AD
:10168000001002408052000804480549006849687B
:10169000044AC1F3C221515CC84070470C000020CD
:1016A000001002408052000812A185B00FC98DE8D9
:1016B0000F0014A0144A006804905168134801F008
:1016C0000C03042B10D0082B0ED1C1F38343C903A4
:1016D0001DF803000AD5516804AAC1F34041515CCA
:1016E0000A4A5043B0FBF1F005B07047084948433F
:1016F000FAE7000002030405060708090A0B0C0DAF
:101700000E0F1010010200000010024000127A00BB
:1017100000093D002DE9F84F04460078B94DC00797
:1017200048D06868C0F38100012807D06868C0F31A
:101730008100022809D16868C00306D528688003A3
:1017400038D5606800286FD034E06068B0F5803F1D
:101750000BD010B1B0F5A02F11D0286820F4803044
:101760002860286820F4802002E0286840F4803057
:101770002860606888B1FFF7B5FB064609E0286875
:1017800040F480202860F0E7FFF7ACFB801B642862
:1017900075D828688003F7D50CE0FFF7A3FB064651
:1017A00005E000BFFFF79EFB801B6428F0D8286887
:1017B0008003F7D42078944E80074FF001094FF052
:1017C00000083BD5686810F00C0F07D06868C0F3BC
:1017D0008100022809D16868C00306D42868800700
:1017E00014D5206901281FD110E02069B0B1C6F8D6
:1017F0000090FFF777FB074605E000BFFFF772FB9D
:10180000C01B0228C4D828688007F7D528686169FA
:1018100020F0F80040EAC10028600FE0C6F8008020
:10182000FFF760FB074606E0E9E000BFFFF75AFB61
:10183000C01B022823D828688007F7D42078000727
:101840002CD57248A169D9B1C0F80090FFF74AFBC6
:10185000074604E0FFF746FBC01B02280FD8686A62
:101860008007F7D56A484FF4FA510068B0FBF1F0F1
:10187000009000BF0098411E0091FAD20EE080E077
:10188000C0F80080FFF72EFB074604E0FFF72AFBB5
:10189000C01B022875D8686A8007F7D420784007F3
:1018A00060D5E8690027C00008D4E86940F080509E
:1018B000E861E869012700F0805000905548016810
:1018C000C90513D40168834641F480710160FFF7B4
:1018D00009FB824606E000BFFFF704FBA0EB0A000D
:1018E00064284ED8DBF80000C005F5D5E068012873
:1018F0000AD008B1052813D0286A20F00100286218
:10190000286A20F0040002E0286A40F00100286202
:10191000E06841F2883B98B1FFF7E4FA82460BE0B9
:10192000286A40F004002862EEE700BFFFF7DAFA09
:10193000A0EB0A0159455AD8286A8007F6D50CE071
:10194000FFF7D0FA824605E0FFF7CCFAA0EB0A01D8
:1019500059454CD8286A8007F6D41FB1E86920F0B1
:101960008050E861E06988B36968C1F381010229A8
:1019700045D00228C6F8608004D0FFF7B3FA0446C9
:1019800038E034E0FFF7AEFA074604E0FFF7AAFAC2
:10199000C01B02282BD828688001F7D4206AB0F534
:1019A000803F05D16868A16820F400300843686072
:1019B000D4E908010843696821F474110843686098
:1019C000C6F86090FFF78EFA044606E015E000BF07
:1019D000FFF788FA001B022809D828688001F7D58C
:1019E0000BE000BFFFF77EFA001B022802D903209C
:1019F000BDE8F88F28688001F4D40020F8E70120C2
:101A0000F6E700000010024000004242800442421B
:101A10000C0000200070004010B5401EB0F1807F27
:101A200001D3012010BD4FF0E02460610F21601749
:101A300000F096FB0020A06107202061002010BD6F
:101A400070B5040004D094F83900002510B106E008
:101A5000012070BD84F83850204600F023F824207F
:101A600084F839002068C16821F40051C160204623
:101A700000F0B0FC2068016921F490410161206808
:101A8000416921F02A0141612068C16841F4005197
:101A9000C160E563202084F8390084F83A00002012
:101AA00070BD000030B585B000240094019402940C
:101AB000039400681449884224D11448816941F490
:101AC00080418161816901F480410491816941F023
:101AD0000401816180690E4D00F0040004904FF410
:101AE0000070009002200190032003906946284670
:101AF000FFF704F92815CDE9000469462846029449
:101B0000FFF7FCF805B030BD00380140001002407E
:101B100000080140FEE701684A69D24352050CD42F
:101B20006FF480624A6104210164002140F8301F93
:101B300020224273017301207047002070472DE975
:101B4000F84F0446006889460B9D01689846174681
:101B500041F4806101602068016841F48071016096
:101B600000954FF0011A0022514620460A9B00F0D2
:101B7000D6F8F0BB216809F0FE0008610AF1010BFC
:101B80002B46594620460A9A00F0FAF818B1206C04
:101B9000042812D03AE020684169806900902A4602
:101BA00020460A9900F061F950B1206C04282DD12B
:101BB0002068016841F4007101600120BDE8F88FE0
:101BC000FEB2B8F1010F09D02168380A08612A462F
:101BD00020460A9900F049F90028E6D120680661FC
:101BE0002A4620460A9900F040F90028DDD12068F5
:101BF00000E00BE0016841F4807101600095002273
:101C0000514620460A9B00F08AF808B10320D5E728
:101C1000216809F0FF0040F0010008612B46594699
:101C200020460A9A00F0ACF80028B0D1C6E70000C0
:101C30002DE9F843044600680D46DDE90897016880
:101C40009846164641F4807101604B4600224FF0E1
:101C500001112046009700F062F8E8B9216805F00C
:101C6000FE0008613B464A461849204600F088F8C5
:101C700028B1206C04280FD10120BDE8F88320682A
:101C80004169806900903A464946204600F0EDF8E7
:101C900020B1206C042813D00320EEE7F5B2B8F190
:101CA000010F09D02168300A08613A4649462046AA
:101CB00000F0DBF80028ECD1206805610020DCE7AB
:101CC0002068016841F400710160D5E7020001005D
:101CD00070B516460D4604461AE02046FFF71BFF76
:101CE00008B1012070BD681C12D025B1FFF7FAF8C9
:101CF000801BA8420CD954F8400F40F0200044F853
:101D0000100900202060202161732073032070BD22
:101D100020684069C0434007DFD4002070BD2DE932
:101D2000F0471E4690460D460446C1F30747DDF8CE
:101D3000209012E0701C10D02EB1FFF7D3F8A0EB6A
:101D40000900B04209D9002044F8300F2021617306
:101D5000A07320730320BDE8F0872068012F0AD00C
:101D6000806925EA00000004000C06D000214145EE
:101D7000E0D00020EFE74069F3E70121F7E700003A
:101D80002DE9F0479A4691460D46044600264FF04D
:101D90002008C1F307472AE020684069C043400596
:101DA00012D42068016841F40071016021686FF469
:101DB0008060486104202064266384F83D8084F8B4
:101DC0003C600120BDE8F087B9F1FF3F0FD0B9F1C9
:101DD000000F05D0FFF786F8A0EB0A01494506D9A8
:101DE00044F8306F84F80D8026730320EAE72068FA
:101DF000012F07D0D0F8180025EA00000004000CDD
:101E0000E0D0C9E74069F7E72DE9F04100259046A9
:101E10000E460446202721E04069C043C0060CD48A
:101E200021686FF0100048612564256384F83D70D7
:101E300084F83C500120BDE8F0812EB1FFF752F844
:101E4000A0EB0800B04209D954F8400F40F0200040
:101E500044F80409677025700320ECE720684169A5
:101E6000C9434906D8D40020E5E770B516460D46AB
:101E700004461AE02046FFF74EFE08B1012070BD6F
:101E8000681C12D025B1FFF72DF8801BA8420CD991
:101E900054F8400F40F0200044F810090020206062
:101EA000202161732073032070BD20684069C04306
:101EB0000006DFD4002070BD7CB514460D460646F2
:101EC0006A4606213B2000F07DF800280BD1BDF8C2
:101ED000001049BA3180BDF8021049BA2980BDF816
:101EE000041049BA21807CBD7CB514460D460646D7
:101EF0006A460621432000F065F800280BD1BDF8A2
:101F0000001049BA3180BDF8021049BA2980BDF8E5
:101F1000041049BA21807CBD10B51C48FEF7E8FFCB
:101F200080216B2000F09CF800216B2000F098F8D5
:101F3000032000F060F8002000F058F8322000F094
:101F400077F80021382000F08BF800216A2000F09B
:101F500087F80021232000F083F88021372000F04B
:101F60007FF8752000F014F8682801D0012010BD1A
:101F700001216B2000F074F800216C2000F070F853
:101F8000322000F055F8002010BD00005000002065
:101F90001FB500218DF80C1040F6FF73012203A934
:101FA0008DE80E0013460246D1210548FFF740F8A0
:101FB0006420FEF791FE9DF80C0004B010BD0000F7
:101FC000500000200EB540F6FF730092CDE90113DA
:101FD00002460123D1210448FFF72AF86420FEF7C6
:101FE0007BFE00200EBD000050000020C006010E48
:101FF0001C2000F035B8C006010E1B2000F030B8E0
:10200000BC2801D3012110E0622801D302210CE099
:102010002A2801D3032108E0142801D3042104E075
:102020000A2801D3052100E006211A2000F018B883
:1020300010B504464FF47A70844201D9044602E098
:10204000042C00D20424B0FBF4F0401EC1B21920CD
:1020500000F006F86008BDE81040FFF7D1BF0000AF
:102060001FB540F6FF738DF80C10012203A98DE80F
:102070000E0013460246D0210448FFF7E9F8642019
:10208000FEF72AFE04B0002010BD00005000002022
:102090000EB540F6FF730092CDE90113024601230D
:1020A000D0210448FFF7D4F86420FEF715FE002085
:1020B0000EBD000050000020094808B5816941F0BC
:1020C00004018161816901F004010091816941F09D
:1020D00008018161806900F00800009008BD0000DF
:1020E000001002400D4810B50B4901600C494160D9
:1020F00000214FF480428160C0E903124161816197
:10210000C1610162FEF7F4FE002803D0BDE8104073
:10211000FEF7E1BD10BD000000540040500000205B
:10212000801A06000C4810B50A4901604FF4E131ED
:102130004160002181600C22C160C0E9041281610C
:10214000C161FFF77DFC002803D0BDE81040FEF719
:10215000C2BD10BD00380140A4000020FEE770475A
:102160000907090E002806DA00F00F0000F1E02050
:1021700080F8141D704700F1E02080F800147047CB
:10218000704700002DE9F74F8EB00CA902A8CDE9E9
:1021900000010BAB03AA09A907A801F099FB18B12C
:1021A000012011B0BDE8F08FBDF80800C0057DD555
:1021B0000398FEF795FA6FF01D042146FEF7FCF830
:1021C00082460498FEF78CFA2146FEF7F5F8814620
:1021D0000598FEF785FA2146FEF7EEF88046069848
:1021E000FEF77EFA2146FEF7E7F805460121504644
:1021F000FEF7E2F806464146FEF76EF804464FF059
:1022000040414846FEF768F807462946FEF764F85D
:102210002146FEF709F8FEF79EFA00F001FFFEF7EF
:10222000ADFAFEF798FA4FF0663B5A46414BFEF77F
:1022300076F9FEF7A3FA0E99086001214046FEF7F1
:10224000BBF841460090FEF747F804463846494639
:10225000FEF742F82146FEF739F84FF07E51FDF7C0
:10226000E3FFFEF778FA07460C4630464946FEF78C
:1022700033F8064629460098FEF72EF83146FDF75A
:10228000D3FFFEF768FA3A46234601F011F9FEF74C
:1022900075FAFEF760FA5A46264BFEF740F9FEF74C
:1022A0006DFA0F9908602946084600E040E0FEF705
:1022B00013F8074641460846FEF70EF8064649461B
:1022C0000846FEF709F8044651460846FEF704F8AA
:1022D0002146FDF7A9FF3146FDF7F8FF3946FDF726
:1022E000F5FFFEF738FA06460C4629465046FDF73C
:1022F000F3FF054641464846FDF7EEFF2946FDF748
:1023000093FF0121FEF758F8FEF725FA32462346DF
:1023100001F0CEF8FEF732FAFEF71DFA5A46054BE9
:10232000FEF7FDF8FEF72AFA10990860002038E75A
:10233000022036E766A64C407047FFF755B830B527
:102340008FB028216846FDF757FF14210AA8FDF732
:1023500053FF01210804CDE9001000240294022556
:102360000491CDE907504FF4E01009906846FFF75B
:10237000D1F90F20CDE90A056802CDE90C40022110
:102380000AA80E94FFF7BAF80FB030BD0D480168E7
:1023900041F00101016041680B4A11404160016850
:1023A0000A4A11400160016821F4802101604168FE
:1023B00021F4FE0141604FF41F0181600449C00314
:1023C00008607047001002400000FFF8FFFFF6FEB3
:1023D00008ED00E02DE9F041044600680169E2687B
:1023E00021F44051114301612169A06808436169EA
:1023F00008432168CA6841F20C639A430243CA60E9
:1024000020684169A26921F44071114341614C493E
:1024100020686425322688423CD1FFF735F900EB6D
:10242000C00101EB001061688900B0FBF1F7FFF714
:102430002BF900EBC00101EB00106168B046890088
:10244000B0FBF1F0B0FBF5F06FF01801484307EB7B
:10245000800106EB0110B0FBF5F000F0F006FFF78D
:1024600013F900EBC00101EB001061688900B0FBBB
:10247000F1F0B0FBF5F006EB0016FFF705F900EB05
:10248000C00101EB001061688900B0FBF1F7FFF7B4
:10249000FBF83BE0FFF7E8F800EBC00101EB0010B0
:1024A00061688900B0FBF1F7FFF7DEF800EBC001CF
:1024B00001EB00106168B0468900B0FBF1F0B0FBA1
:1024C000F5F06FF01801484307EB800106EB0110AF
:1024D000B0FBF5F000F0F006FFF7C6F800EBC00126
:1024E00001EB001061688900B0FBF1F0B0FBF5F082
:1024F00006EB0016FFF7B8F800EBC00101EB001087
:1025000061688900B0FBF1F7FFF7AEF800EBC0019E
:1025100001EB001061688900B0FBF1F0B0FBF5F051
:102520006FF01801484307EB800108EB0110B0FB86
:10253000F5F0216800F00F0030448860BDE8F081BC
:1025400000380140FEE700000FB4054B10B503A9A9
:10255000044A029800F04CF910BC5DF814FB00002E
:10256000653F000848000020490050EAC12018BF1C
:1025700004204A0D18BF40F0010040F2FF72B2EB98
:10258000515F08BF40F00200012808BF05207047D6
:102590002DE9F0414F1E00EBC7010446D1E90001CF
:1025A00015461E4637F006020DD02A463346FDF783
:1025B000B6FF7F1E04EBC703D3E90023FDF708FF36
:1025C00037F00602F1D1022F25D0042F13D0062FA9
:1025D00018BFBDE8F0812A463346FDF7A0FFD4E9D5
:1025E0000A23FDF7F5FE2A463346FDF798FFD4E9A6
:1025F0000823FDF7EDFE2A463346FDF790FFD4E9A8
:102600000623FDF7E5FE2A463346FDF788FFD4E9A9
:102610000423FDF7DDFE2A463346FDF780FFD4E9AB
:102620000223FDF7D5FE2A463346FDF778FFD4E9AD
:102630000023BDE8F041FDF7CBBE0122FEF7B6B99D
:10264000FDF7C6BE0022134610461146FDF7D9BF5E
:10265000024A00201107FEF7A9B9000001FDFFFFA3
:1026600002E008C8121F08C1002AFAD1704770475B
:10267000002001E001C1121F002AFBD170470000B9
:1026800001490860704700004C0000202DE9FF5F01
:10269000DDE90220010DDDF838B0024318D044F620
:1026A0001050A1F2FF3141430D140F98012820D0A2
:1026B000A5EB0B00401C5FEA000A4FF00004474EF8
:1026C000DFF81C91A046504616D5CAF1000728E055
:1026D0000F98012443A2012808D0002100980F9BE5
:1026E000C0E90021C0E90243BDE8FF9F6FEA0B018A
:1026F000F4E7CBF10000DEE7074612E0F80707D069
:102700002246334640464946FDF709FF8046894642
:102710002246334610461946FDF701FF04460E4691
:102720007F10002FEAD1DDE90201BAF1000F424625
:102730004B4602DAFDF7F3FE01E0FDF762FF0446C7
:102740000E460022284BFEF761F903D84FF0FF3008
:10275000014607E00022254B20463146FDF738FEB2
:10276000FEF73BF9102409E0002C0ADB0A220023C3
:10277000FEF736F8019B30321A55641E50EA01020A
:10278000F2D1641C019AC4F1110314440F9A012A76
:1027900003D0012208430DD10AE0084304D00020F1
:1027A0004FF0110B0F9080E7A3EB0B056D1E0DE0B2
:1027B0005B4504DD4FF0000205F1010504E003DA9A
:1027C0004FF00002A5F10105002AECD000980F9906
:1027D000C0E90231C0E9004586E70000000024405E
:1027E0000000F03F300000000000F0430000E03F38
:1027F0002DE9FF4F95B09B468946064600250FE21E
:10280000252877D100242746F84A0121059400E0C5
:10281000044316F8013F203B01FA03F01042F7D1C0
:1028200030782A2811D06FF02F033078A0F13002D1
:10283000092A16D8059A44F0020402EB820203EB3F
:1028400042021044761C0590EFE759F8042B0592DC
:10285000002A03DA504244F40054059044F0020484
:10286000761C30782E2816D116F8010F44F0040497
:102870002A280DD06FF02F023078A0F13003092BF9
:1028800009D807EB870302EB4303C718761CF3E76D
:1028900059F8047B761C30786C280FD006DC4C2865
:1028A00017D068280DD06A2814D104E0742810D0FD
:1028B0007A280FD10DE044F400140AE044F48014A7
:1028C00001E044F440147278824202D104F580148D
:1028D000761C761C307866280BD013DC582877D00D
:1028E00009DC002875D04528F6D04628F4D04728C2
:1028F0001AD19DE118E0632835D0642879D0652885
:1029000012D195E1702873D008DC6728F1D06928CE
:102910006FD06E280DD06F2806D1B5E073282CD06B
:10292000752875D0782874D05A46179990476D1C31
:1029300075E1C4F30250022809D003280DD0D9F85C
:10294000001004280DD00D6009F1040967E1D9F8E1
:102950000010EA17C1E90052F6E7D9F800100D801F
:10296000F2E70D70F0E719F8041B8DF80010002055
:102970008DF80100EA46012003E059F804AB4FF05E
:10298000FF3061074FF0000102D40DE008F10101B2
:102990008846B9420FDA8045F8DB1AF8081000299A
:1029A000F4D108E008F1010188468142FADB1AF807
:1029B00008100029F6D105985B46A0EB08072146D0
:1029C0003846179A00F094FA284400EB080507E00F
:1029D0004DE029E10DE01AF8010B5A46179990478E
:1029E000B8F10108F7D25B4621463846179A13E141
:1029F00042E00A220092C4F302524FF0000A022A77
:102A000008D059F804CB032A4FEAEC710AD00DE044
:102A100029E02AE009F1070121F00702F2E802C1EA
:102A2000914609E00FFA8CFC4FEAEC71042A03D1BD
:102A30004FFA8CFC4FEAEC71002907DA0A460021B4
:102A4000DCF1000C61EB02012D2202E0220504D52D
:102A50002B228DF80420012203E0E20701D020227E
:102A6000F7E7904659E00A2102E010220DE010211C
:102A70004FF0000A00910BE010224FF0000A44F0E2
:102A800004040827009203E008224FF0000A009295
:102A9000C4F30252022A05D059F804CB0021032ABC
:102AA00008D009E009F1070121F00702F2E802C1AC
:102AB000914605E01FFA8CFC042A01D10CF0FF0CB2
:102AC0004FF00008220728D5702806D0009B83F01D
:102AD000100353EA0A0305D00EE040228DF80420CB
:102AE000012208E05CEA010206D030228DF80420C1
:102AF0008DF8050002229046009B83F0080353EAFC
:102B00000A030AD15CEA010201D1620705D530222D
:102B10008DF804204FF001087F1E582804D034A0FF
:102B200003900EA802900DE036A0F9E753466046E8
:102B3000009AFDF755FE84460398825C0298401E79
:102B4000029002705CEA0100F0D1029806A9081A0E
:102B500000F1200A600702D524F4803400E0012748
:102B6000574502DDA7EB0A0000E0002000EB0A0158
:102B7000009005984144401A0590E00306D45B4656
:102B80002146179A059800F0B3F90544002706E09E
:102B900001A85A46C05D179990476D1C7F1C474598
:102BA000F6DBE0030CD55B462146179A059800F04A
:102BB0009FF9054404E030205A46179990476D1C50
:102BC0000099481E00900029F5DC08E0029802995F
:102BD0005A460078491C0291179990476D1CBAF12A
:102BE0000001AAF1010AF1DC65E1000009280100F9
:102BF0003031323334353637383961626364656673
:102C00000000000030313233343536373839414234
:102C1000434445460000000000F058F90544761C86
:102C2000307800287FF4ECAD19B02846BDE8F08F6D
:102C3000620700D4062709F1070222F0070CFCE81E
:102C40000223E14603F000485FEA080C02D00FF2CD
:102C5000702C0DE05FEA045C02D50FF2682C07E0EF
:102C60005FEAC47C02D00FF2602C01E0AFF2700C7E
:102C70004FF0FF3823F00043CDF850C065280CD04A
:102C800006DC452809D046281DD047283DD13DE027
:102C9000662818D067287ED138E00021112F01DB8B
:102CA000112000E0781CCDE9000106A90EA8FFF76D
:102CB000EDFCDDE90F010E9A03910021009207F16E
:102CC000010A04914DE04FF000400097CDE901105A
:102CD00006A90EA8FFF7DAFCDDE90F0203920E9BAE
:102CE00011990022DDF80CA00093049211B9791C0F
:102CF00000EB010AB7EB0A0004D4C0F1FF3007F182
:102D0000010A0490AAEB0700019044E0012F00DAC9
:102D100001270021112F01DD112000E03846CDE907
:102D2000000106A90EA8FFF7B1FCDDE90F010E9A1C
:102D30000391002104910092BA4621070CD4039913
:102D4000514500DA8A46BAF1010F05DD009AAAF171
:102D50000101515C302908D0B84202DA10F1040FA9
:102D600006DA0121CDE9011015E0AAF10101E9E738
:102D7000002805DC049901440491AAEB000102E05B
:102D8000411C514500DD8A460499401A401C0190BF
:102D90004FF000400290200704D40198504501DB19
:102DA000CDF8048000208DF84F0002980DF14F07F8
:102DB000B0F1004F25D02B200E9002984FF0020862
:102DC00000280CDA404202902D200E9007E00A21E4
:102DD0000298FDF7EFFC3031029007F8011DB8F1C1
:102DE0000001A8F10108F2DC02980028EFD1791E59
:102DF0000E980870307800F0200040F0450007F889
:102E0000020D12A8C01B00F107081498007800B149
:102E1000012000EB0A01019801EBE07105984144A3
:102E2000401A401E0590E00306D45B462146179ADF
:102E3000059800F05DF805441498007818B15A46DA
:102E4000179990476D1CE00324D55B462146179ADD
:102E5000059800F04DF805441CE00498002807DBB5
:102E6000DDE90301884203DD0098405C179901E029
:102E7000179930205A469047049805F10105401CE7
:102E800004900198401E019004D12E205A461799B3
:102E900090476D1CBAF10001AAF1010ADDDC05E0E2
:102EA00017F8010B5A46179990476D1CB8F10001AD
:102EB000A8F10108F4DC5B462146179A0598ABE6B9
:102EC0002D0000002B000000200000002DE9F04143
:102ED000044600251E461746880404D405E03946FA
:102EE0002020B0476D1C641EF9D52846BDE8F0814E
:102EF0002DE9F041044600251E469046C80301D541
:102F0000302700E02027880404D505E041463846F4
:102F1000B0476D1C641EF9D52846BDE8F08100005D
:102F20002DE9F04788B0074600240E46254604A840
:102F300001F022F86FF00F0A0DF110084FF00109AF
:102F400057F8240056F82410401A00D54042FDF7E7
:102F5000C7FB5146FDF730FA58F8241011F0FF4F27
:102F600017D0FDF7EBF94FF07E51FDF7AFF9194A95
:102F700020F00041914225DDFDF7EDFB164B4FF0AF
:102F80000052CDE9002302460B4614A0FFF7DCFAFD
:102F900015E01849184A0144914213D3FDF7DBFBB1
:102FA000164B4FF0C042CDE90223154B4FF0804243
:102FB000CDE9002302460B4612A0FFF7C5FA09FA35
:102FC00004F00543641C032CBADB08B02846BDE8B6
:102FD000F0870000295C0F3E85EBC13F73745F737F
:102FE000686966745F7661723A2566203E202566C0
:102FF0000A000000666666C19A99D9006666EE3FCF
:103000003333D33F73745F73686966745F6375733A
:10301000743A2566202825662C25662900000000C4
:103020002DE9F04D8D4F21F0004A86B005460C4643
:10303000BA452ADBAAEB070028430AD08848824514
:1030400001DC1AD1CDB106B02846BDE8F04DFFF73E
:10305000F4BA844A844B2846FDF761FA07460E46C7
:10306000824A834B28462146FDF759FA06B03A4674
:103070003346BDE8F04DFDF7ABB90120FFF700FB8B
:1030800006B0BDE8F04DFFF7DDBA7A48824542DA76
:10309000BAF1795F0BDA2846FFF766FA042808BF11
:1030A000FFF7D6FA284606B02146BDE8F08D2A463D
:1030B0000B461046FDF733FA834602466E480E462D
:1030C0000B4606217844FFF763FA5A463346FDF76C
:1030D00026FA804669488A465A463346042178448F
:1030E000FFF756FA5A463346FDF719FA00223B46D7
:1030F000FDF76EF902460B4640465146FDF781FA50
:103100002A462346FDF70BFA06B02A462346BDE8B9
:10311000F04DFDF75DB9284624F0004100223D4600
:103120003B46FDF7F9F94FF0FF32FDF73FFC06464D
:10313000024653480F460B4606217844FFF728FA0B
:1031400032463B46FDF7EBF9CDE900014D483246EA
:103150003B4604217844FFF71BFA32463B46FDF715
:10316000DEF900222B46FDF733F983460291304603
:10317000394602F057F8804643480D46504517DC63
:10318000DDE900015A46029BFDF73BFA42462B4619
:10319000FDF7C5F942462B46FDF71AF90122FDF766
:1031A00005FC304A304BFDF7B4F9304A304B4CE067
:1031B0004FF0000A52460B464046FDF709F9CDE9AB
:1031C000031052462B4610461946FDF7A8F9324621
:1031D0003B46FDF7A1F9DDE90332FDF712FA064699
:1031E0000F46DDE900015A46029BFDF70AFA8346C5
:1031F0000091012230463946FDF7D8FB194A1A4B97
:10320000FDF78AF906460F46012240462946FDF79A
:10321000CDFB5A46009BFDF782F932463B46FDF74F
:1032200078F906460F46012250462946FDF7BEFBB7
:103230000E4DDFF858802A464346FDF76DF93246B9
:103240003B46FDF769F92A464346FDF765F9002C30
:10325000D8BF81F0004106B0BDE8F08D0000F03F1E
:103260000000F07F075C143326A6913C182D4454CF
:10327000FB21F93F0000E03F082E00001E2E000059
:10328000922D0000A82D00003333EF3FFB21E93FD2
:103290002DE9F84F04460D4621F000400091734996
:1032A000814211DC7249884201DC06D12CB12046F2
:1032B0002946BDE8F84FFFF7C0B96E48002DCCBFD6
:1032C0006D496E49BDE8F88F6D49814211DD6D4948
:1032D0008142D8BF4FF0FF366DDD20462946FFF70B
:1032E00043F9042808BFFFF7B3F920462946BDE893
:1032F000F88F6549654F25F00045814233DD64490B
:10330000814219DD002632464FF08043204629468F
:10331000FDF75EF880468A46012220462946FDF7E1
:1033200045FB00223B46FDF7F4F842465346FDF7C5
:1033300068F904460D463EE001260022BA463B46A7
:1033400020462946FDF744F880460F4600225346A2
:1033500020462946FDF7DDF842463B46FDF751F988
:1033600004460D4627E04B4981421BDDDFF828A1CA
:1033700002260022534620462946FDF7D0F80022B7
:103380003B46FDF725F880460F460022534620466F
:103390002946FDF7BEF842463B46FDF732F90446A2
:1033A0000D4608E0032622462B4600203B49FDF748
:1033B00028F904460D4622462B4610461946FDF7CD
:1033C000AEF88B46824602460B46FDF7A8F8074644
:1033D0000246334888460B4606217844FFF7D8F862
:1033E00052465B46FDF79BF882462E488B463A468E
:1033F000434605217844FFF7CBF83A464346FDF7AC
:103400008EF802460B46002E504659460CDAFCF761
:10341000DFFF22462B46FDF782F801B022462B46FD
:10342000BDE8F04FFDF778B8FCF7D2FF22462B46F7
:10343000FDF775F81C4A7A4402EBC603D3E9002372
:10344000FDF767F822462B46FDF763F8174A7A44E2
:1034500002EBC603D3E90023FDF75EF8009A002AC9
:10346000B8BF81F00041BDE8F88F000000001044B3
:103470000000F07F182D4454FB21F93FFB21F9BFD8
:103480000000DC3F0000203E0000F33F0000F03F62
:103490000000E63F008003400000F83F0000F0BF5E
:1034A000AA2B0000682B0000062B0000CE2A00008B
:1034B0002DE9F04D9446CCF1000423F000464CEA8F
:1034C0000404524F46EAD4749A46884621F00042DA
:1034D000BC4206D8454240EA050442EAD474BC42E4
:1034E00004D9BDE8F04D6246FFF7AAB8AAF14055ED
:1034F000A5F17F6555EA0C040BD0022404EAAA74F6
:10350000434DDFF810E144EAD87452EA000B04D0CE
:103510000CE0BDE8F04DFFF7BBBE002C14BF012C42
:10352000BDE8F08D022C30D0032C32D056EA0C0BC3
:103530000AD0BE4220D1BA4209D126F0804622F0FC
:1035400080423346114617E000291ADB25E0DFF8F8
:10355000C8B0FB44002C04BFDBE90001BDE8F08DDE
:10356000012C02BFDBE9000181F00041BDE8F08DD4
:10357000022C0AD0032C0CD0BA4212D1B8F1000FA1
:103580000BDA23482549BDE8F08D28462449BDE8DB
:10359000F08D28467146BDE8F08D1D482149BDE8F3
:1035A000F08D921B12153C2AC4BF19481D490EDC30
:1035B000BAF1000FBEBF12F13C0F0020014606DB3E
:1035C0006246FDF71EF821F00041FFF761FE002C76
:1035D00008BFBDE8F08D012C04BF81F00041BDE8BB
:1035E000F08D114A114B022C07D0FCF792FF2A46AE
:1035F000BDE8F04D0A4BFCF78CBFFCF78AFF2A466A
:10360000BDE8F04D064BFCF787BF00000000F07FDF
:10361000182D4454FB2109C0622A0000FB21F9BF88
:10362000FB210940FB21F93F075C143326A6A13C8E
:1036300008B560B120208DF8000028208DF8010029
:1036400030208DF8020038208DF8030004E0A3221A
:1036500004216846FCF7C9FD6A46042140F69E2015
:1036600001F038FD01F002FA08BD00003EB5044645
:1036700002208DF80000CA208DF80100E3208DF8AB
:10368000020009208DF803006A460421682001F039
:1036900021FDA3208DF80000610609D5C0218DF819
:1036A0000110C8218DF80210C2218DF8031005E029
:1036B0008DF801008DF802008DF8030014F4C07F2E
:1036C00009D0C4218DF80410CC218DF80510C62135
:1036D0008DF8061005E08DF804008DF805008DF8D2
:1036E00006008DF808008DF807008DF809006A467D
:1036F0000A2140F6A72001F0EDFCA0074FF0D80505
:1037000003D020208DF8000001E08DF800506A46BB
:10371000012140F6B62001F0DDFCA00601D5012014
:1037200000E0002000F08EF814F4C07F1ED0E00509
:103730000AD5B2208DF800008B208DF80100B6204C
:103740008DF802009B2009E0B0208DF80000802059
:103750008DF80100B4208DF8020090208DF8030050
:103760006A46042140F6A22001F0B4FCE1074FF4C0
:103770000B6022D0F8218DF800106A46012101F07B
:10378000A9FCFA21072000F039FB072000F004FB18
:10379000012000F021FB642000F0C4FB4FF4FA701C
:1037A00000F0D0FBC821254800F0BEFA282000F028
:1037B000D3FA0A2000F0E0FA05E08DF800506A46DE
:1037C000012101F087FCA00703D5D9208DF8000066
:1037D00001E08DF800506A46012140F23D7001F091
:1037E00079FC600701D5012000E0002000F048F8D6
:1037F000E00601D5012000E00020FFF719FF104D81
:1038000044F00800688101F031F90020A8736006D7
:1038100001D50620A87314F4C07F02D0A87B801DB8
:10382000A87314F0140F02D0A87B1030A873A0075F
:1038300002D0A87B001DA87300203EBD09E3CA0288
:10384000E40000200EB54FF4976310B106A107C93C
:1038500001E008A207CA8DE807006A460921184658
:1038600001F038FC0EBD0000B8AAB38DB4980D3538
:103870005D000000B8AAAAAAB088C3C5C7000000AE
:1038800008B560B1C0208DF80000C2208DF801009D
:10389000C4208DF80200C6208DF8030004E08B22BE
:1038A00004216846FCF7A1FC6A46042140F69820F2
:1038B00001F010FC01F0DAF808BD0000C8234FF455
:1038C0008062024940F6F63000F0C0BFD8520008CE
:1038D0002DE9FF4F89B01746DDE9165200244C4E02
:1038E000884681462C80A246B07B694601F052F89A
:1038F0004FF0FF3B18B158460DB0BDE8F08F70890E
:1039000010F0140F3CD0009909BA21F0FF039DF884
:1039100003100B433B6001991B1409BA21F0FF020D
:103920009DF807105B430A437A6002999DF80B40AB
:1039300009BA21F0FF012143B960039C091424BA9C
:1039400024F0FF0C9DF80F4012144CEA040CC7F849
:103950000CC04FEA2C47494302FB023207FB071118
:1039600011441024A1F17061B1F1007F04D901F07C
:103970007DF8A5F800A0BEE7298841F48071298070
:103980004206694611D50A19A41D13885BBAA8F826
:10399000003053885BBAA8F80230928852BAA8F86F
:1039A00004202A8842F008022A8010F4C07F11D037
:1039B0000A19A41D13885BBAA9F8003053885BBAB2
:1039C000A9F80230928852BAA9F804202A8842F055
:1039D00070022A80800716D00C44E07800F0C00501
:1039E00000F03F016078C00706D0C80801F0070169
:1039F0003268491C02B190476078000703D57168AE
:103A000009B1A80988470C9800F094FD002073E7DD
:103A1000E40000202DE9FF41044603A800F0D4FD96
:103A2000BDF80C00410CC3032F48028902F00300CB
:103A3000550754F8200000D54042C2F3C105960650
:103A400054F8255000D56D42C2F38116D20554F8C2
:103A5000264000D56442A0FB0367C21702FB037235
:103A600000FB0120820042EA9670A5FB0367EA177B
:103A700002FB037205FB0122950045EA9672A4FB46
:103A80000367E51705FB037304FB01318B0043EA71
:103A90009671030E8DF80030030C8DF80130030A87
:103AA0008DF802308DF80300100E8DF80400100C14
:103AB0008DF80500100A8DF80600080E8DF8080034
:103AC000080C8DF80900080A8DF80A008DF8072007
:103AD0008DF80B106A460C214FF4257001F0FAFAAC
:103AE00004B0BDE8F0810000E400002030B50446D9
:103AF00013A285B007CA8DE807004FF0FF35C82C28
:103B000016D8C820B0FBF4F1491E080A8DF80C0045
:103B10008DF80D1003AA022140F2162001F0DAFA06
:103B200030B96A460C2140F6C12001F0D3FA10B139
:103B3000284605B030BD054884810020F9E7000023
:103B4000FEF2ABC4AAF1DFDFBBAFDFDFE400002091
:103B5000F8B53049098901F0030250F822404A07BC
:103B600000D56442C1F3C1028B0650F8222000D573
:103B70005242C1F3811350F82330C80500D55B428F
:103B8000254984FB0140850045EA947082FB01428F
:103B9000A40F44EA820483FB0121950F45EA8105C5
:103BA000010E8DF80010010C8DF80110010A8DF83E
:103BB00002108DF803006A4604214FF4747001F07E
:103BC00089FA4FF0FF3688B9200E8DF80000200CDE
:103BD0008DF80100200A8DF802008DF803406A4636
:103BE00004214FF4757001F075FA08B13046F8BD44
:103BF000280E8DF80000280C8DF80100280A8DF899
:103C000002008DF803506A4604214FF4767001F0EB
:103C100061FAF8BDE400002009E3CA022DE9FF4182
:103C200004463CA004F00303006802903AA0006838
:103C300003903AA006683AA0056802A8C15C8DF816
:103C40000010C4F3C101425C8DF80120C4F381125D
:103C5000805C8DF8020003A8C35C8DF80430415CE1
:103C60008DF80510805C8DF806006A46032140F24D
:103C7000264001F02FFA4FF0FF37E0BB01AA0321E5
:103C800040F22A4001F026FAA8BBCDE900656007A2
:103C90000BD59DF8000040F001008DF800009DF864
:103CA000040040F001008DF80400A0060BD59DF83B
:103CB000010040F001008DF801009DF8050040F082
:103CC00001008DF80500E0050BD59DF8020040F0DD
:103CD00001008DF802009DF8060040F001008DF80B
:103CE00006006A4603214FF4886001F0F3F910B929
:103CF00001AA032100E004E040F2314001F0EAF9BA
:103D000018B1384604B0BDE8F081064804810020AF
:103D1000F8E700004CCD6C000CC92C00365676003C
:103D200026466600E40000204FF47A7290FBF2F021
:103D300008B54843010E8DF80010010C8DF80110F4
:103D4000010A8DF802108DF803006A4604214FF431
:103D5000AE7001F0BFF908BD0521B0FBF1F008B568
:103D6000010A8DF800108DF801006A4602214FF417
:103D7000AD7001F0AFF908BD0521B0FBF1F008B559
:103D8000010A8DF800108DF801006A4602214FF4F7
:103D9000AC7001F09FF908BD08B500218DF8001046
:103DA000C10702D030218DF80010810705D59DF89C
:103DB000001041F00C018DF80010400705D59DF86A
:103DC000000040F003008DF800006A4601214FF426
:103DD000A47001F07FF908BD08B560B1042800D9CE
:103DE0000420401E8DF800006A46012140F24F1069
:103DF00001F070F908BD0120F3E700002DE9FC4156
:103E0000054640074FF0FF367CD0B1F5C86F79D832
:103E10000846FCF76EFC3E49FCF790FA074601A8FD
:103E200000F0B4FB9DF80400022806D004280DD051
:103E300008282ED0102865D134E00E213846FCF732
:103E4000BBFAFCF774FC84B2324907E00D21384616
:103E5000FCF7B2FAFCF76BFC2F4984B23846FCF74A
:103E60003BFAFCF764FC210A8DF8001080B28DF853
:103E70000140010A8DF802108DF80300E8076C4636
:103E800020D0224602214FF4EA7001F023F9C8BB8A
:103E900011E00C213846FCF78FFAFCF748FC84B29D
:103EA0001E49DBE70B213846FCF786FAFCF73FFC9E
:103EB00084B21B49D2E7A21C02214FF4927001F098
:103EC00009F9F8B9A8070DD56A4602214FF4EC703C
:103ED00001F000F9B0B9A21C02214FF4947001F076
:103EE000F9F878B9680710D56A4602214FF4EE70E8
:103EF00001F0F0F830B9A21C02214FF4967001F0E5
:103F0000E9F810B13046BDE8FC810020FBE7000075
:103F100000004843000040460000C0450000404506
:103F20000000C0440521B0FBF1F008B5010A8DF88E
:103F300000108DF801006A4602214FF4EF7001F085
:103F4000C9F808BD0521B0FBF1F008B5010A8DF8EC
:103F500000108DF801006A4602214FF4ED7001F067
:103F6000B9F808BD03490A681206FCD50149091DC4
:103F700008607047003801402DE9FE43064601AA5B
:103F800004210D20FEF71EF810B10720BDE8FE83C6
:103F90009DF804101C2000EAD1029DF80710DFF8FC
:103FA0007090C1F301131A438DF800209DF805208D
:103FB000C1F3810300EAD2021A438DF801209DF873
:103FC000062001F0030100EAD20008430024114F4B
:103FD0008DF80200A0466D46285D10B146F8249089
:103FE00009E046F824800CE056F824003946FCF736
:103FF00073F946F82400285D401E10F0FF00285594
:10400000F2D1641CE4B2032CE6D30020BEE700002A
:104010007B14AE3E1D5A843F2DE9FE4F054601201C
:10402000DFF8C8928DF8000000268DF80160D9F8FD
:10403000000017460C46807C6A460221FEF728F8ED
:104040004FF0FF3A00287DD1C820FCF745FE8DF8DF
:104050000060D9F80000B0464E46C07B6A46012198
:10406000FEF716F80028EED130686A460121407943
:10407000FEF70EF80028E6D130686A460121807C00
:10408000FEF706F800285DD130686A460121C07D40
:10409000FDF7FEFF002855D130686A4601210079FE
:1040A000FDF7F6FF00284DD14FF00C098DF8009078
:1040B00030686A4601210079FDF7EAFF00287DD1CA
:1040C0000F20FCF709FEB06A6A460121407A8DF89C
:1040D000000030688078FDF7DBFF00286ED1B06A01
:1040E0006A460121007A8DF8000030684078FDF7BB
:1040F000CFFF002862D1B06A807A0FB140F0E000B3
:104100008DF8000030686A4601218079FDF7C0FF14
:10411000C0B927B1B06AC07A40F0E00000E01820D2
:104120008DF8000030686A460121C079FDF7B0FFC4
:1041300040B917B1C820FCF7CFFD40208DF8000032
:10414000306800E03AE000796A460121FDF7A0FFFF
:10415000A0BB78208DF8000030686A4601214079C4
:10416000FDF796FF50BB3220FCF7B6FD8DF80080BE
:10417000306847466A4640790121FDF789FFE8B972
:104180003068B0466A46807A0221FDF71BFFA8B965
:10419000BDF80000AF6040BAB0FBF9F06F602F606F
:1041A000A76067602760C6B2002736E0D8F8000035
:1041B0006A460C21C07AFDF705FF10B15046BDE8F4
:1041C000FE8FBDF80000236840BA02B2BDF80200BD
:1041D0001A4440BA01B2BDF804002260626840BAD5
:1041E00011446160A16800B20844A060BDF80600F7
:1041F0002B6840BA01B2BDF80800BDF80A20194486
:10420000296040BA696800B20844686052BAA86878
:1042100012B210447F1CFFB2A860B742C6D3286810
:104220008322C117090441EA104100040023FBF76F
:104230009BFF32460023FBF797FF286068688322C4
:10424000C117090441EA104100040023FBF78CFF69
:1042500032460023FBF788FF6860A8688322C117F5
:10426000090441EA104100040023FBF77DFF3246B8
:104270000023FBF779FFA86020684FF40065C117A1
:10428000090441EA104100042A460023FBF76CFFB1
:1042900032460023FBF768FF206060682A46C1179A
:1042A000090441EA104100040023FBF75DFF324698
:1042B0000023FBF759FF6060A0682A46C117090474
:1042C00041EA104100040023FBF74EFF3246002371
:1042D000FBF74AFFA060002802DDA0F5803001E076
:1042E00000F58030A060002069E700001000002089
:1042F0002DE9F84F8846814600256A4603210D20A6
:10430000FDF760FE10B10720BDE8F88F9DF80000B2
:10431000002400F01F008DF800009DF801006FF0F0
:104320000F0B00F01F008DF801009DF802006E4693
:1043300000F01F008DF802004FF0010A59F8241018
:1043400058F82400081A00D54042FCF7C9F959462C
:10435000FCF732F80746305DC0B1134802E013495C
:10436000FBF7BAFF315D491E11F0FF013155F6D15F
:1043700001463846FBF7E2FF4FF07E51FBF7A6FF00
:104380000B4920F00040884205DC07E0094838442A
:10439000B0F1D97F02D90AFA04F00543641C032C5A
:1043A000CCDB2846B0E700000000C84154E3853F5D
:1043B000295C0F3E0000E0BE00B5024600F00DF89B
:1043C0000346D01C00F009F843EAC003901D00F03A
:1043D00004F843EA801080B200BD90F90010002973
:1043E00002DD4FF00000704702DA4FF00400704722
:1043F00090F90110002902DD4FF00100704702DA48
:104400004FF00500704790F90200002802DD4FF0E0
:104410000200704702DA4FF0060070474FF00700C5
:10442000704700008CB0FCF7E7FFFDF788FFFDF751
:1044300043FEFDF757FEFDF775FEFDF76DFDFCF73A
:1044400061FB0DF110080DF118094FF47A7A00BFE5
:1044500009F10402911E06A8FDF746FDBDF91C30C6
:10446000BDF91A20BDF9181019A0FEF76DF808F172
:104470000402911E04A8FDF71FFDBDF91430BDF91B
:104480001220BDF9101017A0FEF75EF80AAA09A9BC
:1044900008A8FDF777FE014617A0FEF755F80A9821
:1044A000FCF759F906460F460998FCF754F90446FB
:1044B0000D460898FCF74FF98DE8F00002460B46D0
:1044C00013A0FEF741F85046FCF706FCC0E70000D9
:1044D000CDD3C2DDD2C72538642538642538640DB4
:1044E0000A000000BCD3CBD9B6C8A3BA25386425CE
:1044F00038642538640D0A00526561645F444D508C
:104500002052657475726E2069732025640A00005C
:1045100050697463682069733A25662C526F6C6C1D
:104520002069733A25662C5961772069733A2566AC
:104530000A000000704700002DE9F041124C20F005
:104540000101002594F8240010B10020BDE8F0819D
:10455000A07A4FF0FF3668B10840277C207488426B
:1045600000D0354641B1012000F032FE00F07EFA65
:1045700038B127743046E9E7207D00B1012000F012
:1045800027FE2846E2E70000100000200D494A7A85
:1045900042B1012A08D0022A0FD0032A0FD04FF0CF
:1045A000FF307047022200E004220270C97C11B182
:1045B0001106C90D0170002070470822F5E710228E
:1045C000F3E70000100000200F494A7A42B1012AA7
:1045D00009D0022A11D0032A12D04FF0FF307047C1
:1045E0004FF4804201E041F69C720280C97C11B117
:1045F000C2F34E010180002070474FF48052F4E76F
:104600004FF40062F1E70000100000200B49097A26
:1046100039B1012907D002290AD003290BD0002182
:1046200003E0FA2101E04FF4FA71018000207047A5
:104630004FF47A71F9E74FF4FA61F6E710000020C1
:104640000A49097A41B1012908D002290AD003296F
:104650000AD04FF0FF307047054900E0054901607E
:10466000002070470449FAE70449F8E710000020E9
:10467000000003430000834233330342333383415A
:104680000C49C97A072913D2DFE801F01204060A9F
:104690000C0E1000BC2100E0622101800020704758
:1046A0002A21FAE71421F8E70A21F6E70521F4E7C1
:1046B0000021F2E710000020054991F8242012B1F2
:1046C0004FF0FF307047C98901800020704700001B
:1046D000100000202DE9FC41484C80208DF800009E
:1046E00020686A460121807CFDF7D2FC4FF0FF373D
:1046F00000287AD16420FCF7EFFA00258DF80050ED
:1047000020686A460121807CFDF7C2FC00286CD13C
:1047100020686A460621807DFDF754FC002864D19C
:104720009DF805009DF80310C007400F01F001013E
:1047300040EA41019DF801004FF0010600F0010040
:10474000014309D0012905D0022913D02CA0FDF77F
:10475000FBFE4AE0E6740EE020686A460121C0785C
:10476000FDF730FC40BB9DF8000010F00F0020D09A
:10477000042822D0E574FF2004F80A0F4FF6FF71D9
:1047800004F8020C04F8010C6070A180A071207282
:10479000A67026766576E572A572E560256165618D
:1047A000A576E576A5834FF4FA6000F065FB18B9AD
:1047B00007E01D48FDF7C8FE17E01CA0FDF7C4FE8A
:1047C000C8E7022000F08AFA78B92A2000F0B8FB86
:1047D00058B9322000F0E8FB38B90020FFF7ACFEF2
:1047E00018B9002000F0ACFA10B13846BDE8FC81E1
:1047F000002000F017FC0020F8E700001000002067
:10480000556E737570706F7274656420736F667423
:10481000776172652070726F64756374207265765B
:104820002025642E0A000000C05F000848616C6605
:104830002073656E7369746976697479207061722A
:104840007420666F756E642E0A0000002DE9FF4F1C
:10485000DFF88C80064685B098F8250015460F468F
:104860004FF0FF3998BB97B3002420E0301B10288D
:1048700000DD102080B283463A1901469246204658
:1048800000F028FC18BB6A465946204600F0C6F8DE
:10489000E8B950465A466946FBF7B9FC20B16FF0BB
:1048A000010009B0BDE8F08F04EB0B0084B2B44204
:1048B000DCD3280A8DF810008DF81150D8F80000CC
:1048C000444604AA807E0221FDF7E2FB08B1484677
:1048D000E7E7012084F825000898E0840020E0E75D
:1048E000100000202DE9F84304464FF0FF39282836
:1048F00040D80727264D00267CB1012000F0F0FAB1
:1049000020208DF800004FF00108012C15D0052C57
:1049100016D88DF8018005201DE0002000F0E0FA97
:104920008DF800608DF8017028686A460221807C4D
:10493000FDF7AEFBF0B92E7527E08DF80160EAE7D0
:10494000142C04D802208DF801000A2003E0032073
:104950008DF80100142000F0F3FA9DF801006A467A
:1049600007EB80108DF8010028680221807CFDF79C
:104970008FFB10B14846BDE8F8830820A8722E735B
:1049800085F814800020FFF7D7FD0020F3E7000032
:10499000100000202DE9F8431F4C0646174694F8F6
:1049A000240089464FF0FF3868B3A07A58B32068D6
:1049B0006A460221807AFDF705FB20BBBDF80000A6
:1049C00045BAB54202D2002038701CE060684088C9
:1049D000B5EB500F10D920686A460121407CFDF7E5
:1049E000F1FA80B99DF80000C00605D500F03EF848
:1049F0006FF00100BDE8F8832068F1B24A46C07A42
:104A0000FDF7E0FA08B14046F4E7B5FBF6F0401ECA
:104A100038700020EEE7000010000020F8B5160006
:104A20000D464FF0FF371CD00F4CA17AC9B1010AD7
:104A30008DF80010C0B28DF80100616828444989E2
:104A400088420ED820686A460221007EFDF720FBCE
:104A500038B92068E9B23246407DFDF7B3FA002844
:104A600000D03846F8BD000010000020F8B5494CD1
:104A70004FF0FF36A07A00286CD000258DF800504A
:104A800020686A460121C07BFDF702FB00287FD128
:104A900020686A4601214079FDF7FAFA002877D1AB
:104AA00020686A4601210079FDF7F2FA00286FD1EB
:104AB00094F8240098B30C208DF8000020686A4612
:104AC00001210079FDF7E4FA002861D13220FCF7DA
:104AD00003F9C0208DF80000A07AC00702D0E020C2
:104AE0008DF8000020686A4601210079FDF7D0FAB0
:104AF00080BB607C18B102208DF8000001E08DF8C9
:104B0000005020686A460121C07BFDF7C1FA08BB4E
:104B10008DF8005020686A460121407934E0FFE7B3
:104B200004208DF8000020686A4601210079FDF715
:104B3000AFFA78B9A07C70B9A07AC0070BD060201A
:104B40008DF8000020686A4601210079FDF7A0FA7F
:104B500000B902E01CE04020F2E73220FCF7BCF88C
:104B6000607C18B101208DF8000001E08DF8005044
:104B700020686A460121C07BFDF78AFA40B92068A7
:104B8000044A012140791032FDF782FA002800D052
:104B90003046F8BD100000202DE9F04F404C834610
:104BA0008BB094F824000E4620B1002000F02CF9C0
:104BB000012500E0002507A8FFF728FD06A8FFF75C
:104BC000E5FC09A8FFF75CFD08A8FFF775FDA04606
:104BD00094F80AA094F81090002400223146584618
:104BE000FFF71AFA10B1641C022CF6DB022C20D05D
:104BF0000024012203A96846FFF70EFA10B1641CD5
:104C0000022CF6DB022C14D003A93046FEF788F9FB
:104C1000C7B2394623A0FDF797FC69465846FFF70F
:104C200067FBC6B2314626A0FDF78EFC002416B104
:104C300002E0002403E001240FB944F00204FF2144
:104C400088F8081088F8091088F80B104FF6FF72E2
:104C5000A8F80E2088F80A1088F81010012188F8AA
:104C60000C10BDF81C0000F007F99DF8180000F0CA
:104C700035F8BDF8240000F063F9BDF8200000F01D
:104C800093F9504600F0CEF94846FFF755FC15B1B0
:104C9000012000F0B9F80BB02046BDE8F08F00000D
:104CA00010000020616363656C5F73656C665F7400
:104CB0006573745F726573756C743D2025640A00BA
:104CC0006779726F5F73656C665F746573745F722A
:104CD0006573756C743D2025640A000038B5174C67
:104CE0004FF0FF35A17A09B3022806D0042806D078
:104CF00008280ED0102819D10DE0002000E008206F
:104D00008DF80000607A9DF80010B0EBD10F04D050
:104D100005E01020F4E71820F2E7002038BD2068F5
:104D20006A460121C079FDF7B3F908B1284638BDBC
:104D30009DF80000C0086072EFE70000100000203E
:104D4000F8B5304C0546A07CA84201D10020F8BD42
:104D50002C484FF0FF366A4600684FF00101007999
:104D600015B3FDF72FF9A8BB9DF800006A4620F0A7
:104D700020008DF80000206801210079FDF788F9F6
:104D800040BB0320FBF7A8FF02208DF8000094F839
:104D9000220050B3822026E020686A460121007D6F
:104DA000FDF776F9B0B92BE0FDF70CF990B9A07AD0
:104DB000C0079DF8000002D040F0200001E020F084
:104DC00020008DF8000020686A4601210079FDF777
:104DD0005FF908B13046F8BD0320FBF77DFF94F87A
:104DE000220000B180208DF8000094F823000028F4
:104DF000D2D09DF8000040F030008DF80000CBE7E5
:104E0000A574A3E71000002038B51A4C94F82410BC
:104E100081421BD00025F0B194F82500C0B10020DC
:104E200000F0D6F90020FFF78BFFE08C00F0BCF813
:104E30008DF800506A4601212320FDF729F9012051
:104E400084F8240000F0C4F9FFF710FE002038BDFC
:104E50004FF0FF3038BD002000F0BAF9207C8DF80B
:104E600000006A4601212320FDF712F984F824503E
:104E7000EAE700001000002038B5184C4FF0FF356D
:104E8000A17A21B3FA2809D0B0F5FA7F08D0B0F59D
:104E90007A7F0FD0B0F5FA6F19D10DE0002000E055
:104EA00008208DF80000207A9DF80010B0EBD10F9B
:104EB00004D005E01020F4E71820F2E7002038BD08
:104EC00020686A4601218079FDF7E2F808B128469A
:104ED00038BD9DF80000C0082072EFE710000020E8
:104EE00038B5164C054694F82300A84201D100209D
:104EF00038BD0DB1302000E000208DF80000A07C0E
:104F000028B19DF8000040F002008DF8000094F8F0
:104F1000220028B19DF8000040F080008DF80000CC
:104F200020686A460121007DFDF7B2F810B14FF00C
:104F3000FF3038BD84F82350D9E70000100000206E
:104F400038B5184C4FF0FF35A17A21B3BC2801D3F6
:104F5000012010E0622801D302200CE02A2801D3AE
:104F6000032008E0142801D3042004E00A2801D318
:104F7000052000E006208DF80000E07A9DF8001082
:104F8000884201D1002038BD20686A46012180781E
:104F9000FDF77EF808B1284638BD9DF80000E072A4
:104FA000F0E7000010000020F8B51D4D04464FF05A
:104FB000FF37A87A38B395F8240020BB287D4FF43A
:104FC0007A7648B164B1282C03D8E0B2FFF78AFCA6
:104FD00024E00020FFF786FC042C05D2042406E020
:104FE0000020FFF77FFCF9E7B44200D93446B6FB56
:104FF000F4F0401E8DF8000028686A4601214078D0
:10500000FDF746F808B13846F8BD9DF80000401C91
:10501000B6FBF0F0E8814008FFF792FF0020F8BDF2
:1050200010000020F8B5044610F0700F4FF0000695
:1050300001D0012004E014B18DF8006002E04020AE
:105040008DF80000224D6A4601212868807CFDF71A
:105050001FF84FF0FF3750BB9DF8000020F04000D4
:1050600028738DF80060600602D404208DF80000DB
:10507000A00605D49DF8000040F002008DF8000065
:10508000E00605D49DF8000040F001008DF8000016
:10509000200705D49DF8000040F038008DF800008E
:1050A00028686A460121C07CFCF7F2FF10B1AE729D
:1050B0003846F8BD24B1082C02D00020FFF710FFBD
:1050C000AC722E753220FBF707FE0020F8BD000001
:1050D00010000020F8B516000D464FF0FF371CD029
:1050E0000F4CA17AC9B1010A8DF80010C0B28DF839
:1050F000010061682844498988420ED820686A46C0
:105100000221007EFCF7C4FF38B92068E9B23246BC
:10511000407DFCF7BDFF002800D03846F8BD0000F8
:105120001000002010B588B0694604A8FFF734FDD0
:10513000044601461EA0FDF707FA032C02D0012009
:1051400008B010BD07A8FFF77BFA0498FBF7C8FA70
:1051500007990C46FBF7C0F8FBF7D0FA04900598C6
:10516000FBF7BEFA2146FBF7B7F8FBF7C7FA059045
:105170000698FBF7B5FA2146FBF7AEF8FBF7BEFA47
:10518000069004A8FEF7E4FC03A8FFF71DFABDF89B
:105190000C0000994143009101994143019102990A
:1051A000414368460291FEF735FC0020C8E7000045
:1051B0006D70755F72756E5F73656C665F74657335
:1051C000745F726573756C743D25640A000000009D
:1051D00038B5134C0022214694F824300968551E36
:1051E0004BB170B1022010E0C87B6A460121FCF788
:1051F0004FFF68B90EE0A37A53B110B1607C60B97B
:1052000002E08DF80020EFE701208DF80000EBE7C9
:10521000284638BD9DF800006074002038BD0000AD
:10522000100000202DE9F04106460F46FBF718FC60
:10523000041E0D4618BF0120284320F00040C0F195
:105240007F6000F1E040C00F0ED0301C18BF01207D
:10525000384320F00040C0F17F6000F1E040C00F13
:1052600004BF0120FDF70CFA20462946BDE8F08175
:105270000000000000000000010203040607080906
:10528000000000000102030475191A0C6A231B1C9C
:105290001F207274433B4138393A6B6C376F0624D8
:1052A0006D6E70006800000476005401F7FD000187
:1052B0008300000000080000000100183200050013
:1052C000000020410000D242295C0F3E9A99993E8D
:1052D0003333733F295C0F3E000070000000002450
:1052E000000000020003000000650054FFEF000012
:1052F000FA80000B12820001030C30C30E8C8CE983
:1053000014D5400213710F8E3883F8833000F88370
:10531000258EF8833000F883FFFFFFFF0FFEA9D62C
:10532000240004001A8279A10000003CFFFF000065
:105330000010000038836FA2003E033040000000E0
:1053400002CAE3093E8000002000000000000000C7
:105350004000000060000000000C0000000C186E0F
:10536000000006920A16C0DFFFFF0256FD8CD377BD
:10537000FFE1C496E0C5BEAA00000000FFFF0B2BB2
:1053800000001657000003594000000000001DFAFD
:1053900000026C1D000000003FFFDFEB003EB3B6D3
:1053A000000D227800002F3C00000000001942B5DB
:1053B000000039A20000B365D90E9FC91DCF4C343F
:1053C00030000000500000003BB67AE800640000A6
:1053D00000C8000000000000100000001000FA9259
:1053E0001000225E000D229F00010000003200002C
:1053F000FF46000063D400001000000004D6000047
:1054000004CC000004CC000000001072000000403A
:105410000000000000000000000600020005000778
:105420000000000000640000000000000000000513
:1054300000050064002000000000000000000000E3
:10544000000040000000030000000032F898000057
:10545000FF650000830F0000FF9BFC0000000000C0
:10546000000000000000000000000000000000003C
:10547000000000000000000000000000000000002C
:1054800000000000000010004000000000000006C6
:105490000000B26A000200000001FB830068000007
:1054A00000D9FC007CF1FF830000000000650000D3
:1054B000006403E8006400280000002500000000EC
:1054C00016A000000000100000001000002F0000D7
:1054D000000001F40000100000280000FFFF4581DB
:1054E000FFFFFA7200000000000000000044000509
:1054F0000005BAC6004778A20000000100000000C5
:1055000000000600000000140000254D002F706D03
:10551000000005AE000C02D00000000000000000FA
:105520000000000000000000001B00000000000060
:1055300000000000000000000064000000080000FF
:10554000000000000000000000000000000000005B
:10555000000000000000000000000000000000004B
:10556000000000000000000000000000000000003B
:10557000000000000000000000000000000000002B
:10558000000000000000000000000000000000001B
:105590000000000000000000001B000000000000F0
:1055A00000000000000E000E00000AC7000400000A
:1055B00000000032FFFFFF9C00000B2B00000002E8
:1055C0000000000100000064FFE500000000000092
:1055D00000000000000000000000000100000000CA
:1055E00000010000000000000001800000018000B8
:1055F00000018000002426D300000000000000000D
:10560000000600100096003C0000000000000000B2
:1056100000000000000000000C0A4E68CDCF7709A2
:1056200050166759C619CE82000000000000000025
:10563000000000000000000000000000000000006A
:1056400017D78400030000000000000000000000E5
:10565000C7938F9D1E1B1C19000000000000000056
:10566000000000000000000000000000000000003A
:105670000203188500004000000000030000000342
:1056800000000000000000004000000000000000DA
:10569000000000000000000000000000000000000A
:1056A00000000000000000000000000000000000FA
:1056B000000000000000000000000000677DDF7EA9
:1056C00072902E554CF6E6880000000000000000A5
:1056D0000000000000000000D8DCB4B8B0D8B9ABBE
:1056E000F3F8FAB3B7BB8E9EAEF132F51BF1B4B846
:1056F000B08097F1A9DFDFDFAADFDFDFF2AAC5CD37
:10570000C7A90CC92C97F1A989264666B28999A91F
:105710002D557DB0B08AA896365676F1BAA3B4B2AC
:1057200080C0B8A89711B28398BAA3F02408441097
:105730006418B2B9B49883F1A329557DBAB5B1A361
:105740008393F0002850F5B2B6AA839328547CF1D5
:10575000B9A3829361BAA2DADEDFDB819AB9AEF532
:10576000606870F1DABAA2DFD9BAA2FAB9A382925C
:10577000DB31BAA2D9BAA2F8DF85A4D0C1BBAD8310
:10578000C2C5C7B8A2DFDFDFBAA0DFDFDFD8D8F13C
:10579000B8AAB38DB4980D355DB2B6BAAF8C961970
:1057A0008F9FA70E161EB49AB8AA872C547CBAA451
:1057B000B08AB691325676B28494A4C808CDD8B8CF
:1057C000B4B0F19982A82D557D98A80E161EA22C72
:1057D000547C92A4F02C5078F184A898C4CDFCD8C5
:1057E0000DDBA8FC2DF3D9BAA6F8DABAA6DED8BA32
:1057F000B2B68696A6D0F3C841DAA6C8F8D8B0B437
:10580000B882A892F52C548898F135D9F418D8F1BB
:10581000A2D0F8F9A884D9C7DFF8F883C5DADF6920
:10582000DF83C1D8F40114F1A8824EA884F311D10A
:1058300082F5D992289788F109F41C1CD884A8F322
:10584000C0F9D1D99782F129F40DD8F3F9F9D1D95A
:1058500082F4C203D8DEDF1AD8F1A2FAF9A884983C
:10586000D9C7DFF8F8F883C7DADF69DFF883C3D870
:10587000F40114F198A8822EA884F311D182F5D9ED
:1058800092509788F109F41CD884A8F3C0F8F9D194
:10589000D99782F149F40DD8F3F9F9D1D982F4C43A
:1058A00003D8DEDFD8F1AD8898CCA809F9D9829267
:1058B000A8F57CF1883ACF944A6E98DB6931DAAD6D
:1058C000F2DEF9D88795A8F221D1DAA5F9F417D933
:1058D000F1AE8ED0C0C3AE82C684C3A88595C8A5DC
:1058E00088F2C0F1F4010EF18E9EA8C63E56F55422
:1058F000F18872F40115F19845856EF58E9E048845
:10590000F142985A8E9E068869F4011CF1981E1186
:1059100008D0F504F11E970202983625DBF9D985E7
:10592000A5F3C1DA85A5F3DFD88595A8F309DAA533
:10593000FAD88292A8F578F1881A849F268898214F
:10594000DAF41DF3D8879F39D1AFD9DFDFFBF9F443
:105950000CF3D8FAD0F8DAF9F9D0DFD9F9D8F40B8A
:10596000D8F3879F39D1AFD9DFDFF41DF3D8FAFC24
:10597000A869F9F9AFD0DADEFAD9F88F9FA8F1CC8F
:10598000F398DB45D9AFDFD0F8D8F18F9FA8CAF3E1
:105990008809DAAF8FCBF8D8F2AD978D0CD9A5DF97
:1059A000F9BAA6F3FAF412F2D8950DD1D9BAA6F342
:1059B000FADAA5F2C1BAA6F3DFD8F1BAB2B6869682
:1059C000A6D0CAF349DAA6CBF8D8B0B4B8D8AD841B
:1059D000F2C0DFF18FCBC3A8B2B68696C8C1CBC3E5
:1059E000F3B0B48898A821DB718D9D71859521D97C
:1059F000ADF2FAD88597A828D9F408D8F28D29DA1B
:105A0000F405D9F285A4C2F2D8A88D9401D1D9F4B5
:105A100011F2D88721D8F40AD8F28498A8C801D105
:105A2000D9F411D8F3A4C8BBAFD0F2DEF8F8F8F877
:105A3000F8F8F8F8D8F1B8F6B5B9B08A95A3DE3C15
:105A4000A3D9F8D85CA3D9F8D87CA3D9F8D8F8F9A9
:105A5000D1A5D9DFDAFAD8B18530F7D9DED8F83058
:105A6000ADDADED8F2B48C99A32D557DA083DFDFAB
:105A7000DFB591A0F629D9FBD8A0FC29D9FAD8A086
:105A8000D051D9F8D8FC51D9F9D879D9FBD8A0D0C0
:105A9000FC79D9FAD8A1F9F9F9F9F9A0DADFDFDF51
:105AA000D8A1F8F8F8F8F8ACDEF8ADDE8393AC2CAA
:105AB000547CF1A8DFDFDFF69D2CDAA0DFD9FADB1A
:105AC0002DF8D8A850DAA0D0DED9D0F8F8F8DB55F8
:105AD000F8D8A878DAA0D0DFD9D0FAF8F8F8F8DB4F
