:020000040800F2
:10000000980A002001010008371400085B1300085B
:1000100035140008B102000839190008000000007A
:100020000000000000000000000000005B14000859
:10003000F7020008000000005914000879140008B5
:100040001B0100081B0100081B0100081B01000820
:100050001B0100081B0100081B0100081B01000810
:100060001B0100081B0100081B0100081B01000800
:100070001B0100081B0100081B0100081B010008F0
:10008000B5020008C10200081B0100081B0100089E
:100090001B0100081B0100081B0100081B010008D0
:1000A0001B0100081B0100081B0100081B010008C0
:1000B0001B0100081B0100081B0100081B010008B0
:1000C0001B0100081B0100081B0100081B010008A0
:1000D0001B010008B1180008E11800081B01000806
:1000E0001B0100081B0100081B010008DFF80CD0F1
:1000F00000F056F800480047A1190008980A0020AF
:100100000648804706480047FEE7FEE7FEE7FEE7B1
:10011000FEE7FEE7FEE7FEE7FEE7FEE7CD14000898
:10012000ED00000840EA01039B0703D009E008C97D
:10013000121F08C0042AFAD203E011F8013B00F8AC
:10014000013B521EF9D27047D2B201E000F8012BF8
:10015000491EFBD270470022F6E710B513460A4647
:1001600004461946FFF7F0FF204610BD30B505469E
:100170002A460B4612F8010B13F8014B08B1A042B6
:10018000F8D01CB1002802D06D1CF1E7284630BD24
:10019000421C10F8011B0029FBD1801A7047000097
:1001A000064C074D06E0E06840F0010394E80700C4
:1001B00098471034AC42F6D3FFF79CFF381A00087A
:1001C000581A00082DE9F041164C2078012826D154
:1001D000154E06F11007707800EB400007EB800029
:1001E000416804F583708046FFF7C0FF002528B101
:1001F000707800EB400007EB80008572012001F071
:100200002DF9A28840F6FF734146084801F047F8EF
:100210002570A580BDE8F04105A001F08FBBBDE8C9
:10022000F0810000880000200000002090050020E0
:1002300068656C6C6F0D0A002DE9F04106464FF4BD
:1002400080611748FFF787FF164D06EB460405EB64
:1002500084070220B872A5F11000467055F82400FA
:10026000FFF796FF82B240F6FF7655F8241033462A
:100270000D4801F014F855F82400FFF789FF82B209
:1002800055F824103346094801F009F83989A5F1D9
:10029000080001F0E9F8BDE8F041022001F0DEB805
:1002A0008E01002010000020D005002090050020C5
:1002B000FEE70000014800F0ABB800001006002087
:1002C000014800F0A5B800005406002030B590F8B1
:1002D00040500124AC40C56B6C60046863604368A7
:1002E000102B036803D099600068C26030BD9A602B
:1002F0000068C16030BD70470F4808B50068C1682C
:1003000041F02001C16001220C490B4800F078FF48
:10031000094840300168CA6842F01002CA600068AB
:100320000168406800900649BDE808404FF48072BB
:1003300001F2425000F018BF900500207300002029
:100340008E000020704701680A6822F00E020A60E1
:1003500001680A6822F001020A6090F84020C36B2D
:10036000012101FA02F25A6080F82110002180F880
:10037000201008467047000010B590F821100024A6
:10038000022903D00421816301243DE001680A6849
:1003900022F00E020A6001680A6822F001020A6077
:1003A0001A4A0168914201D1012121E0174A143211
:1003B000914201D110211BE0144A2832914201D10F
:1003C000891515E0114A3C32914201D189140FE0A0
:1003D0000E4A5032914202D14FF4803108E00B4A6C
:1003E0006432914202D14FF4801101E04FF08071EC
:1003F000064A083A5160012180F82110002180F856
:100400002010416B01B18847204610BD0800024012
:100410002DE9F05FC16B0C6801680B68D0F840C033
:10042000042202FA0CF2494DDFF824A1494E4A4F4A
:10043000DFF828B1DFF828E122422CD05A072AD56C
:100440000A68920603D40A6822F004020A6001686E
:10045000A94201D1042219E0514501D1402215E001
:10046000B14202D14FF4806210E0B94202D14FF4A0
:1004700080420BE0594502D14FF4802206E07145DD
:1004800002D14FF4800201E04FF080622F49083919
:100490004A60C16A3BE04FF0020808FA0CF818EA1B
:1004A000040F4FF000094FF0010235D05FEA837866
:1004B00032D50B689B0605D40B6823F00A030B604A
:1004C00080F821200168A94201D1022219E051459A
:1004D00001D1202215E0B14202D14FF4007210E0A8
:1004E000B94202D14FF400520BE0594502D14FF40A
:1004F000003206E0714502D14FF4001201E04FF0E6
:100500000072124908394A6080F82090816A0029F7
:100510001AD0BDE8F05F0847082505FA0CF525421A
:1005200012D01B0710D50B6823F00E030B6090F858
:100530004010C36B02FA01F15960826380F82120F8
:1005400080F82090016BE2E7BDE8F09F08000240D0
:100550001C000240300002404400024058000240AB
:100560006C00024030B528B308C81349142219445E
:10057000B1FBF2F18900C163104981630221417727
:100580001A6843F6F0718A43D0E900142143D0E998
:1005900002452C4321430469214344692143846972
:1005A0002143114319600021416301224277017701
:1005B000084630BD012030BDF8FFFDBF00000240FD
:1005C00070B5044690F82000002501280CD00120C9
:1005D00084F8200094F821600020012E06D084F8D1
:1005E00020000225284670BD022070BD022684F836
:1005F0002160A0632068066826F001060660204698
:10060000FFF764FEE06A00282068016802D041F02C
:100610000E0106E021F0040101602068016841F04C
:100620000A0101602068016841F001010160D9E719
:100630002DE9F84FDFF890A100220AF1040B1446CF
:1006400001274FF00F090BF1040E00BF0B6807FAEA
:1006500004F52B40AB4274D1DFF870C14E68A6EBB5
:100660000C0866452BD00DDC032E34D005DC36B3E8
:10067000012E19D0022E2FD11BE0112E16D0122ED2
:100680002AD119E0B8F5881F19D006DCB8F5803FEB
:1006900015D0B8F5801F1FD111E0B8F5001F0ED09E
:1006A000B8F5041F18D10AE0CA6815E0CA68121D1F
:1006B00012E0CA6808320FE0CA680C320CE08A689F
:1006C0002AB1012A4FF0080203D0456104E0042258
:1006D00002E0056100E00022FF2B01D8064601E0A0
:1006E00000F104064FEA840501D9A5F12005D6F8EA
:1006F00000C009FA05F82CEA080C02FA05F54CEAE4
:10070000050CC6F800C04D68ED0057D5304DAE69F8
:1007100046F00106AE61AD6924F0030605F001055F
:1007200000952C4D06EB050CDCF80850A6074FEAA7
:10073000167809FA08F6B543274EB04202D10026D2
:1007400010E03BE0254EB04201D101260AE0244EE4
:10075000B04201D1022605E0224EB04201D103266B
:1007600000E0042606FA08F62E43CCF808604D682F
:10077000DAF80060ED03554601D51E4300E09E43C4
:100780002E604D68DBF80060AD035D4601D51E4369
:1007900000E09E432E604D68DEF80060ED02754675
:1007A00001D51E4300E09E432E604D68AD020E4D04
:1007B0002E6801D51E4300E09E432E60641C102C61
:1007C000FFF444AFBDE8F88F0004014000001110B1
:1007D000001002400000014000080140000C0140F0
:1007E00000100140001401400C04014001488068E1
:1007F00070470000740000200248816802781144AC
:100800008160704774000020074810B5016841F00E
:1008100010010160032000F073F8002000F006F8DA
:1008200000F024F8002010BD0020024070B50D4DEE
:1008300004464FF47A712878B1FBF0F00A49096850
:10084000B1FBF0F000F0FCFA48B9102C07D20022FE
:100850002146501E00F034F800206C6070BD01206D
:1008600070BD000074000020800000200C4808B516
:10087000816941F001018161816901F0010100910B
:10088000C16941F08051C161C06900F080500090A1
:100890000448416821F0E06141F00071416008BD09
:1008A000001002400000014000F01F0201219140B1
:1008B0004009800000F1E020C0F8001170470000FE
:1008C000F0B40E4B1B680C46C3F30223C3F10705BB
:1008D000042D00D90425191D072901D2002300E0A9
:1008E000DB1E012606FA05F1491E214099409E4073
:1008F000761E16403143F0BC00F09EBD0CED00E0CA
:10090000064900F0070208684FF6FF03184040EA66
:100910000220034A10430860704700000CED00E01D
:100920000000FA052DE9F047DFF8548105460E4630
:10093000D8F8000000F00700B0420CD2D8F8001040
:1009400021F007013143C8F80010D8F8000000F08A
:100950000700B0426FD128684A4C810712D5400782
:1009600003D5606840F4E06060602878000703D534
:10097000606840F4605060606068A96820F0F00032
:10098000084360602878C00744D06868012816D002
:100990002168022816D0890700294CDA616821F005
:1009A000030101436160FFF721FF6968074641F2D7
:1009B000883001290ED00229814618D026E021680E
:1009C0008903E9E78901E7E7FFF710FFC11B494504
:1009D00001D918E081466068C0F381000128F3D195
:1009E00018E000BFFFF702FFC11B49450BD8606844
:1009F000C0F381000228F5D10CE000BFFFF7F6FE3E
:100A0000C11B494502D90320BDE8F087606810F09A
:100A10000C0FF3D1D8F80010404601F00701B142A5
:100A20000BD9016821F0070131430160006800F033
:100A30000700B04201D00120E6E72878400705D53D
:100A40006068E96820F4E060084360602878000787
:100A500006D56068296920F4605040EAC1006060F2
:100A600000F036F86168084AC1F30311515CC840D0
:100A7000064908600020FFF7D9FE0020C4E7000007
:100A80000020024000100240E01900088000002011
:100A90000448054900684968044AC1F30221515CD1
:100AA000C84070478000002000100240F019000884
:100AB0000448054900684968044AC1F3C221515CF1
:100AC000C84070478000002000100240F019000864
:100AD00012A185B00FC98DE80F0014A0144A006858
:100AE00004905168134801F00C03042B10D0082B1C
:100AF0000ED1C1F38343C9031DF803000AD5516821
:100B000004AAC1F34041515C0A4A5043B0FBF1F0E2
:100B100005B0704708494843FAE70000020304059E
:100B2000060708090A0B0C0D0E0F10100102000039
:100B30000010024000127A0000093D002DE9F84F34
:100B400004460078B94DC00748D06868C0F38100FA
:100B5000012807D06868C0F38100022809D16868BD
:100B6000C00306D52868800338D5606800286FD098
:100B700034E06068B0F5803F0BD010B1B0F5A02F25
:100B800011D0286820F480302860286820F4802064
:100B900002E0286840F480302860606888B1FFF780
:100BA00025FE064609E0286840F480202860F0E72A
:100BB000FFF71CFE801B642875D828688003F7D5D2
:100BC0000CE0FFF713FE064605E000BFFFF70EFE40
:100BD000801B6428F0D828688003F7D42078944ECE
:100BE00080074FF001094FF000083BD5686810F00E
:100BF0000C0F07D06868C0F38100022809D168682B
:100C0000C00306D42868800714D5206901281FD1A5
:100C100010E02069B0B1C6F80090FFF7E7FD074685
:100C200005E000BFFFF7E2FDC01B0228C4D828681A
:100C30008007F7D52868616920F0F80040EAC10014
:100C400028600FE0C6F80080FFF7D0FD074606E0F9
:100C5000E9E000BFFFF7CAFDC01B022823D82868BF
:100C60008007F7D4207800072CD57248A169D9B144
:100C7000C0F80090FFF7BAFD074604E0FFF7B6FDA5
:100C8000C01B02280FD8686A8007F7D56A484FF45E
:100C9000FA510068B0FBF1F0009000BF0098411ECF
:100CA0000091FAD20EE080E0C0F80080FFF79EFDD0
:100CB000074604E0FFF79AFDC01B022875D8686A52
:100CC0008007F7D42078400760D5E8690027C00086
:100CD00008D4E86940F08050E861E869012700F035
:100CE0008050009055480168C90513D401688346B7
:100CF00041F480710160FFF779FD824606E000BF94
:100D0000FFF774FDA0EB0A0064284ED8DBF8000062
:100D1000C005F5D5E06801280AD008B1052813D030
:100D2000286A20F001002862286A20F0040002E00E
:100D3000286A40F001002862E06841F2883B98B1DF
:100D4000FFF754FD82460BE0286A40F00400286259
:100D5000EEE700BFFFF74AFDA0EB0A0159455AD85C
:100D6000286A8007F6D50CE0FFF740FD824605E0D3
:100D7000FFF73CFDA0EB0A0159454CD8286A8007D3
:100D8000F6D41FB1E86920F08050E861E06988B3CB
:100D90006968C1F38101022945D00228C6F8608044
:100DA00004D0FFF723FD044638E034E0FFF71EFDD2
:100DB000074604E0FFF71AFDC01B02282BD828685D
:100DC0008001F7D4206AB0F5803F05D16868A1683A
:100DD00020F4003008436860D4E9080108436968DA
:100DE00021F4741108436860C6F86090FFF7FEFCB8
:100DF000044606E015E000BFFFF7F8FC001B0228E0
:100E000009D828688001F7D50BE000BFFFF7EEFC9A
:100E1000001B022802D90320BDE8F88F2868800152
:100E2000F4D40020F8E70120F6E7000000100240AB
:100E300000004242800442428000002000700040D6
:100E400010B5401EB0F1807F01D3012010BD4FF0DE
:100E5000E02460610F21601700F0EEFA0020A0612D
:100E600007202061002010BD10B5044600684169CC
:100E700094F83920C1F3C011212A0BD151B1416935
:100E800021F080014161206B08B1FFF75CFA204638
:100E900000F09EFB2068416994F83A20C1F380116C
:100EA000222A0BD151B1416921F040014161606BAF
:100EB00008B1FFF748FA204600F07CFB002010BD87
:100EC0007047000070B5026804461068D168536925
:100ED00010F00F0F51D003F0010501F49076354367
:100EE0005DD0C20705D0CA0503D5E26B42F001020E
:100EF000E263420705D5DA0703D0E26B42F0020253
:100F0000E263820705D5DA0703D0E26B42F0040200
:100F1000E263020705D5DA0703D0E26B42F008026C
:100F2000E263E26B002A34D0800604D5880602D53D
:100F3000204600F056FB20684069E16BC0F380104A
:100F400001F008010143204624D000F033FB206863
:100F5000416949061AD5416921F040014161606B40
:100F6000A0B11B494163606BFFF706FA002810D05F
:100F7000606B416BBDE87040084783060FD58B0658
:100F80000DD52046BDE8704000F02BBB2046FFF792
:100F900097FF70BDFFF794FF0020E06370BD03066C
:100FA00006D50B0604D52046BDE8704000F01CBCF9
:100FB0004006F3D54806F1D5D168204621F040011E
:100FC000D160202184F8391000F0C6F970BD00000E
:100FD0001515000870B5040004D094F839000025F8
:100FE00010B106E0012070BD84F83850204600F0B2
:100FF00023F8242084F839002068C16821F40051C6
:10100000C160204600F038FB2068016921F490415E
:1010100001612068416921F02A0141612068C168AD
:1010200041F40051C160E563202084F8390084F860
:101030003A00002070BD0000F0B585B00024009497
:101040000194029403940646414F036841480221EB
:101050000322414DBB4226D1836943F4804383611F
:10106000836903F480430493836943F00403836139
:101070008069039200F0040004900802CDE90001A9
:1010800069462846FFF7D4FA2815CDE900046946D9
:1010900028460294FFF7CCFA002211462520FFF7DC
:1010A0000FFC252050E02D4FBB424FD1C36943F4C4
:1010B0000033C361C36903F400330493836943F0CD
:1010C000040383618069039200F00400049004200B
:1010D000CDE9000169462846FFF7AAFA0820CDE9C4
:1010E0000004694628460294FFF7A2FA1D4D1C48E9
:1010F0008027C5E90004C5E902472C616C61AC6139
:101100002846EC61FFF72EFA08B1FFF71BF975636B
:101110006E62144D12484435143001C5102091C53B
:10112000104845F8104944306C61AC61EC61FFF740
:1011300019FA08B1FFF706F9356300221146262097
:101140006E62FFF7BDFB2620FFF7AEFB05B0F0BDDA
:1011500000380140001002400008014000440040F7
:101160006C00024010060020F8B5044690F83A00E2
:1011700020283CD1C1B3BAB394F83800012836D046
:10118000012084F83800A162A2850025E5632220B1
:1011900084F83A00636B17489862636B1648D8620C
:1011A000636B16481863606B134645630846666BAD
:1011B000216802463046091DFFF702FA20680168DF
:1011C0004168009184F83850C16841F48071C16071
:1011D0002068416941F0010141612068416941F0A5
:1011E000400141610020F8BDFFE70120FBE702203C
:1011F000F9E700006F150008AB1500082515000879
:1012000090F83A30202B22D1F9B1F2B190F8383071
:10121000012B1CD081628285C2850021C1632222FC
:1012200080F83A2080F838100168CA6842F4807269
:10123000CA6001684A6942F001024A610068C168F7
:1012400041F02001C160002070470120704702205A
:101250007047000010B500680E49884218D10E4C46
:101260002146A38801F583704A8804F106012BB159
:10127000FEF758FFA0886188084402E0FEF752FF9D
:101280006088A0806188A01DFEF765FF01202070A6
:1012900010BD0000004400408800002070472DE988
:1012A000F843044690F839001F4616460D4620289C
:1012B00050D1A5B19EB194F8380001284AD0012040
:1012C00084F838004FF00008C4F83C80212084F8EE
:1012D0003900FFF78BFAA6848146E68426E00120D8
:1012E000BDE8F883E08C401EE084A0684B46B0F572
:1012F000805F4FF000024FF080012046009703D03E
:1013000000F0A3FAE8B90DE000F09FFAC8B9288808
:101310002168C0F308004860206908B16D1C05E031
:10132000AD1C03E0216815F8010B4860E08C002833
:10133000D8D14B46002240212046009700F085FA84
:1013400008B10320CCE7202084F8390084F83880E5
:101350000020C5E70220C3E77047FEE70D4808B547
:10136000416941F0010141614069002200F0010042
:10137000009011461020FFF7A3FA1020FFF794FA0F
:10138000002211461120FFF79BFABDE8084011200A
:10139000FFF78ABA00100240094808B5816941F098
:1013A00020018161816901F020010091816941F092
:1013B00004018161806900F00400009008BD000014
:1013C000001002400C4810B50A4901604FF4E131A9
:1013D0004160002181600C22C160C0E9041281617A
:1013E000C161FFF7F7FD002803D0BDE81040FEF70C
:1013F000A9BF10BD00380140900500200C4810B571
:101400000A4901604FF4E1314160002181600C2202
:10141000C160C0E904128161C161FFF7DBFD0028F2
:1014200003D0BDE81040FEF78DBF10BD0044004062
:10143000D0050020FEE770470907090E002806DAEC
:1014400000F00F0000F1E02080F8141D704700F15B
:10145000E02080F80014704770477047014A01216E
:10146000115470477000002070B50D460446FFF718
:10147000BDF9C4E9000570BDFFF7BEB930B58FB046
:1014800028216846FEF767FE14210AA8FEF763FECE
:1014900001210804CDE900100024029402250491E2
:1014A000CDE907504FF4E01009906846FFF746FB7E
:1014B0000F20CDE90A056802CDE90C4002210AA8F7
:1014C0000E94FFF72FFA0FB030BD00000D480168F1
:1014D00041F00101016041680B4A1140416001681F
:1014E0000A4A11400160016821F4802101604168CD
:1014F00021F4FE0141604FF41F0181600449C003E3
:1015000008607047001002400000FFF8FFFFF6FE81
:1015100008ED00E010B5406A0021C185C184FFF7E5
:10152000CFFC10BD70B5446A2068406994F839104A
:10153000C0F3C0100025212904D118B1E58420464C
:1015400000F046F82068406994F83A10C0F3801023
:10155000222904D118B1E585204600F02BF8E06B74
:1015600040F01000E0632046FFF7AAFC70BD10B504
:101570000146406A09680968890613D40021C185BB
:101580000168CA6822F48072CA6001684A6922F060
:1015900001024A6101684A6922F040024A61202141
:1015A00080F83A10FFF756FE10BD10B5406AFFF7FD
:1015B00075FE10BD0168CA6822F49072CA600168A5
:1015C0004A6922F001024A61202180F83A107047EE
:1015D0000168CA6822F0C002CA60202180F8391070
:1015E000704710B590F83A10222901D0022010BDA2
:1015F0008168B1F5805F11D00169002901681FD0B1
:10160000496801F07F03816A4A1C82620B70C18DB8
:10161000491E0904090CC18518D02BE00269816AB2
:10162000002A0268526805D0D2B20A80816A491C39
:101630008162ECE7C2F308020A80816A891CF7E73D
:101640004A68816A4B1C83620A70E0E70168CA68D5
:1016500022F02002CA600168CA6822F48072CA605F
:1016600001684A6922F001024A61202180F83A109B
:10167000FFF7F0FD002010BD2DE9F04104460068A1
:101680000169E26821F44051114301612169A068B8
:101690000843616908432168CA6841F20C639A43B0
:1016A0000243CA6020684169A26921F44071114374
:1016B00041614C4920686425322688423CD1FFF7BD
:1016C000F7F900EBC00101EB001061688900B0FB85
:1016D000F1F7FFF7EDF900EBC00101EB00106168D5
:1016E000B0468900B0FBF1F0B0FBF5F06FF01801E7
:1016F000484307EB800106EB0110B0FBF5F000F06A
:10170000F006FFF7D5F900EBC00101EB00106168AE
:101710008900B0FBF1F0B0FBF5F006EB0016FFF727
:10172000C7F900EBC00101EB001061688900B0FB54
:10173000F1F7FFF7BDF93BE0FFF7AAF900EBC001B5
:1017400001EB001061688900B0FBF1F7FFF7A0F929
:1017500000EBC00101EB00106168B0468900B0FBEE
:10176000F1F0B0FBF5F06FF01801484307EB800192
:1017700006EB0110B0FBF5F000F0F006FFF788F97A
:1017800000EBC00101EB001061688900B0FBF1F0D3
:10179000B0FBF5F006EB0016FFF77AF900EBC0019D
:1017A00001EB001061688900B0FBF1F7FFF770F9F9
:1017B00000EBC00101EB001061688900B0FBF1F0A3
:1017C000B0FBF5F06FF01801484307EB800108EB20
:1017D0000110B0FBF5F0216800F00F003044886084
:1017E000BDE8F0810038014090F83910212901D07E
:1017F000022070478168B1F5805F016A0BD04A1CF6
:101800000262026809785160C18C491E0904090C02
:10181000C1840ED017E009880268C1F30801516045
:1018200001690029016A02D0491C0162ECE7891CA8
:10183000FBE70168CA6822F08002CA600068C168DC
:1018400041F04001C160002070472DE9F041984609
:1018500017460E460446069D1DE0681C1BD02DB1A0
:10186000FEF7C4FFA0EB0800A84214D92068C168A5
:1018700021F4D071C1602068416921F0010141610A
:10188000202084F8390084F83A00002084F83800D9
:101890000320BDE8F0812068006836EA000004D02B
:1018A0000020B842D9D00020F3E70120F9E700007A
:1018B000084800680068C043800608D406480168EC
:1018C0004906FCD5054800680349091D0860014820
:1018D000FFF7F8BA900500200044004004380140AA
:1018E00038B5124D28680168114CC943C90611D496
:1018F0000168406800902846FFF7B6FA286801683A
:1019000040680C4800684068C0F5807060802846D8
:10191000FFF7A0FC0548FFF7D5FAA11DBDE8384048
:101920004FF480720148FFF71FBC0000D005002073
:101930008800002010060020FEE70000014A02494E
:1019400000F013B88D1900088400002002E008C8D8
:10195000121F08C1002AFAD170477047002001E029
:1019600001C1121F002AFBD170472DE9F041164634
:101970000F460446002503E03946B047641C6D1C41
:1019800020780028F8D12846BDE8F08103490A688C
:101990001206FCD50149091D086070470038014056
:1019A000FEF732FFFFF76AFDFFF7F6FCFFF7D6FC04
:1019B000FFF708FDFFF722FD05A0FFF7BFFFFEF7C9
:1019C0009BFC0020FEF738FCFEF7FCFBFCE7000068
:1019D00073797374656D20696E6974210D0A000056
:1019E00000000000000000000102030406070809CF
:1019F000000000000102030441542B43495053549A
:101A00004152543D27544350272C2736302E31362F
:101A1000362E31382E39272C373530300D0A00005C
:101A200041542B4346554E3D300D0A0041540D0A9A
:101A3000000000004F4B0000581A00080000002072
:101A4000880000004C190008E01A000888000020F7
:101A5000100A00005C1900080000000000000000EF
:101A600000000000000000002C1A0008341A0008D2
:101A7000D0070203F8190008341A0008D00702033F
:101A8000201A0008341A0008D0070203201A0008A0
:101A9000341A0008D0070203201A0008341A00087C
:101AA000D0070203201A0008341A0008D0070203E6
:101AB000201A0008341A0008D0070203201A000870
:101AC000341A0008D00702030000000001000000E3
:101AD000100000000000000000A24A040000000006
:04000005080000ED02
:00000001FF
