:020000040800F2
:10000000180D0020010100084712000857110008D0
:10001000451200080F0200089115000800000000BA
:100020000000000000000000000000002113000894
:1000300011020008000000006912000823130008E4
:100040001B0100081B0100081B0100081B01000820
:100050001B0100081B0100081B0100081B01000810
:100060001B0100081B0100081B0100081B01000800
:100070001B0100081B0100081B0100081B010008F0
:100080001B0100081B0100081B0100081B010008E0
:100090001B0100081B0100081B0100081B010008D0
:1000A0001B0100081B0100081B0100081B010008C0
:1000B0001B0100081B0100081B0100081B010008B0
:1000C0001B0100081B0100081B0100081B010008A0
:1000D0001B0100081B0100081B0100081B01000890
:1000E0001B0100081B0100081B010008DFF80CD0F1
:1000F00000F06CF80048004719220008180D002095
:100100000648804706480047FEE7FEE7FEE7FEE7B1
:10011000FEE7FEE7FEE7FEE7FEE7FEE775130008F1
:10012000ED000008202A04DB203A21FA02F0002129
:10013000704721FA02F3D040C2F1200291400843F7
:1001400019467047D2B201E000F8012B491EFBD2DC
:1001500070470022F6E710B513460A4604461946D2
:10016000FFF7F0FF204610BD2DE9F05F05460020A7
:1001700092469B4688460646814640241BE0284618
:10018000414647462246FFF7CDFF53465A46C01A1E
:10019000914110D311461846224600F029F82D1A35
:1001A00067EB01084F4622460120002100F020F8AD
:1001B00017EB00094E41201EA4F10104DFDC484684
:1001C00031462A464346BDE8F09F0000064C074DE5
:1001D00006E0E06840F0010394E807009847103417
:1001E000AC42F6D3FFF786FFA0300008C03000080D
:1001F000202A04DB203A00FA02F1002070479140E7
:10020000C2F1200320FA03F3194390407047FEE740
:10021000704770472DE9F84FDFF890A100220AF1EE
:10022000040B144601274FF00F090BF1040E00BF19
:100230000B6807FA04F52B40AB4274D1DFF870C1AC
:100240004E68A6EB0C0866452BD00DDC032E34D08F
:1002500005DC36B3012E19D0022E2FD11BE0112E52
:1002600016D0122E2AD119E0B8F5881F19D006DC55
:10027000B8F5803F15D0B8F5801F1FD111E0B8F553
:10028000001F0ED0B8F5041F18D10AE0CA6815E0A7
:10029000CA68121D12E0CA6808320FE0CA680C3240
:1002A0000CE08A682AB1012A4FF0080203D04561A8
:1002B00004E0042202E0056100E00022FF2B01D8E7
:1002C000064601E000F104064FEA840501D9A5F1D4
:1002D0002005D6F800C009FA05F82CEA080C02FA45
:1002E00005F54CEA050CC6F800C04D68ED0057D581
:1002F000304DAE6946F00106AE61AD6924F00306EB
:1003000005F0010500952C4D06EB050CDCF80850B6
:10031000A6074FEA167809FA08F6B543274EB04209
:1003200002D1002610E03BE0254EB04201D101266B
:100330000AE0244EB04201D1022605E0224EB0422E
:1003400001D1032600E0042606FA08F62E43CCF875
:1003500008604D68DAF80060ED03554601D51E438C
:1003600000E09E432E604D68DBF80060AD035D4603
:1003700001D51E4300E09E432E604D68DEF800600C
:10038000ED02754601D51E4300E09E432E604D6888
:10039000AD020E4D2E6801D51E4300E09E432E6037
:1003A000641C102CFFF444AFBDE8F88F000401403A
:1003B0000000111000100240000001400008014040
:1003C000000C014000100140001401400C040140E9
:1003D0000AB1016170470904FBE700000148806829
:1003E000704700005C0000200248816802781144D8
:1003F000816070475C000020074810B5016841F03B
:1004000010010160032000F067F8002000F006F8FA
:1004100000F024F8002010BD0020024070B50D4D02
:1004200004464FF47A712878B1FBF0F00A49096864
:10043000B1FBF0F000F0B4FD48B9102C07D2002257
:100440002146501E00F028F800206C6070BD01208D
:1004500070BD00005C000020680000200C4808B55A
:10046000816941F001018161816901F0010100911F
:10047000C16941F08051C161C06900F080500090B5
:100480000448416821F0E06141F00071416008BD1D
:100490000010024000000140F0B40E4B1B680C46F7
:1004A000C3F30223C3F10705042D00D90425191D48
:1004B000072901D2002300E0DB1E012606FA05F120
:1004C000491E214099409E40761E16403143F0BCA3
:1004D00000F0BABE0CED00E0064900F00702086823
:1004E0004FF6FF03184040EA0220034A1043086019
:1004F000704700000CED00E00000FA052DE9F04720
:10050000DFF8548105460E46D8F8000000F00700D9
:10051000B0420CD2D8F8001021F007013143C8F8DE
:100520000010D8F8000000F00700B0426FD1286832
:100530004A4C810712D5400703D5606840F4E0605B
:1005400060602878000703D5606840F46050606000
:100550006068A96820F0F000084360602878C00750
:1005600044D06868012816D02168022816D089076F
:1005700000294CDA616821F0030101436160FFF753
:100580002DFF6968074641F2883001290ED0022903
:10059000814618D026E021688903E9E78901E7E769
:1005A000FFF71CFFC11B494501D918E0814660686F
:1005B000C0F381000128F3D118E000BFFFF70EFF60
:1005C000C11B49450BD86068C0F381000228F5D1F2
:1005D0000CE000BFFFF702FFC11B494502D9032011
:1005E000BDE8F087606810F00C0FF3D1D8F8001068
:1005F000404601F00701B1420BD9016821F0070123
:1006000031430160006800F00700B04201D00120D2
:10061000E6E72878400705D56068E96820F4E060DF
:10062000084360602878000706D56068296920F4CF
:10063000605040EAC100606000F036F86168084A26
:10064000C1F30311515CC840064908600020FFF760
:10065000E5FE0020C4E70000002002400010024038
:10066000883000086800002004480549006849688F
:10067000044AC1F30221515CC84070476800002061
:100680000010024098300008044805490068496895
:10069000044AC1F3C221515CC84070476800002081
:1006A000001002409830000812A185B00FC98DE8F3
:1006B0000F0014A0144A006804905168134801F018
:1006C0000C03042B10D0082B0ED1C1F38343C903B4
:1006D0001DF803000AD5516804AAC1F34041515CDA
:1006E0000A4A5043B0FBF1F005B07047084948434F
:1006F000FAE7000002030405060708090A0B0C0DBF
:100700000E0F1010010200000010024000127A00CB
:1007100000093D002DE9F84F04460078B94DC007A7
:1007200048D06868C0F38100012807D06868C0F32A
:100730008100022809D16868C00306D528688003B3
:1007400038D5606800286FD034E06068B0F5803F2D
:100750000BD010B1B0F5A02F11D0286820F4803054
:100760002860286820F4802002E0286840F4803067
:100770002860606888B1FFF731FE064609E0286806
:1007800040F480202860F0E7FFF728FE801B6428F3
:1007900075D828688003F7D50CE0FFF71FFE0646E2
:1007A00005E000BFFFF71AFE801B6428F0D8286818
:1007B0008003F7D42078944E80074FF001094FF062
:1007C00000083BD5686810F00C0F07D06868C0F3CC
:1007D0008100022809D16868C00306D42868800710
:1007E00014D5206901281FD110E02069B0B1C6F8E6
:1007F0000090FFF7F3FD074605E000BFFFF7EEFDB1
:10080000C01B0228C4D828688007F7D5286861690A
:1008100020F0F80040EAC10028600FE0C6F8008030
:10082000FFF7DCFD074606E0E9E000BFFFF7D6FD75
:10083000C01B022823D828688007F7D42078000737
:100840002CD57248A169D9B1C0F80090FFF7C6FD58
:10085000074604E0FFF7C2FDC01B02280FD8686AF4
:100860008007F7D56A484FF4FA510068B0FBF1F001
:10087000009000BF0098411E0091FAD20EE080E087
:10088000C0F80080FFF7AAFD074604E0FFF7A6FDC9
:10089000C01B022875D8686A8007F7D42078400703
:1008A00060D5E8690027C00008D4E86940F08050AE
:1008B000E861E869012700F0805000905548016820
:1008C000C90513D40168834641F480710160FFF7C4
:1008D00085FD824606E000BFFFF780FDA0EB0A0021
:1008E00064284ED8DBF80000C005F5D5E068012883
:1008F0000AD008B1052813D0286A20F00100286228
:10090000286A20F0040002E0286A40F00100286212
:10091000E06841F2883B98B1FFF760FD82460BE04A
:10092000286A40F004002862EEE700BFFFF756FD9A
:10093000A0EB0A0159455AD8286A8007F6D50CE081
:10094000FFF74CFD824605E0FFF748FDA0EB0A01EA
:1009500059454CD8286A8007F6D41FB1E86920F0C1
:100960008050E861E06988B36968C1F381010229B8
:1009700045D00228C6F8608004D0FFF72FFD04465A
:1009800038E034E0FFF72AFD074604E0FFF726FDD4
:10099000C01B02282BD828688001F7D4206AB0F544
:1009A000803F05D16868A16820F400300843686082
:1009B000D4E908010843696821F4741108436860A8
:1009C000C6F86090FFF70AFD044606E015E000BF98
:1009D000FFF704FD001B022809D828688001F7D51D
:1009E0000BE000BFFFF7FAFC001B022802D903202E
:1009F000BDE8F88F28688001F4D40020F8E70120D2
:100A0000F6E700000010024000004242800442422B
:100A1000680000200070004070B5040005D000257B
:100A2000A56294F8510010B104E0012070BD204689
:100A300000F034F8022084F851002068016821F0A9
:100A400040010160D4E901010843D4E903121143D4
:100A5000084361690843218B01F400710843E1698F
:100A60000843216A0843A16A084321680860A06915
:100A7000042101EA1040616A084321684860216846
:100A8000E06A08612068C16921F40061C16165659F
:100A9000012084F85100002070BD000030B585B001
:100AA000002400940194029403940068154988423C
:100AB00025D11548C16941F48041C161C16901F482
:100AC00080410491816941F00801816180690F4D85
:100AD00000F0080004904FF42040009002200190A4
:100AE0000320039069462846FFF794FB4FF48040AB
:100AF000CDE90004694628460294FFF78BFB05B058
:100B000030BD00000038004000100240000C0140E1
:100B10002DE9F84F044640680026984617460D46D2
:100B20004FF00409B0F5827F01D1A06890B194F82C
:100B30005000012819D04FF0010B84F850B0FFF796
:100B40004DFC009094F851004FF0000A01280ED09F
:100B500002267FE084F8519013460A462046CDF8DD
:100B6000008000F031F9BDE8F88F0220FBE7002D8E
:100B70006FD0002F6DD084F85190C4F854A0A563B5
:100B8000A787E787C4F830A0A4F834A0A4F836A05B
:100B9000C4F840A0C4F844A0A0684FF40047B8428D
:100BA00004D12068016821F4804101602068016857
:100BB000490603D4016841F040010160E068B8B122
:100BC00033E020688168C90706D0007B05F8010B77
:100BD000E08F401EE0870BE0B8F1000F23D0B8F1A2
:100BE000FF3F05D0FFF7FAFB0099411A41451AD2A1
:100BF000E08F0028E5D11BE020688168C90706D096
:100C0000C06825F8020BE08F401EE0870DE0B8F1C8
:100C1000000F08D0B8F1FF3F07D0FFF7DFFB0099C6
:100C2000411A414501D3032614E0E08F0028E3D1A7
:100C30006068B0F5827F0AD1A068B84202D0B0F5F2
:100C4000806F04D12068016821F040010160606D6F
:100C500000B1012684F851B084F850A0304682E7F4
:100C60002DE9F84F044690F85000002699461746A3
:100C70000D4601280DD04FF0010B84F850B0FFF75E
:100C8000ADFB804694F85100B246012804D00226FC
:100C900094E00220BDE8F88F002D7BD0002F79D0A2
:100CA000032084F85100C4F854A02563A786E78682
:100CB000C4F838A0A4F83CA0A4F83EA0C4F844A00E
:100CC000C4F840A0A068B0F5004F04D120680168C6
:100CD00041F48041016020680168490603D401683D
:100CE00041F040010160E068B0F5006F606804D039
:100CF00030B3E08E012823D03EE010B1E08E012811
:100D00001AD135F8021B206805E020688168890740
:100D100006D535F8021BC160E08E401EE0860BE070
:100D2000B9F1000F34D0B9F1FF3F05D0FFF756FB02
:100D3000A0EB080149452BD2E08E0028E5D11EE04A
:100D4000216815F8010B087306E02068816889079F
:100D500006D515F8011B0173E08E401EE0860BE0FE
:100D6000B9F1000F14D0B9F1FF3F05D0FFF736FB02
:100D7000A0EB080149450BD2E08E0028E5D14B4697
:100D8000012202212046CDF8008000F07EFA10B149
:100D9000032613E011E042464946204600F065FA7A
:100DA00018B101262020606508E0A06818B9206805
:100DB000C16880680090606D00B1012684F851B070
:100DC00084F850A0304665E72DE9F84F044690F8C6
:100DD000500000260A9F9A4693460D464FF00108A0
:100DE00001280ED0012084F85000FFF7F7FA814661
:100DF00094F85100616801280CD0B1F5827F07D1C9
:100E000002E00220BDE8F88FA16809B9042801D0EA
:100E10000226BDE055B1BBF1000F07D0BAF1000FBB
:100E200004D094F85100012802D004E00126AFE07C
:100E3000052084F8510000206065C4F838B0A4F89B
:100E40003EA0A4F83CA02563A4F836A0A4F834A0E2
:100E50002064606420680168490603D4016841F099
:100E600040010160E068B0F5006F606804D0E8B34D
:100E7000E08E01283BD06AE010B1E08E01282ED12F
:100E8000216835F8020BC860E08E401EE08626E03F
:100E9000B8F1000F0DD0E08E58B120688168890745
:100EA00007D535F8021BC160E08E401EE0864FF08A
:100EB0000008E08F58B120688168C90707D0C06872
:100EC0002BF8020BE08F401EE0874FF00108781CE2
:100ED00005D0FFF783FAA0EB0900B84246D2E08EB6
:100EE0000028D5D1E08F0028D2D136E0FFE7216875
:100EF00015F8010B0873E08E401EE08627E000BF66
:100F0000B8F1000F0DD0E08E58B1206881688907D4
:100F100007D515F8011B0173E08E401EE0864FF0E7
:100F20000008E08F58B120688168C90707D0C06801
:100F30000BF8010BE08F401EE0874FF00108781C92
:100F400005D0FFF74BFAA0EB0900B8420ED2E08EB5
:100F50000028D5D1E08F0028D2D13B4601220221C2
:100F60002046CDF8009000F090F908B103260FE07C
:100F70004A463946204600F078F918B1012620206B
:100F8000606505E0A06818B92068C16880680090B5
:100F9000012084F85100002084F85000304631E7E9
:100FA00010B5401EB0F1807F01D3012010BD4FF07D
:100FB000E02460610F21601700F046F90020A06175
:100FC00007202061002010BD70B5040004D094F803
:100FD0003900002510B106E0012070BD84F83850BA
:100FE000204600F023F8242084F839002068C168E6
:100FF00021F40051C160204600F0E0F92068016949
:1010000021F4904101612068416921F02A01416188
:101010002068C16841F40051C160E563202084F874
:10102000390084F83A00002070BD000030B585B06A
:1010300000240094019402940394006814498842A7
:1010400024D11448816941F480418161816901F4AE
:1010500080410491816941F00401816180690E4DF4
:1010600000F0040004904FF4007000900220019002
:101070000320039069462846FFF7CCF82815CDE9F0
:101080000004694628460294FFF7C4F805B030BD55
:101090000038014000100240000801402DE9F843EB
:1010A000044690F839001F4616460D46202850D1B8
:1010B000A5B19EB194F8380001284AD0012084F8E7
:1010C00038004FF00008C4F83C80212084F8390033
:1010D000FFF784F9A6848146E68426E00120BDE876
:1010E000F883E08C401EE084A0684B46B0F5805F3A
:1010F0004FF000024FF080012046009703D000F02F
:1011000015FAE8B90DE000F011FAC8B9288821688D
:10111000C0F308004860206908B16D1C05E0AD1CF3
:1011200003E0216815F8010B4860E08C0028D8D155
:101130004B46002240212046009700F0F7F908B105
:101140000320CCE7202084F8390084F83880002080
:10115000C5E70220C3E7FEE770B586B00024184853
:101160000094019402940394816941F0200181610B
:10117000816901F020010491816941F008018161D8
:10118000816901F008010491816941F004018161E4
:1011900080690C4E00F004004FF48055049000224A
:1011A00029463046FFF714F901200095CDE90104E6
:1011B0000220039069463046FFF72CF806B070BD58
:1011C00000100240000C01400F4810B50D490160AD
:1011D0004FF48271416000218160C1604FF4007260
:1011E0000161C0E90512C1610162416281620A21A7
:1011F000C162FFF711FC002803D0BDE81040FFF7E3
:1012000008B810BD00380040800800200C4810B518
:101210000A4901604FF4E1314160002181600C22F4
:10122000C160C0E904128161C161FFF7CDFE0028F1
:1012300003D0BDE81040FEF7ECBF10BD0038014000
:10124000D8080020FEE770470907090E002806DAD3
:1012500000F00F0000F1E02080F8141D704700F14D
:10126000E02080F800147047704738B50B460092B4
:1012700004460022802100F008F8002804D0606DA8
:1012800040F020006065032038BD2DE9F0411D4687
:1012900017460E460446DDF8188035E0681C33D04A
:1012A0002DB1FFF79BF8A0EB0800A8422CD32068D3
:1012B000416821F0E00141606068B0F5827F0BD1A8
:1012C000A068B0F5004F02D0B0F5806F04D120685F
:1012D000016821F040010160A06AB0F5005F0AD109
:1012E000206801684DF6FF721140016020680168B6
:1012F00041F400510160012084F85100002084F87D
:1013000050000320BDE8F0812068806836EA0000C4
:1013100004D00020B842C1D10020F3E70120F9E752
:101320007047FFF761B830B58FB028216846FEF7E7
:1013300010FF14210AA8FEF70CFF01210804CDE9D3
:1013400000100024029402250491CDE907504FF4C7
:10135000E01009906846FFF7DDF90F20CDE90A0596
:101360006802CDE90C4002210AA80E94FFF7C6F8E6
:101370000FB030BD0D48016841F0010101604168C6
:101380000B4A1140416001680A4A1140016001683E
:1013900021F480210160416821F4FE0141604FF495
:1013A0001F0181600449C0030860704700100240BB
:1013B0000000FFF8FFFFF6FE08ED00E02DE9F04128
:1013C000044600680169E26821F44051114301615B
:1013D0002169A0680843616908432168CA6841F22D
:1013E0000C639A430243CA6020684169A26921F4F0
:1013F0004071114341614C4920686425322688427E
:101400003CD1FFF741F900EBC00101EB001061682E
:101410008900B0FBF1F7FFF737F900EBC00101EBF2
:1014200000106168B0468900B0FBF1F0B0FBF5F048
:101430006FF01801484307EB800106EB0110B0FB89
:10144000F5F000F0F006FFF71FF900EBC00101EB2B
:10145000001061688900B0FBF1F0B0FBF5F006EB1D
:101460000016FFF711F900EBC00101EB00106168F5
:101470008900B0FBF1F7FFF707F93BE0FFF7F4F85D
:1014800000EBC00101EB001061688900B0FBF1F7CF
:10149000FFF7EAF800EBC00101EB00106168B0460D
:1014A0008900B0FBF1F0B0FBF5F06FF01801484394
:1014B00007EB800106EB0110B0FBF5F000F0F00641
:1014C000FFF7D2F800EBC00101EB00106168890062
:1014D000B0FBF1F0B0FBF5F006EB0016FFF7C4F837
:1014E00000EBC00101EB001061688900B0FBF1F76F
:1014F000FFF7BAF800EBC00101EB0010616889004A
:10150000B0FBF1F0B0FBF5F06FF01801484307EBCA
:10151000800108EB0110B0FBF5F0216800F00F002E
:1015200030448860BDE8F081003801402DE9F04189
:10153000984617460E460446069D1DE0681C1BD0C3
:101540002DB1FEF74BFFA0EB0800A84214D920688C
:10155000C16821F4D071C1602068416921F00101A6
:101560004161202084F8390084F83A00002084F892
:1015700038000320BDE8F0812068006836EA0000EA
:1015800004D00020B842D9D00020F3E70120F9E7C9
:10159000FEE700000A4601464FF0FF330148FFF71F
:1015A000B7BA00008008002008B501216846FFF79F
:1015B000F1FF9DF8000008BD00224FF48051014862
:1015C000FEF706BF000C0140012211030148FEF79F
:1015D000FFBE0000000C01400A4601464FF0FF33F9
:1015E0000148FFF73DBB00008008002001B5012144
:1015F0006846FFF7F1FF08BDF8B5144C0546E068F2
:10160000804760698047616AC5F30740C5F30726D4
:1016100099B1A26A8AB18DF800008DF801608DF849
:101620000250032168469047E06980470546A0695B
:101630008047206980472846F8BD216A8847216A8B
:1016400030468847216AE8B28847EDE71800002055
:101650002DE9F8431A4C05461746E068884680474E
:1016600060698047616AC5F30740C5F30726A1B1E9
:10167000A26A92B18DF800008DF801608DF80250D9
:10168000032168469047626A394640469047A06900
:10169000804720698047BDE8F883216A8847216A2E
:1016A00030468847216AE8B28847002505E0E069AE
:1016B000804708F805006D1CADB2BD42F7D3E6E7E0
:1016C00018000020F8B5164C05460E46E068804725
:1016D00060698047A26A45F004058AB1280C8DF83C
:1016E0000000280A8DF801008DF802508DF8036083
:1016F000042168469047A069804720698047F8BD6B
:10170000216AC5F307408847216AC5F30720884747
:10171000216AE8B28847216A30468847EBE7000033
:1017200018000020F8B51A4C05461646E0680F462A
:10173000804760698047A26A45F004059AB1280C89
:101740008DF80000280A8DF801008DF80250032161
:1017500068469047A26A314638469047A06980475C
:1017600020698047F8BD216AC5F307408847216A90
:10177000C5F307208847216AE8B28847002504E0BE
:10178000216A785D88476D1CADB2B542F8D3E5E7B4
:10179000180000200FB4054B10B503A9044A0298A5
:1017A00000F018F810BC5DF814FB00006D1E000876
:1017B0006C00002002E008C8121F08C1002AFAD1FC
:1017C00070477047002001E001C1121F002AFBD1C1
:1017D000704700002DE9FF4F8DB00F4605460026EB
:1017E00006E025280BD0DDE90F1290476D1C761C12
:1017F00028780028F5D111B03046BDE8F08F0024DC
:10180000A246A1460122EC4900E0044315F8013F3D
:10181000203B02FA03F00842F7D128782A2810D09A
:101820006FF02F022878A0F13001092914D80AEBB3
:101830008A0102EB410144F0020400EB010A6D1C35
:10184000F0E701CF5FEA000A03D544F40054CAF17F
:10185000000A44F002046D1C28782E2817D115F8D0
:10186000010F44F004042A280ED06FF02F022878CC
:10187000A0F1300109290AD809EB890102EB4101E5
:1018800000EB01096D1CF2E757F8049B6D1C2878EA
:101890006C280FD006DC4C2817D068280DD06A2899
:1018A00014D104E0742810D07A280FD10DE044F44C
:1018B00000140AE044F4801401E044F44014697810
:1018C000814202D104F580146D1C6D1C2A786E2AA9
:1018D0001FD00CDC632A31D004DC002A8BD0582ABC
:1018E00011D1A3E0642A68D0692A0CD165E0732A7B
:1018F0002ED004DC6F2A73D0702A04D19BE0752AA5
:101900006FD0782A6ED01046DDE90F129047761C12
:1019100050E1C4F30250022806D0032809D004285D
:1019200001CF09D0066045E101CFF117C0E90061A0
:1019300040E101CF06803DE106703BE117F8040B62
:101940008DF8000000208DF80100EB46012003E037
:1019500057F804BB4FF0FF3061074FF0000102D48D
:101960000DE008F10101884649450FDA8045F8DBB2
:101970001BF808100029F4D108E008F1010188469D
:101980008142FADB1BF808100029F6D1DDE90F23AC
:10199000AAEB08008146214600F036F9304400EBFE
:1019A000080604E0DDE90F121BF8010B9047B8F1BF
:1019B0000108F7D221464846F7E00A21C4F3025352
:1019C0004FF0000B0891022B04D001CFC117032B5D
:1019D00009D00AE0FF1D27F00707F7E8020108E039
:1019E00032E01FE020E000B2C117042B01D140B269
:1019F000C117031E71F1000307DA4FF0000CD0EBA2
:101A00000C006CEB01012D2302E0230504D52B23F0
:101A10008DF82430012303E0E30701D02023F7E70A
:101A2000984658E00A2110E010210EE010204FF0F7
:101A3000000B08900CE010214FF0000B44F0040460
:101A40004FF00809089103E008214FF0000B0891BE
:101A5000C4F30253022B04D001CF0021032B06D084
:101A600006E0FF1D27F00707F7E8020103E080B258
:101A7000042B00D1C0B24FF0000823072BD5702AE9
:101A800007D0DDF820C08CF0100C5CEA0B0C05D000
:101A90000EE040238DF82430012308E050EA0103D2
:101AA00006D030238DF824308DF825200223984667
:101AB000DDF820C08CF0080C5CEA0B0C0BD150EA6E
:101AC000010301D1630706D530238DF824304FF090
:101AD0000108A9F10109582A04D038A20B9208AADA
:101AE0000A920BE03AA2F9E75B46089AFEF73CFB44
:101AF0000B9B9B5C0A9A521E0A92137050EA0102D9
:101B0000F2D10A98ADEB000000F1200B600702D57E
:101B100024F4803401E04FF00109D94502DDA9EB3E
:101B20000B0000E0002000EB0B0141440890AAEB01
:101B3000010AE00306D4DDE90F232146504600F0F8
:101B400063F806444FF0000908E009A911F80900FC
:101B5000DDE90F12904709F10109761CC145F4DB5C
:101B6000E0030CD5DDE90F232146504600F04CF888
:101B7000064404E0DDE90F1230209047761C0899F6
:101B8000481E08900029F5DC08E00A980A990078B8
:101B9000491C0A91DDE90F129047761CBBF1000148
:101BA000ABF1010BF1DC21465046DDE90F2300F0DB
:101BB00019F806446D1C1BE6092801003031323348
:101BC0003435363738396162636465660000000079
:101BD0003031323334353637383941424344454663
:101BE000000000002DE9F041044600251E4617467E
:101BF000880404D405E039462020B0476D1C641EDB
:101C0000F9D52846BDE8F0812DE9F04104460025CC
:101C10001E469046C80301D5302700E020278804DF
:101C200004D505E041463846B0476D1C641EF9D521
:101C30002846BDE8F081000070B50446082802D9A6
:101C40004FF0FF3070BD4FF4847000EB4410054638
:101C50001021FFF737FD2846FFF7CEFC0028FAD108
:101C60004FF4027000EB44101F21FFF72BFD0D49CC
:101C70000120A0404A8882434A808A8882438A8021
:101C80000949002021F814000649891D08554FF420
:101C9000427000EB44142046FFF7AEFC0028FAD156
:101CA000012070BD000000207000002010B50C461F
:101CB00006281ED2DFE800F003070B101418204698
:101CC00001F0A8F813E0204601F016F80FE02078A4
:101CD000BDE8104001F0CAB801F03AF8207006E003
:101CE000204601F0D5F802E0204601F034F800204B
:101CF00010BD4FF0FF3010BD2DE9F0410C46002122
:101D000002464F1E08464FF498554FF4A056102A2D
:101D100061D2DFE802F0080B17131A1E222C36439B
:101D2000464A574E535A01F0CCF84BE014B12046C6
:101D300004F10801BDE8F04101F021B8208800F06D
:101D4000AAFF3FE000F0BAFF05E0208801F054F858
:101D500038E000F0C2FF208034E02088010A2846E5
:101D6000FFF7B0FC21783046FFF7ACFC2AE03046A4
:101D7000FFF742FC06462846FFF73EFC06EB002034
:101D8000E9E7164882782270C27862700279A27000
:101D90004279E27080792071617113E001F00AF9F3
:101DA00010E0204601F01BF90CE0204601F0C3F8DA
:101DB00008E02078BDE8F04101F036B901F0EDF817
:101DC00005E020700020BDE8F08101F0DBF8C0B232
:101DD00041B2491CF5D13846F5E700001800002053
:101DE00070B50446082802D94FF0FF3070BD60017D
:101DF00001250830FFF700FC00F00F00012801D09A
:101E0000A81F70BD4FF4847000EB441006460821F3
:101E1000FFF758FC3046FFF7EFFB0028FAD11248D5
:101E2000A5408188A9438180408805420CD00020CC
:101E300070BD3046FFF7E0FB00070DD52046FFF7E9
:101E4000FBFE6FF00C0070BD4FF4027000EB441607
:101E50004FF4427000EB44152846FFF7CDFB0028F5
:101E6000E7D1012070BD00000000002013B54FF63F
:101E7000FF73012269460248FFF710F900981CBD64
:101E8000D80800202DE9F04142F2086101EB40152D
:101E900042F20871002601EB40142846FFF7ACFB24
:101EA00007462046FFF7A8FB00EB072007043F0C7E
:101EB00009D02846FFF7A0FB06462046FFF79CFB0B
:101EC00000EB062086B2BE42E7D13046BDE8F08185
:101ED0002DE9F04142F2080101EB401542F20811F0
:101EE000002601EB40142846FFF786FB07462046F4
:101EF000FFF782FB00EB072007043F0C09D02846C0
:101F0000FFF77AFB06462046FFF776FB00EB06203C
:101F100086B2BE42E7D13046BDE8F08170B50446D6
:101F2000082802D94FF0FF3070BD60010830FFF77C
:101F300063FB00F00F00012802D06FF0040070BDB9
:101F40004FF4427000EB44100546FFF755FB132891
:101F500002D06FF0020070BD4FF4847000EB4410AB
:101F600006460221FFF7AEFB3046FFF745FB00288F
:101F7000FAD12846FFF740FB142805D02046FFF78A
:101F80005BFE6FF0030070BD012070BD2DE9FF41C5
:101F900004464FF4427016468846002500EB441074
:101FA000FFF72AFB002877D0132869D0172802D022
:101FB0001C2879D15AE04FF4027000EB4410064619
:101FC000FFF71AFBC0072AD040F6084000EB441088
:101FD000042203A9FFF73CFB41F2081000EB441078
:101FE000FFF70AFB074641F2080000EB4410FFF739
:101FF00003FB07EB00209DF80E2080B29DF80F1028
:102000000092CDE901109DF80D309DF80C2021467D
:1020100026A0FFF7BFFB30460121FFF753FB204608
:10202000FFF730FF02003FD04FF40060824200D93A
:1020300002464146204600F013FA00280EDD87B222
:1020400011E0781B82B208EB0501204600F0C2FBCC
:10205000060006D52046FFF7EFFD304604B0BDE888
:10206000F081284485B2AF42EBD11DE02046FFF756
:10207000B7FE0128F2D1214615A0FFF78BFB13E034
:102080003246214617A0FFF785FB2046FFF746FFA3
:102090000128E3D108E0FFE7002332460121204672
:1020A00000F0E6FCA042D9D10120D7E725643A43ED
:1020B0006F6E6E6563746564202D2025642E256423
:1020C0002E25642E2564203A2025640D0A00000088
:1020D00025643A536F636B657420436C6F7365645A
:1020E0000D0A000025643A4C697374656E2C205407
:1020F000435020736572766572206C6F6F706261F9
:10210000636B2C20706F7274205B25645D0D0A0078
:102110002DE9FE4306464FF442701446884600EB14
:102120004610FFF769FA002839D0222844D13046FA
:10213000FFF7A8FE02003FD04FF40060824200D9B2
:10214000024602A8009001AB4146304600F0FAF981
:10215000041E07DC0246314618A0FFF71BFB204691
:10216000BDE8FE8387B2002416E000BFBDF808007A
:102170000090381B82B208EB040101AB304600F03E
:10218000B7FB050006D50246314613A0FFF702FB58
:102190002846E5E7204484B2BC42E7D10CE00023A6
:1021A00022460221304600F063FCB042D8D12246DC
:1021B00031460FA0FFF7EEFA0120D1E725643A205F
:1021C0007265637666726F6D206572726F722E2013
:1021D000256C640D0A00000025643A2073656E6466
:1021E000746F206572726F722E20256C640D0A0068
:1021F00025643A4F70656E65642C20554450206C00
:102200006F6F706261636B2C20706F7274205B253E
:10221000645D0D0A0000000086B0274B0DF1040C30
:102220000FCB8CE80F00FEF7E7F8FFF77CF8FEF71E
:1022300093FFFEF7C9FFFEF7E9FF2049204800F0B1
:102240008BFA2049204800F099FA2049204800F0F4
:10225000ABFA01A90120FFF74FFD401C03D11DA0DF
:10226000FFF798FAFEE769460F20FFF745FD401C8F
:1022700002D11FA0FFF78EFA9DF800000028F2D0CF
:1022800000F052F841F2883440F6B83522461F4932
:102290000020FFF77BFE010002D51DA0FFF77AFAB0
:1022A0002A461A490120FFF733FF0100EED518A096
:1022B000FFF770FAEAE7000078300008C915000857
:1022C000B9150008ED150008A9150008D915000872
:1022D0009515000857495A4348495020496E69747A
:1022E00069616C697A6564206661696C2E0D0A000B
:1022F000556E6B6E6F776E20504859204C696E6B2F
:10230000207374617574732E0D0A00008000002024
:10231000534F434B4554204552524F52203A2025AB
:102320006C640D0A0000000010B586B02049002042
:10233000FFF7BCFC1E490120FFF7B8FC03A90820E9
:10234000FFF7DAFC03A91BA0FFF724FA184CE0788A
:10235000627921798DE80700A378627821781BA043
:10236000FFF718FA607A0090237AE279A17921A028
:10237000FFF710FA607C0090237CE27BA17B22A017
:10238000FFF708FA607B0090237BE27AA17A23A012
:10239000FFF700FA607D0090237DE27CA17C24A001
:1023A000FFF7F8F927A0FFF7F5F906B010BD000018
:1023B000440000200D0A3D3D3D202573204E45542C
:1023C00020434F4E46203D3D3D0D0A004D41433ACE
:1023D00020253032583A253032583A253032583A92
:1023E000253032583A253032583A253032580D0AC5
:1023F000000000005349503A2025642E25642E2504
:10240000642E25640D0A00004741523A2025642EAF
:1024100025642E25642E25640D0A00005355423A8A
:102420002025642E25642E25642E25640D0A0000C7
:10243000444E533A2025642E25642E25642E2564AF
:102440000D0A00003D3D3D3D3D3D3D3D3D3D3D3D99
:102450003D3D3D3D3D3D3D3D3D3D0D0A0000000003
:102460002DE9F74F14460546082803D94FF0FF30F1
:10247000BDE8FE8F680101260830FFF7BDF800F0C7
:102480000F00012801D0B01FF2E724B341F6086025
:1024900000EB4510FFF7B0F84FF6FF7101EA80201E
:1024A000A04200D204464FF4427000EB451841F6BA
:1024B0000870DFF88CA000EB451B06FA05F92846EA
:1024C000FFF7E0FC06464046FFF796F8172816D0BF
:1024D0001C2803D00DE06FF00D00C9E7CEB92846E7
:1024E000FFF7F6FC07465846FFF786F8B7EB802F54
:1024F00005D12846FFF7A0FB6FF00600B8E7BAF851
:10250000021019EA010F02D01EB90020B0E7002E18
:10251000D5D0A64200D2344622462846019900F082
:1025200035FB4FF4847000EB451005464021FFF762
:10253000C9F82846FFF760F80028FAD1204697E747
:10254000000000202DE9FF4F002583B01F46904674
:102550000446082803D9681E07B0BDE8F08F600163
:102560004FF0010A0830FFF747F8834600F00F00EC
:10257000022806D0032804D0042802D06FF00400FB
:10258000EAE7B8F1000F05D0DFF8C49139F814007C
:1025900018B11EE06FF00D00DEE74FF4427000EB63
:1025A00044160AFA04FA2046FFF76CFC054630464A
:1025B000FFF722F830B1674949881AEA010F06D0BF
:1025C0001DB106E06FF00300C6E70020C4E7002D50
:1025D000E9D00BF00701DFF87CA14FF484704FF0D5
:1025E000800B0AF1060A00EB4416022922D00329C7
:1025F0007CD0042952D02946204600F0F7FA29F869
:10260000145030464021FFF75DF83046FEF7F4FFE6
:102610000028FAD139F81410491B0904090C29F8CB
:10262000141003D01AF8041041F001010AF8041044
:10263000284691E739F814004D4670BB08226946D8
:10264000204600F0A3FA30464021FFF73BF8304621
:10265000FEF7D2FF0028FAD19DF8000038709DF8EF
:10266000010078709DF80200B8709DF80300F870C2
:1026700010999DF8040008809DF8051001EB0020DA
:10268000109908809DF806009DF807105BE02A4627
:102690002046049900F07AFAB3E72AE039F81400EA
:1026A0004D4630BB02226946204600F06FFA3046A4
:1026B0004021FFF707F83046FEF79EFF0028FAD1C9
:1026C0009DF800009DF801106FF0010202EB002060
:1026D000084480B240F2EA5125F81400884206D935
:1026E0002046FFF7A9FA6FF47A7035E702E00AF89E
:1026F00004B003E039F814004D4630B135F81450F9
:1027000040464545C3D90546C1E7062269462046ED
:1027100000F03CFA30464021FEF7D4FF3046FEF789
:102720006BFF0028FAD19DF8000038709DF8010079
:1027300078709DF80200B8709DF80300F8709DF85D
:1027400004009DF8051001EB002025F81400CEE7E9
:102750007000002000000020054A18B111B1C2E944
:1027600005017047034850610348906170470000BD
:1027700018000020BB2C0008B92C0008074A10B52F
:1027800013889C05FDD518B111B1C2E9070110BD30
:102790000348D0610348106210BD000018000020FB
:1027A000BB2E0008C12E0008074A10B513889C05EF
:1027B000FDD518B111B1C2E9090110BD034850623D
:1027C0000348906210BD000018000020B92E0008D8
:1027D000BF2E00082DE9F05F15468B4606460828F7
:1027E00003D94FF0FF30BDE8F09F7001012408309D
:1027F000FEF702FF00F00F00012801D0A01FF2E752
:1028000075B14FF4427000EB46100746FEF7F4FE38
:102810006FF0060A172806D01C2804D05046E2E7BD
:102820006FF00D00DFE7DFF8C480B440B8F80400B3
:10283000044213D04FF4027000EB46108146FEF7BD
:10284000DBFE00F01F00C10624D548461021FEF72C
:1028500039FFB8F80410A143A8F8041041F6087035
:1028600000EB4610FEF7C8FE4FF6FF7101EA80202C
:10287000854200D905463046FFF72AFB8146384697
:10288000FEF7BAFE17280DD01C280BD03046FFF7F4
:10289000D3F9C3E700070BD53046FFF7CDF96FF04A
:1028A0000C00A0E7B8F80200044203D04D4501D95E
:1028B000002098E74D45DED82A465946304600F0BC
:1028C000B6F94FF4847000EB461006462021FEF75F
:1028D000F9FE3046FEF790FE0028FAD1B8F8041051
:1028E00028460C43A8F804407DE7000000000020C3
:1028F0002DE9F0471E46DDF8208015468A4604463D
:10290000082803D94FF0FF30BDE8F087670108378A
:102910004FF001093846FEF76FFE00F00F00022865
:1029200006D0032804D0042802D06FF00400EBE79F
:102930005DB13078717801EB0020B17801EB0020B7
:10294000F17811EB002003D00AE06FF00D00DBE717
:102950003846FEF751FE400702D46FF00B00D3E774
:10296000B8F1000F07D13846FEF746FE400702D403
:102970006FF00A00C8E74FF4427000EB44100746BE
:10298000FEF73AFE422806D0222804D0322802D090
:102990006FF00600B8E740F6084000EB4410042250
:1029A0003146FEF7BFFE41F208004FEA182100EB66
:1029B0004410FEF787FE41F2081008F0FF0100EB1B
:1029C0004410FEF77FFE41F6087000EB4410FEF75E
:1029D00013FE4FF6FF7101EA8020854200D90546BB
:1029E000DFF8888009FA04F62046FFF771FA81467D
:1029F0003846FEF701FE38B1B8F80200064206D0AC
:102A00004D4504D900207FE76FF003007CE74D457A
:102A1000EAD82A465146204600F009F94FF484705E
:102A200000EB441006462021FEF74CFE4FF40270E6
:102A300000EB44143046FEF7DFFD0028FAD12046B3
:102A4000FEF7DAFD00F01F00C10605D52046102173
:102A5000FEF738FE284657E70007F0D52046082144
:102A6000FEF730FE6FF00C004EE700000000002083
:102A70002DE9F8431D4617460E460446082803D99B
:102A80004FF0FF30BDE8F883012E08D0022E0ED0A3
:102A9000032E0CD0042E0AD06FF00400F2E70422BB
:102AA00069464FF47060FEF7D3FD009848B169079E
:102AB0006FF00500E6D49DB1012E05D0022E0FD196
:102AC00006E06FF00200DDE715F0210FDAD007E035
:102AD000A90601D52906D5D5E90601D52906D1D5FE
:102AE0002046FFF7A9F8600105F0F0014FF001085A
:102AF00031430830FEF7E6FD224E57B93788781C7F
:102B000080B2A0F57F413080F03902D14FF44040CF
:102B100030804FF48160390A00EB4410FEF7D2FD9B
:102B20004FF4A160F9B200EB4410FEF7CBFD4FF477
:102B3000847000EB441007460121FEF7C3FD3846C0
:102B4000FEF75AFD0028FAD108FA04F0718805F062
:102B500001028143A2400A437280B1888143B1805F
:102B60000949002021F814000649891D08554FF431
:102B7000427000EB44152846FEF73EFD0028FAD0CF
:102B800060B27FE700000020700000202DE9F047D0
:102B90005FEA02088946064626D042F6081000EB96
:102BA00046152846FEF728FD074642F6080000EBCA
:102BB00046142046FEF720FD07EB002087B23802BE
:102BC00000EB4610424649461830FEF741FD07EB40
:102BD000080086B2310A2046FEF774FDF1B228469D
:102BE000BDE8F047FEF76EBDBDE8F0872DE9F04186
:102BF000044642F6081000EB44150E462846FEF740
:102C0000FBFC074642F6080000EB44142046FEF7A2
:102C1000F3FC07EB0020304486B2310A2046FEF771
:102C200051FDF1B22846BDE8F041FEF74BBD2DE95C
:102C3000F0475FEA02088946064626D042F208506D
:102C400000EB46152846FEF7D7FC074642F208403F
:102C500000EB46142046FEF7CFFC07EB002087B2BE
:102C6000380200EB4610424649461030FEF75AFD46
:102C700007EB080086B2310A2046FEF723FDF1B2C9
:102C80002846BDE8F047FEF71DBDBDE8F087007897
:102C900070470170704710B5040A00F0F0014FF45E
:102CA000A850FEF70FFD2146BDE810404FF4B85084
:102CB000FEF708BD704770477047704710B54FF476
:102CC000A850FEF799FC00F0F0044FF4B850FEF75E
:102CD00093FC04EB002080B210BD10B54FF4B0504F
:102CE000FEF78AFC04464FF4C050FEF785FC04EB67
:102CF000002080B210BD000010B504460146062237
:102D00004FF41060FEF7A4FC042204F10E019001C0
:102D1000FEF79EFC042204F10A014FF4A060FEF7C6
:102D200097FC0422A11D4FF47060FEF791FC074848
:102D30000178A1744178E17481782175C07860755B
:102D40000248401E0078A07510BD00001100002050
:102D50000020FEF751BC70B504464FF4D850FEF782
:102D60004BFC20704FF4D050FEF746FC05464FF464
:102D7000C850FEF741FC05EB0020608070BD2DE9D6
:102D8000F0410D460646002400F09BF84FF0FF3856
:102D9000AEB10022B05C204444B2102C17DC521CAF
:102DA00052B2082AF6DB002441F60877315D07EBC2
:102DB0004410FEF787FC641C64B2082CF6DBCDB12E
:102DC000002108462A5C114449B2102902DD404620
:102DD000BDE8F081401C40B20828F3DB002441F636
:102DE0000866295D06EB4410FEF76CFC641C64B2B7
:102DF000082CF6DB0020EBE710B5C1B2040A4FF453
:102E0000B050FEF75FFC2146BDE810404FF4C050C3
:102E1000FEF758BC10B50446014606224FF4106078
:102E2000FEF780FC042204F10E019001FEF77AFC0B
:102E3000042204F10A014FF4A060FEF773FC04229F
:102E4000A11D4FF47060FEF76DFC0748A17C017076
:102E5000E17C4170217D8170617DC1700249A07D5E
:102E6000491E087010BD00001100002010B5044676
:102E700030F03A0002D04FF0FF3010BD0020FEF7D6
:102E8000BBFB40EA04010020FEF71CFC002010BD43
:102E900010B5044601784FF4D850FEF713FC608853
:102EA000010A4FF4C850FEF70DFCA178BDE81040B0
:102EB0004FF4D050FEF706BC7047002070477047B3
:102EC0007047F0B585B04FF410640622694620467D
:102ED000FEF7BEFB0422950102A92846FEF7B8FBC7
:102EE0004FF4A066042203A93046FEF7B1FB4FF46D
:102EF0007067042204A93846FEF7AAFB802100204F
:102F0000FEF7E0FB0020FEF777FB0622694620462D
:102F1000FEF708FC042202A92846FEF703FC04225F
:102F200003A93046FEF7FEFB042204A93846FEF74B
:102F3000F9FB05B0F0BD10B504464FF43850FEF76C
:102F40005BFBC0F38011217000F0380001220021EA
:102F5000202811D038280FD0617010280ED01828E2
:102F60000CD020280AD0A170082809D0182807D032
:102F7000202805D0E17010BD6270EEE7A270F3E783
:102F8000E27010BD10B500244FF43850FEF734FB4A
:102F9000C00700D00124204610BD10B500244FF416
:102FA0003850FEF729FBC0F3C200062800D10124E7
:102FB000204610BD10B54FF438542046FEF71CFBD8
:102FC00020F080012046FEF77DFB2046FEF714FB33
:102FD00040F080012046BDE81040FEF773BB10B5FD
:102FE00002780021012A00D140214278012A06D02E
:102FF000C2788078012A05D001280BD00CE041F07E
:10300000380109E0012802D041F0080104E041F054
:10301000180101E041F010014FF43850FEF752FB67
:10302000BDE81040FFF7C6BF70B504464FF43856F0
:103030003046FEF7E1FA41064FF0FF351AD520F091
:103040003800012C10D040F038013046FEF73AFB32
:10305000FFF7B0FF3046FEF7CFFA012C07D000F0A3
:10306000380038B1002070BD40F03001EDE700F0CD
:103070003000F6E7284670BD020202020202020298
:103080000202020202020202000000000000000030
:1030900001020304060708090000000001020304FE
:1030A000C03000080000002070000000B4170008C5
:1030B0003031000870000020A80C0000C417000880
:1030C00000C0000000000000000000000000000040
:1030D00000000000000000000102573535303000CC
:1030E00000000000B52C0008B72C0008BB2C00081D
:1030F000B92C00088F2C0008932C00080000000059
:1031000000000000000102030405C0A8010AFFFF3F
:10311000FF00C0A80101C0A80101010001000000DA
:10312000100000000000000000A24A04000000009F
:04000005080000ED02
:00000001FF
