:020000040800F2
:10000000000B002015560008795400087B540008A6
:100010007D5400087F54000881540008000000004F
:1000200000000000000000000000000083540008F1
:100030008554000800000000875400088954000817
:100040003F56000843560008475600084B56000824
:100050004F56000853560008575600085B560008D4
:100060005F56000863560008675600086B56000884
:100070006F56000873560008775600087B56000834
:100080008D540008935400087F56000883560008DA
:10009000875600088B5600088F56000893560008B4
:1000A000975600089B5600089F560008A356000864
:1000B00099540008A7560008AB560008AF56000830
:1000C000B3560008B7560008BB560008BF560008D4
:1000D000C3560008C75600089F540008CB560008B6
:1000E000CF560008EB540008D35600082DE9F04F16
:1000F0000FF2A41CA1B0DCE90089CDE900892A9D9A
:10010000DFF8DC9B049100248DF843500D944FF0F0
:10011000FF38824616461F460FE0B3462C461BF8B2
:10012000011B0498D0470028049000F0A2800D988D
:10013000401C641E0D90F2D176193078252808D124
:10014000002100220791089209910A920B910C92CA
:100150000DE06A464146304600F0DAFF050001D165
:100160000D98A1E0D9D50125E6E741F0010116F887
:10017000010F2028F9D023280CD02B2804D02D28BB
:1001800005D0302809D076E041F00201EFE741F0D8
:100190000401ECE741F00801E9E741F01001E6E76E
:1001A0000F9209E00F98484505DA00EB800402EB56
:1001B0004402303A0F92761C3278A2F130000A28BD
:1001C000F0D330782E2818BFCDF8388022D116F819
:1001D000010F2A2807D138683860761C50F8042BA4
:1001E00038600E9216E02D280CBF761C00200022ED
:1001F0000E920AE040B90E9A4A4505DA02EB8204F3
:1002000003EB4403303B0E93761C3378A3F13002AA
:100210000A2AEFD3ADF8401021A0317800F082FF18
:1002200008B116F8010B8DF842009DF842006828CD
:1002300004D1307868280AD1622105E06C2804BF17
:1002400030786C2803D171218DF84210761C12A8E9
:1002500006903A4616F8013B02A9504600F064F8B1
:1002600038B912AA02A9504600F0C8F900287FF553
:1002700064AF404618E02A2892D13A683A6052F8B2
:10028000040B3A6000280F9003D540420F9041F0D4
:100290000401761C95E7000000000000000000004B
:1002A000686A6C747A4C000021B0BDE8F08F622857
:1002B00020D0682811D06A2803D06C2827D0712854
:1002C00025D10868C01D20F007000860D0E9002390
:1002D00008300860194610467047002A0A680A600C
:1002E000106803D0121D0A6000B217E0121D0A60E8
:1002F00080B217E0002A0A680A60106803D0121D55
:100300000A6040B20AE0121D0A60C0B20AE0002A88
:100310000A680A60106803D0121D0A60C11770478E
:10032000121D0A60002170477CB50D4611461C461F
:100330002E69B4F1250200F04F811C3A00F0848050
:10034000121F022A40F280800E3A00F00981521FEB
:1003500059D0093A78D0921E16D0521E35D0521E6E
:10036000022A71D9121F30D0521F00F09880521EFD
:1003700049D0521E00F0E280D21E00F0FF80921E93
:1003800041D0D21E3FD02DE195F83A406C2C09D0D7
:100390006869421C6A610A680A6052F8043B0A6094
:1003A000335429E10A680A6052F8043B0A6000935A
:1003B000002201924FF0FF332B636A46294600F07A
:1003C00098F9002840F1188103E195F83A000122DC
:1003D000FFF76DFFC5E90001002904D56869411CDC
:1003E00069612D220DE0288F810704D56869411CC1
:1003F00069612B2205E0C00721D56869411C69614C
:10040000202232541BE095F83A000022FFF74FFFFC
:10041000C5E9000195F83800010710D5D5E900239A
:10042000002B08BF002A0AD044F02000782806D10B
:10043000686930213154401C421C6A6134542146A1
:1004400068693044E86087E00868C01D20F0070054
:100450000860D0E9002308300860C5E90023D5E929
:100460000001C80F04D06869411C69612D220DE0AC
:10047000288F810704D56869411C69612B2205E03A
:10048000C00704D56869411C69612022325468693B
:100490003044E8602146284600F036FAACE005F129
:1004A0003A02507820B14FF0FF340FF6043074E078
:1004B0001078622808D0682824D06A2812D06C28C6
:1004C0002ED071280ED02BE00A680A6052F8040B77
:1004D0000A6020B94FF0FF340FF6EC205DE0E96AC6
:1004E000017089E00A680A6052F8040B0A6020B9BA
:1004F0004FF0FF340FF6D0204FE0EA6AD317C0E97F
:10050000002379E00A680A6052F8040B0A6020B9F7
:100510004FF0FF340FF6B0203FE0E96A01806BE056
:100520000A680A6052F8040B0A6020B94FF0FF34E1
:100530000FF6942031E0E96A01605DE00A680A6024
:1005400052F8040B0A60002120F0000221F0FF3372
:10055000C5E90023EE607821284600F02DF94BE034
:100560006C2285F83A200B680B6053F8042B0B6063
:1005700052BB4FF0FF340FF684200EE095F83A207E
:100580006C2AF0D00868086050F8044B0860EC60F2
:100590003CB94FF0FF340FF6482000F0EBFD201A75
:1005A00076BD2E6B002E04D5204600F003FE0446D7
:1005B00008E032460021204600F006FE002814BF65
:1005C000041B3446AC6117E0294600F092F800287D
:1005D00012D54FF0FF3076BD6869411C6961252254
:1005E000325409E06969481C68612522725421006F
:1005F00002D0431C6B613454002076BD2DE9F041DC
:100600000E4605469046726B7069316AB46A121ADA
:10061000B069521A716A121AF069521A121A96F8CF
:100620003800141B41070DD4002C0BDD2746B068A1
:100630002021A8470028B06057D0F06A401C7F1ED8
:10064000F062F4D1736942463146284600F098FCC6
:1006500000284AD1376A002F0ADDB0683021A84748
:100660000028B06041D0F06A401C7F1EF062F4D1D7
:10067000B369F2683146284600F082FCA8BB776A6D
:10068000002F09DDB0683021A847B06068B3F06A78
:10069000401C7F1EF062F5D1F068B169F369421821
:1006A0003146284600F06CFCF8B9B76A002F09DD26
:1006B000B0683021A847B060B8B1F06A401C7F1E16
:1006C000F062F5D196F8380041070BD5002C09DD12
:1006D000B0682021A847B06038B1F06A401C641EA1
:1006E000F062F5D10020BDE8F0814FF0FF30BDE8A9
:1006F000F0812DE9F8470D46A3B02F6B002F064679
:10070000904648BF6FF000470FF60C1400F088FDCC
:10071000D4E90023696B4018CDE90123812828BF63
:100720004FF0FF3042D20024002F33DDD8F8001004
:1007300001AA684600F0EEFC8146B9F1000F38D4FA
:10074000D8F8000010B9B9F1010932D44F4521DBC6
:100750006869484481280AD30021696303AA2946AD
:100760003046FFF74BFF040014D40020686103AB50
:10077000D5F814A04A46694603EB0A0000F064FD70
:10078000CA44C5F814A058F8040B002818BFA7EBFA
:100790000907C9D14CB903AA29463046FFF72EFFF5
:1007A000044614B9002068616863204624B0BDE89F
:1007B000F0874FF0FF34F8E72DE9FC4307466F2937
:1007C0003E6908BF082405D041F02000782814BFF6
:1007D0000A2410243C25D7E90023642918BF69297D
:1007E0009046994605D1002B03D5D8F1000869EB56
:1007F0004909B9F1000F08BFB8F1000F1FD1386BDC
:10080000E8B9082C4CD197F83800010748D53020BA
:100810003B2586F83B0043E000280ED597F83800CA
:1008200000F01400102808D17B6B7969386A5B1AD4
:100830001B1A9A1A002AC8BF3A62BDE8F3838DF8E2
:100840000010404649462246E31700F009FD3032C9
:10085000D0B26D1E3A28019504DB9DF80000A0F18E
:1008600051018A187255404649462246E31700F066
:10087000F7FC80465FEA010908BFB8F1000F03D01A
:10088000F86871198842DCD3082C09D197F8380030
:10089000010705D5705D302802D06D1E30207055DF
:1008A000C5F13C02BA617119F960386B8242B3DA62
:1008B000821A3A624FF6EF70398F01403987BDE8EE
:1008C000F3832DE9D04306460F4614464FF0000847
:1008D000DFF8109412E0E00707D542464B46304659
:1008E000394600F0D5FD06460F4640464946424689
:1008F0004B4600F0CDFD641080468946002CEAD1BD
:1009000030463946BDE8D0832DE9F84F05468A4682
:100910004AF020048EB0D5E90089612C02AE09D0DE
:10092000286B002848BF062003D408BF672C01D1DC
:1009300001202863D5E900014A005215521C0DD14F
:100940000B030BD0AAF1610103201A29A86102D27E
:100950000FF2CC6110E00FF2CC610DE04A005215AD
:10096000521C0ED10B030CD1AAF1610103201A29EC
:10097000A86116D30FF2B461E868032200F064FCAA
:10098000C0E1CDE90C01DDE90C2323F00043B3F510
:10099000801F0DD20027002B08BF002A019703D12A
:1009A00011E00FF28461E7E701AA00F043FE0AE0DC
:1009B000CD48CE4900EB1350DDE90C2301900B40EC
:1009C000CB4910461943C5E90001612C0DD1E868F7
:1009D00030210170821CBAF1610FEA600CBF7821EE
:1009E000582141706869801C6861D5E90001CDE932
:1009F0000C01DDE90C2333F0004104BF0028002383
:100A000000F04881612C40F0A080286B4946002806
:100A10004CBF4FF0210B00F1010B40460022002398
:100A2000DDE90C8900F03EFE01990BF1010738BFAA
:100A300089F00049091F002F01918DF808200DF160
:100A4000090040F33581A9490091064640464946D0
:100A50000022002300F03EFE80F029814800400D76
:100A600000F11C0211D0002A0FDD40F2FF739A4200
:100A700005DBA04909F000400143002011E0009B84
:100A8000194041EA025140460BE028F0000039F0DD
:100A9000004108BF00280FBF49461C22494600F00C
:100AA00031FE8046894600F0CBFEFF1F002F044632
:100AB00009DD00F0E3FE02460B464046494600F0E1
:100AC000EFFE80468946F01D072104E004F00F0286
:100AD00000F8012D2411002C01DD491EF6D5491E18
:100AE0005CBF002200F8012DF9D5DCE0002019469A
:100AF00002AA0A4400E05B1E12F80149491E844222
:100B0000F9D00F2804D10DF10900425C521C425467
:100B1000002904D50198001D02AE5B1C0190581EEF
:100B20000CD43118AAF13A040A783032D7B23A2FED
:100B3000A8BFA218401E01F80129F5D5286B00288E
:100B400040F1A780591E2963A3E001996A4A47F240
:100B50009750414391FBF2F2019229F00046D2F105
:100B6000070204DD40463146FFF7ABFE0AE0524281
:100B700000206249FFF7A5FE02460B46404631467B
:100B800000F000FF8046662C286B06BF019F0A37E5
:100B900006273F18142FC8BF142730208DF80800EF
:100BA00089460DF1090000E03046002F34DD06468D
:100BB0004046494601F00AF801460A4606F1080394
:100BC00004200A26B2FBF6F606EB860EA2EB4E02D6
:100BD000303203F8012C0A22B6FBF2F202EB820E4D
:100BE000A6EB4E063036401E03F8026DE9D1083FF1
:100BF000002F03F10806D7DD084600F0FBFF024690
:100C00000B464046494600F04BFE00223C4B00F0AC
:100C10003FFC80468946CBE70DF10901401A0DF1F2
:100C2000090604E00199491E401E0191761C3178A5
:100C30003029F7D0662C02D10199491C03E0652CBC
:100C40000CBF012100212B6BCB189842B8BF431E6B
:100C5000002B1ED4834204DAF05C3528A8BF39206B
:100C600000DA30201946721E02EB010800E05B1E1C
:100C700018F80199491E8145F9D0392802D1705CD4
:100C8000401C7054002904D50198401C16465B1C7A
:100C90000190019800B200901BB23246514628469E
:100CA00000F034F82EE0C61D002F3FF7CFAE3046DF
:100CB0000DF10901401A03465845C8BF5B46002B99
:100CC0000DF109063FF53AAF8342BFF60FAF0DF1C4
:100CD0000900C15C07297FF709AF0F2007E7000073
:100CE000CBCCCC0C0000244002FCFFFFFFFF0F80A8
:100CF0000000E03F0000F07FA08601000000F03F10
:100D000084D797410FB0BDE8F08F00002DE9F84778
:100D100083B006468A461746984600F0FDF9B8F1BA
:100D2000000F406A356B90F8009002DC4FF001082C
:100D3000BFA74AF02000BDF93040662808BF641CF8
:100D400015D0672840F0848014F1040FC0F286802B
:100D5000AC4280F2838096F83800641C010702D40C
:100D6000A845B8BF454620B22D1A48BF00250FFA46
:100D700084FAF068B169BAF1000F25DC4A1C30230F
:100D80004354002D03DC96F83800010703D5F068C2
:100D900000F80290521C15EB0A0FB8BF6C4220B24B
:100DA000441941424445B8BFA046B26171620FFA8E
:100DB00088F5F561F068B3692A463946184400F0B1
:100DC00043FA641BB462C4E022B29045084417DAC7
:100DD0004246394600F038FAB0694044B061AAEBA7
:100DE0000801002D716203DC96F838100A0705D55A
:100DF000F16801F80090F069401CF061B562A8E06C
:100E0000394600F021FAB069002D5044A8EB0408DF
:100E100003DC96F838100A0703D5F16801F8009052
:100E2000401CB0610FFA88F08542F368B069B8BF22
:100E3000A8460FFA88F207EB0A01184400F004FAFA
:100E4000B1690FFA88F00144B161281A706280E03C
:100E5000BAF1610F14D14FF0700A16E0A84504DA18
:100E600096F838100A0758BF45466D1E48BF002542
:100E7000BAF1670F14BF4FF0450A4FF0650A04E05E
:100E8000BAF1410F08BF4FF0500AB169F368481C2E
:100E9000B061002D17F8012B5A5403DC96F8381076
:100EA0000A071BD5F168431CB36101F80090002DBF
:100EB00014DDA8F101080FFA88F039468542F76879
:100EC000B8BFA8460FFA88F2F81800F0BDF9B0696B
:100ED0000FFA88F108446D1AB0617562F068B16963
:100EE0000844002C80F800A003D42B224270811CFF
:100EF00003E02D2141706442811C00206A460AE013
:100F000023460A2493FBF4F404EB8405A3EB450386
:100F100002F8013B401C24B2002CF1DC012806DC65
:100F20004AF02002652A04BF302201F8012B48B99B
:100F3000302001F8010B07E0401E1DF8003030336F
:100F400001F8013B0028F7DCF268B0691044091A87
:100F5000F16196F8380000F0140010280DD1726984
:100F6000B169706A8A18F1698218B06A8A188218A1
:100F7000706B8242BCBF821A326204B0BDE8F08757
:100F8000F8B505460E4617461C46002074B117F802
:100F9000011BB068A847B06030B1F06A401CF06235
:100FA0000020641EF3D1F2BD4FF0FF30F2BD00000F
:100FB0007072696E74665F733A20256E206469737F
:100FC000616C6C6F776564007072696E74663A204C
:100FD00062616420256E20617267756D656E7400B4
:100FE0007072696E74665F733A2062616420257363
:100FF00020617267756D656E740000007072696EB5
:1010000074665F733A2062616420256C732061729C
:1010100067756D656E740000000000000000000040
:101020006E616E004E414E00696E6600494E46008C
:101030003000F0B40246106895681318506803EB4E
:101040005004C0071DD54D441BE013F8017B05F883
:10105000017B491EF9D1A0B1B60813F8011B06F0B7
:101060000306032E08BF13F8016B01EB062149426A
:10107000801C294405D011F8016B05F8016B401E56
:10108000F9D1A3420ED013F8016B16F0030104BF8F
:1010900013F8011BC91C30090F28DAD113F8010B12
:1010A0000F30D6E7F0BC02F10C0070471B487047C8
:1010B00070B45368D418042B09DA41B1057804F8E8
:1010C000015B10F8016B16B15B1C491EF3E753601E
:1010D00070BC704738B514461D4661B1FFF7E8FF94
:1010E00061686A6B204690476FF00102811A02D056
:1010F000491E01D001E003E005E00021616032BD3E
:101100006FF0010032BD4FF0FF3032BDDA6B104797
:10111000024BDFE7014BF9E701487047600400200C
:1011200028040020C9B202788A421AB11CBF10F804
:10113000012FF9E718BF0020704730B4002513E0F5
:1011400050F8042BD30744BFA9F101039A18091FD3
:10115000042942F8045BFAD213468C0744BF158079
:101160009B1CC90748BF1D7050F8041B0029E7D11C
:1011700030BC704780B500B906A005490B681BB1AB
:1011800022220021984701E000F041FD222002BD0B
:10119000F8060020636F6E73747261696E74206864
:1011A000616E646C65723A20626164206D65737370
:1011B0006167650000F1010310F8011B11B110F81F
:1011C000011BFBE7C01A7047C9B2830706D0521E45
:1011D00022D310F8013B9942F7D11FE0083A13D30C
:1011E00002F1040241EA012141EA014150F8043BC5
:1011F000121F21BF4B40A3F1013C2CEA030C1CF051
:10120000803FF3D0C9B2001F083210F8013B521ED4
:1012100028BF91EA030FF8D818BF0120401E70477D
:1012200080B5FFF743FF006C02BDB1F5807F02D3AC
:101230004FF0FF3070470170012070470078401E6A
:101240008041C043C00F70474AB1000011F8013B14
:10125000521E00F8013B1CBF11F8013BF8E7704734
:10126000BBBBE1B1B2F5803F80F07E80022A1ED97F
:101270008C46B1FBF2F102FB11C31B0443EA10439D
:10128000B3FBF2FC02FB1C3380B240EA0343B3FB26
:10129000F2F002FB103240EA0C4000237047022AB1
:1012A00005D98446B0FBF2F002FB10C270474AB188
:1012B00005D100F0010249085FEA300070470022C2
:1012C0000023704700F0A6BC0B00020000210020A4
:1012D0007047904271EB030CF6D3B3F5803F2FD2E9
:1012E000F0B5B3FA83F7B1FA81F4A7F10F0E3D1B05
:1012F0005340CEF1200602FA0EF2F3415340B5F10D
:101300000F0746D80F3C2C444140C4F12006A040B2
:10131000F1414140B1FBF3F603FB1611A2FB064578
:10132000001BA94102D2761E8018594180EA0102B1
:1013300021FA0EF362FA0EF200215A403046F0BD57
:1013400030B4B1FBF3FC03FB1C11A2FB0C45001BEA
:10135000A94103D2ACF1010C8018594130BC0246BE
:101360000B46604600217047B2F1807F65D3F0B52F
:10137000B2FA82F7B1FA81F4C7F10F063D1B22FAE7
:1013800006F307F1110EF24120355A40B5F10F076F
:10139000B8D94140C4F12006A040F1414140B1FB21
:1013A000F3FC03FB1C11A2FB0C45001BA94103D25B
:1013B000BCF1010C801859410F2F12D30F3FC90304
:1013C00041EA5041B1FBF3F603FB1611A2FB0645BF
:1013D000D4EBC030A94102D2761E8018594146EAAA
:1013E000CC3C07B34140C7F12006B840F141414031
:1013F000B1FBF3F603FB1611A2FB0645001BA94146
:1014000002D2761E8018594180EA010221FA0EF3B9
:10141000C7F1200462FA0EF20CFA07F05A402CFAD7
:1014200004F13043F0BD80EA010221FA0EF30021FD
:1014300062FA0EF260465A40F0BD8C46B1FBF2F102
:1014400002FB11C31B0243EA1063B3FBF2FC02FB75
:101450001C331B024CEA002043EA1063B3FBF2FC8E
:1014600002FB1C331B024CEA002043EA1063B3FB6F
:10147000F2FC02FB1C331B024CEA002043EA10631F
:10148000B3FBF2FC02FB1C324CEA00200023704745
:10149000B0B581EA030C0CF0004C40F2FF7515EA80
:1014A00011541DBF15EA1357AC42AF4239E0E4199D
:1014B00023EA455343F48013C90241F0004141EA55
:1014C000505EC7021100A7FB020200284FF0000087
:1014D000EEFB01204FF00001E3FB072118BF42F0B3
:1014E0000102401800214941E3FB0E01A4F580648C
:1014F0000F0302D252004041494154F101046CDD16
:10150000470872F1004250F1000051EB0451A1F57F
:1015100080115CBF41EA0C01B0BD4CEA05510020CE
:10152000B0BD05EA1357AC4214BFAF4241E050EAE8
:10153000410E1CBF52EA430E02E061460020B0BDDE
:1015400024423C441BD15FEA070EF6D0090302BFD8
:1015500001460020AEF1140EB1FA81F7AEEB07049C
:1015600001FA07FE0C37C7F1200100FA07F7C8405F
:101570004EEA000E23EA455343F48013A2E733F00A
:101580000043B3FA83F704BFB2FA82FE77440B3FFD
:10159000E41BB7F1200E2FBF02FA0EF3BB40C7F1D8
:1015A000200E22FA0EFE38BF43EA0E03BA40641C36
:1015B00082E750EA410E14BF52EA430E6FF0000179
:1015C0004FF4001717EB430F8ABF194617EB410F73
:1015D000B5E74CEA05510020B0BDD4F10104B4F1E7
:1015E00020070FDAC4F12007520828BF42F0010299
:1015F00010FA07F501FA07F7E1BF2A43E040384344
:10160000E1400FE0352C98DCC7F1200452EA40029B
:1016100020FA07F218BF42F0010231FA07F0A140A8
:101620000A43002172F1004250F1000051EB0C011D
:10163000B0BD000010B5144600F002F8226010BDE5
:10164000C1F30A5343B14A0012F5001F28D2A3F296
:10165000FE32A1EB0251704750EA410C20D001F05C
:10166000004C31EA0C01B1FA81F204BFB0FA80F308
:10167000D2180B3AB2F120032CBF00FA03F19140CB
:1016800041EA0C013EBFC2F1200C20FA0CF31943D1
:101690009040524240F2FD33D21A01EB03517047A1
:1016A000002270474FF4001C1CEB410F94BF1CEB51
:1016B000430F09E041EA030C50EA4C0C52EA0C0CCF
:1016C00003D2994208BF9042704714BF8B428242B6
:1016D000704700004FF4001C1CEB410F94BF1CEB43
:1016E000430F09E041EA030C50EA4C0C52EA0C0C9F
:1016F00003D28B4208BF8242704714BF9942904286
:1017000070470000124254D440F2FF7C1CEA11538F
:101710000FD0634531D09B1863453CBF01EB0251AC
:10172000704701F0004141EA0C510020AFF3008006
:10173000704750EA410320D001F0004C91EA0C01BF
:101740001CD0B1FA81F30B3B9A420DD9D21A9940C1
:1017500051EA0C01C3F1200C20FA0CFC61449840C2
:10176000531C40F2FF7CD7E7914041EA0C01C2F1E3
:10177000200C20FA0CF3194390407047B0FA80F324
:101780001533202BE0D3202AEED3203A203B9A4277
:1017900009D9D21A00FA03F141EA0C010020531CC6
:1017A00040F2FF7CB8E700FA02F141EA0C010020A8
:1017B0007047524240F2FF7C1CEA11530DD0634542
:1017C000DBD0B2EB030C3CBFA1EB025170470CF134
:1017D000010221EA035141F4801150EA410CCCD0BE
:1017E00001F0004C352A27DC30B481EA0C01B2F15B
:1017F000200309DAC2F12003044601FA03F5D040C0
:101800002843D1409C400CE0C3F12002450020FA5F
:1018100003F418BF44F0010421FA03F091400C4393
:10182000002174F1004550F1000051EB0C012442FD
:1018300030BC7FF47BAF70476146002076E7000044
:10184000C1F30A5340F2FE329B1A14DDD3F1200398
:101850004FEAE17208DDC90241EA505141F000400F
:10186000D84080185040704703F2E13010B1D243A5
:1018700082F000407047002070470000C11768B137
:101880004840401AB0FA80F29040D21CC907C2F515
:10189000846241EA025202EBD02140057047000009
:1018A00070B44FF0004591EA030F40F1BD816B40E9
:1018B000841A71EB030603D2001BB1411219734164
:1018C0004FF4001C1CEB410F34BF7CEB430442E09F
:1018D0000C0DA4EB1356352E4FDC45EAC323DB0A6F
:1018E00045EAC121C912B6F120050DDD63FA05F6FE
:1018F000EB4086EA0305124218BF45F00105C01807
:1019000051F100010CD213E062FA06F5F2405540A5
:10191000F3415A40B340F3405A408018594107D32D
:1019200049085FEA30005FEA350528BF45F0010548
:1019300001F58011420875F1004250F1000041EBC1
:1019400004514E0016F5001F70BC38BF70470020D0
:10195000090D090570471CEB410F10D252EA4306EE
:101960000BD0BCEB410F05D80C0DAB43661E342EDB
:10197000B6DD02E0AB438018594170BC704770BCC3
:1019800070470000F0B540F2FF7581EA030C0CF0DF
:10199000004C15EA11541DBF15EA1357AC42AF4273
:1019A000E5E0BC41C1F31301C3F31303801A99416D
:1019B00043F4801304D2641E400049418018594109
:1019C000C90241EA5051B1FBF3F603FB1611A2FB29
:1019D0000675D7EBC020A94102D2761E8018594166
:1019E000C90241EA5051B1FBF3FE03FB1E11A2FBF9
:1019F0000E75D7EBC020A94103D2AEF1010E8018BD
:101A00005941890241EA9051760546EA8E2EB1FB92
:101A1000F3F603FB1611A2FB0675D7EB8020A94154
:101A200002D2761E80185941C90241EA50514EEA4D
:101A3000060EB1FBF3F603FB1611A2FB0675D7EBFE
:101A4000C020A94102D2761E80185941C90241EA3C
:101A50005051B1FBF3F703FB1711A2FB0735D3EB92
:101A6000C020A94167F100070CBF004247F0010701
:101A700066F3D5274FEA1E31B80814F5806412DDED
:101A8000BD0775F1004250EB0E5051EB045111F5BA
:101A9000801F5CBF41EA0C01F0BD4CF07F6141F05A
:101AA000E0410020F0BDBD076D0840EA0E5041F452
:101AB0008011D4F10104B4F120060ADAC4F1200641
:101AC0000200E04001FA06F3E1401843B24015433A
:101AD0000EE0342C13DCC6F1200445EA40056D0805
:101AE00020FA06F2154321FA06F0A1400D43002129
:101AF00075F1004250F1000051EB0C01F0BD0020E7
:101B00005FEA0C01F0BDCFB992185B41B3FA83F7DD
:101B100004BFB2FA82F6BF190B3FB7F120062FBF00
:101B200002FA06F3BB40C7F1200622FA06F638BFD8
:101B30003343BA401CB1E419641E33E77F4231F0ED
:101B40000041B1FA81F404BFB0FA80F6A4190B3C4D
:101B5000B4F120062FBF00FA06F1A140C4F120061F
:101B600020FA06F638BF3143A0403C1B1AE7AC42CE
:101B70001ABF05EA1357AF4212E050EA41061CBFF4
:101B800052EA4306BFE750EA4107304661461CBFB0
:101B900041EA0551F0BD52EA430C08BFC143F0BD14
:101BA00000204FF4001616EB410F98BF16EB430FC1
:101BB00008BF16EB410F24BFC14305E016EB430FEE
:101BC0000CBF61464CEA0551F0BD0000400D4918BC
:101BD00040EA81200CD2490DA1F58061491C40F0FA
:101BE000004005DBD1F11F0154BFC840C01770474A
:101BF00000207047014648B1B0FA80F18840C91C06
:101C0000C1F58461090501EBD02140057047012031
:101C100000F0C0B87047000070B44FF0004591EA82
:101C2000030F7FF545AE6B40841A71EB030604D2B7
:101C30006E40001BB141121973414FF4001C1CEBA4
:101C4000410F34BF7CEB430683E00C0DA4EB13562D
:101C5000362E00F37C80012E45EAC32341DC43EAA3
:101C6000525312BFD20292025B08240545EAC121F9
:101C700041EA5051D2EBC020994125D407D1B0FAA6
:101C800080F610FA06F162D00020203608E0B1FAA2
:101C900081F6B140C6F1200220FA02F21143B040B1
:101CA0004FEAF474B4EB465434F001064FEA74047E
:101CB0000AD8D6F50016760D04F00044F04061FA1B
:101CC00006F25040F1404840C00A40EA415021F03D
:101CD000004128BF5FEA500550F1000044EBD121DC
:101CE00035E0DB0A45EAC121C90AB6F120050EDD5F
:101CF00042EA0242120CC5F1200603FA06F6EB4056
:101D000042EA06056D42984161F100010DE062FA78
:101D100006F5F240554063FA06FC82EA0C02F340F5
:101D20005A406D42904161EB030111F4801F05D1CF
:101D3000641E620502D06D004041494121F48011CA
:101D4000430875F1004350F1000041EB045170BCB1
:101D500070471CEB410F15D223F0004352EA4306B3
:101D60000BD04FEA4C0CBCEB410F04D80C0D661E97
:101D7000342EB7DDEBE7801A994150EA410608BFDF
:101D80000021E4E708BF1CEB430F28BF6FF0000100
:101D9000DDE7000080B5AFF30080024A1100182093
:101DA000ABBEFBE72600020010B504003FD0607C0C
:101DB00020B900212174204600F047FB0220607406
:101DC000204600F0D1F980BB204600F029FA60BB24
:101DD00020684168C908C9004160A068DFF878132D
:101DE00018B148684008400048600A68A06822F4BA
:101DF000607202430A60606810F1010F04D1012093
:101E000000F0C0FB88B1401E21688A6812091201E7
:101E100042EA10428A6080B22168CA68120C40EA25
:101E20000240C86000F0E0F918B10420607401209D
:101E300010BD0121E0736173A1736174002010BDB6
:101E40002DE9F04104000D4618BF002D37D0207C4D
:101E5000012808BF022036D000F0E9F83C272E7890
:101E60004FF461681AB96978A8784F430AE03046A0
:101E700000F013FA0646687800F00FFA4743A87896
:101E800000F00BFA08FB067686193146204600F072
:101E900099F990B92068416821F005014160204618
:101EA00000F0A4F910F1010F0BD0B04209D2DFF815
:101EB000AC12091800F0C1F818B100F0C0F8012008
:101EC00001E000F02CF9BDE8F0812DE9F8430400B1
:101ED0000E4618BF002E914645D02068416848073D
:101EE00041D4204600F05DF907464FF46160B7FB2E
:101EF000F0F1024602FB11723C233C20B2FBF3F3EB
:101F000000FB132218297370B2702ED31822B1FB74
:101F1000F2F802FB18113170204600F067F910F159
:101F2000010F03D0874238BFC51B01D34FF0FF35E7
:101F3000DFF8280200FB18773946204600F042F906
:101F400088B915F1010F08D0791900F076F850B969
:101F50004146204600F0A9F908E04FF0FF3100F0BB
:101F60006CF80028F4D0012010E03170B9F1000FB6
:101F70000BD0307800F086F93070707800F082F97C
:101F80007070B07800F07EF9B0700020BDE8F28388
:101F900070B504000D4618BF002D43D0207C0128E9
:101FA00001D1022070BD00F042F8E8782AB9E07350
:101FB00068786073A978A1730AE000F06EF9E073A5
:101FC000687800F06AF96073A87800F066F9A07389
:101FD000A27B617BE07B00F0BEF920732870204675
:101FE00000F0DFF805464FF46160B5FBF0F018280B
:101FF0001AD91821594EB0FBF1F006FB10552946AD
:10200000204600F0DFF858B9204600F0EFF810F154
:10201000010F09D0A84207D2311800F00EF818B10C
:1020200000F00DF8012070BD00F079F870BD0120BE
:10203000207402216174704739462046DEE0042096
:1020400060740021217470472DE9F84304000FF2F9
:1020500058300E460168009118BF002E154623D057
:10206000207C012808BF022035D000F04BF8D8B9F9
:1020700000F039F815B900F030F80BE000F00DF978
:102080000546707800F009F94743B07800F005F98B
:1020900009FB0577C71947453CBF3048C719FFF70B
:1020A000CBFF18B1FFF7CBFF012014E000F032F8AE
:1020B0002068026842F0020202602948016841F487
:1020C000003101600021826842F400328260012008
:1020D000607421740020BDE8F28371784F4309FBDE
:1020E0000077B07870479DF801109DF800809DF84A
:1020F00002003C274FF46169794309FB08188044CA
:1021000030787047012020740223637400226946EE
:102110002046DAE621686FF002004860704701202F
:102120006074002121740020704710B504462068B7
:1021300001688A0707D54068810704D5204600F06A
:102140008CFAFFF7E7FF4FF40030064908600122E0
:10215000627410BD000000002C6C00408051010032
:10216000000401401404014038B5040001D10120ED
:1021700032BD00F010F800F071FA054620684168A1
:10218000080706D400F06AFA00F060F8F6D30320DE
:1021900032BD002032BD2068416821F00801416055
:1021A000704701688A69C8698B6992B29BB29A428A
:1021B00004D0C86980B240EA0340704780B240EA68
:1021C0000240704770B504460D4600F029F800261D
:1021D00038B92068290C8161ADB2C56100F004F8FE
:1021E00000B10126304670BD204634E00068016A27
:1021F000406A89B280B240EA0140704770B5044637
:102200000D4600F00DF8002638B92068290C01624F
:10221000ADB24562FFF7E8FF00B10126304670BD60
:1022200038B5044600F01AFA0546206841688A0667
:1022300006D400F013FA00F009F8F6D3032032BDFB
:10224000416841F010014160002032BD401B40F266
:10225000E9318842704738B504462068416821F06A
:102260001001416000F0FAF90546206841688806CF
:1022700006D400F0F3F9FFF7E9FFF6D3032032BDEF
:10228000002032BD002101E0491C0A38C2B20A2AEE
:10229000FAD240EA0110C0B2704701090A2200F0E8
:1022A0000F0002FB0100C0B27047F8B50646F37B91
:1022B000747BB57B0A46002721E01D2D1ED1641CCE
:1022C00001251BE0022C19D11C2D16D3F5D113F0DA
:1022D000030FF4D199B26420B1FBF0F04FF0640C1D
:1022E0000CFB101048B94FF4C870B1FBF0F04FF47C
:1022F000C87C0CFB10110029E1D16D1C7F1C97429A
:102300001FD2012C18BF032C08D0052C18BF072C96
:1023100004D0082C1CBF0A2C0C2C07D11E2DECD984
:102320000C2CCCD1012401255B1CE7E7042C18BF41
:10233000062C03D0092C18BF0B2CC3D11D2DBED8E1
:10234000DBE7F3737473B573EAB2E1B2184600F0D9
:1023500002F83073F1BD10B517234B430924B3FBCA
:10236000F4F400F5FA6012198218032903D2401E12
:1023700000F00CF802E000F009F8921E0724B2FB0E
:10238000F4F4C4EBC404121BD0B210BD02EB9002F3
:102390006421121DB0FBF1F14FF4C873521AB0FB67
:1023A000F3F08218704700000000000038B500BF4D
:1023B00039A000BF39A201681368334884B04FF4D4
:1023C00080720191CDF8003035A1D1E90045CDE909
:1023D00002454FF0FF312D4C20606160A260204625
:1023E000FFF7E2FC08B100F040FA0020ADF804006D
:1023F0008DF80600012201A92046FFF721FD08B152
:1024000000F033FA11228DF80120012119228DF8F4
:1024100000108DF802108DF8032069460122204635
:10242000FFF7B6FD08B100F020FA0021ADF8081062
:102430008DF80A100391012202A92046FFF704FE3D
:1024400008B100F012FA05B030BD00680E498842AC
:1024500000D0704780B500F05DFA0D480D4A016864
:1024600041F0006101600121006800F0006000900F
:102470000098116000220021292000F06DFABDE8CB
:102480000240292000F085BA00280040E406002020
:102490001C1002403C04424200000000000000000A
:1024A00000000000000000002DE9FC410646604DE0
:1024B0003078C10750D5A8690024C10009D4A869A3
:1024C00040F08050A8610124A86900F0805000907D
:1024D0000098584F3868C10519D4386840F48070A6
:1024E000386000F0BBF880463868C1050FD400F0B2
:1024F000B5F8A0EB08006528F6D303203FE000F014
:10250000ADF8C01B41F28931884217D3F5E7E8697D
:1025100010F440701EBF716801F44071884210D001
:102520004549E86901220A60002320F440700B60ED
:10253000E861C00705D500F091F80746E869810712
:10254000DDD5EA69706822F440720243EA611CB189
:10255000A86920F08050A8613078810705D52A68E5
:10256000B06822F4404202432A603178C80605D59B
:102570002968F06821F48001014329600020BDE84A
:10258000F681000010B5002101282C4C25D002282E
:1025900043D010284AD160682268D30146D500BFD5
:1025A00029A1C0F38342C003895C0CD5606800BFD9
:1025B00029A3234AC0F34040185CB2FBF0F308465D
:1025C0001946414301E01F4A5143606842022DD43D
:1025D00049000320B1FBF0F128E0206A40F202320A
:1025E0000240B2F5817F08BF4FF400411ED000F4D5
:1025F0004072B2F5007F05D1606A820716D549F6B0
:10260000404113E000F44070B0F5407F0ED12068E7
:1026100082030BD54FF2244108E000F032FC6168E0
:10262000C1F38131491C4900B0FBF1F1084610BDEE
:10263000041002400070004040044242001002407A
:1026400000127A0000093D0002030405060708098C
:102650000A0B0C0D0E0F1010010270470148406864
:10266000704700BFA402002061490A681306FCD528
:102670004860704710B500F065F8022802D00428C1
:1026800021D010BD00F062F804F12C0177A000F019
:1026900023FC04F12400FEF78DFD024604F1240121
:1026A00004F12C0000F02CFC60B9A068401CA06074
:1026B00004F11C00FEF77EFD6269136981B204F12A
:1026C0001C00984749E000BF6EA000F005FC606860
:1026D000401C606060698168BDE8104008470000E8
:1026E00010B500F02FF8022802D0042821D010BD28
:1026F00000F02CF804F12C0167A000F0EDFB04F1D0
:102700001C00FEF757FD024604F11C0104F12C00E9
:1027100000F0F6FBA8B92069401C206104F12400F8
:10272000FEF748FD6269136981B204F124009847FD
:1027300013E000BF5EA000F0CFFBE068401CE0604B
:10274000C8E710BD2B4C6069416908476269D368CE
:1027500004F1180104F12C001847BDE810404FF4B3
:10276000FA7000F0E1BB00001CB500208DF80000FD
:1027700000F0EEFB00F040F800F0FCFB00F048FC3D
:1027800000F066FC00F028FD00F06AFCFFF70EFE8A
:1027900000F07CFD6946422000F0D8FD9DF8000065
:1027A0004DA4122814BF0FF21C100FF2441000F0B9
:1027B00093FB9DF80010204600F08EFB00F02AFEEF
:1027C0000C4C60610068804761698868804700BF81
:1027D0004CA000F081FB2078012802D0FFF780FF99
:1027E00001E0FFF747FF642000F09EFBF3E70000E5
:1027F000003801407402002000B593B009A82821D8
:1028000000F024FE04A8142100F020FE68461021E8
:1028100000F01CFE0921099101234FF480310A9137
:102820000D930F931191002202234FF4E0110B92AC
:102830001093129109A800F0D7F8022105910F20FA
:102840004FF48061049000220791069208920221C1
:1028500004A800F055FA01214FF400720091019292
:102860006846FFF721FE13B000BD70474D617374D9
:1028700065722052465F52585F444F4E453A257369
:102880000D0A00004D61737465722052465F545802
:102890005F444F4E450D0A00536C617665205246E9
:1028A0005F52585F444F4E453A25730D0A000000B1
:1028B000536C6176652052465F54585F444F4E45D5
:1028C0000D0A00004C6F52612072656164204572F0
:1028D000726F7220210D0A004C6F526120526567A1
:1028E00056657273696F6E203D2025640D0A0000E5
:1028F0004C6F52612072656164206F6B20210D0A5C
:10290000000000004920616D20536C617665202134
:102910000D0A00000249FFE701200860704700002F
:1029200020000E420901020006D5294A00F00F00DE
:10293000104400F8041C7047264B19547047264B6E
:1029400019684FF6FF020002114000F4E0600843EE
:10295000224908431860704738B51F4B1C68C4F300
:102960000223C3F10704052C28BF04241D1D072DD5
:1029700034BF0023DB1E012505FA04F4641E214048
:10298000994005FA03F35B1E1A401143BDE8344039
:10299000C8E7012200F01F01114BFFE78A40400900
:1029A00043F82020704710B5401EB0F1807F01D35E
:1029B000012010BD0B4C60600F214FF0FF30FFF77E
:1029C000B1FF0021A16007202060002010BD0000A1
:1029D00018ED00E000E400E00CED00E00000FA0576
:1029E00000E100E010E000E02DE9F8430646DFF8E2
:1029F000A8543078C10748D5686800F00C00042856
:102A000007D0686800F00C0008280BD16868C10383
:102A100008D52868810338D57068002840F0BE804A
:102A2000012067E17068B0F5803F04D1286840F468
:102A30008030286014E008B928680AE0B0F5A02FBB
:102A4000286806D140F480202860296841F480314C
:102A500005E020F480302860296821F48021296075
:102A6000706868B1FFF7FAFD04462868810300F139
:102A70009580FFF7F3FD001B6528F6D3032039E1AD
:102A8000FFF7ECFD04462868810340F18780FFF7DB
:102A9000E5FD001B6528F6D3F0E7FFF7DFFD001B1F
:102AA000022840F2AA80E9E7306970B1012139605B
:102AB000FFF7D4FD04462868810700F1DC80FFF7AA
:102AC000CDFD001B0228F6D9D8E73860FFF7C6FD18
:102AD00004462968880765D5FFF7C0FD001B02285A
:102AE000F7D9CBE70860FFF7B9FD0446686A8107AC
:102AF00077D5FFF7B3FD001B0228F7D9BEE708B969
:102B0000286A09E00528286A06D140F004002862F6
:102B1000286A40F0010005E0400840002862286A69
:102B200020F00400286241F28938F06868B1FFF7AC
:102B300095FD8146286A810700F1AA80FFF78EFD86
:102B4000A0EB09004045F5D398E7FFF787FD8146E4
:102B5000286A810740F19C80FFF780FDA0EB090007
:102B60004045F5D38AE7FFF779FD001B022840F2C4
:102B7000A28083E7FFF772FD001B022840F2B580B8
:102B80007CE700F0B9F804462868810140F1B18083
:102B9000FFF764FD001B0228F6D96FE73078DFF8F5
:102BA000047381071BD5686810F00C0F09D06868A2
:102BB00000F00C0008287FF477AF6868C1033FF588
:102BC00073AF2868810703D5306901287FF428AFE7
:102BD0002968706921F0F80141EAC0012960317863
:102BE00008071DD5B069DFF8C01200283FF47AAF9E
:102BF00001220A60FFF732FD0446686A81077FF50B
:102C00004CAFDFF898020268D2084FF47A71B2FB39
:102C1000F1F1009100BF0098411E00280091F9D108
:102C20003078410739D5E8690024C10009D4E86942
:102C300040F08050E8610124E86900F08050009085
:102C40000098DFF86882D8F80000C1051BD4D8F8D6
:102C5000000040F48070C8F80000FFF7FFFC8146D8
:102C6000D8F80000C1050ED4FFF7F8FCA0EB09006E
:102C70006528F5D302E72868716920F0F80040EA7A
:102C8000C1002860ABE7F06801287FF438AF3FE768
:102C90001CB1E86920F08050E861F06948B36968C8
:102CA00001F00C0108293FF4BBAE02287FF469AFA4
:102CB00000F022F80446286881013FF554AF306ADD
:102CC000B0F5803F05D16968B06821F40031014357
:102CD00069606A68306A716A22F4741202430A43B6
:102CE0006A60012000F009F80446286881017FF538
:102CF00041AF0020BDE8F28300203866FFF7AEBC8C
:102D00002DE9F8436A4F05463868894600F0070008
:102D1000484502D200F086F878D128685E4C8107D9
:102D200012D5400703D5616841F4E06161602878FD
:102D3000010703D5606840F4605060606168A8686E
:102D400021F0F001014361602978C80756D5686811
:102D5000012802D121688A0303E00228216802D1F8
:102D60008A0102D452E08A0750D56168890840EA96
:102D70008100606041F28938FFF770FC06466868A0
:102D800001280BD1606800F00C00042836D0FFF752
:102D900065FC801B4045F5D303202DE0022837D188
:102DA000606800F00C00082828D0FFF757FC801B53
:102DB0004045F5D3F0E72878410705D56268E86813
:102DC00022F4E062024362602978080706D5616850
:102DD000286921F4605141EAC001616000F02CF8DB
:102DE000626834492D4BC2F30312895CC8401860F5
:102DF000002000F02FFB0020BDE8F283386800F0CF
:102E000007008145D7D200F00DF8D4D00120F3E7B8
:102E1000606810F00C0FF1D0FFF720FC801B4045DC
:102E2000F6D3B9E73968C90849EAC1013960386899
:102E300000F00700484570471F4919480A6802F02A
:102E40000C03082B00D0704710B500BF1DA4C2F3BF
:102E50008343D203E35C08D5096858431DA3C1F33B
:102E600040415A5CB0FBF2F010BD1846134948438C
:102E700010BD0A48104A006813681149C3F30222C2
:102E800006E006480C4A006813680D49C3F3C222E5
:102E9000895CC8407047000000100240CC0200204E
:102EA00000127A000000424280044242007000405A
:102EB00000200240685500080410024000093D004F
:102EC0003056000802030405060708090A0B0C0D1A
:102ED0000E0F1010010200000EB4C0B5024603A888
:102EE00000210190009101AB0121044878440C308D
:102EF000FDF7FCF806BC5DF810FB00BFF7260000EC
:102F000004E010F8013B6BB1491C521E52B10B7822
:102F100090F800C09C45F4D002D24FF0FF307047CB
:102F2000012070470020704738B50446FFF796FB34
:102F300014F1010F054602D0044908780419FFF77F
:102F40008DFB401BA042FAD331BD00BFA40200207C
:102F500080B50748016841F0100101600320FFF7C8
:102F6000EEFC002000F076FA00F094FA002002BD9A
:102F70000020024018B585B06846102100F066FABE
:102F80002048046844F01004046001681E4C01F0FD
:102F9000100104910499026842F020020260036863
:102FA00003F0200304930499026842F004020260D3
:102FB000036803F0040304930499026842F00802D2
:102FC00002600022006800F00800049010210498BC
:102FD000204600F048FB10210091012201920021BF
:102FE0000291022203926946204600F075FA1B20E6
:102FF00000210090019102916946044800F06CFAAA
:1030000006B010BD1810024000080140000C01403D
:1030100080B50E48016841F001010160002200689E
:1030200000F001000090002100981020FFF794FCB0
:103030001020FFF7AEFC002200211120FFF78CFCCE
:10304000BDE802401120FFF7A4BC00BF14100240ED
:1030500080B55948594900F00BF800B116E001BDA0
:1030600080B55748574900F003F800B10EE001BDA4
:1030700001604FF4E13200230C2142608360C360A1
:10308000036141618361C36100F00CBBBDE8014095
:10309000FFF7EBBB78B585B004466846102100F019
:1030A000D5F92168454A484D4848914212D10168F6
:1030B00041F480410160026802F48042049200F011
:1030C0005FF84FF4007100F069F84FF4806000F091
:1030D0005DF853E03B4A914250D141683C4E41F487
:1030E00000314160416801F40031049100F048F87A
:1030F000042100F053F8082000F048F80020354D76
:10310000A860802000212861E9606961A961E96106
:1031100029626E60281D00F043FD08B1FFF7A5FB92
:1031200006F11401281D6063A9641020E8640021E1
:10313000802068652965A965E96529666966AC62CC
:1031400005F1480000F02CFD08B1FFF78EFB05F1FA
:1031500048002063EC66002200212620FFF7FCFBDC
:103160002620FFF716FC16480168CA6842F01002D4
:10317000CA6005F18E012A7800F0CFFA06B070BD62
:103180000499026842F00402026070470021009036
:10319000019102912846694600F09EB9006800F04E
:1031A00004000490022204980091019203210391EB
:1031B0002846694600F090B94C06002000380140CE
:1031C0008C06002000440040000801401810024016
:1031D0006C000240D002002080B5284828490160D8
:1031E0004FF4827220214260C16100234FF40072CB
:1031F0000A218360C36003614361826103624362A9
:103200008362C16200F063FE18B1BDE80140FFF7C0
:103210002CBB01BD30B585B0044601A8102100F0DB
:1032200015F92468164DAC4226D11648164C016893
:1032300041F480510160026802F4805200920099CA
:10324000026842F004020260A021006800F004005D
:1032500000900222009801910292032104912046DD
:1032600001A900F039F94020002101900291039159
:10327000204601A900F030F905B030BD64050020FA
:10328000003001401810024000080140D0B586B05F
:1032900002A8102100F0DAF826A44FF08040D4E90B
:1032A0000067224C206042F20F70CDE9006741F6C2
:1032B0001F410022E0606160A2602261A26120469D
:1032C00000F046FE08B1FFF7D0FA4FF480500290AC
:1032D00002A9204600F0FFFE08B1FFF7C6FA002160
:1032E000009101912046694600F0D0FF08B1FFF738
:1032F000BCFA06B0D0BD0068B0F1804F00D0704776
:1033000080B50B48016841F00101016000220068AE
:1033100000F001000090002100981C20FFF71CFB2A
:10332000BDE802401C20FFF734BB00000C06002063
:103330001C100240000000000000000070477047B1
:1033400002B50122694600F003F801BD012210E038
:10335000F8B500F027F844F0800000F041F80024B0
:1033600003E0285C00F03CF8641CE0B2B042F8D303
:1033700011E0F8B500F016F804F07F0000F030F826
:10338000002405E0002000F02BF8E1B2641C685432
:10339000E0B2B042F6D33846BDE8F8400122102131
:1033A00000F061B904460D461646174F0022102161
:1033B000384600F058B90A4601460020C8E70A46D8
:1033C00001460020D5E7022100E001210F4800F06E
:1033D00044B90821FAE7012070470120704770477F
:1033E00001B582B000204FF6FF718DF80400009106
:1033F000012301AA02A9064800F06EFF08B10020CF
:103400000EBD9DF804000EBD00080140000C0140F7
:103410006405002006480749074A084B01604260DE
:1034200083600749074AC1600261074941617047EB
:10343000CC06002089520008B15200085D530008F4
:10344000715300088153000891530008002201F0D5
:103450008DB8000038B50D4D0D4B2A7804464FF459
:103460007A711868B1FBF2F2B0FBF2F0FFF79BFA49
:1034700050B9102C08D2002221464FF0FF30FFF740
:103480006BFAAC60002032BD012032BDA4020020E6
:10349000CC0200200E4881B0016841F001010160BA
:1034A000026802F0010200920099426842F08052E4
:1034B0004260406800F08050009000980548016824
:1034C00021F0E06141F00071016001B0704700BF80
:1034D00018100240040001402DE9F8430246002084
:1034E0000025634BDFF88C9101270E68AF403E400A
:1034F000BE4240F0AC804C686CB3012C20D0022C52
:1035000023D0032C32D0112C1CD0122C20D0DFF869
:1035100068E174451CBFDFF864E174451BD0DFF837
:1035200060E174451CBFDFF85CE1744513D0DFF83F
:1035300058E174451CBFDFF854E174450BD016E028
:10354000C86814E0C868001D11E0C86808300EE0C3
:10355000C8680C300BE0886808B9042007E001282F
:1035600019BF082057610820176100E00020B6F558
:10357000807F03D294464FEA850E05E0A5F108044A
:1035800002F1040C4FEA840E0F27DCF8008007FAE2
:103590000EF428EA040400FA0EFE4EEA0404CCF805
:1035A00000404C68E40052D5D9F80040DFF8E0E074
:1035B00044F00104C9F800404FEA950CD9F80040E6
:1035C00004F0010400944FEA8508009C5EF82C404A
:1035D00008F00C0807FA08F724EA07072D4CA24266
:1035E00008BF00240ED02C4CA24208BF012409D0F1
:1035F0002A4CA24208BF022404D0294CA2420CBF8C
:103600000324042404FA08F427434EF82C70F743EB
:103610004C68E4031C684CBF34433C401C604C685D
:10362000A4035C684CBF34433C405C604C68E402DB
:103630009C684CBF34433C409C604C68A40203D55A
:10364000DF683E43DE6002E0DE683740DF606D1C0D
:103650000F2D7FF649AFBDE8F1838068084018BFA1
:103660000120C0B2704702B909040161704700002F
:103670000004014018100240000011100000121058
:103680000000211000002210000031100000321054
:103690000800014000080140000C014000100140FA
:1036A0000014014038B5040001D1012032BD00F002
:1036B00021F808B900F022F800F012F800F023F821
:1036C000FFE7416100F001F832BD2068C16841F4B4
:1036D0000051C1600020686020216970A9707047A6
:1036E000242068702068C16821F40051C160204620
:1036F00000F0DFB904F138056878704700212970BF
:103700002046FFF7C7BC2068016921F490410161A0
:103710002068416921F02A0170477CB5044604F114
:1037200038051346A87820283ED109B1180001D1E8
:10373000012076BD2878012836D001202870A162AA
:10374000A38500226A602220A8700026606B0FF219
:103750000D228262606B0FF23D22C262606B0FF23B
:103760003D2202630A46606B46632668606B311D2A
:1037700000F043FA0020009021680A6800920022BD
:103780004B68009300982A70CB6843F48073CB6039
:103790002068416941F0010141612068416941F0BF
:1037A00040014161002076BD022076BD38B5044657
:1037B00004F13905206841692A78212A0CD10906CB
:1037C0000AD5426922F080024261206B08B100F004
:1037D0004EFA204600F007F9206841696A78222AEB
:1037E0000CD149060AD5426922F040024261606B61
:1037F00008B100F03CFA204600F0FEF8002032BD8F
:10380000416921F040014161606B704738B5044661
:1038100025682968EA686B6911F00F0007D18806EE
:103820005DD593065BD52046BDE83240F8E0D80769
:1038300002D412F4907F52D0C80705D5D50503D520
:10384000E06B40F00100E063480705D5DD0703D5D4
:10385000E06B40F00200E063880705D5DD0703D583
:10386000E06B40F00400E063080705D5DB0703D5F3
:10387000E06B40F00800E063E06B00286CD0880645
:1038800004D5910644BF204600F0CAF8206840697C
:10389000E16B0A0701D440061BD5204600F0ACF8C6
:1038A000206841694A060FD5FFF7AAFF60B10FF201
:1038B00065114163606B00F0F3F900284CD0606B38
:1038C000416BBDE8344008472046BDE8324000F077
:1038D00066BE204600F063FE0020E06331BD0806AE
:1038E0002AD5130628D594F83900212834D1A068A8
:1038F000B0F5805F206A0BD10188C1F308016960CF
:1039000020690028206A0CBF811C411C216203E051
:10391000411C216200786860E08C401EE08480B227
:10392000D0B92068C16821F08001C1602068C168F9
:1039300041F04001C16031BD48060DD551060BD59F
:10394000E86820F04000E860202184F83910204623
:10395000BDE8324000F024BE31BD0000416A00687D
:103960000268930613D40020C8850868C26822F450
:103970008072C26008684269520852004261086859
:10398000426922F040024261202081F83A00084654
:1039900000F007BE406A00F005BE000038B5446A7A
:1039A0002068406904F139052978212906D10106EA
:1039B00004D50022E284204600F015F82168486909
:1039C0006978222906D1400604D50021E1852046E8
:1039D00000F012F8E06B40F01000E0632046BDE814
:1039E000324000F0DCBD0168CA6822F0C002CA6043
:1039F000202180F8391070470168CA6822F490725B
:103A0000CA6001684A69520852004A61202180F860
:103A10003A107047406A0021C185C18400F0BFBDE3
:103A200080B590F83A10222941D18168B1F5805FC4
:103A300012D101690368826A0029596805D1C1F36E
:103A400008011180826A911C04E001F0FF011180DD
:103A5000826A511C81620FE001690029816A04D1E8
:103A60004A1C826203685A6805E04A1C8262036845
:103A70005A6802F07F020A70C18D491EC18589B261
:103A800099B90168CA6822F02002CA600168CA6850
:103A900022F48072CA6001684A69520852004A6181
:103AA000202180F83A1000F07CFD002002BD0220A9
:103AB00002BD2DE9F0470446642522681169E068DB
:103AC00021F44051014311611926D3683249A0689D
:103AD0000B402169034360690B430343D360516981
:103AE000A06921F4407101432C48516182420ED1FA
:103AF000FFF7C7F90746FFF7C4F98046FFF7C1F99A
:103B00008146FFF7BEF98246FFF7BBF90DE0FFF7EC
:103B1000B0F90746FFF7ADF98046FFF7AAF98146ED
:103B2000FFF7A7F98246FFF7A4F961688900774398
:103B3000B7FBF1F36422B3FBF2F206FB08F3B3FB2D
:103B4000F1F706FB09F3B3FBF1FCAE46BCFBFEFE4E
:103B500005FB1E773F0132376423B7FBF3F303F015
:103B6000F00303EB021306FB0AF74643B7FBF1F23F
:103B7000B6FBF1F06421B0FBF1F105FB11252D013D
:103B800032356420B5FBF0F0216800F00F00C31857
:103B90008B60BDE8F0870000F3E9FFFF00380140CB
:103BA00030B508B9012030BD0468DFF8DC1209190E
:103BB000142200F13803B1FBF2F292009A60022263
:103BC000DFF8C812596080F82120256841688268B2
:103BD0006FF30D150D43C168154302690D4341692B
:103BE000154382690D43C16915430D4325600024C7
:103BF0001C6000F09FF8002030BDF8B50446002599
:103C000094F82000012801D10220F2BD94F821602F
:103C10000120012E84F8200024D1022004F12C067A
:103C200084F82100F560206807687F087F0007603E
:103C3000204600F03BF92168306820B10A6842F064
:103C40000E020A6008E0086820F00400086020689E
:103C5000016841F00A0101602068016841F001013A
:103C6000016002E084F8205002252846F2BD10B51C
:103C700001680A6822F00E020A6000F13C020B683B
:103C80005B085B000B600124516812688C40546033
:103C90000123002180F8213080F82010002010BD81
:103CA00038B590F821200024022A00F1340103D015
:103CB0000420486001243BE00268136823F00E03EF
:103CC00013600268DFF8C83115686D086D00156073
:103CD00002689A4208BF012222D0DFF8B8319A4226
:103CE00008BF10221CD0DFF8B0319A4208BF4FF451
:103CF000807215D0DFF8A4319A4208BF4FF4805289
:103D00000ED0DFF89C319A4208BF4FF4803207D0C2
:103D1000DFF890319A420CBF4FF480124FF080725E
:103D2000DFF884311A6000F005F8096801B18847AE
:103D3000204632BD012280F8212080F820407047C3
:103D40002DE9F84F00F1280204275169554BD1F8AD
:103D500000E0056854492E68D2F818A0504CDFF8EE
:103D60003C81DFF83491DFF82CB1DFF824C107FA89
:103D70000AF71EEA070F2DD077072BD52E68B60657
:103D800003D42E6826F004062E600568654508BF3A
:103D9000042318D05D4508BF402314D04D4508BF0B
:103DA0004FF480630FD0454508BF4FF480430AD0DD
:103DB000A54208BF4FF4802305D09D420CBF4FF4AD
:103DC00080034FF080630B605168002958D0BDE834
:103DD000F44F0847022707FA0AF71EEA070F32D006
:103DE000B70730D52E68B60606D42E6826F00A0628
:103DF0002E60012580F821500568654508BF022323
:103E000018D05D4508BF202314D04D4508BF4FF49E
:103E100000730FD0454508BF4FF400530AD0A542A8
:103E200008BF4FF4003305D09D420CBF4FF4001380
:103E30004FF000730B60002180F820101168F9B179
:103E4000BDE8F44F0847082101FA0AF11EEA010F04
:103E500016D0310714D52B6823F00E032B600124F4
:103E6000916953698C405C600121116180F82110D7
:103E7000002180F82010916811B1BDE8F44F084787
:103E8000BDE8F18F00000000F8FFFDBF0000024018
:103E9000080002401C000240300002404400024082
:103EA000580002406C0002400400024070B5046CEF
:103EB000C66B0125A54075600468636040681028E2
:103EC00002D1A260E16070BDA160E26070BD10B57A
:103ED000040001D1012010BD0021A16294F851001D
:103EE00010B92046FFF796F9022084F851002068A7
:103EF000016821F0400101606268A168E068236800
:103F00000A432169024360690A43A169024301F43B
:103F10000071E0690A43216A0243A06A0A4302432E
:103F20001A60A169606A2268090C01F0040101436A
:103F300051602168E06A08612068C16921F400616C
:103F4000C16100206065012184F8511010BD00009E
:103F500038B5040001D1012032BD00F014F818B9C1
:103F600000F00DF8FFF7C7F9FFE702206870211D88
:103F7000206800F01BF901206870002032BD00218C
:103F800029702046704704F13C056878704710B5E9
:103F90000446206801698A0715D5C1688A0712D5C9
:103FA0006FF00201016101222277806910F0030F96
:103FB000204602D000F0F7FA03E000F0F5FA00F036
:103FC00087F800202077206801694A0715D5C16865
:103FD0004A0712D56FF0040101610222227780693D
:103FE00010F4407F204602D000F0DDFA03E000F03C
:103FF000DBFA00F06DF800202077206801690A07DD
:1040000015D5C1680A0712D56FF0080101610422B5
:104010002277C06910F0030F204602D000F0C3FAE7
:1040200003E000F0C1FA00F053F800202077206888
:104030000169CA0615D5C168CA0612D56FF010010C
:10404000016108222277C06910F4407F204602D027
:1040500000F0A9FA03E000F0A7FA00F039F8002018
:10406000207720680169CA0708D5C168CA0705D545
:104070006FF001010161204600F097FA20680169A4
:104080000A0608D5C1680A0605D56FF080010161EE
:10409000204600F08BFA206801694A0608D5C168FD
:1040A0004A0605D56FF040010161204600F07FFA15
:1040B000206801698A060AD5C1688A0607D56FF0AB
:1040C000200101612046BDE8104000F071BA10BD2A
:1040D000204600F06EBA38B500F05CF801D102203D
:1040E00032BD0120207002226270DFF820012A68B0
:1040F0009368034093600A68002A37D0102A37D0AB
:10410000202A37D0302A37D0402A2BD0502A1ED030
:10411000602A20D0702A0BD0B2F5805F03D0B2F5B0
:10412000005F0CD02CE028688168C908C9000CE049
:1041300000F02BF82868816841F0770105E000F075
:1041400024F82868816841F48041816018E000F01B
:1041500018F8502111E0CA684968286800F06FF823
:1041600060210AE000F00DF8402106E0002104E0A3
:10417000102102E0202100E03021286800F071F8D1
:104180000EE0CA68496828684AE0CB684A688968CE
:1041900028686EE0054605F13C0420780128704748
:1041A0000120607000212170002032BD70B5184ED2
:1041B0000368184C184DB04218BFB0F1804F03D0BF
:1041C000A84218BFA04209D14A6823F070031343E4
:1041D000B0421CBFB0F1804FA84201D0A04203D131
:1041E000CA6823F4407313434A6923F080031343DE
:1041F0000360B0428B68C3620A68826202D10969B7
:10420000064A11600123436170BD00008800FFFF72
:10421000002C01400008004000040040302C014008
:1042200010B5036A046A64086400046223F00A0398
:10423000846924F0F00444EA0214846123E010B598
:10424000036A23F0100303628369046A23F4704352
:1042500043EA023324F0A004836144EA01140462B7
:1042600010BD826822F07002114341F007018160A5
:10427000704710B5846824F47F442143114341EA18
:104280000321816010BD1943016210BD30B500F1FA
:104290003C031A78012A01D1022030BD01221A7094
:1042A00002245C700268546824F07004546004684E
:1042B00065680A68154365600268946824F08004A4
:1042C00094600268946848680443946001215970BE
:1042D0000020187030BD00002DE9F84F074607F1A7
:1042E00050060124307800250128884691469A46D8
:1042F00008BF022000F0BF803470FEF7AFF971787C
:104300000129834609D07868B0F5827F02BFB8687A
:104310000028042901D00225A8E0B8F1000F1CBF35
:10432000B9F1000FBAF1000F01D101259EE07078BC
:10433000012804BF052171707560C7F83890A7F88F
:104340003EA0A7F83CA0C7F83080A7F836A0A7F891
:1043500034A03D647D6438680268510603D4026865
:1043600042F040020260F868DDF828A0B0F5006F66
:10437000786835D100281CBFF88E012806D138682E
:1043800038F8021BC160F98E481EF886F88E0028A6
:1043900004BFF88F002870D0002C1CBFF88E0028B6
:1043A0000AD0386881688A0706D538F8021BC160D0
:1043B0000024F88E411EF986F88F38B100F069F8B4
:1043C00004D5C06829F8020B00F067F81AF1010F54
:1043D000DCD0FEF743F9A0EB0B005045D6D356E0F6
:1043E00000281CBFF88E012806D1386818F8011B78
:1043F0000173F98E481EF886F88E002804BFF88FE6
:1044000000283AD0002C1CBFF88E00280AD038684B
:1044100081688A0706D518F8011B01730024F88EFD
:10442000411EF986F88F38B100F033F804D5C06822
:1044300009F8010B00F031F81AF1010FDCD0FEF79A
:104440000DF9A0EB0B005045D6D320E05A4651465B
:10445000384600F078F818B120200125706005E09A
:10446000B86818B90095396800F021F80121717019
:10447000002030702846BDE8F28FCDF800B05346DA
:1044800001220221384600F018F80028DED003256A
:10449000ECE738688168CA0770470124F98F4A1E23
:1044A000FA877047016821F0400101607047CA68CF
:1044B000009289680091009870472DE9F041069FAD
:1044C00005460E4690461C46286881683140B14238
:1044D0000CBF01200020404532D014F1010FF3D071
:1044E00024B1FEF7BBF8C01BA042EDD32868416899
:1044F00021F0E00141606868B0F5827F09D1A868C9
:10450000B0F5004F18BFB0F5806F02D12868FFF7F3
:10451000C9FFA86AB0F5005F0AD129680A684DF69C
:10452000FF7002400A602868016841F40051016090
:1045300005F150000121417000220270032000E0CB
:104540000020BDE8F0811CB500920B460446002215
:104550008021FFF7B2FF10B100F002F8032016BD72
:10456000606D40F0200060657047000000B500BF3E
:10457000130096469446103928BFA0E80C50FAD88C
:104580005FEA417C28BF0CC048BF40F8042BC90734
:1045900028BF20F8022B48BF00F8012B00BD704750
:1045A0007047704770477047704770477047704753
:1045B0007047704738B5DFF82444DFF82454226B85
:1045C0000020207702F13F014220FEF7BFFE6F225C
:1045D000691C0120FEF7CDFE216B202008736F229D
:1045E000691C0120FEF7B4FE206800F043FAA079B0
:1045F00000F0B2FAE07900F0D2FA207A00F0EBFA9B
:10460000607900F09AFA607A00F0FEFA40F2FF302A
:1046100000F056FB207E00F004FB012000F06FFB51
:104620002068DFF8C013884207D3002000F030FB79
:10463000002000F005FB0E2006E0802000F028FBA3
:10464000012000F0FDFA1420207100F032FABDE8DC
:1046500032400120FFE738B5DFF880532A6B5378EA
:104660000446002003F007039C4215D0032CAA7FC8
:1046700008BF012090421CBFA877FEF7B0FE286B50
:10468000417801F0F8010C434470286B4178BDE893
:1046900034400120FEF754BE31BD10B5CF4B1A8C0B
:1046A0000A8000241C8403F13C01BDE81040FCF7A3
:1046B000CBBD10B5C94C61840A46014604F13C00EB
:1046C000FCF7C2FD0523237710BDC4490877704766
:1046D000000000002DE9F84FC04EC64D317F012487
:1046E000491E09295ED8DFE811F00A004000610088
:1046F000F400F70044014D0176015301620100F01E
:10470000A8F9306B9D2141741120316B497CFEF773
:1047100017FEF17A306B012907D1317B80F8241024
:1047200000F089F900F08DF902E0FF2180F82410F3
:1047300000F06EF900F08FF9B07A012808BF06206A
:1047400005D0306BC17B417300F06BF90520FFF79A
:1047500082FF4FF4807106F13C00FEF777FE70692E
:10476000B063FDF77BFF706333E0FEF72CFE01289A
:104770000ED1FDF773FF7063F07A012803D100F0CA
:104780005AF900F05EF9402100F03AF90320307741
:10479000B07A012840F01F81FDF760FF716BB26BAA
:1047A000401A824280F017810420FEE0306B00F155
:1047B00012011220FEF7CAFD306B817C88060AD5F3
:1047C000202100F01DF9B07A012808BF347700F0ED
:1047D00002810220E9E069461920FEF7B7FD9DF845
:1047E0000000010606D5C043401C801000F03F00C9
:1047F000404200E080087077306B00F11A011A2007
:10480000FEF7A4FD376BB87EFDF7F4F996F91D505D
:1048100004468A462846FDF731F8894632687249CF
:104820008A4234BFDFF8C4B1DFF8C4B1002D80463E
:1048300008D500225B4620465146FDF7EDF9424679
:104840004B4607E06C486D4922465346FCF720FE74
:1048500000225B46FDF7E0F9C6E90A01B07A0128BB
:1048600013D1F87B78730D20316B497BFEF768FD1F
:10487000707A0128306B02D190F8221003E000F02A
:10488000D5F8306BC17C318418E007F1100110209D
:10489000FEF75CFD717A306B012907D190F8221088
:1048A00000F0BCF8306B90F8221007E000F0BEF882
:1048B000306BC17C00F0B2F8306BC17C06F13C007B
:1048C000FEF77DFDB07A012818BF02203077022460
:1048D00081E0347703247EE000F0BBF8F17A306B9E
:1048E00001290AD1F5224274316B307B81F8240012
:1048F00000F0A1F800F0A5F805E0F72141740020D0
:10490000316B81F8240000F083F800F07CF8316B03
:10491000708C81F82200306B90F822102220FEF774
:104920000FFD316B00208873306B817B0E20FEF70A
:1049300007FD306B817B417300F073F8306B90F8AA
:10494000221006F13C00FEF736FD316B412081F864
:104950003D004020316B81F83E000222306B00F1B7
:104960003D014020FEF7F4FC0320FFF774FE062013
:104970001BE0FEF728FD01282DD1082100F040F8AA
:10498000072012E000F065F800203077042422E0D0
:1049900000F05FF8316BFA20487400F034F800F052
:1049A0005AF80720FFF757FE0A20307713E0FEF78A
:1049B00012FD01280FD1042100F022F8FEF70DFDB1
:1049C000012805D1012100F01BF83477082402E00A
:1049D0000020307707242046BDE8F28F3801002000
:1049E000F4040020018F4233008F4233008064C002
:1049F00000A063C0AC5300081B9E5E29CB10F13FA2
:104A00001220FEF79DBC306B417C1120FEF798BC54
:104A1000306B90F824102420FEF792BC3184027C85
:104A20004273306B417B0D20FEF78ABC00F113010D
:104A30001320FEF78BBC306B00F11C011C20FEF72D
:104A400085BC306B017F01F03F0155F8210000F07B
:104A500011B80120FFE5316B002081F83D000222F2
:104A6000316B81F83E00306B00F13D014020FEF7D4
:104A70006FBC000038B5DFF8BC120860FDF7BAF86B
:104A80000022DFF8B432FCF77DFFFDF79FF8DFF876
:104A9000AC120D68040CAC71020A0B68DA710322C7
:104AA0000C682072BDE838400868811D0620FEF7BA
:104AB0004FBC70B500F0FCF82968493100F0E2F80D
:104AC0002868417A0B061DD590F8496006F08706E4
:104AD000872E0BD1042CD8BF052402DD152CA8BFCE
:104AE000142441F070014172611F18E0022CB8BF1C
:104AF000022402DB122CA8BF112441F07001417284
:104B0000A11E0CE014F1010FB8BF4FF0FF3402DB1F
:104B10000F2CA8BF0E2441F070014172611C28685F
:104B2000427A61F3030242722868417A0920FEF753
:104B300007FCDFF80002047170BD38B500F043F8DF
:104B40002868417F01F00F0141EA041100F035F8B7
:104B5000DFF8E001447131BD38B50D28044617DB9C
:104B60000C24032000F0F1F8DFF8D051286800F1A0
:104B70001E011E20FEF7EAFB2868817F01F00F016D
:104B800041EA041100F03AF8DFF8A801847131BD60
:104B90000628B8BF062400DBE3D10520E2E738B5DC
:104BA00000F011F82868417F01F0F10141EA440169
:104BB00000F003F85F48C47131BD41772868417F38
:104BC0001D20FEF7BDBB5D4D2A68044602F11D01A4
:104BD0001D20FEF7BBBB38B500F0A7F802F11E019F
:104BE0001E20FEF7B3FB2868817F01F0FB0141EA3C
:104BF000840100F003F84F48047231BD81772868C2
:104C0000817F1E20FEF79CBB38B5FFF7DCFF2868CC
:104C1000417F01F0FE012143FFF7CFFF4548447279
:104C200031BD10B504464548016881F8224002684C
:104C300092F822102220FEF783FB3E490C7610BD2D
:104C400038B500F022F8054600F01AF8216809315D
:104C50000920FEF77BFB2068417A0A0605D5012D65
:104C600006D1872180F8491002E0842280F849208B
:104C7000206890F84910BDE834404D20FEF760BB35
:104C800002F149014D20FEF761BB2C4C22687047B0
:104C900038B500F00DF82868417A01F07F010C4327
:104CA00044722868417ABDE834400920FEF748BBC9
:104CB000224D2A68044602F109010920FEF746BB8D
:104CC00038B500F012F800F015F82868827F210A44
:104CD00061F30102827702222868C4771E202968C6
:104CE000BDE838401E31FEF733BB144D2B68044637
:104CF0000222704703F11E011E20FEF73ABB38B5B1
:104D000000F013F800F01CF8286890F8261001F065
:104D1000F70141EAC40180F82610286890F82610AF
:104D2000BDE834402620FEF70BBB044D2A6804463C
:104D3000704700003801002080844E406801002048
:104D400002F126012620FEF701BB38B5FFF7EDFF83
:104D500000F010F8286890F8301001F0F8010C43CA
:104D600080F83040286890F83010BDE83440312099
:104D7000FEF7E6BA02F130013120FEF7E7BA000093
:104D800038B5DFF864542A6B53780446002003F0EA
:104D900007039C4215D0032CAA7F08BF0120904234
:104DA0001CBFA877FEF71BFB286B417801F0F801C8
:104DB0000C434470286B4178BDE834400120FEF775
:104DC000BFBA31BD10B5DFF82044236B022203F1D6
:104DD0001B011B20FEF7CDFA206BC17E007F40EA4D
:104DE0000120FCF74BFDFCF72BFDFCF747FD0022F3
:104DF000DFF8F833FCF74CFBBDE81040FCF720BDB2
:104E000010B5DFF8E443226B02F10C010C20FEF731
:104E10009DFA206B007B400910BD10B5DFF8C84338
:104E2000226B02F111011120FEF790FA206B407CF9
:104E3000FCF7E0FEBDE810400022DFF8B433FCF7D9
:104E400027BB38B5DFF8A0331C8C0C8000251D84EF
:104E50000A8803F13801BDE83840FCF7F5B910B510
:104E6000DFF8844361840A46014604F13800FCF708
:104E7000EBF90723237710BDDFF86C03016B11F802
:104E8000270F4A7AC97A00F00700401C130648BF72
:104E9000401C12F0060F18BF401CD2064CBF022265
:104EA00000220818101880B27047CF490877704761
:104EB0002DE9F042CC4ECF4D307F0124401E0A2810
:104EC0005FD8DFE810F00B005F009F000B011001BE
:104ED00015011A013501570187018B01316B01F171
:104EE00030000278D10647BF4C2202740C210174B5
:104EF000316BE12081F841000222336B03F1400164
:104F00004020FEF725FA0520FFF73AFF4FF48071A5
:104F100006F13800FEF79AFAFFF7AEFFFCF76AFEDB
:104F20000022B54BFCF7B4FA074670688946FCF7D7
:104F300061FE02460B4638464946FCF723FD002237
:104F4000AE4BFCF7A5FA00F075F90022AC4BFCF76C
:104F500063FEFCF775FC80B2A86000EB5000A8600F
:104F6000E860FDF77BFB28616861A020316B00F0F1
:104F70004EF900206870A870E87028710221308412
:104F800031772EE1FEF729FA012804BF687800285E
:104F900003D16C70FDF762FB6861FEF71AFA012815
:104FA00004BF6878012812D1A87880B9AC70FFF7E7
:104FB00034FFC6E90A01FFF705FF7063FFF720FF22
:104FC0007077FDF74BFB2861686103203077A87884
:104FD000002804BF687801280ED1FDF73FFB6969FE
:104FE000EA68401A824207D2316B34770D20497B40
:104FF00041F02001FEF7A4F9AA786978E8780A431D
:10500000024361E0308C40F20111884202DB06224B
:105010003277E6E0FEF7D9F901282ED1308C00284E
:1050200004BF2879002809D1306B10F8301F0A0618
:1050300002D500F0E7F801E08078308406F138000E
:10504000316B378C91F835102A7901F03F0CBB1A7F
:105050009C4510440BDA01F03F01FEF7B0F9316BCB
:1050600091F83520287902F03F02101804E0BA1AAE
:10507000D1B2FEF7A4F9308C2871FEF7A4F901280B
:1050800020D1FDF7EBFA2861308C002804BF287985
:10509000002809D1306B10F8301F0A0602D500F045
:1050A000B1F801E0807830842879318C091A06F152
:1050B0003802C9B21044FEF782F9308C2871EC70C6
:1050C000042085E0E87800280CD1FDF7C7FA2969AB
:1050D000AA68401A824205D2052079E00021297190
:1050E000347702247DE000F09AF83477032478E0E6
:1050F00000F095F83477062473E0316B01F130024B
:10510000202014740222316B81F84100306B00F1D1
:1051100040014020FEF71CF9316B982000F077F831
:105120000320FFF72DFE082030770021697158E039
:10513000FEF751F9012854D1306B90F83010080671
:1051400004D5012106F12200FEF735F9708C08B173
:10515000412800DB2020287006F138002978FEF76E
:105160002AF96979287841186971FDF777FAA861F9
:1051700009202DE0FEF729F9A8B9778C29786A79FA
:10518000BB1A06F138009942104406DAFEF713F90B
:10519000697928784118697105E0BA1AD1B2FEF729
:1051A0000AF9708C6871FEF70EF9012807D1FDF736
:1051B00055FAA8610A2030770120FFF7E1FDFDF7DD
:1051C0004DFAA969401A40F2E932904209D30B2006
:1051D000307706E000213177042402E000203077A8
:1051E00005242046BDE8F0820000002080844E4067
:1051F0000000E0BFB00200200000204000408F40CF
:105200000000F03F012106F12000FEF7D8B881F838
:105210003500306B90F835103520FEF791B800203E
:1052200028713084306B417B41F020010D20FEF766
:1052300087B8000040F2FF7C0CEA115240F2FE33C6
:10524000D21A17DD352A1DDAB2F1150308DA6FEA32
:105250004C53D34031EA5301C91899430020704799
:105260006FF00002DA4030EA5200801841F100018C
:105270009043704701F0004104BF41F07C5141F47C
:10528000700100207047000010B5454C4549464B61
:10529000201D0860221D1A60FEF750F800F008F883
:1052A0000120207000F01BF8BDE81040FFF782B924
:1052B00010B50120FEF743F8FDF7D0F90446FDF7DD
:1052C000CDF9001BFBD00020FEF739F8FDF7C6F939
:1052D0000446FDF7C3F9001B0628FAD310BD38B504
:1052E0002F4C6178814232D00128607020702E4DA1
:1052F0001AD10020FFF7AFF92868417841F080010A
:1053000000F026F80120FFF7A6F92968002081F8AF
:105310003D000022286880F83E20022229683D31A5
:105320004020FEF715F80BE00020FFF794F92868FD
:10533000417801F07F0100F00BF80120FFF78BF9B5
:10534000611DBDE838406F220120FEF712B831BD63
:105350004170286841780120FDF7F2BF10490878B4
:10536000002804BF0120FFF7A0BD0120FFF7ADB961
:105370000B4B1A78002A08BFFFF763BDFFF78DB902
:10538000074B1A78002A08BFFFF769BDFFF791B9EC
:1053900003490878002808BFFFF78ABDFFF79AB9CC
:1053A000F0040020300000206801002020AEA0366C
:1053B000E07D0B37A017083660F0AF3660F0AF36EF
:1053C000403D2E36C0AFD235000D993620A563364C
:1053D00080A331374061223760DE353640466B3678
:1053E000A032BF36A032BF36A00ECB35E0625436B5
:1053F000A0443937A00ECB35809AF436001F1337FE
:10540000E050DA3540466B36809AF43680A3313767
:10541000807F3D360016D636A03BFC36C0C14C36E8
:10542000809AF43660DE353680A33137809AF436C0
:105430008091B73660022A3700FB1E3660F0AF3627
:10544000A0443937209C2636000D993660D5F835B2
:10545000000D9936C0AFD2354034F135C0CA893617
:1054600040466B36C0B80F36807F3D36A044393792
:1054700060022A37C0C14C367047FEE7FEE7FEE700
:10548000FEE770477047704700F040B81848FEF7D5
:1054900057BC1848FEF754BC1748FEF778BD38B51E
:1054A000164C1749206888421AD10868C00617D5DB
:1054B000144D01226A70002300930A680092496823
:1054C000009100982046FEF771F909490868406884
:1054D000C0F1C8002870C822A91C2046FEF71DF99B
:1054E0002046BDE83240FEF791B90748FCF71DBEE3
:1054F000D4020020180300200C0600208C06002097
:10550000004400405C030020E406002002494A6891
:10551000087882184A607047A402002010B50E4A2D
:105520000E49106840F00100106053680C480B40B1
:105530005360146804401460116821F480211160E4
:105540004FF41F01506820F4FE00506091604FF04E
:105550000060044A106010BD001002400000FFF817
:10556000FFFFF6FE08ED00E0000000000000000074
:10557000010203040607080910B5074979441831E8
:10558000064C7C44163404E00A68081D1144884720
:105590000146A142F8D110BD08000000240000001F
:1055A0009BBBFFFF0C020000F00400200000000085
:1055B00083BAFFFF22010000580100000000002014
:1055C00000F00DF8002801D0FFF7D6FFAFF3008000
:1055D0000020AFF30080FDF7C7F800F002F80120CB
:1055E000704700F001B8000007463846FCF7D2FBD0
:1055F000FBE738B504460D46284600F005F8A842FA
:1056000018BF0024204632BD0149FDF72DB800BF68
:10561000A804002001488047014800471D550008A4
:1056200025560008AFF30080AFF30080FFF7C8FFF6
:10563000000000000102030400002E004300FFF7F9
:10564000FEBFFFF7FEBFFFF7FEBFFFF7FEBFFFF78E
:10565000FEBFFFF7FEBFFFF7FEBFFFF7FEBFFFF77E
:10566000FEBFFFF7FEBFFFF7FEBFFFF7FEBFFFF76E
:10567000FEBFFFF7FEBFFFF7FEBFFFF7FEBFFFF75E
:10568000FEBFFFF7FEBFFFF7FEBFFFF7FEBFFFF74E
:10569000FEBFFFF7FEBFFFF7FEBFFFF7FEBFFFF73E
:1056A000FEBFFFF7FEBFFFF7FEBFFFF7FEBFFFF72E
:1056B000FEBFFFF7FEBFFFF7FEBFFFF7FEBFFFF71E
:1056C000FEBFFFF7FEBFFFF7FEBFFFF7FEBFFFF70E
:1056D000FEBFFFF7FEBF101A8025DB3380250000D8
:1056E00050C3000014000000A0860100F049020031
:1056F0000101FF0005F2FF00016101240680A10302
:105700001C140907022212040443E80304210CF7C5
:10571000FF000038F11501253C240250494E473D59
:1057200043504F082101654E121008F60B205AF025
:1057300003FFA24A04C80001F13501F00207385600
:1057400000080452FF01F2003A14100100003C0C62
:1057500025C0F70D2804BBA10120023D1200082C32
:10576000432B123C2101200A02040101BC05002048
:105770000C060020082104211B610812EC60F212C3
:02578000D864EB
:040000050800562574
:00000001FF
