:020000040800F2
:1000000050060020F5310008213100082331000896
:1000100025310008273100082931000800000000C0
:100020000000000000000000000000002B3100086C
:100030002D310008000000002F3100083131000888
:100040001F32000823320008273200082B32000834
:100050002F32000833320008373200083B320008E4
:100060003F32000843320008473200084B32000894
:100070004F32000853320008353100083B31000888
:10008000573200085B3200085F3200086332000814
:10009000673200086B3200086F32000873320008C4
:1000A000773200087B3200087F3200088332000874
:1000B000873200088B3200088F3200089332000824
:1000C000973200089B3200089F320008A3320008D4
:1000D000A7320008AB320008AF320008B332000884
:1000E000B7320008BB320008BF3200082DE9F04FDC
:1000F0000FF2A41CA1B0DCE90089CDE900892A9D9A
:10010000DFF8DC9B049100248DF843500D944FF0F0
:10011000FF38824616461F460FE0B3462C461BF8B2
:10012000011B0498D0470028049000F0A2800D988D
:10013000401C641E0D90F2D176193078252808D124
:10014000002100220791089209910A920B910C92CA
:100150000DE06A464146304600F0DAFF050001D165
:100160000D98A1E0D9D50125E6E741F0010116F887
:10017000010F2028F9D023280CD02B2804D02D28BB
:1001800005D0302809D076E041F00201EFE741F0D8
:100190000401ECE741F00801E9E741F01001E6E76E
:1001A0000F9209E00F98484505DA00EB800402EB56
:1001B0004402303A0F92761C3278A2F130000A28BD
:1001C000F0D330782E2818BFCDF8388022D116F819
:1001D000010F2A2807D138683860761C50F8042BA4
:1001E00038600E9216E02D280CBF761C00200022ED
:1001F0000E920AE040B90E9A4A4505DA02EB8204F3
:1002000003EB4403303B0E93761C3378A3F13002AA
:100210000A2AEFD3ADF8401021A0317800F082FF18
:1002200008B116F8010B8DF842009DF842006828CD
:1002300004D1307868280AD1622105E06C2804BF17
:1002400030786C2803D171218DF84210761C12A8E9
:1002500006903A4616F8013B02A9504600F064F8B1
:1002600038B912AA02A9504600F0C8F900287FF553
:1002700064AF404618E02A2892D13A683A6052F8B2
:10028000040B3A6000280F9003D540420F9041F0D4
:100290000401761C95E7000000000000000000004B
:1002A000686A6C747A4C000021B0BDE8F08F622857
:1002B00020D0682811D06A2803D06C2827D0712854
:1002C00025D10868C01D20F007000860D0E9002390
:1002D00008300860194610467047002A0A680A600C
:1002E000106803D0121D0A6000B217E0121D0A60E8
:1002F00080B217E0002A0A680A60106803D0121D55
:100300000A6040B20AE0121D0A60C0B20AE0002A88
:100310000A680A60106803D0121D0A60C11770478E
:10032000121D0A60002170477CB50D4611461C461F
:100330002E69B4F1250200F04F811C3A00F0848050
:10034000121F022A40F280800E3A00F00981521FEB
:1003500059D0093A78D0921E16D0521E35D0521E6E
:10036000022A71D9121F30D0521F00F09880521EFD
:1003700049D0521E00F0E280D21E00F0FF80921E93
:1003800041D0D21E3FD02DE195F83A406C2C09D0D7
:100390006869421C6A610A680A6052F8043B0A6094
:1003A000335429E10A680A6052F8043B0A6000935A
:1003B000002201924FF0FF332B636A46294600F07A
:1003C00098F9002840F1188103E195F83A000122DC
:1003D000FFF76DFFC5E90001002904D56869411CDC
:1003E00069612D220DE0288F810704D56869411CC1
:1003F00069612B2205E0C00721D56869411C69614C
:10040000202232541BE095F83A000022FFF74FFFFC
:10041000C5E9000195F83800010710D5D5E900239A
:10042000002B08BF002A0AD044F02000782806D10B
:10043000686930213154401C421C6A6134542146A1
:1004400068693044E86087E00868C01D20F0070054
:100450000860D0E9002308300860C5E90023D5E929
:100460000001C80F04D06869411C69612D220DE0AC
:10047000288F810704D56869411C69612B2205E03A
:10048000C00704D56869411C69612022325468693B
:100490003044E8602146284600F036FAACE005F129
:1004A0003A02507820B14FF0FF340FF6043074E078
:1004B0001078622808D0682824D06A2812D06C28C6
:1004C0002ED071280ED02BE00A680A6052F8040B77
:1004D0000A6020B94FF0FF340FF6EC205DE0E96AC6
:1004E000017089E00A680A6052F8040B0A6020B9BA
:1004F0004FF0FF340FF6D0204FE0EA6AD317C0E97F
:10050000002379E00A680A6052F8040B0A6020B9F7
:100510004FF0FF340FF6B0203FE0E96A01806BE056
:100520000A680A6052F8040B0A6020B94FF0FF34E1
:100530000FF6942031E0E96A01605DE00A680A6024
:1005400052F8040B0A60002120F0000221F0FF3372
:10055000C5E90023EE607821284600F02DF94BE034
:100560006C2285F83A200B680B6053F8042B0B6063
:1005700052BB4FF0FF340FF684200EE095F83A207E
:100580006C2AF0D00868086050F8044B0860EC60F2
:100590003CB94FF0FF340FF6482000F0EBFD201A75
:1005A00076BD2E6B002E04D5204600F003FE0446D7
:1005B00008E032460021204600F026FE002814BF45
:1005C000041B3446AC6117E0294600F092F800287D
:1005D00012D54FF0FF3076BD6869411C6961252254
:1005E000325409E06969481C68612522725421006F
:1005F00002D0431C6B613454002076BD2DE9F041DC
:100600000E4605469046726B7069316AB46A121ADA
:10061000B069521A716A121AF069521A121A96F8CF
:100620003800141B41070DD4002C0BDD2746B068A1
:100630002021A8470028B06057D0F06A401C7F1ED8
:10064000F062F4D1736942463146284600F098FCC6
:1006500000284AD1376A002F0ADDB0683021A84748
:100660000028B06041D0F06A401C7F1EF062F4D1D7
:10067000B369F2683146284600F082FCA8BB776A6D
:10068000002F09DDB0683021A847B06068B3F06A78
:10069000401C7F1EF062F5D1F068B169F369421821
:1006A0003146284600F06CFCF8B9B76A002F09DD26
:1006B000B0683021A847B060B8B1F06A401C7F1E16
:1006C000F062F5D196F8380041070BD5002C09DD12
:1006D000B0682021A847B06038B1F06A401C641EA1
:1006E000F062F5D10020BDE8F0814FF0FF30BDE8A9
:1006F000F0812DE9F8470D46A3B02F6B002F064679
:10070000904648BF6FF000470FF60C1400F0A8FDAC
:10071000D4E90023696B4018CDE90123812828BF63
:100720004FF0FF3042D20024002F33DDD8F8001004
:1007300001AA684600F0EEFC8146B9F1000F38D4FA
:10074000D8F8000010B9B9F1010932D44F4521DBC6
:100750006869484481280AD30021696303AA2946AD
:100760003046FFF74BFF040014D40020686103AB50
:10077000D5F814A04A46694603EB0A0000F076FD5E
:10078000CA44C5F814A058F8040B002818BFA7EBFA
:100790000907C9D14CB903AA29463046FFF72EFFF5
:1007A000044614B9002068616863204624B0BDE89F
:1007B000F0874FF0FF34F8E72DE9FC4307466F2937
:1007C0003E6908BF082405D041F02000782814BFF6
:1007D0000A2410243C25D7E90023642918BF69297D
:1007E0009046994605D1002B03D5D8F1000869EB56
:1007F0004909B9F1000F08BFB8F1000F1FD1386BDC
:10080000E8B9082C4CD197F83800010748D53020BA
:100810003B2586F83B0043E000280ED597F83800CA
:1008200000F01400102808D17B6B7969386A5B1AD4
:100830001B1A9A1A002AC8BF3A62BDE8F3838DF8E2
:100840000010404649462246E31700F01BFD3032B7
:10085000D0B26D1E3A28019504DB9DF80000A0F18E
:1008600051018A187255404649462246E31700F066
:1008700009FD80465FEA010908BFB8F1000F03D007
:10088000F86871198842DCD3082C09D197F8380030
:10089000010705D5705D302802D06D1E30207055DF
:1008A000C5F13C02BA617119F960386B8242B3DA62
:1008B000821A3A624FF6EF70398F01403987BDE8EE
:1008C000F3832DE9D04306460F4614464FF0000847
:1008D000DFF8109412E0E00707D542464B46304659
:1008E000394600F0E7FD06460F4640464946424677
:1008F0004B4600F0DFFD641080468946002CEAD1AB
:1009000030463946BDE8D0832DE9F84F05468A4682
:100910004AF020048EB0D5E90089612C02AE09D0DE
:10092000286B002848BF062003D408BF672C01D1DC
:1009300001202863D5E900014A005215521C0DD14F
:100940000B030BD0AAF1610103201A29A86102D27E
:100950000FF2CC6110E00FF2CC610DE04A005215AD
:10096000521C0ED10B030CD1AAF1610103201A29EC
:10097000A86116D30FF2B461E868032200F076FC98
:10098000C0E1CDE90C01DDE90C2323F00043B3F510
:10099000801F0DD20027002B08BF002A019703D12A
:1009A00011E00FF28461E7E701AA00F055FE0AE0CA
:1009B000CD48CE4900EB1350DDE90C2301900B40EC
:1009C000CB4910461943C5E90001612C0DD1E868F7
:1009D00030210170821CBAF1610FEA600CBF7821EE
:1009E000582141706869801C6861D5E90001CDE932
:1009F0000C01DDE90C2333F0004104BF0028002383
:100A000000F04881612C40F0A080286B4946002806
:100A10004CBF4FF0210B00F1010B40460022002398
:100A2000DDE90C8900F050FE01990BF1010738BF98
:100A300089F00049091F002F01918DF808200DF160
:100A4000090040F33581A9490091064640464946D0
:100A50000022002300F050FE80F029814800400D64
:100A600000F11C0211D0002A0FDD40F2FF739A4200
:100A700005DBA04909F000400143002011E0009B84
:100A8000194041EA025140460BE028F0000039F0DD
:100A9000004108BF00280FBF49461C22494600F00C
:100AA00043FE8046894600F0DDFEFF1F002F04460E
:100AB00009DD00F0F5FE02460B464046494600F0CF
:100AC00001FF80468946F01D072104E004F00F0273
:100AD00000F8012D2411002C01DD491EF6D5491E18
:100AE0005CBF002200F8012DF9D5DCE0002019469A
:100AF00002AA0A4400E05B1E12F80149491E844222
:100B0000F9D00F2804D10DF10900425C521C425467
:100B1000002904D50198001D02AE5B1C0190581EEF
:100B20000CD43118AAF13A040A783032D7B23A2FED
:100B3000A8BFA218401E01F80129F5D5286B00288E
:100B400040F1A780591E2963A3E001996A4A47F240
:100B50009750414391FBF2F2019229F00046D2F105
:100B6000070204DD40463146FFF7ABFE0AE0524281
:100B700000206249FFF7A5FE02460B46404631467B
:100B800000F012FF8046662C286B06BF019F0A37D3
:100B900006273F18142FC8BF142730208DF80800EF
:100BA00089460DF1090000E03046002F34DD06468D
:100BB0004046494601F01CF801460A4606F1080382
:100BC00004200A26B2FBF6F606EB860EA2EB4E02D6
:100BD000303203F8012C0A22B6FBF2F202EB820E4D
:100BE000A6EB4E063036401E03F8026DE9D1083FF1
:100BF000002F03F10806D7DD084601F00DF8024684
:100C00000B464046494600F05DFE00223C4B00F09A
:100C100051FC80468946CBE70DF10901401A0DF1E0
:100C2000090604E00199491E401E0191761C3178A5
:100C30003029F7D0662C02D10199491C03E0652CBC
:100C40000CBF012100212B6BCB189842B8BF431E6B
:100C5000002B1ED4834204DAF05C3528A8BF39206B
:100C600000DA30201946721E02EB010800E05B1E1C
:100C700018F80199491E8145F9D0392802D1705CD4
:100C8000401C7054002904D50198401C16465B1C7A
:100C90000190019800B200901BB23246514628469E
:100CA00000F034F82EE0C61D002F3FF7CFAE3046DF
:100CB0000DF10901401A03465845C8BF5B46002B99
:100CC0000DF109063FF53AAF8342BFF60FAF0DF1C4
:100CD0000900C15C07297FF709AF0F2007E7000073
:100CE000CBCCCC0C0000244002FCFFFFFFFF0F80A8
:100CF0000000E03F0000F07FA08601000000F03F10
:100D000084D797410FB0BDE8F08F00002DE9F84778
:100D100083B006468A461746984600F0FDF9B8F1BA
:100D2000000F406A356B90F8009002DC4FF001082C
:100D3000BFA74AF02000BDF93040662808BF641CF8
:100D400015D0672840F0848014F1040FC0F286802B
:100D5000AC4280F2838096F83800641C010702D40C
:100D6000A845B8BF454620B22D1A48BF00250FFA46
:100D700084FAF068B169BAF1000F25DC4A1C30230F
:100D80004354002D03DC96F83800010703D5F068C2
:100D900000F80290521C15EB0A0FB8BF6C4220B24B
:100DA000441941424445B8BFA046B26171620FFA8E
:100DB00088F5F561F068B3692A463946184400F0B1
:100DC00055FA641BB462C4E022B29045084417DAB5
:100DD0004246394600F04AFAB0694044B061AAEB95
:100DE0000801002D716203DC96F838100A0705D55A
:100DF000F16801F80090F069401CF061B562A8E06C
:100E0000394600F033FAB069002D5044A8EB0408CD
:100E100003DC96F838100A0703D5F16801F8009052
:100E2000401CB0610FFA88F08542F368B069B8BF22
:100E3000A8460FFA88F207EB0A01184400F016FAE8
:100E4000B1690FFA88F00144B161281A706280E03C
:100E5000BAF1610F14D14FF0700A16E0A84504DA18
:100E600096F838100A0758BF45466D1E48BF002542
:100E7000BAF1670F14BF4FF0450A4FF0650A04E05E
:100E8000BAF1410F08BF4FF0500AB169F368481C2E
:100E9000B061002D17F8012B5A5403DC96F8381076
:100EA0000A071BD5F168431CB36101F80090002DBF
:100EB00014DDA8F101080FFA88F039468542F76879
:100EC000B8BFA8460FFA88F2F81800F0CFF9B06959
:100ED0000FFA88F108446D1AB0617562F068B16963
:100EE0000844002C80F800A003D42B224270811CFF
:100EF00003E02D2141706442811C00206A460AE013
:100F000023460A2493FBF4F404EB8405A3EB450386
:100F100002F8013B401C24B2002CF1DC012806DC65
:100F20004AF02002652A04BF302201F8012B48B99B
:100F3000302001F8010B07E0401E1DF8003030336F
:100F400001F8013B0028F7DCF268B0691044091A87
:100F5000F16196F8380000F0140010280DD1726984
:100F6000B169706A8A18F1698218B06A8A188218A1
:100F7000706B8242BCBF821A326204B0BDE8F08757
:100F8000F8B505460E4617461C46002074B117F802
:100F9000011BB068A847B06030B1F06A401CF06235
:100FA0000020641EF3D1F2BD4FF0FF30F2BD00000F
:100FB0007072696E74665F733A20256E206469737F
:100FC000616C6C6F776564007072696E74663A204C
:100FD00062616420256E20617267756D656E7400B4
:100FE0007072696E74665F733A2062616420257363
:100FF00020617267756D656E740000007072696EB5
:1010000074665F733A2062616420256C732061729C
:1010100067756D656E740000000000000000000040
:101020006E616E004E414E00696E6600494E46008C
:101030003000F0B40246106895681318506803EB4E
:101040005004C0071DD54D441BE013F8017B05F883
:10105000017B491EF9D1A0B1B60813F8011B06F0B7
:101060000306032E08BF13F8016B01EB062149426A
:10107000801C294405D011F8016B05F8016B401E56
:10108000F9D1A3420ED013F8016B16F0030104BF8F
:1010900013F8011BC91C30090F28DAD113F8010B12
:1010A0000F30D6E7F0BC02F10C0070471B487047C8
:1010B00070B45368D418042B09DA41B1057804F8E8
:1010C000015B10F8016B16B15B1C491EF3E753601E
:1010D00070BC704738B514461D4661B1FFF7E8FF94
:1010E00061686A6B204690476FF00102811A02D056
:1010F000491E01D001E003E005E00021616032BD3E
:101100006FF0010032BD4FF0FF3032BDDA6B104797
:10111000024BDFE7014BF9E7014870474800002028
:1011200010000020C9B202788A421AB11CBF10F820
:10113000012FF9E718BF0020704730B4002513E0F5
:1011400050F8042BD30744BFA9F101039A18091FD3
:10115000042942F8045BFAD213468C0744BF158079
:101160009B1CC90748BF1D7050F8041B0029E7D11C
:1011700030BC704780B500B906A005490B681BB1AB
:1011800022220021984701E000F053FD222002BDF9
:1011900048020020636F6E73747261696E74206818
:1011A000616E646C65723A20626164206D65737370
:1011B0006167650000F10103810704D010F8011B8D
:1011C000820781B1FAD10268A2F10131914311F095
:1011D000803104BF50F8042FF6E709BAB1FA81F163
:1011E00000EBD100401CC01A7047B1F5807F02D3DC
:1011F0004FF0FF3070470170012070470078401EAB
:101200008041C043C00F7047C9B2830706D0521E49
:1012100022D310F8013B9942F7D11FE0083A13D3CB
:1012200002F1040241EA012141EA014150F8043B84
:10123000121F21BF4B40A3F1013C2CEA030C1CF010
:10124000803FF3D0C9B2001F083210F8013B521E94
:1012500028BF91EA030FF8D818BF0120401E70473D
:1012600080B5FFF723FF006C02BD00004AB100000B
:1012700011F8013B521E00F8013B1CBF11F8013B65
:10128000F8E77047BBBBE1B1B2F5803F80F07E80EC
:10129000022A1ED98C46B1FBF2F102FB11C31B04DA
:1012A00043EA1043B3FBF2FC02FB1C3380B240EA7A
:1012B0000343B3FBF2F002FB103240EA0C40002380
:1012C0007047022A05D98446B0FBF2F002FB10C237
:1012D00070474AB105D100F0010249085FEA3000C9
:1012E000704700220023704700F0A6BC0B000200EC
:1012F000002100207047904271EB030CF6D3B3F548
:10130000803F2FD2F0B5B3FA83F7B1FA81F4A7F199
:101310000F0E3D1B5340CEF1200602FA0EF2F341B0
:101320005340B5F10F0746D80F3C2C444140C4F15F
:101330002006A040F1414140B1FBF3F603FB16113A
:10134000A2FB0645001BA94102D2761E8018594116
:1013500080EA010221FA0EF362FA0EF200215A40ED
:101360003046F0BD30B4B1FBF3FC03FB1C11A2FB13
:101370000C45001BA94103D2ACF1010C8018594166
:1013800030BC02460B46604600217047B2F1807FB8
:1013900065D3F0B5B2FA82F7B1FA81F4C7F10F065E
:1013A0003D1B22FA06F307F1110EF24120355A4097
:1013B000B5F10F07B8D94140C4F12006A040F14172
:1013C0004140B1FBF3FC03FB1C11A2FB0C45001BCD
:1013D000A94103D2BCF1010C801859410F2F12D33F
:1013E0000F3FC90341EA5041B1FBF3F603FB16116D
:1013F000A2FB0645D4EBC030A94102D2761E80186C
:10140000594146EACC3C07B34140C7F12006B840F9
:10141000F1414140B1FBF3F603FB1611A2FB064577
:10142000001BA94102D2761E8018594180EA0102B0
:1014300021FA0EF3C7F1200462FA0EF20CFA07F05B
:101440005A402CFA04F13043F0BD80EA010221FA3F
:101450000EF3002162FA0EF260465A40F0BD8C464F
:10146000B1FBF2F102FB11C31B0243EA1063B3FBB1
:10147000F2FC02FB1C331B024CEA002043EA10631F
:10148000B3FBF2FC02FB1C331B024CEA002043EAD4
:101490001063B3FBF2FC02FB1C331B024CEA00207E
:1014A00043EA1063B3FBF2FC02FB1C324CEA00205F
:1014B00000237047B0B581EA030C0CF0004C40F2F9
:1014C000FF7515EA11541DBF15EA1357AC42AF4220
:1014D00039E0E41923EA455343F48013C90241F08B
:1014E000004141EA505EC7021100A7FB020200283A
:1014F0004FF00000EEFB01204FF00001E3FB07215D
:1015000018BF42F00102401800214941E3FB0E01DF
:10151000A4F580640F0302D252004041494154F1C6
:1015200001046CDD470872F1004250F1000051EBFC
:101530000451A1F580115CBF41EA0C01B0BD4CEA39
:1015400005510020B0BD05EA1357AC4214BFAF42AD
:1015500041E050EA410E1CBF52EA430E02E06146F0
:101560000020B0BD24423C441BD15FEA070EF6D0F8
:10157000090302BF01460020AEF1140EB1FA81F753
:10158000AEEB070401FA07FE0C37C7F1200100FAA1
:1015900007F7C8404EEA000E23EA455343F4801390
:1015A000A2E733F00043B3FA83F704BFB2FA82FE36
:1015B00077440B3FE41BB7F1200E2FBF02FA0EF366
:1015C000BB40C7F1200E22FA0EFE38BF43EA0E03DD
:1015D000BA40641C82E750EA410E14BF52EA430E3F
:1015E0006FF000014FF4001717EB430F8ABF194645
:1015F00017EB410FB5E74CEA05510020B0BDD4F11F
:101600000104B4F120070FDAC4F12007520828BF03
:1016100042F0010210FA07F501FA07F7E1BF2A4389
:10162000E0403843E1400FE0352C98DCC7F120045E
:1016300052EA400220FA07F218BF42F0010231FAE2
:1016400007F0A1400A43002172F1004250F100006E
:1016500051EB0C01B0BD000010B5144600F002F8CB
:10166000226010BDC1F30A5343B14A0012F5001FB6
:1016700028D2A3F2FE32A1EB0251704750EA410C8E
:1016800020D001F0004C31EA0C01B1FA81F204BF24
:10169000B0FA80F3D2180B3AB2F120032CBF00FA53
:1016A00003F1914041EA0C013EBFC2F1200C20FA47
:1016B0000CF319439040524240F2FD33D21A01EB31
:1016C00003517047002270474FF4001C1CEB410F80
:1016D00094BF1CEB430F09E041EA030C50EA4C0CA9
:1016E00052EA0C0C03D2994208BF9042704714BFD3
:1016F0008B428242704700004FF4001C1CEB410FEC
:1017000094BF1CEB430F09E041EA030C50EA4C0C78
:1017100052EA0C0C03D28B4208BF8242704714BFBE
:101720009942904270470000124254D440F2FF7C2C
:101730001CEA11530FD0634531D09B1863453CBF61
:1017400001EB0251704701F0004141EA0C510020C9
:10175000AFF30080704750EA410320D001F0004C05
:1017600091EA0C011CD0B1FA81F30B3B9A420DD9DE
:10177000D21A994051EA0C01C3F1200C20FA0CFC5A
:1017800061449840531C40F2FF7CD7E7914041EA06
:101790000C01C2F1200C20FA0CF319439040704761
:1017A000B0FA80F31533202BE0D3202AEED3203A71
:1017B000203B9A4209D9D21A00FA03F141EA0C01FE
:1017C0000020531C40F2FF7CB8E700FA02F141EA26
:1017D0000C0100207047524240F2FF7C1CEA11537A
:1017E0000DD06345DBD0B2EB030C3CBFA1EB025143
:1017F00070470CF1010221EA035141F4801150EAD3
:10180000410CCCD001F0004C352A27DC30B481EA01
:101810000C01B2F1200309DAC2F12003044601FAF7
:1018200003F5D0402843D1409C400CE0C3F1200296
:10183000450020FA03F418BF44F0010421FA03F034
:1018400091400C43002174F1004550F1000051EB30
:101850000C01244230BC7FF47BAF7047614600200E
:1018600076E70000C1F30A5340F2FE329B1A14DD02
:10187000D3F120034FEAE17208DDC90241EA505179
:1018800041F00040D84080185040704703F2E130EA
:1018900010B1D24382F00040704700207047000032
:1018A000C11768B14840401AB0FA80F29040D21C8B
:1018B000C907C2F5846241EA025202EBD021400519
:1018C0007047000070B44FF0004591EA030F40F1FB
:1018D000B5816B40841A71EB030603D2001BB14142
:1018E000121973414FF4001C1CEB410F34BF7CEB09
:1018F000430442E00C0DA4EB1356352E4FDC45EAB1
:10190000C323DB0A45EAC121C912B6F120050DDD6A
:1019100063FA05F6EB4086EA0305124218BF45F06C
:101920000105C01851F100010CD213E062FA06F56E
:10193000F2405540F3415A40B340F3405A408018BA
:10194000594107D349085FEA30005FEA350528BFEF
:1019500045F0010501F58011420875F1004250F192
:10196000000041EB04514E0016F5001F70BC38BF5B
:1019700070470020090D090570471CEB410F10D27C
:1019800052EA43060BD0BCEB410F05D80C0DAB431C
:10199000661E342EB6DD02E0AB438018594170BCA0
:1019A000704770BC70470000F0B540F2FF7581EAE7
:1019B000030C0CF0004C15EA11541DBF15EA135727
:1019C000AC42AF42E5E0BC41C1F31301C3F31303E2
:1019D000801A994143F4801304D2641E40004941A7
:1019E00080185941C90241EA5051B1FBF3F603FB9B
:1019F0001611A2FB0675D7EBC020A94102D2761EB4
:101A000080185941C90241EA5051B1FBF3FE03FB72
:101A10001E11A2FB0E75D7EBC020A94103D2AEF177
:101A2000010E80185941890241EA9051760546EA33
:101A30008E2EB1FBF3F603FB1611A2FB0675D7EB56
:101A40008020A94102D2761E80185941C90241EA7C
:101A500050514EEA060EB1FBF3F603FB1611A2FB42
:101A60000675D7EBC020A94102D2761E80185941D5
:101A7000C90241EA5051B1FBF3F703FB1711A2FB76
:101A80000735D3EBC020A94167F100070CBF004226
:101A900047F0010766F3D5274FEA1E31B80814F561
:101AA000806412DDBD0775F1004250EB0E5051EB22
:101AB000045111F5801F5CBF41EA0C01F0BD4CF0F0
:101AC0007F6141F0E0410020F0BDBD076D0840EAB4
:101AD0000E5041F48011D4F10104B4F120060ADA69
:101AE000C4F120060200E04001FA06F3E140184389
:101AF000B24015430EE0342C13DCC6F1200445EA55
:101B000040056D0820FA06F2154321FA06F0A140BF
:101B10000D43002175F1004250F1000051EB0C0122
:101B2000F0BD00205FEA0C01F0BDCFB992185B4117
:101B3000B3FA83F704BFB2FA82F6BF190B3FB7F1CD
:101B400020062FBF02FA06F3BB40C7F1200622FA97
:101B500006F638BF3343BA401CB1E419641E33E7BC
:101B60007F4231F00041B1FA81F404BFB0FA80F64F
:101B7000A4190B3CB4F120062FBF00FA06F1A140D6
:101B8000C4F1200620FA06F638BF3143A0403C1BC2
:101B90001AE7AC421ABF05EA1357AF4212E050EA07
:101BA00041061CBF52EA4306BFE750EA41073046F0
:101BB00061461CBF41EA0551F0BD52EA430C08BF23
:101BC000C143F0BD00204FF4001616EB410F98BF43
:101BD00016EB430F08BF16EB410F24BFC14305E0CE
:101BE00016EB430F0CBF61464CEA0551F0BD0000F7
:101BF000400D491840EA81200CD2490DA1F58061C1
:101C0000491C40F0004005DBD1F11F0154BFC84022
:101C1000C017704700207047014648B1B0FA80F104
:101C20008840C91CC1F58461090501EBD02140053C
:101C30007047012000F0B8B870470000841A71EBBB
:101C4000030604D26E40001BB141121973414FF4D8
:101C5000001C1CEB410F34BF7CEB430683E00C0DF2
:101C6000A4EB1356362E00F37C80012E45EAC323E5
:101C700041DC43EA525312BFD20292025B082405B0
:101C800045EAC12141EA5051D2EBC020994125D407
:101C900007D1B0FA80F610FA06F162D000202036A3
:101CA00008E0B1FA81F6B140C6F1200220FA02F252
:101CB0001143B0404FEAF474B4EB465434F00106DB
:101CC0004FEA74040AD8D6F50016760D04F00044E5
:101CD000F04061FA06F25040F1404840C00A40EA44
:101CE000415021F0004128BF5FEA500550F100004B
:101CF00044EBD12135E0DB0A45EAC121C90AB6F13E
:101D000020050EDD42EA0242120CC5F1200603FA5C
:101D100006F6EB4042EA06056D42984161F100018A
:101D20000DE062FA06F5F240554063FA06FC82EADD
:101D30000C02F3405A406D42904161EB030111F4F3
:101D4000801F05D1641E620502D06D0040414941EB
:101D500021F48011430875F1004350F1000041EB7C
:101D6000045170BC70471CEB410F15D223F00043A7
:101D700052EA43060BD04FEA4C0CBCEB410F04D89F
:101D80000C0D661E342EB7DDEBE7801A994150EA40
:101D9000410608BF0021E4E708BF1CEB430F28BF42
:101DA0006FF00001DDE7000080B5AFF30080024A6C
:101DB00011001820ABBEFBE7260002002DE9F84316
:101DC0000646DFF8A8543078C10748D5686800F0A7
:101DD0000C00042807D0686800F00C0008280BD11C
:101DE0006868C10308D52868810338D57068002861
:101DF00040F0BE80012067E17068B0F5803F04D1FB
:101E0000286840F48030286014E008B928680AE0A7
:101E1000B0F5A02F286806D140F4802028602968FA
:101E200041F4803105E020F480302860296821F4F5
:101E300080212960706868B100F038FA044628688B
:101E4000810300F1958000F031FA001B6528F6D37C
:101E5000032039E100F02AFA04462868810340F1A2
:101E6000878000F023FA001B6528F6D3F0E700F026
:101E70001DFA001B022840F2AA80E9E7306970B120
:101E80000121396000F012FA04462868810700F148
:101E9000DC8000F00BFA001B0228F6D9D8E7386086
:101EA00000F004FA04462968880765D500F0FEF9B9
:101EB000001B0228F7D9CBE7086000F0F7F90446C9
:101EC000686A810777D500F0F1F9001B0228F7D97D
:101ED000BEE708B9286A09E00528286A06D140F05B
:101EE00004002862286A40F0010005E04008400034
:101EF0002862286A20F00400286241F28938F068DC
:101F000068B100F0D3F98146286A810700F1AA8000
:101F100000F0CCF9A0EB09004045F5D398E700F0BC
:101F2000C5F98146286A810740F19C8000F0BEF91E
:101F3000A0EB09004045F5D38AE700F0B7F9001B94
:101F4000022840F2A28083E700F0B0F9001B0228CB
:101F500040F2B5807CE700F0B9F8044628688101BA
:101F600040F1B18000F0A2F9001B0228F6D96FE71A
:101F70003078DFF8047381071BD5686810F00C0F08
:101F800009D0686800F00C0008287FF477AF686813
:101F9000C1033FF573AF2868810703D53069012875
:101FA0007FF428AF2968706921F0F80141EAC00187
:101FB0002960317808071DD5B069DFF8C012002804
:101FC0003FF47AAF01220A6000F070F90446686AB3
:101FD00081077FF54CAFDFF898020268D2084FF412
:101FE0007A71B2FBF1F1009100BF0098411E002808
:101FF0000091F9D13078410739D5E8690024C10052
:1020000009D4E86940F08050E8610124E86900F0F3
:10201000805000900098DFF86882D8F80000C10571
:102020001BD4D8F8000040F48070C8F8000000F01D
:102030003DF98146D8F80000C1050ED400F036F90C
:10204000A0EB09006528F5D302E72868716920F044
:10205000F80040EAC1002860ABE7F06801287FF48F
:1020600038AF3FE71CB1E86920F08050E861F069C3
:1020700048B3696801F00C0108293FF4BBAE02289F
:102080007FF469AF00F022F80446286881013FF52B
:1020900054AF306AB0F5803F05D16968B06821F46B
:1020A0000031014369606A68306A716A22F474120F
:1020B00002430A436A60012000F009F804462868D8
:1020C00081017FF541AF0020BDE8F2830020386632
:1020D00000F0ECB82DE9F8436A4F054638688946A8
:1020E00000F00700484502D200F086F878D1286851
:1020F0005E4C810712D5400703D5616841F4E06169
:1021000061602878010703D5606840F46050606022
:102110006168A86821F0F001014361602978C8076F
:1021200056D56868012802D121688A0303E0022895
:10213000216802D18A0102D452E08A0750D5616831
:10214000890840EA8100606041F2893800F0AEF809
:102150000646686801280BD1606800F00C0004286E
:1021600036D000F0A3F8801B4045F5D303202DE0C6
:10217000022837D1606800F00C00082828D000F051
:1021800095F8801B4045F5D3F0E72878410705D541
:102190006268E86822F4E062024362602978080716
:1021A00006D56168286921F4605141EAC001616087
:1021B00000F02CF8626834492D4BC2F30312895C9D
:1021C000C8401860002000F077F80020BDE8F283D6
:1021D000386800F007008145D7D200F00DF8D4D060
:1021E0000120F3E7606810F00C0FF1D000F05EF80A
:1021F000801B4045F6D3B9E73968C90849EAC101EF
:102200003960386800F00700484570471F49194891
:102210000A6802F00C03082B00D0704710B500BF0D
:102220001DA4C2F38343D203E35C08D50968584375
:102230001DA3C1F340415A5CB0FBF2F010BD18463B
:102240001349484310BD0A48104A006813681149F1
:10225000C3F3022206E006480C4A006813680D49E1
:10226000C3F3C222895CC8407047000000100240DE
:102270000C00002000127A0000004242800442421A
:10228000007000400020024010310008041002409D
:1022900000093D0010320008020304050607080982
:1022A0000A0B0C0D0E0F10100102000001484068CF
:1022B000704700BF0000002038B50D4D0D4B2A7847
:1022C00004464FF47A711868B1FBF2F2B0FBF2F0F9
:1022D00000F053F850B9102C08D2002221464FF0DC
:1022E000FF3000F023F8AC60002032BD012032BD89
:1022F000000000200C0000200901020006D5294A38
:1023000000F00F00104400F8041C7047264B1954CD
:102310007047264B19684FF6FF020002114000F487
:10232000E0600843224908431860704738B51F4BE6
:102330001C68C4F30223C3F10704052C28BF04243E
:102340001D1D072D34BF0023DB1E012505FA04F4F3
:10235000641E2140994005FA03F35B1E1A401143A5
:10236000BDE83440C8E7012200F01F01114BFFE730
:102370008A40400943F82020704710B5401EB0F154
:10238000807F01D3012010BD0B4C60600F214FF006
:10239000FF30FFF7B1FF0021A1600720206000207F
:1023A00010BD000018ED00E000E400E00CED00E0DE
:1023B0000000FA0500E100E010E000E02DE9F84F30
:1023C000074607F150060124307800250128884689
:1023D00091469A4608BF022000F0BF803470FFF794
:1023E00065FF71780129834609D07868B0F5827F4E
:1023F00002BFB8680028042901D00225A8E0B8F17E
:10240000000F1CBFB9F1000FBAF1000F01D1012577
:102410009EE07078012804BF052171707560C7F8CF
:102420003890A7F83EA0A7F83CA0C7F83080A7F8DE
:1024300036A0A7F834A03D647D6438680268510670
:1024400003D4026842F040020260F868DDF828A078
:10245000B0F5006F786835D100281CBFF88E0128D0
:1024600006D1386838F8021BC160F98E481EF8861C
:10247000F88E002804BFF88F002870D0002C1CBFF5
:10248000F88E00280AD0386881688A0706D538F89F
:10249000021BC1600024F88E411EF986F88F38B106
:1024A00000F069F804D5C06829F8020B00F067F85D
:1024B0001AF1010FDCD0FFF7F9FEA0EB0B0050453D
:1024C000D6D356E000281CBFF88E012806D1386804
:1024D00018F8011B0173F98E481EF886F88E002843
:1024E00004BFF88F00283AD0002C1CBFF88E0028BB
:1024F0000AD0386881688A0706D518F8011B01736D
:102500000024F88E411EF986F88F38B100F033F8B8
:1025100004D5C06809F8010B00F031F81AF1010F79
:10252000DCD0FFF7C3FEA0EB0B005045D6D320E074
:102530005A465146384600F078F818B12020012557
:10254000706005E0B86818B90095396800F021F8A6
:1025500001217170002030702846BDE8F28FCDF85F
:1025600000B0534601220221384600F018F8002836
:10257000DED00325ECE738688168CA07704701247C
:10258000F98F4A1EFA877047016821F04001016007
:102590007047CA68009289680091009870472DE9D9
:1025A000F041069F05460E4690461C462868816805
:1025B0003140B1420CBF01200020404532D014F11F
:1025C000010FF3D024B1FFF771FEC01BA042EDD381
:1025D0002868416821F0E00141606868B0F5827FB9
:1025E00009D1A868B0F5004F18BFB0F5806F02D1CF
:1025F0002868FFF7C9FFA86AB0F5005F0AD129680B
:102600000A684DF6FF7002400A602868016841F4CC
:102610000051016005F1500001214170002202705B
:10262000032000E00020BDE8F0811CB500920B46BD
:10263000044600228021FFF7B2FF10B100F002F83B
:10264000032016BD606D40F02000606570470000FB
:1026500030B508B9012030BD0468DFF8A0110919B0
:10266000142200F13803B1FBF2F292009A600222C8
:10267000DFF88C11596080F8212025684168826854
:102680006FF30D150D43C168154302690D43416990
:10269000154382690D43C16915430D43256000242C
:1026A0001C6000F002F8002030BD012280F82120DB
:1026B00080F8204070472DE9F84F00F128020427E8
:1026C0005169554BD1F800E0056854492E68D2F89D
:1026D00018A0504CDFF83881DFF83091DFF828B1CE
:1026E000DFF820C107FA0AF71EEA070F2DD0770797
:1026F0002BD52E68B60603D42E6826F004062E606D
:102700000568654508BF042318D05D4508BF402310
:1027100014D04D4508BF4FF480630FD0454508BF26
:102720004FF480430AD0A54208BF4FF4802305D060
:102730009D420CBF4FF480034FF080630B605168E3
:10274000002958D0BDE8F44F0847022707FA0AF7D6
:102750001EEA070F32D0B70730D52E68B60606D46A
:102760002E6826F00A062E60012580F821500568A3
:10277000654508BF022318D05D4508BF202314D04B
:102780004D4508BF4FF400730FD0454508BF4FF4C7
:1027900000530AD0A54208BF4FF4003305D09D4234
:1027A0000CBF4FF400134FF000730B60002180F852
:1027B00020101168F9B1BDE8F44F0847082101FA6B
:1027C0000AF11EEA010F16D0310714D52B6823F049
:1027D0000E032B600124916953698C405C600121D8
:1027E000116180F82110002180F82010916811B14A
:1027F000BDE8F44F0847BDE8F18F0000F8FFFDBFCA
:1028000000000240080002401C000240300002406C
:1028100044000240580002406C00024004000240A4
:102820002DE9F843024600200025604BDFF8809137
:1028300001270E68AF403E40BE4240F0AC804C687D
:102840006CB3012C20D0022C23D0032C32D0112CBD
:102850001CD0122C20D0DFF85CE174451CBFDFF8DF
:1028600058E174451BD0DFF854E174451CBFDFF814
:1028700050E1744513D0DFF84CE174451CBFDFF81C
:1028800048E174450BD016E0C86814E0C868001D24
:1028900011E0C86808300EE0C8680C300BE08868AA
:1028A00008B9042007E0012819BF08205761082053
:1028B000176100E00020B6F5807F03D294464FEA0E
:1028C000850E05E0A5F1080402F1040C4FEA840E20
:1028D0000F27DCF8008007FA0EF428EA040400FA57
:1028E0000EFE4EEA0404CCF800404C68E40052D5D9
:1028F000D9F80040DFF8D4E044F00104C9F8004002
:102900004FEA950CD9F8004004F0010400944FEA16
:102910008508009C5EF82C4008F00C0807FA08F7C0
:1029200024EA07072A4CA24208BF00240ED0294CF3
:10293000A24208BF012409D0274CA24208BF0224AA
:1029400004D0264CA2420CBF0324042404FA08F449
:1029500027434EF82C70F7434C68E4031C684CBFC7
:1029600034433C401C604C68A4035C684CBF344357
:102970003C405C604C68E4029C684CBF34433C4083
:102980009C604C68A40203D5DF683E43DE6002E031
:10299000DE683740DF606D1C0F2D7FF649AFBDE864
:1029A000F18302B90904016170470000000401408D
:1029B0001810024000001110000012100000211039
:1029C0000000221000003110000032100800014009
:1029D00000080140000C01400010014000140140BB
:1029E00038B5040001D1012032BD00F021F808B94A
:1029F00000F022F800F012F800F023F8FFE7416140
:102A000000F001F832BD2068C16841F40051C16096
:102A10000020686020216970A970704724206870C8
:102A20002068C16821F40051C160204600F013B84D
:102A300004F138056878704700212970204600F0BD
:102A400098B82068016921F49041016120684169CA
:102A500021F02A0170472DE9F047044664252268D9
:102A60001169E06821F44051014311611926D368CE
:102A70003249A0680B402169034360690B4303435B
:102A8000D3605169A06921F4407101432C48516120
:102A900082420ED1FFF7DFFB0746FFF7DCFB8046E3
:102AA000FFF7D9FB8146FFF7D6FB8246FFF7D3FB42
:102AB0000DE0FFF7C8FB0746FFF7C5FB8046FFF7B1
:102AC000C2FB8146FFF7BFFB8246FFF7BCFB616894
:102AD00089007743B7FBF1F36422B3FBF2F206FB04
:102AE00008F3B3FBF1F706FB09F3B3FBF1FCAE46C9
:102AF000BCFBFEFE05FB1E773F0132376423B7FBAC
:102B0000F3F303F0F00303EB021306FB0AF746436B
:102B1000B7FBF1F2B6FBF1F06421B0FBF1F105FB7C
:102B200011252D0132356420B5FBF0F0216800F04D
:102B30000F00C3188B60BDE8F0870000F3E9FFFFCA
:102B40000038014080B53C483C4901604FF4E13217
:102B500000230C2142608360C36003614161836193
:102B6000C361FFF73DFF18B1BDE8014000F0CFB8E9
:102B700001BD78B585B0044601A8102100F0ECF83D
:102B800025682E4EB54254D12D482E4D01682E4E4B
:102B900041F480410160026802F480420092009991
:102BA000026842F0040202604FF40071006800F015
:102BB00004000090022200980191029203210491E6
:102BC000284601A9FFF72CFE4FF4806000210190F8
:102BD00002910391284601A9FFF722FE1B4D05F142
:102BE0001400306000218020F0607160B1603161BC
:102BF0007161B161F1613046FFF72AFD08B100F063
:102C000086F8102000216663B064F164802030658E
:102C10007165B165F16531667462756406F14400F1
:102C2000FFF716FD08B100F072F806F144002063CA
:102C3000B46606B070BD00000802002000380140F4
:102C40001810024000080140D80000204400024053
:102C500002490A681306FCD54860704700380140F5
:102C60001CB500208DF8000000F07AF800F024F880
:102C700000F088F800F0CCF8FFF764FF00F0E8F807
:102C80006946422000F03EF99DF8000025A4122874
:102C90000CBF0FF2A8000FF2780000F06FF99DF85A
:102CA0000010204600F06AF929A000F067F94FF4FF
:102CB0007A7000F077F9F7E700B58FB005A8282102
:102CC00000F04AF86846142100F046F84FF48031CD
:102CD0000022069107920D91012005900990022291
:102CE0004FF4E0110C920E9105A8FFF767F802214E
:102CF00001910F204FF48061009000220391029215
:102D0000049202216846FFF7E5F90FB000BD704755
:102D10004C6F52612072656164204572726F72203F
:102D2000210D0A004C6F526120526567566572731F
:102D3000696F6E203D2025640D0A00004C6F5261C2
:102D40002072656164206F6B20210D0A0000000075
:102D5000515151510D0A0000002200F037B9000016
:102D600080B50748016841F0100101600320FFF7BA
:102D7000D0FA0020FFF7A0FA00F042F9002002BDCF
:102D80000020024018B585B068461021FFF7E4FF27
:102D90001C48046844F02004046001681A4C01F0E7
:102DA000200104910499026842F004020260036861
:102DB00003F0040304930499026842F008020260DD
:102DC0000022006800F008000490102104982046BA
:102DD000FFF7E7FD102100910122019200210291ED
:102DE0000222039269462046FFF71AFD1B200021AC
:102DF00000900191029169460448FFF711FD06B069
:102E000010BD00001810024000080140000C0140F5
:102E100080B50E48016841F00101016000220068A0
:102E200000F001000090002100980E20FFF77EFACC
:102E30000E20FFF798FA002200210F20FFF776FA04
:102E4000BDE802400F20FFF78EBA00BF1410024009
:102E500080B52848284901604FF4827220214260E1
:102E6000C16100234FF400720A218360C3600361D3
:102E700043618261036243628362C16200F0E2F8EF
:102E800018B1BDE80140FFF742BF01BD30B585B0C4
:102E9000044601A81021FFF75FFF2468164DAC42DD
:102EA00026D11648164C016841F480510160026831
:102EB00002F4805200920099026842F0040202601B
:102EC000A021006800F00400009002220098019107
:102ED000029203210491204601A9FFF7A1FC4020A2
:102EE0000021019002910391204601A9FFF798FC6F
:102EF00005B030BD600100200030014018100240D4
:102F0000000801400122FFE7F8B500F016F804F0D0
:102F10007F0000F01BF8002405E0002000F016F808
:102F2000E1B2641C6854E0B2B042F6D33846BDE862
:102F3000F84001221021FFF734BD04460D46164625
:102F40000C4F002210213846FFF72BBD01B582B08F
:102F500000204FF6FF718DF804000091012301AAB3
:102F600002A90548FFF72AFA08B100200EBD9DF816
:102F700004000EBD00080140600100200EB4C0B581
:102F8000024603A800210190009101AB01210448F1
:102F900078440C30FDF7AAF806BC5DF810FB00BFC2
:102FA0003302000038B50446FFF780F914F1010F31
:102FB000054602D0044908780419FFF777F9401B49
:102FC000A042FAD331BD00BF0000002000B500BF11
:102FD000130096469446103928BFA0E80C50FAD842
:102FE0005FEA417C28BF0CC048BF40F8042BC907EA
:102FF00028BF20F8022B48BF00F8012B00BD0000BD
:103000000E4881B0016841F001010160026802F0E0
:10301000010200920099426842F08052426040688A
:1030200000F08050009000980548016821F0E061B0
:1030300041F00071016001B0704700BF18100240FC
:103040000400014010B5040001D1012010BD002191
:10305000A16294F8510010B92046FFF717FF022033
:1030600084F851002068016821F040010160626825
:10307000A168E06823680A432169024360690A4342
:10308000A169024301F40071E0690A43216A024325
:10309000A06A0A4302431A60A169606A2268090CA7
:1030A00001F00401014351602168E06A0861206871
:1030B000C16921F40061C16100206065012184F8CB
:1030C000511010BD10B50E4A0E49106840F00100B5
:1030D000106053680C480B4053601468044014603F
:1030E000116821F4802111604FF41F01506820F411
:1030F000FE00506091604FF00060044A106010BD07
:10310000001002400000FFF8FFFFF6FE08ED00E0AF
:103110000000000000000000010203040607080987
:103120007047FEE7FEE7FEE7FEE77047704770472F
:1031300000F00AB80248FFF7BEBA0248FFF7BBBA70
:103140001C010020D800002002494A680878821833
:103150004A6070470000002010B5074979441831D3
:10316000064C7C44163404E00A68081D1144884764
:103170000146A142F8D110BD080000002400000063
:10318000BBDFFFFF74010000D8000020000000003A
:10319000A3DEFFFF2E010000A200000000000020BF
:1031A00000F00DF8002801D0FFF7D6FFAFF3008044
:1031B0000020AFF30080FFF753FD00F002F801207C
:1031C000704700F001B8000007463846FEF7ECFDF6
:1031D000FBE738B504460D46284600F005F8A8423E
:1031E00018BF0024204632BD0149FFF731BD00BFA2
:1031F000900000200148804701480047C530000882
:1032000005320008AFF30080AFF30080FFF7C8FF7E
:10321000000000000102030400002E004300FFF73D
:10322000FEBFFFF7FEBFFFF7FEBFFFF7FEBFFFF7D2
:10323000FEBFFFF7FEBFFFF7FEBFFFF7FEBFFFF7C2
:10324000FEBFFFF7FEBFFFF7FEBFFFF7FEBFFFF7B2
:10325000FEBFFFF7FEBFFFF7FEBFFFF7FEBFFFF7A2
:10326000FEBFFFF7FEBFFFF7FEBFFFF7FEBFFFF792
:10327000FEBFFFF7FEBFFFF7FEBFFFF7FEBFFFF782
:10328000FEBFFFF7FEBFFFF7FEBFFFF7FEBFFFF772
:10329000FEBFFFF7FEBFFFF7FEBFFFF7FEBFFFF762
:1032A000FEBFFFF7FEBFFFF7FEBFFFF7FEBFFFF752
:1032B000FEBFFFF7FEBFFFF7FEBFFFF7FEBFFFF742
:1032C000FEBF43010001221008F00507A24A0418BE
:1032D0003200080452FF01F2001A14100100001C11
:1032E0000C214C1148F3162000012002FD110008AA
:1032F0002C43EB113C2101200A02040101B801001A
:103300002008020020082104211B610812D460F269
:0333100012C06484
:0400000508003205B8
:00000001FF
