:020000040800F2
:10000000E004002045010008971100085110000885
:1000100095110008DD0100081D1500080000000012
:10002000000000000000000000000000BB110008FC
:10003000DF01000800000000B9110008BD11000830
:100040005F0100085F0100085F0100085F01000810
:100050005F0100085F0100085F0100085F01000800
:100060005F0100085F0100085F0100085F010008F0
:100070005F0100085F0100085F0100085F010008E0
:100080005F0100085F0100085F0100085F010008D0
:100090005F0100085F0100085F0100085F010008C0
:1000A0005F0100085F0100085F0100085F010008B0
:1000B0005F0100085F010008591200085F01000895
:1000C0005F0100085F0100085F0100085F01000890
:1000D0005F0100085F0100085F0100085F01000880
:1000E0005F0100085F0100085F0100085F01000870
:1000F0005F0100085F0100085F0100085F01000860
:100100005F0100085F0100085F0100085F0100084F
:100110005F0100085F0100085F0100085F0100083F
:100120005F0100085F0100085F0100085F0100082F
:10013000DFF80CD000F040F800480047F116000846
:10014000E00400200648804706480047FEE7FEE737
:10015000FEE7FEE7FEE7FEE7FEE7FEE7FEE7FEE777
:100160001112000831010008D2B201E000F8012BA1
:10017000491EFBD270470022F6E710B513460A4627
:1001800004461946FFF7F0FF204610BD30B50B4678
:10019000014600202022012409E021FA02F59D42B7
:1001A00005D303FA02F5491B04FA02F52844151E8B
:1001B000A2F10102F1DC30BD064C074D06E0E0681B
:1001C00040F0010394E8070098471034AC42F6D39E
:1001D000FFF7B2FF3417000854170008FEE7704716
:1001E0007047000070B5044600F008F90546601C31
:1001F00002D004480078044400F000F9401BA042FB
:10020000FAD370BD080000202DE9F84FDFF8B8A13F
:1002100000220AF1040B144601274FF00F090BF1DD
:10022000040E00BF0B6807FA04F52B40AB4274D1F3
:10023000DFF898C14E68A6EB0C0866452BD00DDCA4
:10024000032E34D005DC36B3012E19D0022E2FD167
:100250001BE0112E16D0122E2AD119E0B8F5881FF6
:1002600019D006DCB8F5803F15D0B8F5801F1FD136
:1002700011E0B8F5001F0ED0B8F5041F18D10AE040
:10028000CA6815E0CA68121D12E0CA6808320FE099
:10029000CA680C320CE08A682AB1012A4FF00802C1
:1002A00003D0456104E0042202E0056100E0002281
:1002B000FF2B01D8064601E000F104064FEA840551
:1002C00001D9A5F12005D6F800C009FA05F82CEAF5
:1002D000080C02FA05F54CEA050CC6F800C04D689A
:1002E000ED006AD53A4DAE6946F00106AE61AD69E2
:1002F00024F0030605F001050095364D06EB050CCC
:10030000DCF80850A6074FEA167809FA08F6B54354
:10031000314EB04202D100261AE04EE02F4EB042DC
:1003200001D1012614E02E4EB04201D102260FE089
:100330002C4EB04201D103260AE02B4EB04201D12F
:10034000042605E0294EB04201D1052600E006262C
:1003500006FA08F62E43CCF808604D68DAF800601B
:10036000ED03554601D51E4300E09E432E604D68C7
:10037000AD0305D5DBF800601E43CBF8006004E058
:10038000DBF800509D43CBF800504D68DEF800606C
:10039000ED02754601D51E4300E09E432E604D6878
:1003A000AD0205D5084D0C352E681E432E6004E0C5
:1003B000054E0C3635689D433560641C102CFFF4E7
:1003C00031AFBDE8F88F00000004014000001110BB
:1003D000001002400000014000080140000C0140F4
:1003E000001001400014014000180140001C0140B1
:1003F0000AB1016170470904FBE700000148806809
:10040000704700000800002002488168027811440B
:100410008160704708000020074810B5016841F06E
:1004200010010160032000F073F8002000F006F8CE
:1004300000F024F8002010BD0020024070B50D4DE2
:1004400004464FF47A712878B1FBF0F00A49096844
:10045000B1FBF0F000F0FCFA48B9102C07D20022F2
:100460002146501E00F034F800206C6070BD012061
:1004700070BD000008000020140000200C4808B5E2
:10048000816941F001018161816901F001010091FF
:10049000C16941F08051C161C06900F08050009095
:1004A0000448416821F0E06141F00071416008BDFD
:1004B000001002400000014000F01F0201219140A5
:1004C0004009800000F1E020C0F8001170470000F2
:1004D000F0B40E4B1B680C46C3F30223C3F10705AF
:1004E000042D00D90425191D072901D2002300E09D
:1004F000DB1E012606FA05F1491E214099409E4067
:10050000761E16403143F0BC00F046BE0CED00E014
:10051000064900F0070208684FF6FF03184040EA5A
:100520000220034A10430860704700000CED00E011
:100530000000FA052DE9F047DFF8548105460E4624
:10054000D8F8000000F00700B0420CD2D8F8001034
:1005500021F007013143C8F80010D8F8000000F07E
:100560000700B0426FD128684A4C810712D5400776
:1005700003D5606840F4E06060602878000703D528
:10058000606840F4605060606068A96820F0F00026
:10059000084360602878C00744D06868012816D0F6
:1005A0002168022816D0890700294CDA616821F0F9
:1005B000030101436160FFF721FF6968074641F2CB
:1005C000883001290ED00229814618D026E0216802
:1005D0008903E9E78901E7E7FFF710FFC11B4945F8
:1005E00001D918E081466068C0F381000128F3D189
:1005F00018E000BFFFF702FFC11B49450BD8606838
:10060000C0F381000228F5D10CE000BFFFF7F6FE31
:10061000C11B494502D90320BDE8F087606810F08E
:100620000C0FF3D1D8F80010404601F00701B14299
:100630000BD9016821F0070131430160006800F027
:100640000700B04201D00120E6E72878400705D531
:100650006068E96820F4E06008436060287800077B
:1006600006D56068296920F4605040EAC1006060E6
:1006700000F036F86168084AC1F30311515CC840C4
:10068000064908600020FFF7D9FE0020C4E70000FB
:1006900000200240001002401C1700081400002037
:1006A0000448054900684968044AC1F30221515CC5
:1006B000C840704714000020001002402C170008AA
:1006C0000448054900684968044AC1F3C221515CE5
:1006D000C840704714000020001002402C1700088A
:1006E00012A185B00FC98DE80F0014A0144A00684C
:1006F00004905168134801F00C03042B10D0082B10
:100700000ED1C1F38343C9031DF803000AD5516814
:1007100004AAC1F34041515C0A4A5043B0FBF1F0D6
:1007200005B0704708494843FAE700000203040592
:10073000060708090A0B0C0D0E0F1010010200002D
:100740000010024000127A0000093D002DE9F84F28
:1007500004460078B94DC00748D06868C0F38100EE
:10076000012807D06868C0F38100022809D16868B1
:10077000C00306D52868800338D5606800286FD08C
:1007800034E06068B0F5803F0BD010B1B0F5A02F19
:1007900011D0286820F480302860286820F4802058
:1007A00002E0286840F480302860606888B1FFF774
:1007B00025FE064609E0286840F480202860F0E71E
:1007C000FFF71CFE801B642875D828688003F7D5C6
:1007D0000CE0FFF713FE064605E000BFFFF70EFE34
:1007E000801B6428F0D828688003F7D42078944EC2
:1007F00080074FF001094FF000083BD5686810F002
:100800000C0F07D06868C0F38100022809D168681E
:10081000C00306D42868800714D5206901281FD199
:1008200010E02069B0B1C6F80090FFF7E7FD074679
:1008300005E000BFFFF7E2FDC01B0228C4D828680E
:100840008007F7D52868616920F0F80040EAC10008
:1008500028600FE0C6F80080FFF7D0FD074606E0ED
:10086000E9E000BFFFF7CAFDC01B022823D82868B3
:100870008007F7D4207800072CD57248A169D9B138
:10088000C0F80090FFF7BAFD074604E0FFF7B6FD99
:10089000C01B02280FD8686A8007F7D56A484FF452
:1008A000FA510068B0FBF1F0009000BF0098411EC3
:1008B0000091FAD20EE080E0C0F80080FFF79EFDC4
:1008C000074604E0FFF79AFDC01B022875D8686A46
:1008D0008007F7D42078400760D5E8690027C0007A
:1008E00008D4E86940F08050E861E869012700F029
:1008F0008050009055480168C90513D401688346AB
:1009000041F480710160FFF779FD824606E000BF87
:10091000FFF774FDA0EB0A0064284ED8DBF8000056
:10092000C005F5D5E06801280AD008B1052813D024
:10093000286A20F001002862286A20F0040002E002
:10094000286A40F001002862E06841F2883B98B1D3
:10095000FFF754FD82460BE0286A40F0040028624D
:10096000EEE700BFFFF74AFDA0EB0A0159455AD850
:10097000286A8007F6D50CE0FFF740FD824605E0C7
:10098000FFF73CFDA0EB0A0159454CD8286A8007C7
:10099000F6D41FB1E86920F08050E861E06988B3BF
:1009A0006968C1F38101022945D00228C6F8608038
:1009B00004D0FFF723FD044638E034E0FFF71EFDC6
:1009C000074604E0FFF71AFDC01B02282BD8286851
:1009D0008001F7D4206AB0F5803F05D16868A1682E
:1009E00020F4003008436860D4E9080108436968CE
:1009F00021F4741108436860C6F86090FFF7FEFCAC
:100A0000044606E015E000BFFFF7F8FC001B0228D3
:100A100009D828688001F7D50BE000BFFFF7EEFC8E
:100A2000001B022802D90320BDE8F88F2868800146
:100A3000F4D40020F8E70120F6E70000001002409F
:100A40000000424280044242140000200070004036
:100A500010B5401EB0F1807F01D3012010BD4FF0D2
:100A6000E02460610F21601700F096FB0020A06178
:100A700007202061002010BD7047704730B590F806
:100A80003C20012A20D0012280F83C20022380F85B
:100A90003D3003685C6824F070045C6003685C6847
:100AA0000D682C435C6003689C6824F080049C60A3
:100AB00003689C6849680C439C6080F83D200021D5
:100AC00080F83C10084630BD022030BD70B5254D81
:100AD00001682A6891422FD1007F01282CD1224C35
:100AE0004FF6F576607840B3012825D100212846DD
:100AF00000F004FAE0802868016A31400162286849
:100B0000016A01620021284600F01CF9E088A188F2
:100B10008842A0EB010001D200F5803080B26080F5
:100B2000AA2148436421B0FBF1F0C1B221700FA0AB
:100B300000F0F6FC0020607070BD0021094800F054
:100B4000DDF9A0802868016A314001622868016AE5
:100B500041F0020101620021024800F0F3F8012097
:100B6000E9E700001C000020000000206469735FBA
:100B7000666D203D202564636D0D0A002DE9F0416E
:100B8000044690F83C000D4601283BD0012684F82D
:100B90003C60022084F83D009AB3042A44D02068C7
:100BA000082A53D0D5E90027E968036A23F4805363
:100BB0000362D0F81CC0036A2CF4407C4CEA07277F
:100BC0004FF6FF7C27F470470CEA01313943770375
:100BD00023F4005307EA02321A43C161026220681B
:100BE000C16921F44061C1612068C169AA6841EA14
:100BF0000221C16184F83D60002084F83C00BDE81A
:100C0000F08101E00220FAE7D5E90012EB682068E4
:100C100000F07AFB2068816921F00C018161206875
:100C20008169AA6811430FE0D5E90012EB682068DA
:100C300000F0A0FB2068816921F440618161206897
:100C40008169AA6841EA02218161D3E7D5E9002CD4
:100C50002F7B016A21F480710162C169036A21F06E
:100C6000030141EA0C0121F0F00C39074FF4007741
:100C70004CEA116123F4007307EA02221A43C161AE
:100C800002622068C16921F00C01C1612068C1695C
:100C9000AA681143ADE710B5040003D094F83D00F5
:100CA00010B107E0012010BD002084F83C00204670
:100CB00000F00CF8022084F83D00211D206800F0AF
:100CC000D1FA012084F83D00002010BD00B585B0A8
:100CD0000021009101910291039100681549884219
:100CE00026D11548C16941F00401C161C16901F013
:100CF00004010491816941F02001816180696946A4
:100D000000F0200004904FF4805000900B48FFF753
:100D10007BFA0B48416841F0E06141F48051416049
:100D2000002211461E20FFF7D3FB1E20FFF7C4FB55
:100D300005B000BD00080040001002400014014052
:100D40000000014010B50268044631B1042908D002
:100D5000082915D00C2908D116E0D06840F002000F
:100D600002E0D06840F00400D0600122206800F06A
:100D7000BFFA2068016841F001010160002010BD48
:100D8000D06840F00800EFE7D06840F01000EBE7D3
:100D900070B50446006801694FF00005C943890732
:100DA00015D4C168C943890711D4E91E0161012026
:100DB0002077206880698007204602D0FFF786FEF2
:100DC00004E000F098F8204600F096F825772068B7
:100DD0000169C943490717D4C168C943490713D4F6
:100DE0006FF004010161022020772068806910F40F
:100DF000407F204602D0FFF769FE04E000F07BF858
:100E0000204600F079F8257720680169C943090771
:100E100016D4C168C943090712D46FF008010161F3
:100E2000042020772068C0698007204602D0FFF7A1
:100E30004DFE04E000F05FF8204600F05DF82577F5
:100E400020680169C943C90617D4C168C943C906E6
:100E500013D46FF010010161082020772068C06969
:100E600010F4407F204602D0FFF730FE04E000F08F
:100E700042F8204600F040F8257720680169C94310
:100E8000C90708D1C168C943C90704D1891E0161D6
:100E9000204600F032F820680169C943090609D4E8
:100EA000C168C943090605D46FF08001016120467D
:100EB000FFF7E2FD20680169C943490609D4C1680A
:100EC000C943490605D46FF040010161204600F096
:100ED00037F820680169C94389060BD4C168C94342
:100EE000890607D46FF0200101612046BDE87040FB
:100EF000FFF7C3BD70BD70477047704790F83C3036
:100F00000022012B0AD0012380F83C3041B1042992
:100F100009D008290AD00C290DD10AE00220704717
:100F200001684A6B07E001688A6B04E00168CA6BDC
:100F300001E001680A6C002180F83C1010467047FF
:100F4000704770B5040004D094F83900002510B142
:100F500006E0012070BD84F83850204600F022F8E9
:100F6000242084F839002068C16821F40051C16050
:100F7000204600F01BFA2068016921F490410161CC
:100F80002068416921F02A0141612068C16841F46B
:100F90000051C160E563202084F8390084F83A00EC
:100FA000002070BD70B586B00024009401940294B6
:100FB0000394234E0368234902200322224DB342A7
:100FC00019D18B6943F480438B618B6903F48043AF
:100FD00004938B6943F004038B618969039201F0E8
:100FE000040104910102CDE9001069462846FFF78B
:100FF0000BF928151BE0154EB3421FD1CB6943F402
:101000000033CB61CB6903F4003304938B6943F065
:1010100004038B618969039201F0040104910421A6
:10102000CDE9001069462846FFF7EEF80820CDE923
:101030000004694628460294FFF7E6F806B070BD42
:101040000038014000100240000801400044004008
:10105000FEE7000070B586B00024144800940194A7
:1010600002940394816941F004018161816901F076
:1010700004010491816941F02001816180690C4E75
:1010800000F020004FF4005504900022294630461D
:10109000FFF7AEF901200095CDE90104022003908D
:1010A00069463046FFF7B0F806B070BD0010024048
:1010B0000014014010B586B000241948059404942A
:1010C00000940194029415490394016041F61F4174
:1010D000C0E901144FF6FF71C0E903148461FFF702
:1010E000DAFD08B1FFF77CF8049404A90C480594D4
:1010F000FFF7C4FC08B1FFF773F80120CDE9004009
:1011000002940022694606480394FFF737FD002841
:1011100001D0FFF765F806B010BD000000080040E0
:101120001C0000200C4810B50A4901604FF4E13161
:101130004160002181600C22C160C0E9041281611C
:10114000C161FFF7FEFE002803D0BDE81040FFF7A5
:1011500047B810BD003801405C0000200C4810B5B5
:101160000A4901604FF4E1314160002181600C22A5
:10117000C160C0E904128161C161FFF7E2FE00288D
:1011800003D0BDE81040FFF72BB810BD004400406D
:101190009C000020FEE770470907090E002806DAC8
:1011A00000F00F0000F1E02080F8141D704700F1FE
:1011B000E02080F80014704770477047FFF724B9AB
:1011C00030B58FB028216846FEF7D5FF14210AA854
:1011D000FEF7D1FF01210804CDE90010002402949C
:1011E00002250491CDE907504FF4E01009906846BC
:1011F000FFF7ACFA0F20CDE90A056802CDE90C40F3
:1012000002210AA80E94FFF795F90FB030BD000037
:101210000D48016841F00101016041680B4A11402D
:10122000416001680A4A11400160016821F480218F
:101230000160416821F4FE0141604FF41F018160AB
:101240000449C00308607047001002400000FFF826
:10125000FFFFF6FE08ED00E00148FFF799BD000032
:101260001C000020F0B502681C4B1D4D1D4E1E4F8A
:101270001E4C4FF0804C984209D0A04207D06045E8
:1012800005D0A84203D0B04201D0B84204D122F028
:10129000700E4A6842EA0E02984209D0A04207D076
:1012A000604505D0A84203D0B04201D0B84203D176
:1012B00022F44075CA682A4322F080054A692A430D
:1012C00002608A68C2620A688262984201D0A042C3
:1012D00001D10969016301214161F0BD002C014088
:1012E0000004004000080040000C004000340140B1
:1012F00010B50123046A8B409C430462036A8A4050
:101300001343036210BD000070B5046A24F00104A9
:1013100004628469056A124EB0420ED0114EB0428A
:101320000BD0B0F1804F08D00F4EB04205D00F4E19
:10133000B04202D00E4EB04203D124F00304144355
:1013400001E044F001041A0724F0F00444EA1262B8
:1013500025F00A0301F00A0119438261016270BDA0
:10136000002C01400034014000040040000800400F
:10137000000C004030B5046A24F010040462846953
:10138000056A24F4407444EA022222F470444FF6C1
:10139000FF7202EA03322243A02425F0A00304EAEC
:1013A000011119438261016230BD00002DE9F04155
:1013B000044600680169E26821F44051114301616B
:1013C0002169A0680843616908432168CA6841F23D
:1013D0000C639A430243CA6020684169A26921F400
:1013E0004071114341614C4920686425322688428E
:1013F0003CD1FFF765F900EBC00101EB001061681B
:101400008900B0FBF1F7FFF75BF900EBC00101EBDE
:1014100000106168B0468900B0FBF1F0B0FBF5F058
:101420006FF01801484307EB800106EB0110B0FB99
:10143000F5F000F0F006FFF743F900EBC00101EB17
:10144000001061688900B0FBF1F0B0FBF5F006EB2D
:101450000016FFF735F900EBC00101EB00106168E1
:101460008900B0FBF1F7FFF72BF93BE0FFF718F924
:1014700000EBC00101EB001061688900B0FBF1F7DF
:10148000FFF70EF900EBC00101EB00106168B046F8
:101490008900B0FBF1F0B0FBF5F06FF018014843A4
:1014A00007EB800106EB0110B0FBF5F000F0F00651
:1014B000FFF7F6F800EBC00101EB0010616889004E
:1014C000B0FBF1F0B0FBF5F006EB0016FFF7E8F823
:1014D00000EBC00101EB001061688900B0FBF1F77F
:1014E000FFF7DEF800EBC00101EB00106168890036
:1014F000B0FBF1F0B0FBF5F06FF01801484307EBDB
:10150000800108EB0110B0FBF5F0216800F00F003E
:1015100030448860BDE8F08100380140FEE70000FB
:101520000FB4054B10B503A9044A029800F018F84F
:1015300010BC5DF814FB0000B51600081800002070
:1015400002E008C8121F08C1002AFAD1704770478C
:10155000002001E001C1121F002AFBD170470000EA
:101560002DE9FF4F89B09B460446002506E025285B
:101570000BD05A460B999047641C6D1C20780028AC
:10158000F5D10DB02846BDE8F08F0027B8460122FE
:10159000474900E0074314F8013F203B02FA03F0FB
:1015A0000842F7D120782E2819D114F8010F47F0FE
:1015B00004072A280ED06FF02F022078A0F1300106
:1015C00009290CD808EB880102EB410100EB010866
:1015D000641CF2E70A98641C50F8048B0A90207887
:1015E0000028CED0642808D0692806D075281ED0DF
:1015F0005A460B9990476D1C58E00A994FF00A091A
:1016000001C90A91002802DA40422D2102E0390581
:1016100004D52B218DF82010012103E0F90704D017
:101620002021F7E78A4608AE0DE00021FAE70A9983
:101630004FF00A0901C90A91F7E74946FEF7A6FDEE
:10164000303106F8011D0028F7D1ADEB060000F19E
:101650002009780701D44FF00108C84502DDA8EB46
:10166000090000E000208046002706E008A85A464E
:10167000C05D0B9990476D1C7F1C5745F6DB04E05D
:1016800030205A460B9990476D1CB8F10001A8F123
:101690000108F5DC05E016F8010B5A460B99904756
:1016A0006D1CB9F10001A9F10109F4DC641C65E7C6
:1016B0000928010003490A681206FCD50149091DE1
:1016C000086070470038014070B50122074D54038F
:1016D00021462846FEF78CFE1420FEF783FD2146A6
:1016E0002846BDE870400022FEF782BE001401408B
:1016F000FEF792FEFFF764FDFFF7ACFCFFF7DAFCA4
:10170000FFF710FDFFF72AFD00210348FFF71AFB42
:10171000FFF7DAFFFCE700001C00002000000000DB
:101720000000000001020304060708090000000091
:101730000102030454170008000000201C000000F0
:1017400040150008701700081C000020C4040000A9
:10175000501500080000000000000000010000001B
:10176000100000000000000000A24A040000000079
:0400000508000131BD
:00000001FF
